{
  "contractName": "DeDocs",
  "abi": [
    {
      "inputs": [],
      "stateMutability": "nonpayable",
      "type": "constructor"
    },
    {
      "anonymous": false,
      "inputs": [
        {
          "indexed": false,
          "internalType": "string",
          "name": "message",
          "type": "string"
        }
      ],
      "name": "DeDocs_deployed",
      "type": "event"
    },
    {
      "anonymous": false,
      "inputs": [
        {
          "indexed": false,
          "internalType": "address",
          "name": "user",
          "type": "address"
        },
        {
          "indexed": false,
          "internalType": "address",
          "name": "admin",
          "type": "address"
        },
        {
          "indexed": false,
          "internalType": "uint256",
          "name": "document_id",
          "type": "uint256"
        }
      ],
      "name": "Document_issued",
      "type": "event"
    },
    {
      "anonymous": false,
      "inputs": [
        {
          "indexed": false,
          "internalType": "uint256",
          "name": "document_id",
          "type": "uint256"
        },
        {
          "components": [
            {
              "internalType": "uint256",
              "name": "id",
              "type": "uint256"
            },
            {
              "internalType": "uint256",
              "name": "request_id",
              "type": "uint256"
            },
            {
              "internalType": "string",
              "name": "name",
              "type": "string"
            },
            {
              "internalType": "string",
              "name": "uid",
              "type": "string"
            },
            {
              "internalType": "string",
              "name": "ipfs_hash",
              "type": "string"
            },
            {
              "internalType": "string",
              "name": "issued_on",
              "type": "string"
            },
            {
              "internalType": "string",
              "name": "last_updated",
              "type": "string"
            },
            {
              "internalType": "address",
              "name": "admin",
              "type": "address"
            },
            {
              "internalType": "address",
              "name": "user",
              "type": "address"
            },
            {
              "internalType": "enum DeDocs.DEPARTMENT",
              "name": "department",
              "type": "uint8"
            }
          ],
          "indexed": false,
          "internalType": "struct DeDocs.Document",
          "name": "old_document",
          "type": "tuple"
        },
        {
          "components": [
            {
              "internalType": "uint256",
              "name": "id",
              "type": "uint256"
            },
            {
              "internalType": "uint256",
              "name": "request_id",
              "type": "uint256"
            },
            {
              "internalType": "string",
              "name": "name",
              "type": "string"
            },
            {
              "internalType": "string",
              "name": "uid",
              "type": "string"
            },
            {
              "internalType": "string",
              "name": "ipfs_hash",
              "type": "string"
            },
            {
              "internalType": "string",
              "name": "issued_on",
              "type": "string"
            },
            {
              "internalType": "string",
              "name": "last_updated",
              "type": "string"
            },
            {
              "internalType": "address",
              "name": "admin",
              "type": "address"
            },
            {
              "internalType": "address",
              "name": "user",
              "type": "address"
            },
            {
              "internalType": "enum DeDocs.DEPARTMENT",
              "name": "department",
              "type": "uint8"
            }
          ],
          "indexed": false,
          "internalType": "struct DeDocs.Document",
          "name": "new_document",
          "type": "tuple"
        },
        {
          "indexed": false,
          "internalType": "string",
          "name": "message",
          "type": "string"
        }
      ],
      "name": "Document_modified",
      "type": "event"
    },
    {
      "anonymous": false,
      "inputs": [
        {
          "indexed": false,
          "internalType": "address",
          "name": "user",
          "type": "address"
        },
        {
          "indexed": false,
          "internalType": "uint256",
          "name": "request_id",
          "type": "uint256"
        },
        {
          "indexed": false,
          "internalType": "enum DeDocs.DEPARTMENT",
          "name": "department",
          "type": "uint8"
        }
      ],
      "name": "Request_made",
      "type": "event"
    },
    {
      "inputs": [
        {
          "internalType": "address",
          "name": "",
          "type": "address"
        }
      ],
      "name": "admins",
      "outputs": [
        {
          "internalType": "address",
          "name": "id",
          "type": "address"
        },
        {
          "internalType": "string",
          "name": "name",
          "type": "string"
        },
        {
          "internalType": "enum DeDocs.DEPARTMENT",
          "name": "department",
          "type": "uint8"
        }
      ],
      "stateMutability": "view",
      "type": "function",
      "constant": true
    },
    {
      "inputs": [
        {
          "internalType": "uint256",
          "name": "",
          "type": "uint256"
        }
      ],
      "name": "all_documents",
      "outputs": [
        {
          "internalType": "uint256",
          "name": "id",
          "type": "uint256"
        },
        {
          "internalType": "uint256",
          "name": "request_id",
          "type": "uint256"
        },
        {
          "internalType": "string",
          "name": "name",
          "type": "string"
        },
        {
          "internalType": "string",
          "name": "uid",
          "type": "string"
        },
        {
          "internalType": "string",
          "name": "ipfs_hash",
          "type": "string"
        },
        {
          "internalType": "string",
          "name": "issued_on",
          "type": "string"
        },
        {
          "internalType": "string",
          "name": "last_updated",
          "type": "string"
        },
        {
          "internalType": "address",
          "name": "admin",
          "type": "address"
        },
        {
          "internalType": "address",
          "name": "user",
          "type": "address"
        },
        {
          "internalType": "enum DeDocs.DEPARTMENT",
          "name": "department",
          "type": "uint8"
        }
      ],
      "stateMutability": "view",
      "type": "function",
      "constant": true
    },
    {
      "inputs": [
        {
          "internalType": "uint256",
          "name": "",
          "type": "uint256"
        }
      ],
      "name": "all_requests",
      "outputs": [
        {
          "internalType": "uint256",
          "name": "id",
          "type": "uint256"
        },
        {
          "internalType": "address",
          "name": "user_id",
          "type": "address"
        },
        {
          "internalType": "string",
          "name": "subject",
          "type": "string"
        },
        {
          "internalType": "string",
          "name": "description",
          "type": "string"
        },
        {
          "internalType": "string",
          "name": "ipfs_hash",
          "type": "string"
        },
        {
          "internalType": "string",
          "name": "date",
          "type": "string"
        },
        {
          "internalType": "enum DeDocs.DEPARTMENT",
          "name": "department",
          "type": "uint8"
        },
        {
          "internalType": "enum DeDocs.REQUEST_CATEGORY",
          "name": "category",
          "type": "uint8"
        },
        {
          "internalType": "enum DeDocs.REQUEST_STATUS",
          "name": "status",
          "type": "uint8"
        },
        {
          "internalType": "uint256",
          "name": "document_id",
          "type": "uint256"
        },
        {
          "internalType": "string",
          "name": "remarks",
          "type": "string"
        }
      ],
      "stateMutability": "view",
      "type": "function",
      "constant": true
    },
    {
      "inputs": [
        {
          "internalType": "address",
          "name": "",
          "type": "address"
        },
        {
          "internalType": "uint256",
          "name": "",
          "type": "uint256"
        }
      ],
      "name": "documents",
      "outputs": [
        {
          "internalType": "uint256",
          "name": "",
          "type": "uint256"
        }
      ],
      "stateMutability": "view",
      "type": "function",
      "constant": true
    },
    {
      "inputs": [
        {
          "internalType": "address",
          "name": "",
          "type": "address"
        },
        {
          "internalType": "uint256",
          "name": "",
          "type": "uint256"
        }
      ],
      "name": "requests",
      "outputs": [
        {
          "internalType": "uint256",
          "name": "",
          "type": "uint256"
        }
      ],
      "stateMutability": "view",
      "type": "function",
      "constant": true
    },
    {
      "inputs": [],
      "name": "total_requests",
      "outputs": [
        {
          "internalType": "uint256",
          "name": "",
          "type": "uint256"
        }
      ],
      "stateMutability": "view",
      "type": "function",
      "constant": true
    },
    {
      "inputs": [
        {
          "internalType": "address",
          "name": "",
          "type": "address"
        }
      ],
      "name": "users",
      "outputs": [
        {
          "internalType": "address",
          "name": "id",
          "type": "address"
        },
        {
          "internalType": "string",
          "name": "name",
          "type": "string"
        },
        {
          "internalType": "string",
          "name": "dob",
          "type": "string"
        },
        {
          "internalType": "string",
          "name": "password",
          "type": "string"
        },
        {
          "internalType": "string",
          "name": "joined",
          "type": "string"
        },
        {
          "internalType": "uint256",
          "name": "total_requests",
          "type": "uint256"
        }
      ],
      "stateMutability": "view",
      "type": "function",
      "constant": true
    },
    {
      "inputs": [
        {
          "internalType": "string",
          "name": "_name",
          "type": "string"
        },
        {
          "internalType": "string",
          "name": "_dob",
          "type": "string"
        },
        {
          "internalType": "string",
          "name": "_password",
          "type": "string"
        },
        {
          "internalType": "string",
          "name": "_joined",
          "type": "string"
        }
      ],
      "name": "register_user",
      "outputs": [
        {
          "components": [
            {
              "internalType": "address",
              "name": "id",
              "type": "address"
            },
            {
              "internalType": "string",
              "name": "name",
              "type": "string"
            },
            {
              "internalType": "string",
              "name": "dob",
              "type": "string"
            },
            {
              "internalType": "string",
              "name": "password",
              "type": "string"
            },
            {
              "internalType": "string",
              "name": "joined",
              "type": "string"
            },
            {
              "internalType": "uint256",
              "name": "total_requests",
              "type": "uint256"
            }
          ],
          "internalType": "struct DeDocs.User",
          "name": "",
          "type": "tuple"
        }
      ],
      "stateMutability": "payable",
      "type": "function",
      "payable": true
    },
    {
      "inputs": [
        {
          "internalType": "string",
          "name": "_name",
          "type": "string"
        },
        {
          "internalType": "enum DeDocs.DEPARTMENT",
          "name": "_department",
          "type": "uint8"
        }
      ],
      "name": "register_admin",
      "outputs": [
        {
          "components": [
            {
              "internalType": "address",
              "name": "id",
              "type": "address"
            },
            {
              "internalType": "string",
              "name": "name",
              "type": "string"
            },
            {
              "internalType": "enum DeDocs.DEPARTMENT",
              "name": "department",
              "type": "uint8"
            }
          ],
          "internalType": "struct DeDocs.Admin",
          "name": "",
          "type": "tuple"
        }
      ],
      "stateMutability": "payable",
      "type": "function",
      "payable": true
    },
    {
      "inputs": [],
      "name": "get_departments",
      "outputs": [
        {
          "internalType": "string[4]",
          "name": "departments",
          "type": "string[4]"
        }
      ],
      "stateMutability": "pure",
      "type": "function",
      "constant": true
    },
    {
      "inputs": [
        {
          "internalType": "address",
          "name": "_address",
          "type": "address"
        }
      ],
      "name": "get_role",
      "outputs": [
        {
          "internalType": "enum DeDocs.ROLE",
          "name": "role",
          "type": "uint8"
        }
      ],
      "stateMutability": "view",
      "type": "function",
      "constant": true
    },
    {
      "inputs": [],
      "name": "get_all_requests",
      "outputs": [
        {
          "components": [
            {
              "internalType": "uint256",
              "name": "id",
              "type": "uint256"
            },
            {
              "internalType": "address",
              "name": "user_id",
              "type": "address"
            },
            {
              "internalType": "string",
              "name": "subject",
              "type": "string"
            },
            {
              "internalType": "string",
              "name": "description",
              "type": "string"
            },
            {
              "internalType": "string",
              "name": "ipfs_hash",
              "type": "string"
            },
            {
              "internalType": "string",
              "name": "date",
              "type": "string"
            },
            {
              "internalType": "enum DeDocs.DEPARTMENT",
              "name": "department",
              "type": "uint8"
            },
            {
              "internalType": "enum DeDocs.REQUEST_CATEGORY",
              "name": "category",
              "type": "uint8"
            },
            {
              "internalType": "enum DeDocs.REQUEST_STATUS",
              "name": "status",
              "type": "uint8"
            },
            {
              "internalType": "uint256",
              "name": "document_id",
              "type": "uint256"
            },
            {
              "internalType": "string",
              "name": "remarks",
              "type": "string"
            }
          ],
          "internalType": "struct DeDocs.Request[]",
          "name": "",
          "type": "tuple[]"
        }
      ],
      "stateMutability": "view",
      "type": "function",
      "constant": true
    },
    {
      "inputs": [],
      "name": "get_all_documents",
      "outputs": [
        {
          "components": [
            {
              "internalType": "uint256",
              "name": "id",
              "type": "uint256"
            },
            {
              "internalType": "uint256",
              "name": "request_id",
              "type": "uint256"
            },
            {
              "internalType": "string",
              "name": "name",
              "type": "string"
            },
            {
              "internalType": "string",
              "name": "uid",
              "type": "string"
            },
            {
              "internalType": "string",
              "name": "ipfs_hash",
              "type": "string"
            },
            {
              "internalType": "string",
              "name": "issued_on",
              "type": "string"
            },
            {
              "internalType": "string",
              "name": "last_updated",
              "type": "string"
            },
            {
              "internalType": "address",
              "name": "admin",
              "type": "address"
            },
            {
              "internalType": "address",
              "name": "user",
              "type": "address"
            },
            {
              "internalType": "enum DeDocs.DEPARTMENT",
              "name": "department",
              "type": "uint8"
            }
          ],
          "internalType": "struct DeDocs.Document[]",
          "name": "",
          "type": "tuple[]"
        }
      ],
      "stateMutability": "view",
      "type": "function",
      "constant": true
    },
    {
      "inputs": [
        {
          "internalType": "address",
          "name": "_address",
          "type": "address"
        }
      ],
      "name": "get_user_details",
      "outputs": [
        {
          "components": [
            {
              "internalType": "address",
              "name": "id",
              "type": "address"
            },
            {
              "internalType": "string",
              "name": "name",
              "type": "string"
            },
            {
              "internalType": "string",
              "name": "dob",
              "type": "string"
            },
            {
              "internalType": "string",
              "name": "password",
              "type": "string"
            },
            {
              "internalType": "string",
              "name": "joined",
              "type": "string"
            },
            {
              "internalType": "uint256",
              "name": "total_requests",
              "type": "uint256"
            }
          ],
          "internalType": "struct DeDocs.User",
          "name": "user",
          "type": "tuple"
        }
      ],
      "stateMutability": "view",
      "type": "function",
      "constant": true
    },
    {
      "inputs": [],
      "name": "get_user_requests",
      "outputs": [
        {
          "internalType": "uint256[]",
          "name": "_requests",
          "type": "uint256[]"
        }
      ],
      "stateMutability": "view",
      "type": "function",
      "constant": true
    },
    {
      "inputs": [],
      "name": "get_user_documents",
      "outputs": [
        {
          "internalType": "uint256[]",
          "name": "_documents",
          "type": "uint256[]"
        }
      ],
      "stateMutability": "view",
      "type": "function",
      "constant": true
    },
    {
      "inputs": [
        {
          "internalType": "enum DeDocs.DEPARTMENT",
          "name": "_department",
          "type": "uint8"
        },
        {
          "internalType": "string",
          "name": "_subject",
          "type": "string"
        },
        {
          "internalType": "string",
          "name": "_description",
          "type": "string"
        },
        {
          "internalType": "string",
          "name": "_ipfs_hash",
          "type": "string"
        },
        {
          "internalType": "enum DeDocs.REQUEST_CATEGORY",
          "name": "_request_category",
          "type": "uint8"
        },
        {
          "internalType": "string",
          "name": "_date",
          "type": "string"
        }
      ],
      "name": "make_request",
      "outputs": [
        {
          "components": [
            {
              "internalType": "uint256",
              "name": "id",
              "type": "uint256"
            },
            {
              "internalType": "address",
              "name": "user_id",
              "type": "address"
            },
            {
              "internalType": "string",
              "name": "subject",
              "type": "string"
            },
            {
              "internalType": "string",
              "name": "description",
              "type": "string"
            },
            {
              "internalType": "string",
              "name": "ipfs_hash",
              "type": "string"
            },
            {
              "internalType": "string",
              "name": "date",
              "type": "string"
            },
            {
              "internalType": "enum DeDocs.DEPARTMENT",
              "name": "department",
              "type": "uint8"
            },
            {
              "internalType": "enum DeDocs.REQUEST_CATEGORY",
              "name": "category",
              "type": "uint8"
            },
            {
              "internalType": "enum DeDocs.REQUEST_STATUS",
              "name": "status",
              "type": "uint8"
            },
            {
              "internalType": "uint256",
              "name": "document_id",
              "type": "uint256"
            },
            {
              "internalType": "string",
              "name": "remarks",
              "type": "string"
            }
          ],
          "internalType": "struct DeDocs.Request",
          "name": "",
          "type": "tuple"
        }
      ],
      "stateMutability": "payable",
      "type": "function",
      "payable": true
    },
    {
      "inputs": [],
      "name": "get_admin_details",
      "outputs": [
        {
          "components": [
            {
              "internalType": "address",
              "name": "id",
              "type": "address"
            },
            {
              "internalType": "string",
              "name": "name",
              "type": "string"
            },
            {
              "internalType": "enum DeDocs.DEPARTMENT",
              "name": "department",
              "type": "uint8"
            }
          ],
          "internalType": "struct DeDocs.Admin",
          "name": "admin",
          "type": "tuple"
        }
      ],
      "stateMutability": "view",
      "type": "function",
      "constant": true
    },
    {
      "inputs": [
        {
          "internalType": "uint256",
          "name": "_document_id",
          "type": "uint256"
        }
      ],
      "name": "get_document",
      "outputs": [
        {
          "components": [
            {
              "internalType": "uint256",
              "name": "id",
              "type": "uint256"
            },
            {
              "internalType": "uint256",
              "name": "request_id",
              "type": "uint256"
            },
            {
              "internalType": "string",
              "name": "name",
              "type": "string"
            },
            {
              "internalType": "string",
              "name": "uid",
              "type": "string"
            },
            {
              "internalType": "string",
              "name": "ipfs_hash",
              "type": "string"
            },
            {
              "internalType": "string",
              "name": "issued_on",
              "type": "string"
            },
            {
              "internalType": "string",
              "name": "last_updated",
              "type": "string"
            },
            {
              "internalType": "address",
              "name": "admin",
              "type": "address"
            },
            {
              "internalType": "address",
              "name": "user",
              "type": "address"
            },
            {
              "internalType": "enum DeDocs.DEPARTMENT",
              "name": "department",
              "type": "uint8"
            }
          ],
          "internalType": "struct DeDocs.Document",
          "name": "",
          "type": "tuple"
        }
      ],
      "stateMutability": "view",
      "type": "function",
      "constant": true
    },
    {
      "inputs": [
        {
          "internalType": "uint256",
          "name": "_request_id",
          "type": "uint256"
        },
        {
          "internalType": "string",
          "name": "_remarks",
          "type": "string"
        }
      ],
      "name": "reject_request",
      "outputs": [],
      "stateMutability": "payable",
      "type": "function",
      "payable": true
    },
    {
      "inputs": [
        {
          "internalType": "uint256",
          "name": "_request_id",
          "type": "uint256"
        }
      ],
      "name": "approve_request",
      "outputs": [],
      "stateMutability": "payable",
      "type": "function",
      "payable": true
    },
    {
      "inputs": [
        {
          "internalType": "uint256",
          "name": "_request_id",
          "type": "uint256"
        },
        {
          "internalType": "address",
          "name": "_userAddress",
          "type": "address"
        },
        {
          "internalType": "string",
          "name": "_name",
          "type": "string"
        },
        {
          "internalType": "string",
          "name": "_uid",
          "type": "string"
        },
        {
          "internalType": "string",
          "name": "_ipfs_hash",
          "type": "string"
        },
        {
          "internalType": "string",
          "name": "_issued_on",
          "type": "string"
        }
      ],
      "name": "issue_document",
      "outputs": [
        {
          "components": [
            {
              "internalType": "uint256",
              "name": "id",
              "type": "uint256"
            },
            {
              "internalType": "uint256",
              "name": "request_id",
              "type": "uint256"
            },
            {
              "internalType": "string",
              "name": "name",
              "type": "string"
            },
            {
              "internalType": "string",
              "name": "uid",
              "type": "string"
            },
            {
              "internalType": "string",
              "name": "ipfs_hash",
              "type": "string"
            },
            {
              "internalType": "string",
              "name": "issued_on",
              "type": "string"
            },
            {
              "internalType": "string",
              "name": "last_updated",
              "type": "string"
            },
            {
              "internalType": "address",
              "name": "admin",
              "type": "address"
            },
            {
              "internalType": "address",
              "name": "user",
              "type": "address"
            },
            {
              "internalType": "enum DeDocs.DEPARTMENT",
              "name": "department",
              "type": "uint8"
            }
          ],
          "internalType": "struct DeDocs.Document",
          "name": "",
          "type": "tuple"
        }
      ],
      "stateMutability": "payable",
      "type": "function",
      "payable": true
    },
    {
      "inputs": [
        {
          "internalType": "uint256",
          "name": "_document_id",
          "type": "uint256"
        },
        {
          "components": [
            {
              "internalType": "uint256",
              "name": "id",
              "type": "uint256"
            },
            {
              "internalType": "uint256",
              "name": "request_id",
              "type": "uint256"
            },
            {
              "internalType": "string",
              "name": "name",
              "type": "string"
            },
            {
              "internalType": "string",
              "name": "uid",
              "type": "string"
            },
            {
              "internalType": "string",
              "name": "ipfs_hash",
              "type": "string"
            },
            {
              "internalType": "string",
              "name": "issued_on",
              "type": "string"
            },
            {
              "internalType": "string",
              "name": "last_updated",
              "type": "string"
            },
            {
              "internalType": "address",
              "name": "admin",
              "type": "address"
            },
            {
              "internalType": "address",
              "name": "user",
              "type": "address"
            },
            {
              "internalType": "enum DeDocs.DEPARTMENT",
              "name": "department",
              "type": "uint8"
            }
          ],
          "internalType": "struct DeDocs.Document",
          "name": "_new_document",
          "type": "tuple"
        },
        {
          "internalType": "string",
          "name": "_last_updated",
          "type": "string"
        },
        {
          "internalType": "string",
          "name": "_message",
          "type": "string"
        }
      ],
      "name": "modify_document",
      "outputs": [
        {
          "components": [
            {
              "internalType": "uint256",
              "name": "id",
              "type": "uint256"
            },
            {
              "internalType": "uint256",
              "name": "request_id",
              "type": "uint256"
            },
            {
              "internalType": "string",
              "name": "name",
              "type": "string"
            },
            {
              "internalType": "string",
              "name": "uid",
              "type": "string"
            },
            {
              "internalType": "string",
              "name": "ipfs_hash",
              "type": "string"
            },
            {
              "internalType": "string",
              "name": "issued_on",
              "type": "string"
            },
            {
              "internalType": "string",
              "name": "last_updated",
              "type": "string"
            },
            {
              "internalType": "address",
              "name": "admin",
              "type": "address"
            },
            {
              "internalType": "address",
              "name": "user",
              "type": "address"
            },
            {
              "internalType": "enum DeDocs.DEPARTMENT",
              "name": "department",
              "type": "uint8"
            }
          ],
          "internalType": "struct DeDocs.Document",
          "name": "",
          "type": "tuple"
        }
      ],
      "stateMutability": "payable",
      "type": "function",
      "payable": true
    }
  ],
  "bytecode": "0x60806040526000805534801561001457600080fd5b507f9ab3570e7e18bfba94b9c1020a507301d734b0c1bd22301391288a326884adc1604051610074906020808252601e908201527f436f6e7472616374206465706c6f796564207375636365737366756c6c790000604082015260600190565b60405180910390a1614e7e806200008c6000396000f3fe6080604052600436106101135760e060020a60003504630776a4f381146101185780630c99d1301461014157806316dd9b591461015657806318db724f1461017657806326611b5a146101ad57806338925c7d146101d157806339c22db8146101f1578063429b62e51461021e578063633988441461024d578063726f091e1461026d5780637673ac951461028f578063789469bd146102c55780639ecebe2a146102e55780639ef6cf5714610305578063a6d6e94914610325578063a87430ba14610347578063bb5bfd6614610379578063bf5ba0fb1461039b578063ca76115c146103bd578063cf562022146103d2578063d2965f04146103e5578063d583f50d14610405578063f7a37b5214610418575b600080fd5b61012b6101263660046140f3565b61042d565b60405161013891906141f9565b60405180910390f35b61015461014f366004614297565b610555565b005b6101696101643660046142cc565b610afc565b6040516101389190614499565b34801561018257600080fd5b50610196610191366004614297565b611403565b6040516101389b9a999897969594939291906144cf565b3480156101b957600080fd5b506101c360005481565b604051908152602001610138565b3480156101dd57600080fd5b506101696101ec366004614297565b611728565b3480156101fd57600080fd5b5061021161020c366004614590565b611b96565b60405161013891906145ab565b34801561022a57600080fd5b5061023e610239366004614590565b611bf0565b604051610138939291906145be565b34801561025957600080fd5b506101c36102683660046145f1565b611ca8565b34801561027957600080fd5b50610282611cd9565b604051610138919061461b565b34801561029b57600080fd5b506102af6102aa366004614297565b611daf565b6040516101389a99989796959493929190614668565b6102d86102d3366004614720565b6120ce565b604051610138919061476d565b3480156102f157600080fd5b506101c36103003660046145f1565b6121c7565b6103186103133660046147c6565b6121e3565b604051610138919061494e565b34801561033157600080fd5b5061033a61249c565b6040516101389190614961565b34801561035357600080fd5b50610367610362366004614590565b612841565b604051610138969594939291906149c2565b34801561038557600080fd5b5061038e612aa0565b6040516101389190614a34565b3480156103a757600080fd5b506103b0612ea0565b6040516101389190614a88565b3480156103c957600080fd5b506103b0612f02565b6101546103e0366004614acc565b612f62565b3480156103f157600080fd5b5061012b610400366004614590565b61350f565b610169610413366004614b12565b6137a6565b34801561042457600080fd5b506102d8613d06565b610435613e07565b33600090815260036020526040902054600160a060020a0316156104775760405160e560020a62461bcd02815260040161046e90614c70565b60405180910390fd5b61047f613e07565b33808252602080830188815260408085018990526060850188905260808501879052600060a086018190529384526003835290922083518154600160a060020a031916600160a060020a03909116178155915180518493926104e8926001850192910190613e46565b5060408201518051610504916002840191602090910190613e46565b5060608201518051610520916003840191602090910190613e46565b506080820151805161053c916004840191602090910190613e46565b5060a0919091015160059091015590505b949350505050565b33600090815260046020526040902054600160a060020a031661058d5760405160e560020a62461bcd02815260040161046e90614cb5565b6000600182815481106105a2576105a2614cfb565b906000526020600020906009020160405180610160016040529081600082015481526020016001820160009054906101000a9004600160a060020a0316600160a060020a0316600160a060020a0316815260200160028201805461060590614d15565b80601f016020809104026020016040519081016040528092919081815260200182805461063190614d15565b801561067e5780601f106106535761010080835404028352916020019161067e565b820191906000526020600020905b81548152906001019060200180831161066157829003601f168201915b5050505050815260200160038201805461069790614d15565b80601f01602080910402602001604051908101604052809291908181526020018280546106c390614d15565b80156107105780601f106106e557610100808354040283529160200191610710565b820191906000526020600020905b8154815290600101906020018083116106f357829003601f168201915b5050505050815260200160048201805461072990614d15565b80601f016020809104026020016040519081016040528092919081815260200182805461075590614d15565b80156107a25780601f10610777576101008083540402835291602001916107a2565b820191906000526020600020905b81548152906001019060200180831161078557829003601f168201915b505050505081526020016005820180546107bb90614d15565b80601f01602080910402602001604051908101604052809291908181526020018280546107e790614d15565b80156108345780601f1061080957610100808354040283529160200191610834565b820191906000526020600020905b81548152906001019060200180831161081757829003601f168201915b5050509183525050600682015460209091019060ff16600381111561085b5761085b614391565b600381111561086c5761086c614391565b81526020016006820160019054906101000a900460ff16600281111561089457610894614391565b60028111156108a5576108a5614391565b81526020016006820160029054906101000a900460ff1660028111156108cd576108cd614391565b60028111156108de576108de614391565b8152602001600782015481526020016008820180546108fc90614d15565b80601f016020809104026020016040519081016040528092919081815260200182805461092890614d15565b80156109755780601f1061094a57610100808354040283529160200191610975565b820191906000526020600020905b81548152906001019060200180831161095857829003601f168201915b505050919092525091925060019150506101008201818152505080600183815481106109a3576109a3614cfb565b600091825260209182902083516009929092020190815582820151600182018054600160a060020a031916600160a060020a039092169190911790556040830151805191926109fa92600285019290910190613e46565b5060608201518051610a16916003840191602090910190613e46565b5060808201518051610a32916004840191602090910190613e46565b5060a08201518051610a4e916005840191602090910190613e46565b5060c082015160068201805460ff19166001836003811115610a7257610a72614391565b021790555060e082015160068201805461ff001916610100836002811115610a9c57610a9c614391565b021790555061010082015160068201805462ff0000191662010000836002811115610ac957610ac9614391565b021790555061012082015160078201556101408201518051610af5916008840191602090910190613e46565b5050505050565b610b04613eca565b33600090815260046020526040902054600160a060020a0316610b3c5760405160e560020a62461bcd02815260040161046e90614cb5565b600160a060020a0386811660009081526003602052604090205416610ba25760405160e560020a62461bcd0281526020600482015260166024820152605260020a75155cd95c881a5cc81b9bdd081c9959da5cdd195c995902604482015260640161046e565b600060018881548110610bb757610bb7614cfb565b906000526020600020906009020160405180610160016040529081600082015481526020016001820160009054906101000a9004600160a060020a0316600160a060020a0316600160a060020a03168152602001600282018054610c1a90614d15565b80601f0160208091040260200160405190810160405280929190818152602001828054610c4690614d15565b8015610c935780601f10610c6857610100808354040283529160200191610c93565b820191906000526020600020905b815481529060010190602001808311610c7657829003601f168201915b50505050508152602001600382018054610cac90614d15565b80601f0160208091040260200160405190810160405280929190818152602001828054610cd890614d15565b8015610d255780601f10610cfa57610100808354040283529160200191610d25565b820191906000526020600020905b815481529060010190602001808311610d0857829003601f168201915b50505050508152602001600482018054610d3e90614d15565b80601f0160208091040260200160405190810160405280929190818152602001828054610d6a90614d15565b8015610db75780601f10610d8c57610100808354040283529160200191610db7565b820191906000526020600020905b815481529060010190602001808311610d9a57829003601f168201915b50505050508152602001600582018054610dd090614d15565b80601f0160208091040260200160405190810160405280929190818152602001828054610dfc90614d15565b8015610e495780601f10610e1e57610100808354040283529160200191610e49565b820191906000526020600020905b815481529060010190602001808311610e2c57829003601f168201915b5050509183525050600682015460209091019060ff166003811115610e7057610e70614391565b6003811115610e8157610e81614391565b81526020016006820160019054906101000a900460ff166002811115610ea957610ea9614391565b6002811115610eba57610eba614391565b81526020016006820160029054906101000a900460ff166002811115610ee257610ee2614391565b6002811115610ef357610ef3614391565b815260200160078201548152602001600882018054610f1190614d15565b80601f0160208091040260200160405190810160405280929190818152602001828054610f3d90614d15565b8015610f8a5780601f10610f5f57610100808354040283529160200191610f8a565b820191906000526020600020905b815481529060010190602001808311610f6d57829003601f168201915b505050505081525050905080610120015160001461100a5760405160e560020a62461bcd02815260206004820152603160248201527f446f63756d656e742068617320616c7265616479206265656e206973737565646044820152607a60020a7008199bdc881d1a1a5cc81c995c5d595cdd02606482015260840161046e565b611012613eca565b600254611020906001614d54565b815260408101879052606081018690526080810185905260a08101849052600160a060020a0388166101008201523360e082015260c0820151610120820190600381111561107057611070614391565b9081600381111561108357611083614391565b90525060028054600181018255600091909152815160099091027f405787fa12a823e0f2b7631cc41b3ba8828b3321ca811111fa75cd3aa3bb5ace81019182556020808401517f405787fa12a823e0f2b7631cc41b3ba8828b3321ca811111fa75cd3aa3bb5acf83015560408401518051859493611127937f405787fa12a823e0f2b7631cc41b3ba8828b3321ca811111fa75cd3aa3bb5ad0909101920190613e46565b5060608201518051611143916003840191602090910190613e46565b506080820151805161115f916004840191602090910190613e46565b5060a0820151805161117b916005840191602090910190613e46565b5060c08201518051611197916006840191602090910190613e46565b5060e0820151600782018054600160a060020a0319908116600160a060020a03938416179091556101008401516008840180549283169190931690811783556101208501519291600160a860020a0319161760a060020a83600381111561120057611200614391565b02179055505050600160a060020a0388166000908152600660209081526040822083518154600181810184559285529290932090910191909155815161012084015280548391908b90811061125757611257614cfb565b600091825260209182902083516009929092020190815582820151600182018054600160a060020a031916600160a060020a039092169190911790556040830151805191926112ae92600285019290910190613e46565b50606082015180516112ca916003840191602090910190613e46565b50608082015180516112e6916004840191602090910190613e46565b5060a08201518051611302916005840191602090910190613e46565b5060c082015160068201805460ff1916600183600381111561132657611326614391565b021790555060e082015160068201805461ff00191661010083600281111561135057611350614391565b021790555061010082015160068201805462ff000019166201000083600281111561137d5761137d614391565b0217905550610120820151600782015561014082015180516113a9916008840191602090910190613e46565b5050815160408051600160a060020a038c168152336020820152908101919091527e494c81a93fd8df13d923d73c93e872db4f00090d204b824064d00fb4759f51915060600160405180910390a198975050505050505050565b6001818154811061141357600080fd5b6000918252602090912060099091020180546001820154600283018054929450600160a060020a03909116929161144990614d15565b80601f016020809104026020016040519081016040528092919081815260200182805461147590614d15565b80156114c25780601f10611497576101008083540402835291602001916114c2565b820191906000526020600020905b8154815290600101906020018083116114a557829003601f168201915b5050505050908060030180546114d790614d15565b80601f016020809104026020016040519081016040528092919081815260200182805461150390614d15565b80156115505780601f1061152557610100808354040283529160200191611550565b820191906000526020600020905b81548152906001019060200180831161153357829003601f168201915b50505050509080600401805461156590614d15565b80601f016020809104026020016040519081016040528092919081815260200182805461159190614d15565b80156115de5780601f106115b3576101008083540402835291602001916115de565b820191906000526020600020905b8154815290600101906020018083116115c157829003601f168201915b5050505050908060050180546115f390614d15565b80601f016020809104026020016040519081016040528092919081815260200182805461161f90614d15565b801561166c5780601f106116415761010080835404028352916020019161166c565b820191906000526020600020905b81548152906001019060200180831161164f57829003601f168201915b50505060068401546007850154600886018054959660ff808516976101008604821697506201000090950416945091926116a590614d15565b80601f01602080910402602001604051908101604052809291908181526020018280546116d190614d15565b801561171e5780601f106116f35761010080835404028352916020019161171e565b820191906000526020600020905b81548152906001019060200180831161170157829003601f168201915b505050505090508b565b611730613eca565b600254829081106117565760405160e560020a62461bcd02815260040161046e90614d7e565b336000908152600460205260409020548390600160a060020a03161515806117b5575033600160a060020a03166002828154811061179657611796614cfb565b6000918252602090912060086009909202010154600160a060020a0316145b61181a5760405160e560020a62461bcd02815260206004820152602a60248201527f596f7520617265206e6f7420616c6c6f77656420746f20706572666f726d2074604482015260b160020a693434b99030b1ba34b7b702606482015260840161046e565b60006002858154811061182f5761182f614cfb565b906000526020600020906009020160405180610140016040529081600082015481526020016001820154815260200160028201805461186d90614d15565b80601f016020809104026020016040519081016040528092919081815260200182805461189990614d15565b80156118e65780601f106118bb576101008083540402835291602001916118e6565b820191906000526020600020905b8154815290600101906020018083116118c957829003601f168201915b505050505081526020016003820180546118ff90614d15565b80601f016020809104026020016040519081016040528092919081815260200182805461192b90614d15565b80156119785780601f1061194d57610100808354040283529160200191611978565b820191906000526020600020905b81548152906001019060200180831161195b57829003601f168201915b5050505050815260200160048201805461199190614d15565b80601f01602080910402602001604051908101604052809291908181526020018280546119bd90614d15565b8015611a0a5780601f106119df57610100808354040283529160200191611a0a565b820191906000526020600020905b8154815290600101906020018083116119ed57829003601f168201915b50505050508152602001600582018054611a2390614d15565b80601f0160208091040260200160405190810160405280929190818152602001828054611a4f90614d15565b8015611a9c5780601f10611a7157610100808354040283529160200191611a9c565b820191906000526020600020905b815481529060010190602001808311611a7f57829003601f168201915b50505050508152602001600682018054611ab590614d15565b80601f0160208091040260200160405190810160405280929190818152602001828054611ae190614d15565b8015611b2e5780601f10611b0357610100808354040283529160200191611b2e565b820191906000526020600020905b815481529060010190602001808311611b1157829003601f168201915b50505091835250506007820154600160a060020a0390811660208301526008830154908116604083015260609091019060a060020a900460ff166003811115611b7957611b79614391565b6003811115611b8a57611b8a614391565b90525095945050505050565b600160a060020a0381811660009081526003602052604081205490911615611bc057506002919050565b600160a060020a038281166000908152600460205260409020541615611be857506001919050565b506000919050565b60046020526000908152604090208054600182018054600160a060020a039092169291611c1c90614d15565b80601f0160208091040260200160405190810160405280929190818152602001828054611c4890614d15565b8015611c955780601f10611c6a57610100808354040283529160200191611c95565b820191906000526020600020905b815481529060010190602001808311611c7857829003601f168201915b5050506002909301549192505060ff1683565b60066020528160005260406000208181548110611cc457600080fd5b90600052602060002001600091509150505481565b611ce1613f3f565b60006040518060800160405280604051806060016040528060288152602001614e216028913981526020016040518060400160405280600a815260200160b360020a690929c869e9a8a40a882b028152508152602001604051806040016040528060158152602001605960020a7426aaa724a1a4a820a61021a7a92827a920aa24a7a70281525081526020016040518060400160405280601a81526020017f5354415445205452414e53504f5254442045504152544d454e5400000000000081525081525090508091505090565b60028181548110611dbf57600080fd5b9060005260206000209060090201600091509050806000015490806001015490806002018054611dee90614d15565b80601f0160208091040260200160405190810160405280929190818152602001828054611e1a90614d15565b8015611e675780601f10611e3c57610100808354040283529160200191611e67565b820191906000526020600020905b815481529060010190602001808311611e4a57829003601f168201915b505050505090806003018054611e7c90614d15565b80601f0160208091040260200160405190810160405280929190818152602001828054611ea890614d15565b8015611ef55780601f10611eca57610100808354040283529160200191611ef5565b820191906000526020600020905b815481529060010190602001808311611ed857829003601f168201915b505050505090806004018054611f0a90614d15565b80601f0160208091040260200160405190810160405280929190818152602001828054611f3690614d15565b8015611f835780601f10611f5857610100808354040283529160200191611f83565b820191906000526020600020905b815481529060010190602001808311611f6657829003601f168201915b505050505090806005018054611f9890614d15565b80601f0160208091040260200160405190810160405280929190818152602001828054611fc490614d15565b80156120115780601f10611fe657610100808354040283529160200191612011565b820191906000526020600020905b815481529060010190602001808311611ff457829003601f168201915b50505050509080600601805461202690614d15565b80601f016020809104026020016040519081016040528092919081815260200182805461205290614d15565b801561209f5780601f106120745761010080835404028352916020019161209f565b820191906000526020600020905b81548152906001019060200180831161208257829003601f168201915b5050505060078301546008909301549192600160a060020a0390811692908116915060a060020a900460ff168a565b6120d6613f66565b33600090815260046020526040902054600160a060020a03161561210f5760405160e560020a62461bcd02815260040161046e90614c70565b612117613f66565b338152602081018490526040810183600381111561213757612137614391565b9081600381111561214a5761214a614391565b90525033600090815260046020908152604090912082518154600160a060020a031916600160a060020a039091161781558282015180518493612194926001850192910190613e46565b50604082015160028201805460ff191660018360038111156121b8576121b8614391565b02179055509195945050505050565b60056020528160005260406000208181548110611cc457600080fd5b6121eb613f9b565b6121f3613f9b565b600054815233602082015260408101879052606081018690526080810185905260a0810183905260c0810188600381111561223057612230614391565b9081600381111561224357612243614391565b90525060e0810184600281111561225c5761225c614391565b9081600281111561226f5761226f614391565b905250600061010082018190525060006101208201819052600180548082018255915281517fb10e2d527612073b26eecdfd717e6a320cf44b4afac2b0732d9fcbe2b7fa0cf660099092029182019081556020808401517fb10e2d527612073b26eecdfd717e6a320cf44b4afac2b0732d9fcbe2b7fa0cf784018054600160a060020a031916600160a060020a0390921691909117905560408401518051859461233f937fb10e2d527612073b26eecdfd717e6a320cf44b4afac2b0732d9fcbe2b7fa0cf8909101920190613e46565b506060820151805161235b916003840191602090910190613e46565b5060808201518051612377916004840191602090910190613e46565b5060a08201518051612393916005840191602090910190613e46565b5060c082015160068201805460ff191660018360038111156123b7576123b7614391565b021790555060e082015160068201805461ff0019166101008360028111156123e1576123e1614391565b021790555061010082015160068201805462ff000019166201000083600281111561240e5761240e614391565b02179055506101208201516007820155610140820151805161243a916008840191602090910190613e46565b505050600160008082825461244f9190614d54565b909155505080516040517fb0d5a35d53d1b590b4e2ab0193806445dd4ad70aab99e4a02454aaf4ae4939b691612489913391908c90614db2565b60405180910390a1979650505050505050565b60606002805480602002602001604051908101604052809291908181526020016000905b82821015612838578382906000526020600020906009020160405180610140016040529081600082015481526020016001820154815260200160028201805461250890614d15565b80601f016020809104026020016040519081016040528092919081815260200182805461253490614d15565b80156125815780601f1061255657610100808354040283529160200191612581565b820191906000526020600020905b81548152906001019060200180831161256457829003601f168201915b5050505050815260200160038201805461259a90614d15565b80601f01602080910402602001604051908101604052809291908181526020018280546125c690614d15565b80156126135780601f106125e857610100808354040283529160200191612613565b820191906000526020600020905b8154815290600101906020018083116125f657829003601f168201915b5050505050815260200160048201805461262c90614d15565b80601f016020809104026020016040519081016040528092919081815260200182805461265890614d15565b80156126a55780601f1061267a576101008083540402835291602001916126a5565b820191906000526020600020905b81548152906001019060200180831161268857829003601f168201915b505050505081526020016005820180546126be90614d15565b80601f01602080910402602001604051908101604052809291908181526020018280546126ea90614d15565b80156127375780601f1061270c57610100808354040283529160200191612737565b820191906000526020600020905b81548152906001019060200180831161271a57829003601f168201915b5050505050815260200160068201805461275090614d15565b80601f016020809104026020016040519081016040528092919081815260200182805461277c90614d15565b80156127c95780601f1061279e576101008083540402835291602001916127c9565b820191906000526020600020905b8154815290600101906020018083116127ac57829003601f168201915b50505091835250506007820154600160a060020a0390811660208301526008830154908116604083015260609091019060a060020a900460ff16600381111561281457612814614391565b600381111561282557612825614391565b81525050815260200190600101906124c0565b50505050905090565b60036020526000908152604090208054600182018054600160a060020a03909216929161286d90614d15565b80601f016020809104026020016040519081016040528092919081815260200182805461289990614d15565b80156128e65780601f106128bb576101008083540402835291602001916128e6565b820191906000526020600020905b8154815290600101906020018083116128c957829003601f168201915b5050505050908060020180546128fb90614d15565b80601f016020809104026020016040519081016040528092919081815260200182805461292790614d15565b80156129745780601f1061294957610100808354040283529160200191612974565b820191906000526020600020905b81548152906001019060200180831161295757829003601f168201915b50505050509080600301805461298990614d15565b80601f01602080910402602001604051908101604052809291908181526020018280546129b590614d15565b8015612a025780601f106129d757610100808354040283529160200191612a02565b820191906000526020600020905b8154815290600101906020018083116129e557829003601f168201915b505050505090806004018054612a1790614d15565b80601f0160208091040260200160405190810160405280929190818152602001828054612a4390614d15565b8015612a905780601f10612a6557610100808354040283529160200191612a90565b820191906000526020600020905b815481529060010190602001808311612a7357829003601f168201915b5050505050908060050154905086565b60606001805480602002602001604051908101604052809291908181526020016000905b82821015612838576000848152602090819020604080516101608101825260098602909201805483526001810154600160a060020a03169383019390935260028301805492939291840191612b1890614d15565b80601f0160208091040260200160405190810160405280929190818152602001828054612b4490614d15565b8015612b915780601f10612b6657610100808354040283529160200191612b91565b820191906000526020600020905b815481529060010190602001808311612b7457829003601f168201915b50505050508152602001600382018054612baa90614d15565b80601f0160208091040260200160405190810160405280929190818152602001828054612bd690614d15565b8015612c235780601f10612bf857610100808354040283529160200191612c23565b820191906000526020600020905b815481529060010190602001808311612c0657829003601f168201915b50505050508152602001600482018054612c3c90614d15565b80601f0160208091040260200160405190810160405280929190818152602001828054612c6890614d15565b8015612cb55780601f10612c8a57610100808354040283529160200191612cb5565b820191906000526020600020905b815481529060010190602001808311612c9857829003601f168201915b50505050508152602001600582018054612cce90614d15565b80601f0160208091040260200160405190810160405280929190818152602001828054612cfa90614d15565b8015612d475780601f10612d1c57610100808354040283529160200191612d47565b820191906000526020600020905b815481529060010190602001808311612d2a57829003601f168201915b5050509183525050600682015460209091019060ff166003811115612d6e57612d6e614391565b6003811115612d7f57612d7f614391565b81526020016006820160019054906101000a900460ff166002811115612da757612da7614391565b6002811115612db857612db8614391565b81526020016006820160029054906101000a900460ff166002811115612de057612de0614391565b6002811115612df157612df1614391565b815260200160078201548152602001600882018054612e0f90614d15565b80601f0160208091040260200160405190810160405280929190818152602001828054612e3b90614d15565b8015612e885780601f10612e5d57610100808354040283529160200191612e88565b820191906000526020600020905b815481529060010190602001808311612e6b57829003601f168201915b50505050508152505081526020019060010190612ac4565b336000908152600660209081526040808320805482518185028101850190935280835260609493830182828015612ef657602002820191906000526020600020905b815481526020019060010190808311612ee2575b50939695505050505050565b336000908152600560209081526040808320805482518185028101850190935280835260609493830182828015612ef65760200282019190600052602060002090815481526020019060010190808311612ee25750939695505050505050565b33600090815260046020526040902054600160a060020a0316612f9a5760405160e560020a62461bcd02815260040161046e90614cb5565b600060018381548110612faf57612faf614cfb565b906000526020600020906009020160405180610160016040529081600082015481526020016001820160009054906101000a9004600160a060020a0316600160a060020a0316600160a060020a0316815260200160028201805461301290614d15565b80601f016020809104026020016040519081016040528092919081815260200182805461303e90614d15565b801561308b5780601f106130605761010080835404028352916020019161308b565b820191906000526020600020905b81548152906001019060200180831161306e57829003601f168201915b505050505081526020016003820180546130a490614d15565b80601f01602080910402602001604051908101604052809291908181526020018280546130d090614d15565b801561311d5780601f106130f25761010080835404028352916020019161311d565b820191906000526020600020905b81548152906001019060200180831161310057829003601f168201915b5050505050815260200160048201805461313690614d15565b80601f016020809104026020016040519081016040528092919081815260200182805461316290614d15565b80156131af5780601f10613184576101008083540402835291602001916131af565b820191906000526020600020905b81548152906001019060200180831161319257829003601f168201915b505050505081526020016005820180546131c890614d15565b80601f01602080910402602001604051908101604052809291908181526020018280546131f490614d15565b80156132415780601f1061321657610100808354040283529160200191613241565b820191906000526020600020905b81548152906001019060200180831161322457829003601f168201915b5050509183525050600682015460209091019060ff16600381111561326857613268614391565b600381111561327957613279614391565b81526020016006820160019054906101000a900460ff1660028111156132a1576132a1614391565b60028111156132b2576132b2614391565b81526020016006820160029054906101000a900460ff1660028111156132da576132da614391565b60028111156132eb576132eb614391565b81526020016007820154815260200160088201805461330990614d15565b80601f016020809104026020016040519081016040528092919081815260200182805461333590614d15565b80156133825780601f1061335757610100808354040283529160200191613382565b820191906000526020600020905b81548152906001019060200180831161336557829003601f168201915b5050509190925250506002610100830152506101408101839052600180549192508291859081106133b5576133b5614cfb565b600091825260209182902083516009929092020190815582820151600182018054600160a060020a031916600160a060020a0390921691909117905560408301518051919261340c92600285019290910190613e46565b5060608201518051613428916003840191602090910190613e46565b5060808201518051613444916004840191602090910190613e46565b5060a08201518051613460916005840191602090910190613e46565b5060c082015160068201805460ff1916600183600381111561348457613484614391565b021790555060e082015160068201805461ff0019166101008360028111156134ae576134ae614391565b021790555061010082015160068201805462ff00001916620100008360028111156134db576134db614391565b021790555061012082015160078201556101408201518051613507916008840191602090910190613e46565b505050505050565b613517613e07565b600160a060020a038083166000908152600360209081526040808320815160c081019092528054909416815260018401805493949193919284019161355b90614d15565b80601f016020809104026020016040519081016040528092919081815260200182805461358790614d15565b80156135d45780601f106135a9576101008083540402835291602001916135d4565b820191906000526020600020905b8154815290600101906020018083116135b757829003601f168201915b505050505081526020016002820180546135ed90614d15565b80601f016020809104026020016040519081016040528092919081815260200182805461361990614d15565b80156136665780601f1061363b57610100808354040283529160200191613666565b820191906000526020600020905b81548152906001019060200180831161364957829003601f168201915b5050505050815260200160038201805461367f90614d15565b80601f01602080910402602001604051908101604052809291908181526020018280546136ab90614d15565b80156136f85780601f106136cd576101008083540402835291602001916136f8565b820191906000526020600020905b8154815290600101906020018083116136db57829003601f168201915b5050505050815260200160048201805461371190614d15565b80601f016020809104026020016040519081016040528092919081815260200182805461373d90614d15565b801561378a5780601f1061375f5761010080835404028352916020019161378a565b820191906000526020600020905b81548152906001019060200180831161376d57829003601f168201915b5050509183525050600591909101546020909101529392505050565b6137ae613eca565b600254859081106137d45760405160e560020a62461bcd02815260040161046e90614d7e565b33600090815260046020526040902054600160a060020a031661380c5760405160e560020a62461bcd02815260040161046e90614cb5565b60006002878154811061382157613821614cfb565b906000526020600020906009020160405180610140016040529081600082015481526020016001820154815260200160028201805461385f90614d15565b80601f016020809104026020016040519081016040528092919081815260200182805461388b90614d15565b80156138d85780601f106138ad576101008083540402835291602001916138d8565b820191906000526020600020905b8154815290600101906020018083116138bb57829003601f168201915b505050505081526020016003820180546138f190614d15565b80601f016020809104026020016040519081016040528092919081815260200182805461391d90614d15565b801561396a5780601f1061393f5761010080835404028352916020019161396a565b820191906000526020600020905b81548152906001019060200180831161394d57829003601f168201915b5050505050815260200160048201805461398390614d15565b80601f01602080910402602001604051908101604052809291908181526020018280546139af90614d15565b80156139fc5780601f106139d1576101008083540402835291602001916139fc565b820191906000526020600020905b8154815290600101906020018083116139df57829003601f168201915b50505050508152602001600582018054613a1590614d15565b80601f0160208091040260200160405190810160405280929190818152602001828054613a4190614d15565b8015613a8e5780601f10613a6357610100808354040283529160200191613a8e565b820191906000526020600020905b815481529060010190602001808311613a7157829003601f168201915b50505050508152602001600682018054613aa790614d15565b80601f0160208091040260200160405190810160405280929190818152602001828054613ad390614d15565b8015613b205780601f10613af557610100808354040283529160200191613b20565b820191906000526020600020905b815481529060010190602001808311613b0357829003601f168201915b50505091835250506007820154600160a060020a0390811660208301526008830154908116604083015260609091019060a060020a900460ff166003811115613b6b57613b6b614391565b6003811115613b7c57613b7c614391565b815250509050848660c001819052508560028881548110613b9f57613b9f614cfb565b906000526020600020906009020160008201518160000155602082015181600101556040820151816002019080519060200190613bdd929190613e46565b5060608201518051613bf9916003840191602090910190613e46565b5060808201518051613c15916004840191602090910190613e46565b5060a08201518051613c31916005840191602090910190613e46565b5060c08201518051613c4d916006840191602090910190613e46565b5060e0820151600782018054600160a060020a0319908116600160a060020a03938416179091556101008401516008840180549283169190931690811783556101208501519291600160a860020a0319161760a060020a836003811115613cb657613cb6614391565b02179055509050507ffa77f0973016176f4ef809d7bd505ae73cd241bb7917aff86c565273b58a635687828887604051613cf39493929190614dd6565b60405180910390a1509395945050505050565b613d0e613f66565b3360009081526004602090815260408083208151606081019092528054600160a060020a031682526001810180549293919291840191613d4d90614d15565b80601f0160208091040260200160405190810160405280929190818152602001828054613d7990614d15565b8015613dc65780601f10613d9b57610100808354040283529160200191613dc6565b820191906000526020600020905b815481529060010190602001808311613da957829003601f168201915b5050509183525050600282015460209091019060ff166003811115613ded57613ded614391565b6003811115613dfe57613dfe614391565b90525092915050565b6040518060c001604052806000600160a060020a0316815260200160608152602001606081526020016060815260200160608152602001600081525090565b828054613e5290614d15565b90600052602060002090601f016020900481019282613e745760008555613eba565b82601f10613e8d57805160ff1916838001178555613eba565b82800160010185558215613eba579182015b82811115613eba578251825591602001919060010190613e9f565b50613ec692915061400f565b5090565b604051806101400160405280600081526020016000815260200160608152602001606081526020016060815260200160608152602001606081526020016000600160a060020a031681526020016000600160a060020a0316815260200160006003811115613f3a57613f3a614391565b905290565b60405180608001604052806004905b6060815260200190600190039081613f4e5790505090565b60405180606001604052806000600160a060020a031681526020016060815260200160006003811115613f3a57613f3a614391565b604051806101600160405280600081526020016000600160a060020a031681526020016060815260200160608152602001606081526020016060815260200160006003811115613fed57613fed614391565b8152602001600081526020016000815260200160008152602001606081525090565b5b80821115613ec65760008155600101614010565b60e060020a634e487b710260009081526041600452602490fd5b60405161014081016001604060020a038111828210171561406157614061614024565b60405290565b600082601f83011261407857600080fd5b81356001604060020a038082111561409257614092614024565b604051601f8301601f19908116603f011681019082821181831017156140ba576140ba614024565b816040528381528660208588010111156140d357600080fd5b836020870160208301376000602085830101528094505050505092915050565b6000806000806080858703121561410957600080fd5b84356001604060020a038082111561412057600080fd5b61412c88838901614067565b9550602087013591508082111561414257600080fd5b61414e88838901614067565b9450604087013591508082111561416457600080fd5b61417088838901614067565b9350606087013591508082111561418657600080fd5b5061419387828801614067565b91505092959194509250565b600160a060020a03169052565b6000815180845260005b818110156141d2576020818501810151868301820152016141b6565b818111156141e4576000602083870101525b50601f01601f19169290920160200192915050565b60208082528251600160a060020a03168282015282015160c0604083015260009061422760e08401826141ac565b90506040840151601f198085840301606086015261424583836141ac565b9250606086015191508085840301608086015261426283836141ac565b925060808601519150808584030160a08601525061428082826141ac565b91505060a084015160c08401528091505092915050565b6000602082840312156142a957600080fd5b5035919050565b8035600160a060020a03811681146142c757600080fd5b919050565b60008060008060008060c087890312156142e557600080fd5b863595506142f5602088016142b0565b945060408701356001604060020a038082111561431157600080fd5b61431d8a838b01614067565b9550606089013591508082111561433357600080fd5b61433f8a838b01614067565b9450608089013591508082111561435557600080fd5b6143618a838b01614067565b935060a089013591508082111561437757600080fd5b5061438489828a01614067565b9150509295509295509295565b60e060020a634e487b710260009081526021600452602490fd5b600481106143bb576143bb614391565b9052565b6000610140825184526020830151602085015260408301518160408601526143e9828601826141ac565b9150506060830151848203606086015261440382826141ac565b9150506080830151848203608086015261441d82826141ac565b91505060a083015184820360a086015261443782826141ac565b91505060c083015184820360c086015261445182826141ac565b91505060e083015161446660e086018261419f565b506101008084015161447a8287018261419f565b50506101208084015161448f828701826143ab565b5090949350505050565b6020815260006144ac60208301846143bf565b9392505050565b600381106144c3576144c3614391565b50565b6143bb816144b3565b8b8152600160a060020a038b166020820152610160604082018190526000906144fa8382018d6141ac565b9050828103606084015261450e818c6141ac565b90508281036080840152614522818b6141ac565b905082810360a0840152614536818a6141ac565b905061454560c08401896143ab565b61454e876144b3565b8660e084015261455d866144b3565b856101008401528461012084015282810361014084015261457e81856141ac565b9e9d5050505050505050505050505050565b6000602082840312156145a257600080fd5b6144ac826142b0565b602081016145b8836144b3565b91905290565b600160a060020a03841681526060602082018190526000906145e2908301856141ac565b905061054d60408301846143ab565b6000806040838503121561460457600080fd5b61460d836142b0565b946020939093013593505050565b602080825260009060a0830183820185845b600481101561465c57601f1987850301835261464a8483516141ac565b9350918401919084019060010161462d565b50919695505050505050565b60006101408c83528b60208401528060408401526146888184018c6141ac565b9050828103606084015261469c818b6141ac565b905082810360808401526146b0818a6141ac565b905082810360a08401526146c481896141ac565b905082810360c08401526146d881886141ac565b600160a060020a0387811660e08601528616610100850152915061470290506101208301846143ab565b9b9a5050505050505050505050565b8035600481106142c757600080fd5b6000806040838503121561473357600080fd5b82356001604060020a0381111561474957600080fd5b61475585828601614067565b92505061476460208401614711565b90509250929050565b60208082528251600160a060020a0316828201528201516060604083015260009061479b60808401826141ac565b905060408401516147af60608501826143ab565b509392505050565b8035600381106142c757600080fd5b60008060008060008060c087890312156147df57600080fd5b6147e887614711565b955060208701356001604060020a038082111561480457600080fd5b6148108a838b01614067565b9650604089013591508082111561482657600080fd5b6148328a838b01614067565b9550606089013591508082111561484857600080fd5b6148548a838b01614067565b945061436160808a016147b7565b600061016082518452602083015161487d602086018261419f565b506040830151816040860152614895828601826141ac565b915050606083015184820360608601526148af82826141ac565b915050608083015184820360808601526148c982826141ac565b91505060a083015184820360a08601526148e382826141ac565b91505060c08301516148f860c08601826143ab565b5060e083015161490b60e08601826144c6565b506101008084015161491f828701826144c6565b50506101208381015190850152610140808401518583038287015261494483826141ac565b9695505050505050565b6020815260006144ac6020830184614862565b600060208083018184528085518083526040860191506040848202870101925083870160005b828110156149b557603f198886030184526149a38583516143bf565b94509285019290850190600101614987565b5092979650505050505050565b600160a060020a038716815260c0602082018190526000906149e6908301886141ac565b82810360408401526149f881886141ac565b90508281036060840152614a0c81876141ac565b90508281036080840152614a2081866141ac565b9150508260a0830152979650505050505050565b600060208083018184528085518083526040860191506040848202870101925083870160005b828110156149b557603f19888603018452614a76858351614862565b94509285019290850190600101614a5a565b6020808252825182820181905260009190848201906040850190845b81811015614ac057835183529284019291840191600101614aa4565b50909695505050505050565b60008060408385031215614adf57600080fd5b8235915060208301356001604060020a03811115614afc57600080fd5b614b0885828601614067565b9150509250929050565b60008060008060808587031215614b2857600080fd5b8435935060208501356001604060020a0380821115614b4657600080fd5b908601906101408289031215614b5b57600080fd5b614b6361403e565b8235815260208301356020820152604083013582811115614b8357600080fd5b614b8f8a828601614067565b604083015250606083013582811115614ba757600080fd5b614bb38a828601614067565b606083015250608083013582811115614bcb57600080fd5b614bd78a828601614067565b60808301525060a083013582811115614bef57600080fd5b614bfb8a828601614067565b60a08301525060c083013582811115614c1357600080fd5b614c1f8a828601614067565b60c083015250614c3160e084016142b0565b60e0820152610100614c448185016142b0565b90820152610120614c56848201614711565b908201529450604087013591508082111561416457600080fd5b60208082526022908201527f54686973206164647265737320697320616c7265616479207265676973746572604082015260f260020a61195902606082015260800190565b60208082526023908201527f4f6e6c792061646d696e732063616e20706572666f726d207468697320616374604082015260e960020a6234b7b702606082015260800190565b60e060020a634e487b710260009081526032600452602490fd5b600281046001821680614d2957607f821691505b60208210811415614d4e5760e060020a634e487b710260009081526022600452602490fd5b50919050565b60008219821115614d795760e060020a634e487b710260009081526011600452602490fd5b500190565b6020808252601790820152604a60020a76111bd8dd5b595b9d08191bd95cc81b9bdd08195e1a5cdd02604082015260600190565b600160a060020a0384168152602081018390526060810161054d60408301846143ab565b848152608060208201526000614def60808301866143bf565b8281036040840152614e0181866143bf565b90508281036060840152614e1581856141ac565b97965050505050505056fe554e49515545204944454e54494649434154494f4e20415554484f52495459204f4620494e444941a264697066735822122090c18c2ef5b2a564cdfbf03363f18ca5494b1e63c337a33cb64627dc935ed64664736f6c634300080b0033",
  "immutableReferences": {},
  "source": "// SPDX-License-Identifier: MIT\r\npragma solidity >=0.4.22 <0.9.0;\r\n\r\ncontract DeDocs {\r\n\r\n  enum ROLE{\r\n    NOT_REGISTERED,\r\n    ADMIN,\r\n    USER\r\n  }\r\n\r\n  enum DEPARTMENT{\r\n    UNIQUE_IDENTIFICATION_AUTHORITY_OF_INDIA,\r\n    INCOME_TAX,\r\n    MUNICIPAL_CORPORATION,\r\n    STATE_TRANSPORT_DEPARTMENT\r\n  }\r\n\r\n  enum REQUEST_CATEGORY{\r\n    ISSUE,\r\n    UPDATE,\r\n    RECTIFY\r\n  }\r\n\r\n  enum REQUEST_STATUS{\r\n    PENDING,\r\n    SUCCESS,\r\n    REJECTED\r\n  }\r\n\r\n  struct Admin{\r\n    address id;\r\n    string name;\r\n    DEPARTMENT department;\r\n  }\r\n  \r\n  struct User{\r\n    address id;\r\n    string name;\r\n    string dob;\r\n    string password;    \r\n    string joined;\r\n    uint total_requests;\r\n  }\r\n\r\n  struct Request{\r\n    uint id;\r\n    address user_id;\r\n    string subject;\r\n    string description;\r\n    string ipfs_hash;\r\n    string date;\r\n    DEPARTMENT department;\r\n    REQUEST_CATEGORY category;\r\n    REQUEST_STATUS status;\r\n    uint document_id;\r\n    string remarks;\r\n  }\r\n\r\n  struct Document{\r\n    uint id;\r\n    uint request_id;\r\n    string name;\r\n    string uid;\r\n    string ipfs_hash;\r\n    string issued_on;\r\n    string last_updated;\r\n    address admin;\r\n    address user;\r\n    DEPARTMENT department;\r\n  }\r\n\r\n  event DeDocs_deployed(string message);\r\n  event Request_made(address user, uint request_id, DEPARTMENT department);\r\n  event Document_issued(address user, address admin, uint document_id);\r\n  event Document_modified(uint document_id, Document old_document, Document new_document, string message);\r\n\r\n  uint public total_requests = 0;\r\n\r\n  Request[] public all_requests;\r\n\r\n  Document[] public all_documents; //array to store all the documents of the system\r\n  mapping(address => User) public users; // mapping of user address to user data \r\n  mapping(address => Admin) public admins; //mapping of admin address to admin data\r\n  mapping(address => uint256[]) public requests; //mapping of the user addess to all the requests made by that address\r\n  mapping(address => uint256[]) public documents; // mapping of the user address to their documents\r\n  \r\n\r\n  modifier is_admin(){\r\n    require(admins[msg.sender].id != address(0x0),\"Only admins can perform this action\");\r\n    _;\r\n  }\r\n\r\n  modifier is_existent(uint _document_id){\r\n    require(_document_id < all_documents.length, \"Document does not exist\");\r\n    _;\r\n  }\r\n\r\n  modifier is_allowed(uint _document_id){\r\n    require(admins[msg.sender].id != address(0x0) || all_documents[_document_id].user == msg.sender, \"You are not allowed to perform this action\");\r\n    _;\r\n  }\r\n\r\n  constructor()  {\r\n      emit DeDocs_deployed(\"Contract deployed successfully\");\r\n  }\r\n\r\n  function register_user(string memory _name, string memory _dob, string memory _password, string memory _joined) payable public returns (User memory){\r\n\r\n    require(users[msg.sender].id == address(0x0),\"This address is already registered\");\r\n\r\n    User memory _user;\r\n    _user.id = msg.sender;\r\n    _user.name = _name;\r\n    _user.dob = _dob;\r\n    _user.password = _password;\r\n    _user.joined = _joined;\r\n    _user.total_requests = 0;\r\n\r\n    users[msg.sender] = _user;\r\n\r\n    return _user;\r\n  }\r\n\r\n  function register_admin(string memory _name, DEPARTMENT _department) payable public returns (Admin memory){\r\n\r\n    require(admins[msg.sender].id == address(0x0),\"This address is already registered\");\r\n\r\n    Admin memory _admin;\r\n    _admin.id = msg.sender;\r\n    _admin.name = _name;\r\n    _admin.department = _department;\r\n\r\n    admins[msg.sender] = _admin;\r\n\r\n    return _admin;\r\n  }\r\n\r\n  function get_departments() public pure returns(string[4] memory departments){\r\n    string[4] memory _departments = [\"UNIQUE IDENTIFICATION AUTHORITY OF INDIA\",\"INCOME TAX\",\"MUNICIPAL CORPORATION\",\"STATE TRANSPORTD EPARTMENT\"];\r\n    return _departments;\r\n  }\r\n\r\n  function get_role(address _address) public view returns(ROLE role){\r\n\r\n    if(users[_address].id != address(0x0)) return ROLE.USER;\r\n    if(admins[_address].id != address(0x0)) return ROLE.ADMIN;\r\n\r\n    return ROLE.NOT_REGISTERED;\r\n\r\n  }\r\n\r\n  function get_all_requests() public view returns(Request[] memory){\r\n    return all_requests;\r\n  }\r\n\r\n  function get_all_documents() public view returns(Document[] memory){\r\n    return all_documents;\r\n  }\r\n\r\n  /***********************************  USER FUNCTIONS  *********************************/\r\n\r\n  function get_user_details(address _address) public view returns(User memory user){\r\n    User memory _user = users[_address];\r\n    return _user;\r\n  }\r\n\r\n  function get_user_requests() public view returns(uint256[] memory _requests){\r\n\r\n    uint256[] memory _my_requests = requests[msg.sender];\r\n    return _my_requests;\r\n    \r\n  }\r\n\r\n  function get_user_documents() public view returns(uint256[] memory _documents){\r\n\r\n    uint256[] memory _my_documents = documents[msg.sender];\r\n    return _my_documents;\r\n    \r\n  }\r\n\r\n  function make_request(DEPARTMENT _department,  string memory _subject, string memory _description, string memory _ipfs_hash, REQUEST_CATEGORY _request_category, string memory _date) public payable returns(Request memory){\r\n\r\n    Request memory request;\r\n\r\n    request.id = total_requests;\r\n    request.user_id = msg.sender;\r\n    request.subject = _subject;\r\n    request.description = _description;\r\n    request.ipfs_hash = _ipfs_hash;\r\n    request.date = _date;\r\n    request.department = _department;\r\n    request.category = _request_category;\r\n    request.status = REQUEST_STATUS.PENDING;\r\n    request.document_id = 0;\r\n\r\n    all_requests.push(request);\r\n    total_requests += 1;\r\n\r\n    emit Request_made(msg.sender, request.id, _department);\r\n\r\n    return request;\r\n  }\r\n\r\n\r\n  /********************************ADMIN FUNCTIONS********************************/\r\n\r\n  function get_admin_details() public view returns(Admin memory admin){\r\n    Admin memory _admin = admins[msg.sender];\r\n    return _admin;\r\n  }\r\n\r\n  function get_document (uint _document_id) is_existent(_document_id) is_allowed(_document_id) public view returns (Document memory){\r\n    Document memory _document = all_documents[_document_id];\r\n    return _document;\r\n  }\r\n\r\n  function reject_request(uint _request_id, string memory _remarks) is_admin public payable{\r\n    Request memory _request = all_requests[_request_id];\r\n    _request.status = REQUEST_STATUS.REJECTED;\r\n    _request.remarks = _remarks;\r\n    all_requests[_request_id] = _request;\r\n  }\r\n\r\n  function approve_request(uint _request_id) is_admin public payable{\r\n    Request memory _request = all_requests[_request_id];\r\n    _request.status = REQUEST_STATUS.SUCCESS;\r\n    all_requests[_request_id] = _request;\r\n  }\r\n\r\n  function issue_document(uint _request_id, address _userAddress, string memory _name, string memory _uid, string memory _ipfs_hash, string memory _issued_on) is_admin public payable returns(Document memory){\r\n    \r\n    //check if user is registered\r\n    require(users[_userAddress].id != address(0x0),\"User is not registered\");\r\n\r\n    //check if no document is already issued for this request\r\n    Request memory _request = all_requests[_request_id];\r\n    require(_request.document_id == 0,\"Document has already been issued for this request\");\r\n\r\n    //create a new document instance\r\n    Document memory _document;\r\n    _document.id = all_documents.length + 1;\r\n    _document.name = _name;\r\n    _document.uid = _uid;\r\n    _document.ipfs_hash = _ipfs_hash;\r\n    _document.issued_on = _issued_on;\r\n    _document.user = _userAddress;\r\n    _document.admin = msg.sender;\r\n    _document.department = _request.department;\r\n\r\n    //insert the document to the records\r\n    all_documents.push(_document);\r\n    documents[_userAddress].push(_document.id);\r\n\r\n    //update the request\r\n    _request.document_id = _document.id;\r\n    all_requests[_request_id] = _request;\r\n\r\n    emit Document_issued(_userAddress, msg.sender, _document.id);\r\n\r\n    return _document;\r\n  }\r\n\r\n\r\n  function modify_document(uint _document_id, Document memory _new_document, string memory _last_updated, string memory _message) is_existent(_document_id) is_admin public payable returns(Document memory){\r\n    \r\n    //Get the current version of the document\r\n    Document memory _old_document = all_documents[_document_id];\r\n\r\n    //update the document\r\n    _new_document.last_updated = _last_updated;\r\n    all_documents[_document_id] = _new_document;\r\n\r\n    emit Document_modified(_document_id, _old_document, _new_document, _message);\r\n\r\n    return _new_document;\r\n  }\r\n\r\n}\r\n",
  "sourcePath": "C:\\Users\\Kailash\\Desktop\\summer project\\backend\\contracts\\DeDocs.sol",
  "compiler": {
    "name": "solc",
    "version": "0.8.11+commit.d7f03943.Emscripten.clang"
  },
  "schemaVersion": "3.4.5",
  "updatedAt": "2022-06-30T22:41:44.617Z",
  "networkType": "ethereum",
  "devdoc": {
    "kind": "dev",
    "methods": {},
    "version": 1
  },
  "userdoc": {
    "kind": "user",
    "methods": {},
    "version": 1
  }
}