{
  "contractName": "DeDocs",
  "abi": [
    {
      "inputs": [],
      "stateMutability": "nonpayable",
      "type": "constructor"
    },
    {
      "anonymous": false,
      "inputs": [
        {
          "indexed": false,
          "internalType": "string",
          "name": "message",
          "type": "string"
        }
      ],
      "name": "DeDocs_deployed",
      "type": "event"
    },
    {
      "anonymous": false,
      "inputs": [
        {
          "indexed": false,
          "internalType": "address",
          "name": "user",
          "type": "address"
        },
        {
          "indexed": false,
          "internalType": "address",
          "name": "admin",
          "type": "address"
        },
        {
          "indexed": false,
          "internalType": "uint256",
          "name": "document_id",
          "type": "uint256"
        }
      ],
      "name": "Document_issued",
      "type": "event"
    },
    {
      "anonymous": false,
      "inputs": [
        {
          "indexed": false,
          "internalType": "uint256",
          "name": "document_id",
          "type": "uint256"
        },
        {
          "components": [
            {
              "internalType": "uint256",
              "name": "id",
              "type": "uint256"
            },
            {
              "internalType": "uint256",
              "name": "request_id",
              "type": "uint256"
            },
            {
              "internalType": "string",
              "name": "name",
              "type": "string"
            },
            {
              "internalType": "string",
              "name": "ipfs_hash",
              "type": "string"
            },
            {
              "internalType": "string",
              "name": "issued_on",
              "type": "string"
            },
            {
              "internalType": "string",
              "name": "last_updated",
              "type": "string"
            },
            {
              "internalType": "address",
              "name": "admin",
              "type": "address"
            },
            {
              "internalType": "address",
              "name": "user",
              "type": "address"
            }
          ],
          "indexed": false,
          "internalType": "struct DeDocs.Document",
          "name": "old_document",
          "type": "tuple"
        },
        {
          "components": [
            {
              "internalType": "uint256",
              "name": "id",
              "type": "uint256"
            },
            {
              "internalType": "uint256",
              "name": "request_id",
              "type": "uint256"
            },
            {
              "internalType": "string",
              "name": "name",
              "type": "string"
            },
            {
              "internalType": "string",
              "name": "ipfs_hash",
              "type": "string"
            },
            {
              "internalType": "string",
              "name": "issued_on",
              "type": "string"
            },
            {
              "internalType": "string",
              "name": "last_updated",
              "type": "string"
            },
            {
              "internalType": "address",
              "name": "admin",
              "type": "address"
            },
            {
              "internalType": "address",
              "name": "user",
              "type": "address"
            }
          ],
          "indexed": false,
          "internalType": "struct DeDocs.Document",
          "name": "new_document",
          "type": "tuple"
        },
        {
          "indexed": false,
          "internalType": "string",
          "name": "message",
          "type": "string"
        }
      ],
      "name": "Document_modified",
      "type": "event"
    },
    {
      "anonymous": false,
      "inputs": [
        {
          "indexed": false,
          "internalType": "address",
          "name": "user",
          "type": "address"
        },
        {
          "indexed": false,
          "internalType": "uint256",
          "name": "request_id",
          "type": "uint256"
        },
        {
          "indexed": false,
          "internalType": "enum DeDocs.DEPARTMENT",
          "name": "department",
          "type": "uint8"
        }
      ],
      "name": "Request_made",
      "type": "event"
    },
    {
      "inputs": [
        {
          "internalType": "address",
          "name": "",
          "type": "address"
        }
      ],
      "name": "admins",
      "outputs": [
        {
          "internalType": "address",
          "name": "id",
          "type": "address"
        },
        {
          "internalType": "string",
          "name": "name",
          "type": "string"
        },
        {
          "internalType": "enum DeDocs.DEPARTMENT",
          "name": "department",
          "type": "uint8"
        }
      ],
      "stateMutability": "view",
      "type": "function",
      "constant": true
    },
    {
      "inputs": [
        {
          "internalType": "uint256",
          "name": "",
          "type": "uint256"
        }
      ],
      "name": "all_documents",
      "outputs": [
        {
          "internalType": "uint256",
          "name": "id",
          "type": "uint256"
        },
        {
          "internalType": "uint256",
          "name": "request_id",
          "type": "uint256"
        },
        {
          "internalType": "string",
          "name": "name",
          "type": "string"
        },
        {
          "internalType": "string",
          "name": "ipfs_hash",
          "type": "string"
        },
        {
          "internalType": "string",
          "name": "issued_on",
          "type": "string"
        },
        {
          "internalType": "string",
          "name": "last_updated",
          "type": "string"
        },
        {
          "internalType": "address",
          "name": "admin",
          "type": "address"
        },
        {
          "internalType": "address",
          "name": "user",
          "type": "address"
        }
      ],
      "stateMutability": "view",
      "type": "function",
      "constant": true
    },
    {
      "inputs": [
        {
          "internalType": "uint256",
          "name": "",
          "type": "uint256"
        }
      ],
      "name": "all_requests",
      "outputs": [
        {
          "internalType": "uint256",
          "name": "id",
          "type": "uint256"
        },
        {
          "internalType": "address",
          "name": "user_id",
          "type": "address"
        },
        {
          "internalType": "string",
          "name": "subject",
          "type": "string"
        },
        {
          "internalType": "string",
          "name": "description",
          "type": "string"
        },
        {
          "internalType": "string",
          "name": "ipfs_hash",
          "type": "string"
        },
        {
          "internalType": "string",
          "name": "date",
          "type": "string"
        },
        {
          "internalType": "enum DeDocs.DEPARTMENT",
          "name": "department",
          "type": "uint8"
        },
        {
          "internalType": "enum DeDocs.REQUEST_CATEGORY",
          "name": "category",
          "type": "uint8"
        },
        {
          "internalType": "enum DeDocs.REQUEST_STATUS",
          "name": "status",
          "type": "uint8"
        },
        {
          "internalType": "uint256",
          "name": "document_id",
          "type": "uint256"
        },
        {
          "internalType": "string",
          "name": "remarks",
          "type": "string"
        }
      ],
      "stateMutability": "view",
      "type": "function",
      "constant": true
    },
    {
      "inputs": [
        {
          "internalType": "address",
          "name": "",
          "type": "address"
        },
        {
          "internalType": "uint256",
          "name": "",
          "type": "uint256"
        }
      ],
      "name": "documents",
      "outputs": [
        {
          "internalType": "uint256",
          "name": "",
          "type": "uint256"
        }
      ],
      "stateMutability": "view",
      "type": "function",
      "constant": true
    },
    {
      "inputs": [
        {
          "internalType": "address",
          "name": "",
          "type": "address"
        },
        {
          "internalType": "uint256",
          "name": "",
          "type": "uint256"
        }
      ],
      "name": "requests",
      "outputs": [
        {
          "internalType": "uint256",
          "name": "",
          "type": "uint256"
        }
      ],
      "stateMutability": "view",
      "type": "function",
      "constant": true
    },
    {
      "inputs": [],
      "name": "total_requests",
      "outputs": [
        {
          "internalType": "uint256",
          "name": "",
          "type": "uint256"
        }
      ],
      "stateMutability": "view",
      "type": "function",
      "constant": true
    },
    {
      "inputs": [
        {
          "internalType": "address",
          "name": "",
          "type": "address"
        }
      ],
      "name": "users",
      "outputs": [
        {
          "internalType": "address",
          "name": "id",
          "type": "address"
        },
        {
          "internalType": "string",
          "name": "name",
          "type": "string"
        },
        {
          "internalType": "string",
          "name": "dob",
          "type": "string"
        },
        {
          "internalType": "string",
          "name": "password",
          "type": "string"
        },
        {
          "internalType": "string",
          "name": "joined",
          "type": "string"
        },
        {
          "internalType": "uint256",
          "name": "total_requests",
          "type": "uint256"
        }
      ],
      "stateMutability": "view",
      "type": "function",
      "constant": true
    },
    {
      "inputs": [
        {
          "internalType": "string",
          "name": "_name",
          "type": "string"
        },
        {
          "internalType": "string",
          "name": "_dob",
          "type": "string"
        },
        {
          "internalType": "string",
          "name": "_password",
          "type": "string"
        },
        {
          "internalType": "string",
          "name": "_joined",
          "type": "string"
        }
      ],
      "name": "register_user",
      "outputs": [
        {
          "components": [
            {
              "internalType": "address",
              "name": "id",
              "type": "address"
            },
            {
              "internalType": "string",
              "name": "name",
              "type": "string"
            },
            {
              "internalType": "string",
              "name": "dob",
              "type": "string"
            },
            {
              "internalType": "string",
              "name": "password",
              "type": "string"
            },
            {
              "internalType": "string",
              "name": "joined",
              "type": "string"
            },
            {
              "internalType": "uint256",
              "name": "total_requests",
              "type": "uint256"
            }
          ],
          "internalType": "struct DeDocs.User",
          "name": "",
          "type": "tuple"
        }
      ],
      "stateMutability": "payable",
      "type": "function",
      "payable": true
    },
    {
      "inputs": [
        {
          "internalType": "string",
          "name": "_name",
          "type": "string"
        },
        {
          "internalType": "enum DeDocs.DEPARTMENT",
          "name": "_department",
          "type": "uint8"
        }
      ],
      "name": "register_admin",
      "outputs": [
        {
          "components": [
            {
              "internalType": "address",
              "name": "id",
              "type": "address"
            },
            {
              "internalType": "string",
              "name": "name",
              "type": "string"
            },
            {
              "internalType": "enum DeDocs.DEPARTMENT",
              "name": "department",
              "type": "uint8"
            }
          ],
          "internalType": "struct DeDocs.Admin",
          "name": "",
          "type": "tuple"
        }
      ],
      "stateMutability": "payable",
      "type": "function",
      "payable": true
    },
    {
      "inputs": [],
      "name": "get_departments",
      "outputs": [
        {
          "internalType": "string[4]",
          "name": "departments",
          "type": "string[4]"
        }
      ],
      "stateMutability": "pure",
      "type": "function",
      "constant": true
    },
    {
      "inputs": [
        {
          "internalType": "address",
          "name": "_address",
          "type": "address"
        }
      ],
      "name": "get_role",
      "outputs": [
        {
          "internalType": "enum DeDocs.ROLE",
          "name": "role",
          "type": "uint8"
        }
      ],
      "stateMutability": "view",
      "type": "function",
      "constant": true
    },
    {
      "inputs": [
        {
          "internalType": "address",
          "name": "_address",
          "type": "address"
        }
      ],
      "name": "get_user_details",
      "outputs": [
        {
          "components": [
            {
              "internalType": "address",
              "name": "id",
              "type": "address"
            },
            {
              "internalType": "string",
              "name": "name",
              "type": "string"
            },
            {
              "internalType": "string",
              "name": "dob",
              "type": "string"
            },
            {
              "internalType": "string",
              "name": "password",
              "type": "string"
            },
            {
              "internalType": "string",
              "name": "joined",
              "type": "string"
            },
            {
              "internalType": "uint256",
              "name": "total_requests",
              "type": "uint256"
            }
          ],
          "internalType": "struct DeDocs.User",
          "name": "user",
          "type": "tuple"
        }
      ],
      "stateMutability": "view",
      "type": "function",
      "constant": true
    },
    {
      "inputs": [],
      "name": "get_user_requests",
      "outputs": [
        {
          "internalType": "uint256[]",
          "name": "_requests",
          "type": "uint256[]"
        }
      ],
      "stateMutability": "view",
      "type": "function",
      "constant": true
    },
    {
      "inputs": [
        {
          "internalType": "enum DeDocs.DEPARTMENT",
          "name": "_department",
          "type": "uint8"
        },
        {
          "internalType": "string",
          "name": "_subject",
          "type": "string"
        },
        {
          "internalType": "string",
          "name": "_description",
          "type": "string"
        },
        {
          "internalType": "string",
          "name": "_ipfs_hash",
          "type": "string"
        },
        {
          "internalType": "enum DeDocs.REQUEST_CATEGORY",
          "name": "_request_category",
          "type": "uint8"
        },
        {
          "internalType": "string",
          "name": "_date",
          "type": "string"
        }
      ],
      "name": "make_request",
      "outputs": [
        {
          "components": [
            {
              "internalType": "uint256",
              "name": "id",
              "type": "uint256"
            },
            {
              "internalType": "address",
              "name": "user_id",
              "type": "address"
            },
            {
              "internalType": "string",
              "name": "subject",
              "type": "string"
            },
            {
              "internalType": "string",
              "name": "description",
              "type": "string"
            },
            {
              "internalType": "string",
              "name": "ipfs_hash",
              "type": "string"
            },
            {
              "internalType": "string",
              "name": "date",
              "type": "string"
            },
            {
              "internalType": "enum DeDocs.DEPARTMENT",
              "name": "department",
              "type": "uint8"
            },
            {
              "internalType": "enum DeDocs.REQUEST_CATEGORY",
              "name": "category",
              "type": "uint8"
            },
            {
              "internalType": "enum DeDocs.REQUEST_STATUS",
              "name": "status",
              "type": "uint8"
            },
            {
              "internalType": "uint256",
              "name": "document_id",
              "type": "uint256"
            },
            {
              "internalType": "string",
              "name": "remarks",
              "type": "string"
            }
          ],
          "internalType": "struct DeDocs.Request",
          "name": "",
          "type": "tuple"
        }
      ],
      "stateMutability": "payable",
      "type": "function",
      "payable": true
    },
    {
      "inputs": [],
      "name": "get_admin_details",
      "outputs": [
        {
          "components": [
            {
              "internalType": "address",
              "name": "id",
              "type": "address"
            },
            {
              "internalType": "string",
              "name": "name",
              "type": "string"
            },
            {
              "internalType": "enum DeDocs.DEPARTMENT",
              "name": "department",
              "type": "uint8"
            }
          ],
          "internalType": "struct DeDocs.Admin",
          "name": "admin",
          "type": "tuple"
        }
      ],
      "stateMutability": "view",
      "type": "function",
      "constant": true
    },
    {
      "inputs": [
        {
          "internalType": "uint256",
          "name": "_document_id",
          "type": "uint256"
        }
      ],
      "name": "get_document",
      "outputs": [
        {
          "components": [
            {
              "internalType": "uint256",
              "name": "id",
              "type": "uint256"
            },
            {
              "internalType": "uint256",
              "name": "request_id",
              "type": "uint256"
            },
            {
              "internalType": "string",
              "name": "name",
              "type": "string"
            },
            {
              "internalType": "string",
              "name": "ipfs_hash",
              "type": "string"
            },
            {
              "internalType": "string",
              "name": "issued_on",
              "type": "string"
            },
            {
              "internalType": "string",
              "name": "last_updated",
              "type": "string"
            },
            {
              "internalType": "address",
              "name": "admin",
              "type": "address"
            },
            {
              "internalType": "address",
              "name": "user",
              "type": "address"
            }
          ],
          "internalType": "struct DeDocs.Document",
          "name": "",
          "type": "tuple"
        }
      ],
      "stateMutability": "view",
      "type": "function",
      "constant": true
    },
    {
      "inputs": [
        {
          "internalType": "uint256",
          "name": "_request_id",
          "type": "uint256"
        }
      ],
      "name": "approve_request",
      "outputs": [],
      "stateMutability": "payable",
      "type": "function",
      "payable": true
    },
    {
      "inputs": [
        {
          "internalType": "uint256",
          "name": "_request_id",
          "type": "uint256"
        },
        {
          "internalType": "address",
          "name": "_userAddress",
          "type": "address"
        },
        {
          "internalType": "string",
          "name": "_name",
          "type": "string"
        },
        {
          "internalType": "string",
          "name": "_ipfs_hash",
          "type": "string"
        },
        {
          "internalType": "string",
          "name": "_issued_on",
          "type": "string"
        }
      ],
      "name": "issue_document",
      "outputs": [
        {
          "components": [
            {
              "internalType": "uint256",
              "name": "id",
              "type": "uint256"
            },
            {
              "internalType": "uint256",
              "name": "request_id",
              "type": "uint256"
            },
            {
              "internalType": "string",
              "name": "name",
              "type": "string"
            },
            {
              "internalType": "string",
              "name": "ipfs_hash",
              "type": "string"
            },
            {
              "internalType": "string",
              "name": "issued_on",
              "type": "string"
            },
            {
              "internalType": "string",
              "name": "last_updated",
              "type": "string"
            },
            {
              "internalType": "address",
              "name": "admin",
              "type": "address"
            },
            {
              "internalType": "address",
              "name": "user",
              "type": "address"
            }
          ],
          "internalType": "struct DeDocs.Document",
          "name": "",
          "type": "tuple"
        }
      ],
      "stateMutability": "payable",
      "type": "function",
      "payable": true
    },
    {
      "inputs": [
        {
          "internalType": "uint256",
          "name": "_document_id",
          "type": "uint256"
        },
        {
          "components": [
            {
              "internalType": "uint256",
              "name": "id",
              "type": "uint256"
            },
            {
              "internalType": "uint256",
              "name": "request_id",
              "type": "uint256"
            },
            {
              "internalType": "string",
              "name": "name",
              "type": "string"
            },
            {
              "internalType": "string",
              "name": "ipfs_hash",
              "type": "string"
            },
            {
              "internalType": "string",
              "name": "issued_on",
              "type": "string"
            },
            {
              "internalType": "string",
              "name": "last_updated",
              "type": "string"
            },
            {
              "internalType": "address",
              "name": "admin",
              "type": "address"
            },
            {
              "internalType": "address",
              "name": "user",
              "type": "address"
            }
          ],
          "internalType": "struct DeDocs.Document",
          "name": "_new_document",
          "type": "tuple"
        },
        {
          "internalType": "string",
          "name": "_last_updated",
          "type": "string"
        },
        {
          "internalType": "string",
          "name": "_message",
          "type": "string"
        }
      ],
      "name": "modify_document",
      "outputs": [
        {
          "components": [
            {
              "internalType": "uint256",
              "name": "id",
              "type": "uint256"
            },
            {
              "internalType": "uint256",
              "name": "request_id",
              "type": "uint256"
            },
            {
              "internalType": "string",
              "name": "name",
              "type": "string"
            },
            {
              "internalType": "string",
              "name": "ipfs_hash",
              "type": "string"
            },
            {
              "internalType": "string",
              "name": "issued_on",
              "type": "string"
            },
            {
              "internalType": "string",
              "name": "last_updated",
              "type": "string"
            },
            {
              "internalType": "address",
              "name": "admin",
              "type": "address"
            },
            {
              "internalType": "address",
              "name": "user",
              "type": "address"
            }
          ],
          "internalType": "struct DeDocs.Document",
          "name": "",
          "type": "tuple"
        }
      ],
      "stateMutability": "payable",
      "type": "function",
      "payable": true
    }
  ],
  "bytecode": "0x6080604052600080553480156200001557600080fd5b507f9ab3570e7e18bfba94b9c1020a507301d734b0c1bd22301391288a326884adc16040516200004590620000b4565b60405180910390a1620000d6565b600082825260208201905092915050565b7f436f6e7472616374206465706c6f796564207375636365737366756c6c790000600082015250565b60006200009c601e8362000053565b9150620000a98262000064565b602082019050919050565b60006020820190508181036000830152620000cf816200008d565b9050919050565b61528a80620000e66000396000f3fe6080604052600436106101145760003560e01c80637673ac95116100a0578063ca76115c11610064578063ca76115c1461041b578063cb736f2614610446578063d2965f0414610476578063d9371aeb146104b3578063f7a37b52146104e357610114565b80637673ac95146102f8578063789469bd1461033c5780639ecebe2a1461036c5780639ef6cf57146103a9578063a87430ba146103d957610114565b806338925c7d116100e757806338925c7d146101d757806339c22db814610214578063429b62e5146102515780636339884414610290578063726f091e146102cd57610114565b80630776a4f3146101195780630c99d1301461014957806318db724f1461016557806326611b5a146101ac575b600080fd5b610133600480360381019061012e9190613d79565b61050e565b6040516101409190613fd0565b60405180910390f35b610163600480360381019061015e919061401e565b61076a565b005b34801561017157600080fd5b5061018c6004803603810190610187919061401e565b610e3e565b6040516101a39b9a999897969594939291906141ba565b60405180910390f35b3480156101b857600080fd5b506101c1611197565b6040516101ce9190614288565b60405180910390f35b3480156101e357600080fd5b506101fe60048036038101906101f9919061401e565b61119d565b60405161020b9190614368565b60405180910390f35b34801561022057600080fd5b5061023b600480360381019061023691906143b6565b611680565b604051610248919061442b565b60405180910390f35b34801561025d57600080fd5b50610278600480360381019061027391906143b6565b6117c9565b60405161028793929190614446565b60405180910390f35b34801561029c57600080fd5b506102b760048036038101906102b29190614484565b6118a8565b6040516102c49190614288565b60405180910390f35b3480156102d957600080fd5b506102e26118d9565b6040516102ef919061457a565b60405180910390f35b34801561030457600080fd5b5061031f600480360381019061031a919061401e565b6119c4565b60405161033398979695949392919061459c565b60405180910390f35b6103566004803603810190610351919061465b565b611c7c565b6040516103639190614716565b60405180910390f35b34801561037857600080fd5b50610393600480360381019061038e9190614484565b611eaf565b6040516103a09190614288565b60405180910390f35b6103c360048036038101906103be919061475d565b611ee0565b6040516103d09190614983565b60405180910390f35b3480156103e557600080fd5b5061040060048036038101906103fb91906143b6565b6121fd565b604051610412969594939291906149a5565b60405180910390f35b34801561042757600080fd5b50610430612479565b60405161043d9190614ad1565b60405180910390f35b610460600480360381019061045b9190614af3565b612514565b60405161046d9190614368565b60405180910390f35b34801561048257600080fd5b5061049d600480360381019061049891906143b6565b612f37565b6040516104aa9190613fd0565b60405180910390f35b6104cd60048036038101906104c89190614d06565b61323e565b6040516104da9190614368565b60405180910390f35b3480156104ef57600080fd5b506104f8613829565b6040516105059190614716565b60405180910390f35b6105166139a9565b600073ffffffffffffffffffffffffffffffffffffffff16600360003373ffffffffffffffffffffffffffffffffffffffff1673ffffffffffffffffffffffffffffffffffffffff16815260200190815260200160002060000160009054906101000a900473ffffffffffffffffffffffffffffffffffffffff1673ffffffffffffffffffffffffffffffffffffffff16146105e7576040517f08c379a00000000000000000000000000000000000000000000000000000000081526004016105de90614e33565b60405180910390fd5b6105ef6139a9565b33816000019073ffffffffffffffffffffffffffffffffffffffff16908173ffffffffffffffffffffffffffffffffffffffff168152505085816020018190525084816040018190525083816060018190525082816080018190525060008160a001818152505080600360003373ffffffffffffffffffffffffffffffffffffffff1673ffffffffffffffffffffffffffffffffffffffff16815260200190815260200160002060008201518160000160006101000a81548173ffffffffffffffffffffffffffffffffffffffff021916908373ffffffffffffffffffffffffffffffffffffffff16021790555060208201518160010190805190602001906106f99291906139f5565b5060408201518160020190805190602001906107169291906139f5565b5060608201518160030190805190602001906107339291906139f5565b5060808201518160040190805190602001906107509291906139f5565b5060a0820151816005015590505080915050949350505050565b600073ffffffffffffffffffffffffffffffffffffffff16600460003373ffffffffffffffffffffffffffffffffffffffff1673ffffffffffffffffffffffffffffffffffffffff16815260200190815260200160002060000160009054906101000a900473ffffffffffffffffffffffffffffffffffffffff1673ffffffffffffffffffffffffffffffffffffffff16141561083c576040517f08c379a000000000000000000000000000000000000000000000000000000000815260040161083390614ec5565b60405180910390fd5b60006001828154811061085257610851614ee5565b5b906000526020600020906009020160405180610160016040529081600082015481526020016001820160009054906101000a900473ffffffffffffffffffffffffffffffffffffffff1673ffffffffffffffffffffffffffffffffffffffff1673ffffffffffffffffffffffffffffffffffffffff1681526020016002820180546108dc90614f43565b80601f016020809104026020016040519081016040528092919081815260200182805461090890614f43565b80156109555780601f1061092a57610100808354040283529160200191610955565b820191906000526020600020905b81548152906001019060200180831161093857829003601f168201915b5050505050815260200160038201805461096e90614f43565b80601f016020809104026020016040519081016040528092919081815260200182805461099a90614f43565b80156109e75780601f106109bc576101008083540402835291602001916109e7565b820191906000526020600020905b8154815290600101906020018083116109ca57829003601f168201915b50505050508152602001600482018054610a0090614f43565b80601f0160208091040260200160405190810160405280929190818152602001828054610a2c90614f43565b8015610a795780601f10610a4e57610100808354040283529160200191610a79565b820191906000526020600020905b815481529060010190602001808311610a5c57829003601f168201915b50505050508152602001600582018054610a9290614f43565b80601f0160208091040260200160405190810160405280929190818152602001828054610abe90614f43565b8015610b0b5780601f10610ae057610100808354040283529160200191610b0b565b820191906000526020600020905b815481529060010190602001808311610aee57829003601f168201915b505050505081526020016006820160009054906101000a900460ff166003811115610b3957610b386140b3565b5b6003811115610b4b57610b4a6140b3565b5b81526020016006820160019054906101000a900460ff166002811115610b7457610b736140b3565b5b6002811115610b8657610b856140b3565b5b81526020016006820160029054906101000a900460ff166002811115610baf57610bae6140b3565b5b6002811115610bc157610bc06140b3565b5b815260200160078201548152602001600882018054610bdf90614f43565b80601f0160208091040260200160405190810160405280929190818152602001828054610c0b90614f43565b8015610c585780601f10610c2d57610100808354040283529160200191610c58565b820191906000526020600020905b815481529060010190602001808311610c3b57829003601f168201915b505050505081525050905060018161010001906002811115610c7d57610c7c6140b3565b5b90816002811115610c9157610c906140b3565b5b815250508060018381548110610caa57610ca9614ee5565b5b90600052602060002090600902016000820151816000015560208201518160010160006101000a81548173ffffffffffffffffffffffffffffffffffffffff021916908373ffffffffffffffffffffffffffffffffffffffff1602179055506040820151816002019080519060200190610d259291906139f5565b506060820151816003019080519060200190610d429291906139f5565b506080820151816004019080519060200190610d5f9291906139f5565b5060a0820151816005019080519060200190610d7c9291906139f5565b5060c08201518160060160006101000a81548160ff02191690836003811115610da857610da76140b3565b5b021790555060e08201518160060160016101000a81548160ff02191690836002811115610dd857610dd76140b3565b5b02179055506101008201518160060160026101000a81548160ff02191690836002811115610e0957610e086140b3565b5b02179055506101208201518160070155610140820151816008019080519060200190610e369291906139f5565b509050505050565b60018181548110610e4e57600080fd5b90600052602060002090600902016000915090508060000154908060010160009054906101000a900473ffffffffffffffffffffffffffffffffffffffff1690806002018054610e9d90614f43565b80601f0160208091040260200160405190810160405280929190818152602001828054610ec990614f43565b8015610f165780601f10610eeb57610100808354040283529160200191610f16565b820191906000526020600020905b815481529060010190602001808311610ef957829003601f168201915b505050505090806003018054610f2b90614f43565b80601f0160208091040260200160405190810160405280929190818152602001828054610f5790614f43565b8015610fa45780601f10610f7957610100808354040283529160200191610fa4565b820191906000526020600020905b815481529060010190602001808311610f8757829003601f168201915b505050505090806004018054610fb990614f43565b80601f0160208091040260200160405190810160405280929190818152602001828054610fe590614f43565b80156110325780601f1061100757610100808354040283529160200191611032565b820191906000526020600020905b81548152906001019060200180831161101557829003601f168201915b50505050509080600501805461104790614f43565b80601f016020809104026020016040519081016040528092919081815260200182805461107390614f43565b80156110c05780601f10611095576101008083540402835291602001916110c0565b820191906000526020600020905b8154815290600101906020018083116110a357829003601f168201915b5050505050908060060160009054906101000a900460ff16908060060160019054906101000a900460ff16908060060160029054906101000a900460ff169080600701549080600801805461111490614f43565b80601f016020809104026020016040519081016040528092919081815260200182805461114090614f43565b801561118d5780601f106111625761010080835404028352916020019161118d565b820191906000526020600020905b81548152906001019060200180831161117057829003601f168201915b505050505090508b565b60005481565b6111a5613a7b565b8160028054905081106111ed576040517f08c379a00000000000000000000000000000000000000000000000000000000081526004016111e490614fc1565b60405180910390fd5b82600073ffffffffffffffffffffffffffffffffffffffff16600460003373ffffffffffffffffffffffffffffffffffffffff1673ffffffffffffffffffffffffffffffffffffffff16815260200190815260200160002060000160009054906101000a900473ffffffffffffffffffffffffffffffffffffffff1673ffffffffffffffffffffffffffffffffffffffff161415806112fc57503373ffffffffffffffffffffffffffffffffffffffff16600282815481106112b2576112b1614ee5565b5b906000526020600020906008020160070160009054906101000a900473ffffffffffffffffffffffffffffffffffffffff1673ffffffffffffffffffffffffffffffffffffffff16145b61133b576040517f08c379a000000000000000000000000000000000000000000000000000000000815260040161133290615053565b60405180910390fd5b60006002858154811061135157611350614ee5565b5b906000526020600020906008020160405180610100016040529081600082015481526020016001820154815260200160028201805461138f90614f43565b80601f01602080910402602001604051908101604052809291908181526020018280546113bb90614f43565b80156114085780601f106113dd57610100808354040283529160200191611408565b820191906000526020600020905b8154815290600101906020018083116113eb57829003601f168201915b5050505050815260200160038201805461142190614f43565b80601f016020809104026020016040519081016040528092919081815260200182805461144d90614f43565b801561149a5780601f1061146f5761010080835404028352916020019161149a565b820191906000526020600020905b81548152906001019060200180831161147d57829003601f168201915b505050505081526020016004820180546114b390614f43565b80601f01602080910402602001604051908101604052809291908181526020018280546114df90614f43565b801561152c5780601f106115015761010080835404028352916020019161152c565b820191906000526020600020905b81548152906001019060200180831161150f57829003601f168201915b5050505050815260200160058201805461154590614f43565b80601f016020809104026020016040519081016040528092919081815260200182805461157190614f43565b80156115be5780601f10611593576101008083540402835291602001916115be565b820191906000526020600020905b8154815290600101906020018083116115a157829003601f168201915b505050505081526020016006820160009054906101000a900473ffffffffffffffffffffffffffffffffffffffff1673ffffffffffffffffffffffffffffffffffffffff1673ffffffffffffffffffffffffffffffffffffffff1681526020016007820160009054906101000a900473ffffffffffffffffffffffffffffffffffffffff1673ffffffffffffffffffffffffffffffffffffffff1673ffffffffffffffffffffffffffffffffffffffff16815250509050809350505050919050565b60008073ffffffffffffffffffffffffffffffffffffffff16600360008473ffffffffffffffffffffffffffffffffffffffff1673ffffffffffffffffffffffffffffffffffffffff16815260200190815260200160002060000160009054906101000a900473ffffffffffffffffffffffffffffffffffffffff1673ffffffffffffffffffffffffffffffffffffffff161461172057600290506117c4565b600073ffffffffffffffffffffffffffffffffffffffff16600460008473ffffffffffffffffffffffffffffffffffffffff1673ffffffffffffffffffffffffffffffffffffffff16815260200190815260200160002060000160009054906101000a900473ffffffffffffffffffffffffffffffffffffffff1673ffffffffffffffffffffffffffffffffffffffff16146117bf57600190506117c4565b600090505b919050565b60046020528060005260406000206000915090508060000160009054906101000a900473ffffffffffffffffffffffffffffffffffffffff169080600101805461181290614f43565b80601f016020809104026020016040519081016040528092919081815260200182805461183e90614f43565b801561188b5780601f106118605761010080835404028352916020019161188b565b820191906000526020600020905b81548152906001019060200180831161186e57829003601f168201915b5050505050908060020160009054906101000a900460ff16905083565b600660205281600052604060002081815481106118c457600080fd5b90600052602060002001600091509150505481565b6118e1613aec565b6000604051806080016040528060405180606001604052806028815260200161522d6028913981526020016040518060400160405280600a81526020017f494e434f4d45205441580000000000000000000000000000000000000000000081525081526020016040518060400160405280601581526020017f4d554e49434950414c20434f52504f524154494f4e000000000000000000000081525081526020016040518060400160405280601a81526020017f5354415445205452414e53504f5254442045504152544d454e5400000000000081525081525090508091505090565b600281815481106119d457600080fd5b9060005260206000209060080201600091509050806000015490806001015490806002018054611a0390614f43565b80601f0160208091040260200160405190810160405280929190818152602001828054611a2f90614f43565b8015611a7c5780601f10611a5157610100808354040283529160200191611a7c565b820191906000526020600020905b815481529060010190602001808311611a5f57829003601f168201915b505050505090806003018054611a9190614f43565b80601f0160208091040260200160405190810160405280929190818152602001828054611abd90614f43565b8015611b0a5780601f10611adf57610100808354040283529160200191611b0a565b820191906000526020600020905b815481529060010190602001808311611aed57829003601f168201915b505050505090806004018054611b1f90614f43565b80601f0160208091040260200160405190810160405280929190818152602001828054611b4b90614f43565b8015611b985780601f10611b6d57610100808354040283529160200191611b98565b820191906000526020600020905b815481529060010190602001808311611b7b57829003601f168201915b505050505090806005018054611bad90614f43565b80601f0160208091040260200160405190810160405280929190818152602001828054611bd990614f43565b8015611c265780601f10611bfb57610100808354040283529160200191611c26565b820191906000526020600020905b815481529060010190602001808311611c0957829003601f168201915b5050505050908060060160009054906101000a900473ffffffffffffffffffffffffffffffffffffffff16908060070160009054906101000a900473ffffffffffffffffffffffffffffffffffffffff16905088565b611c84613b13565b600073ffffffffffffffffffffffffffffffffffffffff16600460003373ffffffffffffffffffffffffffffffffffffffff1673ffffffffffffffffffffffffffffffffffffffff16815260200190815260200160002060000160009054906101000a900473ffffffffffffffffffffffffffffffffffffffff1673ffffffffffffffffffffffffffffffffffffffff1614611d55576040517f08c379a0000000000000000000000000000000000000000000000000000000008152600401611d4c90614e33565b60405180910390fd5b611d5d613b13565b33816000019073ffffffffffffffffffffffffffffffffffffffff16908173ffffffffffffffffffffffffffffffffffffffff16815250508381602001819052508281604001906003811115611db657611db56140b3565b5b90816003811115611dca57611dc96140b3565b5b8152505080600460003373ffffffffffffffffffffffffffffffffffffffff1673ffffffffffffffffffffffffffffffffffffffff16815260200190815260200160002060008201518160000160006101000a81548173ffffffffffffffffffffffffffffffffffffffff021916908373ffffffffffffffffffffffffffffffffffffffff1602179055506020820151816001019080519060200190611e719291906139f5565b5060408201518160020160006101000a81548160ff02191690836003811115611e9d57611e9c6140b3565b5b02179055509050508091505092915050565b60056020528160005260406000208181548110611ecb57600080fd5b90600052602060002001600091509150505481565b611ee8613b5c565b611ef0613b5c565b60005481600001818152505033816020019073ffffffffffffffffffffffffffffffffffffffff16908173ffffffffffffffffffffffffffffffffffffffff1681525050868160400181905250858160600181905250848160800181905250828160a00181905250878160c001906003811115611f7057611f6f6140b3565b5b90816003811115611f8457611f836140b3565b5b81525050838160e001906002811115611fa057611f9f6140b3565b5b90816002811115611fb457611fb36140b3565b5b8152505060008161010001906002811115611fd257611fd16140b3565b5b90816002811115611fe657611fe56140b3565b5b8152505060018190806001815401808255809150506001900390600052602060002090600902016000909190919091506000820151816000015560208201518160010160006101000a81548173ffffffffffffffffffffffffffffffffffffffff021916908373ffffffffffffffffffffffffffffffffffffffff16021790555060408201518160020190805190602001906120839291906139f5565b5060608201518160030190805190602001906120a09291906139f5565b5060808201518160040190805190602001906120bd9291906139f5565b5060a08201518160050190805190602001906120da9291906139f5565b5060c08201518160060160006101000a81548160ff02191690836003811115612106576121056140b3565b5b021790555060e08201518160060160016101000a81548160ff02191690836002811115612136576121356140b3565b5b02179055506101008201518160060160026101000a81548160ff02191690836002811115612167576121666140b3565b5b021790555061012082015181600701556101408201518160080190805190602001906121949291906139f5565b50505060016000808282546121a991906150a2565b925050819055507fb0d5a35d53d1b590b4e2ab0193806445dd4ad70aab99e4a02454aaf4ae4939b63382600001518a6040516121e7939291906150f8565b60405180910390a1809150509695505050505050565b60036020528060005260406000206000915090508060000160009054906101000a900473ffffffffffffffffffffffffffffffffffffffff169080600101805461224690614f43565b80601f016020809104026020016040519081016040528092919081815260200182805461227290614f43565b80156122bf5780601f10612294576101008083540402835291602001916122bf565b820191906000526020600020905b8154815290600101906020018083116122a257829003601f168201915b5050505050908060020180546122d490614f43565b80601f016020809104026020016040519081016040528092919081815260200182805461230090614f43565b801561234d5780601f106123225761010080835404028352916020019161234d565b820191906000526020600020905b81548152906001019060200180831161233057829003601f168201915b50505050509080600301805461236290614f43565b80601f016020809104026020016040519081016040528092919081815260200182805461238e90614f43565b80156123db5780601f106123b0576101008083540402835291602001916123db565b820191906000526020600020905b8154815290600101906020018083116123be57829003601f168201915b5050505050908060040180546123f090614f43565b80601f016020809104026020016040519081016040528092919081815260200182805461241c90614f43565b80156124695780601f1061243e57610100808354040283529160200191612469565b820191906000526020600020905b81548152906001019060200180831161244c57829003601f168201915b5050505050908060050154905086565b60606000600560003373ffffffffffffffffffffffffffffffffffffffff1673ffffffffffffffffffffffffffffffffffffffff16815260200190815260200160002080548060200260200160405190810160405280929190818152602001828054801561250657602002820191906000526020600020905b8154815260200190600101908083116124f2575b505050505090508091505090565b61251c613a7b565b600073ffffffffffffffffffffffffffffffffffffffff16600460003373ffffffffffffffffffffffffffffffffffffffff1673ffffffffffffffffffffffffffffffffffffffff16815260200190815260200160002060000160009054906101000a900473ffffffffffffffffffffffffffffffffffffffff1673ffffffffffffffffffffffffffffffffffffffff1614156125ee576040517f08c379a00000000000000000000000000000000000000000000000000000000081526004016125e590614ec5565b60405180910390fd5b600073ffffffffffffffffffffffffffffffffffffffff16600360008773ffffffffffffffffffffffffffffffffffffffff1673ffffffffffffffffffffffffffffffffffffffff16815260200190815260200160002060000160009054906101000a900473ffffffffffffffffffffffffffffffffffffffff1673ffffffffffffffffffffffffffffffffffffffff1614156126c0576040517f08c379a00000000000000000000000000000000000000000000000000000000081526004016126b79061517b565b60405180910390fd5b6126c8613a7b565b600280549050816000018181525050848160400181905250838160600181905250828160800181905250858160e0019073ffffffffffffffffffffffffffffffffffffffff16908173ffffffffffffffffffffffffffffffffffffffff1681525050338160c0019073ffffffffffffffffffffffffffffffffffffffff16908173ffffffffffffffffffffffffffffffffffffffff16815250506002819080600181540180825580915050600190039060005260206000209060080201600090919091909150600082015181600001556020820151816001015560408201518160020190805190602001906127be9291906139f5565b5060608201518160030190805190602001906127db9291906139f5565b5060808201518160040190805190602001906127f89291906139f5565b5060a08201518160050190805190602001906128159291906139f5565b5060c08201518160060160006101000a81548173ffffffffffffffffffffffffffffffffffffffff021916908373ffffffffffffffffffffffffffffffffffffffff16021790555060e08201518160070160006101000a81548173ffffffffffffffffffffffffffffffffffffffff021916908373ffffffffffffffffffffffffffffffffffffffff1602179055505050600660008773ffffffffffffffffffffffffffffffffffffffff1673ffffffffffffffffffffffffffffffffffffffff1681526020019081526020016000208160000151908060018154018082558091505060019003906000526020600020016000909190919091505560006001888154811061292657612925614ee5565b5b906000526020600020906009020160405180610160016040529081600082015481526020016001820160009054906101000a900473ffffffffffffffffffffffffffffffffffffffff1673ffffffffffffffffffffffffffffffffffffffff1673ffffffffffffffffffffffffffffffffffffffff1681526020016002820180546129b090614f43565b80601f01602080910402602001604051908101604052809291908181526020018280546129dc90614f43565b8015612a295780601f106129fe57610100808354040283529160200191612a29565b820191906000526020600020905b815481529060010190602001808311612a0c57829003601f168201915b50505050508152602001600382018054612a4290614f43565b80601f0160208091040260200160405190810160405280929190818152602001828054612a6e90614f43565b8015612abb5780601f10612a9057610100808354040283529160200191612abb565b820191906000526020600020905b815481529060010190602001808311612a9e57829003601f168201915b50505050508152602001600482018054612ad490614f43565b80601f0160208091040260200160405190810160405280929190818152602001828054612b0090614f43565b8015612b4d5780601f10612b2257610100808354040283529160200191612b4d565b820191906000526020600020905b815481529060010190602001808311612b3057829003601f168201915b50505050508152602001600582018054612b6690614f43565b80601f0160208091040260200160405190810160405280929190818152602001828054612b9290614f43565b8015612bdf5780601f10612bb457610100808354040283529160200191612bdf565b820191906000526020600020905b815481529060010190602001808311612bc257829003601f168201915b505050505081526020016006820160009054906101000a900460ff166003811115612c0d57612c0c6140b3565b5b6003811115612c1f57612c1e6140b3565b5b81526020016006820160019054906101000a900460ff166002811115612c4857612c476140b3565b5b6002811115612c5a57612c596140b3565b5b81526020016006820160029054906101000a900460ff166002811115612c8357612c826140b3565b5b6002811115612c9557612c946140b3565b5b815260200160078201548152602001600882018054612cb390614f43565b80601f0160208091040260200160405190810160405280929190818152602001828054612cdf90614f43565b8015612d2c5780601f10612d0157610100808354040283529160200191612d2c565b820191906000526020600020905b815481529060010190602001808311612d0f57829003601f168201915b50505050508152505090508160000151816101200181815250508060018981548110612d5b57612d5a614ee5565b5b90600052602060002090600902016000820151816000015560208201518160010160006101000a81548173ffffffffffffffffffffffffffffffffffffffff021916908373ffffffffffffffffffffffffffffffffffffffff1602179055506040820151816002019080519060200190612dd69291906139f5565b506060820151816003019080519060200190612df39291906139f5565b506080820151816004019080519060200190612e109291906139f5565b5060a0820151816005019080519060200190612e2d9291906139f5565b5060c08201518160060160006101000a81548160ff02191690836003811115612e5957612e586140b3565b5b021790555060e08201518160060160016101000a81548160ff02191690836002811115612e8957612e886140b3565b5b02179055506101008201518160060160026101000a81548160ff02191690836002811115612eba57612eb96140b3565b5b02179055506101208201518160070155610140820151816008019080519060200190612ee79291906139f5565b509050507e494c81a93fd8df13d923d73c93e872db4f00090d204b824064d00fb4759f5187338460000151604051612f219392919061519b565b60405180910390a1819250505095945050505050565b612f3f6139a9565b6000600360008473ffffffffffffffffffffffffffffffffffffffff1673ffffffffffffffffffffffffffffffffffffffff1681526020019081526020016000206040518060c00160405290816000820160009054906101000a900473ffffffffffffffffffffffffffffffffffffffff1673ffffffffffffffffffffffffffffffffffffffff1673ffffffffffffffffffffffffffffffffffffffff168152602001600182018054612ff190614f43565b80601f016020809104026020016040519081016040528092919081815260200182805461301d90614f43565b801561306a5780601f1061303f5761010080835404028352916020019161306a565b820191906000526020600020905b81548152906001019060200180831161304d57829003601f168201915b5050505050815260200160028201805461308390614f43565b80601f01602080910402602001604051908101604052809291908181526020018280546130af90614f43565b80156130fc5780601f106130d1576101008083540402835291602001916130fc565b820191906000526020600020905b8154815290600101906020018083116130df57829003601f168201915b5050505050815260200160038201805461311590614f43565b80601f016020809104026020016040519081016040528092919081815260200182805461314190614f43565b801561318e5780601f106131635761010080835404028352916020019161318e565b820191906000526020600020905b81548152906001019060200180831161317157829003601f168201915b505050505081526020016004820180546131a790614f43565b80601f01602080910402602001604051908101604052809291908181526020018280546131d390614f43565b80156132205780601f106131f557610100808354040283529160200191613220565b820191906000526020600020905b81548152906001019060200180831161320357829003601f168201915b50505050508152602001600582015481525050905080915050919050565b613246613a7b565b84600280549050811061328e576040517f08c379a000000000000000000000000000000000000000000000000000000000815260040161328590614fc1565b60405180910390fd5b600073ffffffffffffffffffffffffffffffffffffffff16600460003373ffffffffffffffffffffffffffffffffffffffff1673ffffffffffffffffffffffffffffffffffffffff16815260200190815260200160002060000160009054906101000a900473ffffffffffffffffffffffffffffffffffffffff1673ffffffffffffffffffffffffffffffffffffffff161415613360576040517f08c379a000000000000000000000000000000000000000000000000000000000815260040161335790614ec5565b60405180910390fd5b60006002878154811061337657613375614ee5565b5b90600052602060002090600802016040518061010001604052908160008201548152602001600182015481526020016002820180546133b490614f43565b80601f01602080910402602001604051908101604052809291908181526020018280546133e090614f43565b801561342d5780601f106134025761010080835404028352916020019161342d565b820191906000526020600020905b81548152906001019060200180831161341057829003601f168201915b5050505050815260200160038201805461344690614f43565b80601f016020809104026020016040519081016040528092919081815260200182805461347290614f43565b80156134bf5780601f10613494576101008083540402835291602001916134bf565b820191906000526020600020905b8154815290600101906020018083116134a257829003601f168201915b505050505081526020016004820180546134d890614f43565b80601f016020809104026020016040519081016040528092919081815260200182805461350490614f43565b80156135515780601f1061352657610100808354040283529160200191613551565b820191906000526020600020905b81548152906001019060200180831161353457829003601f168201915b5050505050815260200160058201805461356a90614f43565b80601f016020809104026020016040519081016040528092919081815260200182805461359690614f43565b80156135e35780601f106135b8576101008083540402835291602001916135e3565b820191906000526020600020905b8154815290600101906020018083116135c657829003601f168201915b505050505081526020016006820160009054906101000a900473ffffffffffffffffffffffffffffffffffffffff1673ffffffffffffffffffffffffffffffffffffffff1673ffffffffffffffffffffffffffffffffffffffff1681526020016007820160009054906101000a900473ffffffffffffffffffffffffffffffffffffffff1673ffffffffffffffffffffffffffffffffffffffff1673ffffffffffffffffffffffffffffffffffffffff16815250509050848660a0018190525085600288815481106136b8576136b7614ee5565b5b9060005260206000209060080201600082015181600001556020820151816001015560408201518160020190805190602001906136f69291906139f5565b5060608201518160030190805190602001906137139291906139f5565b5060808201518160040190805190602001906137309291906139f5565b5060a082015181600501908051906020019061374d9291906139f5565b5060c08201518160060160006101000a81548173ffffffffffffffffffffffffffffffffffffffff021916908373ffffffffffffffffffffffffffffffffffffffff16021790555060e08201518160070160006101000a81548173ffffffffffffffffffffffffffffffffffffffff021916908373ffffffffffffffffffffffffffffffffffffffff1602179055509050507fb2425fd63b8e5e3d2626dd510012c35043486569b145edafe9a5d2f884f55af18782888760405161381494939291906151d2565b60405180910390a18592505050949350505050565b613831613b13565b6000600460003373ffffffffffffffffffffffffffffffffffffffff1673ffffffffffffffffffffffffffffffffffffffff1681526020019081526020016000206040518060600160405290816000820160009054906101000a900473ffffffffffffffffffffffffffffffffffffffff1673ffffffffffffffffffffffffffffffffffffffff1673ffffffffffffffffffffffffffffffffffffffff1681526020016001820180546138e390614f43565b80601f016020809104026020016040519081016040528092919081815260200182805461390f90614f43565b801561395c5780601f106139315761010080835404028352916020019161395c565b820191906000526020600020905b81548152906001019060200180831161393f57829003601f168201915b505050505081526020016002820160009054906101000a900460ff16600381111561398a576139896140b3565b5b600381111561399c5761399b6140b3565b5b8152505090508091505090565b6040518060c00160405280600073ffffffffffffffffffffffffffffffffffffffff16815260200160608152602001606081526020016060815260200160608152602001600081525090565b828054613a0190614f43565b90600052602060002090601f016020900481019282613a235760008555613a6a565b82601f10613a3c57805160ff1916838001178555613a6a565b82800160010185558215613a6a579182015b82811115613a69578251825591602001919060010190613a4e565b5b509050613a779190613c02565b5090565b604051806101000160405280600081526020016000815260200160608152602001606081526020016060815260200160608152602001600073ffffffffffffffffffffffffffffffffffffffff168152602001600073ffffffffffffffffffffffffffffffffffffffff1681525090565b60405180608001604052806004905b6060815260200190600190039081613afb5790505090565b6040518060600160405280600073ffffffffffffffffffffffffffffffffffffffff1681526020016060815260200160006003811115613b5657613b556140b3565b5b81525090565b60405180610160016040528060008152602001600073ffffffffffffffffffffffffffffffffffffffff1681526020016060815260200160608152602001606081526020016060815260200160006003811115613bbc57613bbb6140b3565b5b815260200160006002811115613bd557613bd46140b3565b5b815260200160006002811115613bee57613bed6140b3565b5b815260200160008152602001606081525090565b5b80821115613c1b576000816000905550600101613c03565b5090565b6000604051905090565b600080fd5b600080fd5b600080fd5b600080fd5b6000601f19601f8301169050919050565b7f4e487b7100000000000000000000000000000000000000000000000000000000600052604160045260246000fd5b613c8682613c3d565b810181811067ffffffffffffffff82111715613ca557613ca4613c4e565b5b80604052505050565b6000613cb8613c1f565b9050613cc48282613c7d565b919050565b600067ffffffffffffffff821115613ce457613ce3613c4e565b5b613ced82613c3d565b9050602081019050919050565b82818337600083830152505050565b6000613d1c613d1784613cc9565b613cae565b905082815260208101848484011115613d3857613d37613c38565b5b613d43848285613cfa565b509392505050565b600082601f830112613d6057613d5f613c33565b5b8135613d70848260208601613d09565b91505092915050565b60008060008060808587031215613d9357613d92613c29565b5b600085013567ffffffffffffffff811115613db157613db0613c2e565b5b613dbd87828801613d4b565b945050602085013567ffffffffffffffff811115613dde57613ddd613c2e565b5b613dea87828801613d4b565b935050604085013567ffffffffffffffff811115613e0b57613e0a613c2e565b5b613e1787828801613d4b565b925050606085013567ffffffffffffffff811115613e3857613e37613c2e565b5b613e4487828801613d4b565b91505092959194509250565b600073ffffffffffffffffffffffffffffffffffffffff82169050919050565b6000613e7b82613e50565b9050919050565b613e8b81613e70565b82525050565b600081519050919050565b600082825260208201905092915050565b60005b83811015613ecb578082015181840152602081019050613eb0565b83811115613eda576000848401525b50505050565b6000613eeb82613e91565b613ef58185613e9c565b9350613f05818560208601613ead565b613f0e81613c3d565b840191505092915050565b6000819050919050565b613f2c81613f19565b82525050565b600060c083016000830151613f4a6000860182613e82565b5060208301518482036020860152613f628282613ee0565b91505060408301518482036040860152613f7c8282613ee0565b91505060608301518482036060860152613f968282613ee0565b91505060808301518482036080860152613fb08282613ee0565b91505060a0830151613fc560a0860182613f23565b508091505092915050565b60006020820190508181036000830152613fea8184613f32565b905092915050565b613ffb81613f19565b811461400657600080fd5b50565b60008135905061401881613ff2565b92915050565b60006020828403121561403457614033613c29565b5b600061404284828501614009565b91505092915050565b61405481613f19565b82525050565b61406381613e70565b82525050565b600082825260208201905092915050565b600061408582613e91565b61408f8185614069565b935061409f818560208601613ead565b6140a881613c3d565b840191505092915050565b7f4e487b7100000000000000000000000000000000000000000000000000000000600052602160045260246000fd5b600481106140f3576140f26140b3565b5b50565b6000819050614104826140e2565b919050565b6000614114826140f6565b9050919050565b61412481614109565b82525050565b6003811061413b5761413a6140b3565b5b50565b600081905061414c8261412a565b919050565b600061415c8261413e565b9050919050565b61416c81614151565b82525050565b60038110614183576141826140b3565b5b50565b600081905061419482614172565b919050565b60006141a482614186565b9050919050565b6141b481614199565b82525050565b6000610160820190506141d0600083018e61404b565b6141dd602083018d61405a565b81810360408301526141ef818c61407a565b90508181036060830152614203818b61407a565b90508181036080830152614217818a61407a565b905081810360a083015261422b818961407a565b905061423a60c083018861411b565b61424760e0830187614163565b6142556101008301866141ab565b61426361012083018561404b565b818103610140830152614276818461407a565b90509c9b505050505050505050505050565b600060208201905061429d600083018461404b565b92915050565b6000610100830160008301516142bc6000860182613f23565b5060208301516142cf6020860182613f23565b50604083015184820360408601526142e78282613ee0565b915050606083015184820360608601526143018282613ee0565b9150506080830151848203608086015261431b8282613ee0565b91505060a083015184820360a08601526143358282613ee0565b91505060c083015161434a60c0860182613e82565b5060e083015161435d60e0860182613e82565b508091505092915050565b6000602082019050818103600083015261438281846142a3565b905092915050565b61439381613e70565b811461439e57600080fd5b50565b6000813590506143b08161438a565b92915050565b6000602082840312156143cc576143cb613c29565b5b60006143da848285016143a1565b91505092915050565b600381106143f4576143f36140b3565b5b50565b6000819050614405826143e3565b919050565b6000614415826143f7565b9050919050565b6144258161440a565b82525050565b6000602082019050614440600083018461441c565b92915050565b600060608201905061445b600083018661405a565b818103602083015261446d818561407a565b905061447c604083018461411b565b949350505050565b6000806040838503121561449b5761449a613c29565b5b60006144a9858286016143a1565b92505060206144ba85828601614009565b9150509250929050565b600060049050919050565b600081905092915050565b6000819050919050565b60006144f08383613ee0565b905092915050565b6000602082019050919050565b6000614510826144c4565b61451a81856144cf565b93508360208202850161452c856144da565b8060005b85811015614568578484038952815161454985826144e4565b9450614554836144f8565b925060208a01995050600181019050614530565b50829750879550505050505092915050565b600060208201905081810360008301526145948184614505565b905092915050565b6000610100820190506145b2600083018b61404b565b6145bf602083018a61404b565b81810360408301526145d1818961407a565b905081810360608301526145e5818861407a565b905081810360808301526145f9818761407a565b905081810360a083015261460d818661407a565b905061461c60c083018561405a565b61462960e083018461405a565b9998505050505050505050565b6004811061464357600080fd5b50565b60008135905061465581614636565b92915050565b6000806040838503121561467257614671613c29565b5b600083013567ffffffffffffffff8111156146905761468f613c2e565b5b61469c85828601613d4b565b92505060206146ad85828601614646565b9150509250929050565b6146c081614109565b82525050565b60006060830160008301516146de6000860182613e82565b50602083015184820360208601526146f68282613ee0565b915050604083015161470b60408601826146b7565b508091505092915050565b6000602082019050818103600083015261473081846146c6565b905092915050565b6003811061474557600080fd5b50565b60008135905061475781614738565b92915050565b60008060008060008060c0878903121561477a57614779613c29565b5b600061478889828a01614646565b965050602087013567ffffffffffffffff8111156147a9576147a8613c2e565b5b6147b589828a01613d4b565b955050604087013567ffffffffffffffff8111156147d6576147d5613c2e565b5b6147e289828a01613d4b565b945050606087013567ffffffffffffffff81111561480357614802613c2e565b5b61480f89828a01613d4b565b935050608061482089828a01614748565b92505060a087013567ffffffffffffffff81111561484157614840613c2e565b5b61484d89828a01613d4b565b9150509295509295509295565b61486381614151565b82525050565b61487281614199565b82525050565b6000610160830160008301516148916000860182613f23565b5060208301516148a46020860182613e82565b50604083015184820360408601526148bc8282613ee0565b915050606083015184820360608601526148d68282613ee0565b915050608083015184820360808601526148f08282613ee0565b91505060a083015184820360a086015261490a8282613ee0565b91505060c083015161491f60c08601826146b7565b5060e083015161493260e086018261485a565b50610100830151614947610100860182614869565b5061012083015161495c610120860182613f23565b506101408301518482036101408601526149768282613ee0565b9150508091505092915050565b6000602082019050818103600083015261499d8184614878565b905092915050565b600060c0820190506149ba600083018961405a565b81810360208301526149cc818861407a565b905081810360408301526149e0818761407a565b905081810360608301526149f4818661407a565b90508181036080830152614a08818561407a565b9050614a1760a083018461404b565b979650505050505050565b600081519050919050565b600082825260208201905092915050565b6000819050602082019050919050565b6000614a5a8383613f23565b60208301905092915050565b6000602082019050919050565b6000614a7e82614a22565b614a888185614a2d565b9350614a9383614a3e565b8060005b83811015614ac4578151614aab8882614a4e565b9750614ab683614a66565b925050600181019050614a97565b5085935050505092915050565b60006020820190508181036000830152614aeb8184614a73565b905092915050565b600080600080600060a08688031215614b0f57614b0e613c29565b5b6000614b1d88828901614009565b9550506020614b2e888289016143a1565b945050604086013567ffffffffffffffff811115614b4f57614b4e613c2e565b5b614b5b88828901613d4b565b935050606086013567ffffffffffffffff811115614b7c57614b7b613c2e565b5b614b8888828901613d4b565b925050608086013567ffffffffffffffff811115614ba957614ba8613c2e565b5b614bb588828901613d4b565b9150509295509295909350565b600080fd5b600080fd5b60006101008284031215614be357614be2614bc2565b5b614bee610100613cae565b90506000614bfe84828501614009565b6000830152506020614c1284828501614009565b602083015250604082013567ffffffffffffffff811115614c3657614c35614bc7565b5b614c4284828501613d4b565b604083015250606082013567ffffffffffffffff811115614c6657614c65614bc7565b5b614c7284828501613d4b565b606083015250608082013567ffffffffffffffff811115614c9657614c95614bc7565b5b614ca284828501613d4b565b60808301525060a082013567ffffffffffffffff811115614cc657614cc5614bc7565b5b614cd284828501613d4b565b60a08301525060c0614ce6848285016143a1565b60c08301525060e0614cfa848285016143a1565b60e08301525092915050565b60008060008060808587031215614d2057614d1f613c29565b5b6000614d2e87828801614009565b945050602085013567ffffffffffffffff811115614d4f57614d4e613c2e565b5b614d5b87828801614bcc565b935050604085013567ffffffffffffffff811115614d7c57614d7b613c2e565b5b614d8887828801613d4b565b925050606085013567ffffffffffffffff811115614da957614da8613c2e565b5b614db587828801613d4b565b91505092959194509250565b7f54686973206164647265737320697320616c726561647920726567697374657260008201527f6564000000000000000000000000000000000000000000000000000000000000602082015250565b6000614e1d602283614069565b9150614e2882614dc1565b604082019050919050565b60006020820190508181036000830152614e4c81614e10565b9050919050565b7f4f6e6c792061646d696e732063616e20706572666f726d20746869732061637460008201527f696f6e0000000000000000000000000000000000000000000000000000000000602082015250565b6000614eaf602383614069565b9150614eba82614e53565b604082019050919050565b60006020820190508181036000830152614ede81614ea2565b9050919050565b7f4e487b7100000000000000000000000000000000000000000000000000000000600052603260045260246000fd5b7f4e487b7100000000000000000000000000000000000000000000000000000000600052602260045260246000fd5b60006002820490506001821680614f5b57607f821691505b60208210811415614f6f57614f6e614f14565b5b50919050565b7f446f63756d656e7420646f6573206e6f74206578697374000000000000000000600082015250565b6000614fab601783614069565b9150614fb682614f75565b602082019050919050565b60006020820190508181036000830152614fda81614f9e565b9050919050565b7f596f7520617265206e6f7420616c6c6f77656420746f20706572666f726d207460008201527f68697320616374696f6e00000000000000000000000000000000000000000000602082015250565b600061503d602a83614069565b915061504882614fe1565b604082019050919050565b6000602082019050818103600083015261506c81615030565b9050919050565b7f4e487b7100000000000000000000000000000000000000000000000000000000600052601160045260246000fd5b60006150ad82613f19565b91506150b883613f19565b9250827fffffffffffffffffffffffffffffffffffffffffffffffffffffffffffffffff038211156150ed576150ec615073565b5b828201905092915050565b600060608201905061510d600083018661405a565b61511a602083018561404b565b615127604083018461411b565b949350505050565b7f55736572206973206e6f74207265676973746572656400000000000000000000600082015250565b6000615165601683614069565b91506151708261512f565b602082019050919050565b6000602082019050818103600083015261519481615158565b9050919050565b60006060820190506151b0600083018661405a565b6151bd602083018561405a565b6151ca604083018461404b565b949350505050565b60006080820190506151e7600083018761404b565b81810360208301526151f981866142a3565b9050818103604083015261520d81856142a3565b90508181036060830152615221818461407a565b90509594505050505056fe554e49515545204944454e54494649434154494f4e20415554484f52495459204f4620494e444941a2646970667358221220ef0745964cf911e3c2154e6307dc43640d2a7d38b7754c29770b796f624db23f64736f6c634300080b0033",
  "immutableReferences": {},
  "source": "// SPDX-License-Identifier: MIT\r\npragma solidity >=0.4.22 <0.9.0;\r\n\r\ncontract DeDocs {\r\n\r\n  enum ROLE{\r\n    NOT_REGISTERED,\r\n    ADMIN,\r\n    USER\r\n  }\r\n\r\n  enum DEPARTMENT{\r\n    UNIQUE_IDENTIFICATION_AUTHORITY_OF_INDIA,\r\n    INCOME_TAX,\r\n    MUNICIPAL_CORPORATION,\r\n    STATE_TRANSPORT_DEPARTMENT\r\n  }\r\n\r\n  enum REQUEST_CATEGORY{\r\n    ISSUE,\r\n    UPDATE,\r\n    RECTIFY\r\n  }\r\n\r\n  enum REQUEST_STATUS{\r\n    PENDING,\r\n    SUCCESS,\r\n    REJECTED\r\n  }\r\n\r\n  struct Admin{\r\n    address id;\r\n    string name;\r\n    DEPARTMENT department;\r\n  }\r\n  \r\n  struct User{\r\n    address id;\r\n    string name;\r\n    string dob;\r\n    string password;    \r\n    string joined;\r\n    uint total_requests;\r\n  }\r\n\r\n  struct Request{\r\n    uint id;\r\n    address user_id;\r\n    string subject;\r\n    string description;\r\n    string ipfs_hash;\r\n    string date;\r\n    DEPARTMENT department;\r\n    REQUEST_CATEGORY category;\r\n    REQUEST_STATUS status;\r\n    uint document_id;\r\n    string remarks;\r\n  }\r\n\r\n  struct Document{\r\n    uint id;\r\n    uint request_id;\r\n    string name;\r\n    string ipfs_hash;\r\n    string issued_on;\r\n    string last_updated;\r\n    address admin;\r\n    address user;\r\n  }\r\n\r\n  event DeDocs_deployed(string message);\r\n  event Request_made(address user, uint request_id, DEPARTMENT department);\r\n  event Document_issued(address user, address admin, uint document_id);\r\n  event Document_modified(uint document_id, Document old_document, Document new_document, string message);\r\n\r\n  uint public total_requests = 0;\r\n\r\n  Request[] public all_requests;\r\n\r\n  Document[] public all_documents; //array to store all the documents of the system\r\n  mapping(address => User) public users; // mapping of user address to user data \r\n  mapping(address => Admin) public admins; //mapping of admin address to admin data\r\n  mapping(address => uint256[]) public requests; //mapping of the user addess to all the requests made by that address\r\n  mapping(address => uint256[]) public documents; // mapping of the user address to their documents\r\n  \r\n\r\n  modifier is_admin(){\r\n    require(admins[msg.sender].id != address(0x0),\"Only admins can perform this action\");\r\n    _;\r\n  }\r\n\r\n  modifier is_existent(uint _document_id){\r\n    require(_document_id < all_documents.length, \"Document does not exist\");\r\n    _;\r\n  }\r\n\r\n  modifier is_allowed(uint _document_id){\r\n    require(admins[msg.sender].id != address(0x0) || all_documents[_document_id].user == msg.sender, \"You are not allowed to perform this action\");\r\n    _;\r\n  }\r\n\r\n  constructor()  {\r\n      emit DeDocs_deployed(\"Contract deployed successfully\");\r\n  }\r\n\r\n  function register_user(string memory _name, string memory _dob, string memory _password, string memory _joined) payable public returns (User memory){\r\n\r\n    require(users[msg.sender].id == address(0x0),\"This address is already registered\");\r\n\r\n    User memory _user;\r\n    _user.id = msg.sender;\r\n    _user.name = _name;\r\n    _user.dob = _dob;\r\n    _user.password = _password;\r\n    _user.joined = _joined;\r\n    _user.total_requests = 0;\r\n\r\n    users[msg.sender] = _user;\r\n\r\n    return _user;\r\n  }\r\n\r\n  function register_admin(string memory _name, DEPARTMENT _department) payable public returns (Admin memory){\r\n\r\n    require(admins[msg.sender].id == address(0x0),\"This address is already registered\");\r\n\r\n    Admin memory _admin;\r\n    _admin.id = msg.sender;\r\n    _admin.name = _name;\r\n    _admin.department = _department;\r\n\r\n    admins[msg.sender] = _admin;\r\n\r\n    return _admin;\r\n  }\r\n\r\n  function get_departments() public pure returns(string[4] memory departments){\r\n    string[4] memory _departments = [\"UNIQUE IDENTIFICATION AUTHORITY OF INDIA\",\"INCOME TAX\",\"MUNICIPAL CORPORATION\",\"STATE TRANSPORTD EPARTMENT\"];\r\n    return _departments;\r\n  }\r\n\r\n  function get_role(address _address) public view returns(ROLE role){\r\n\r\n    if(users[_address].id != address(0x0)) return ROLE.USER;\r\n    if(admins[_address].id != address(0x0)) return ROLE.ADMIN;\r\n\r\n    return ROLE.NOT_REGISTERED;\r\n\r\n  }\r\n\r\n  /***********************************  USER FUNCTIONS  *********************************/\r\n\r\n  function get_user_details(address _address) public view returns(User memory user){\r\n    User memory _user = users[_address];\r\n    return _user;\r\n  }\r\n\r\n  function get_user_requests() public view returns(uint256[] memory _requests){\r\n\r\n    uint256[] memory _my_requests = requests[msg.sender];\r\n    return _my_requests;\r\n    \r\n  }\r\n\r\n  function make_request(DEPARTMENT _department,  string memory _subject, string memory _description, string memory _ipfs_hash, REQUEST_CATEGORY _request_category, string memory _date) public payable returns(Request memory){\r\n\r\n    Request memory request;\r\n\r\n    request.id = total_requests;\r\n    request.user_id = msg.sender;\r\n    request.subject = _subject;\r\n    request.description = _description;\r\n    request.ipfs_hash = _ipfs_hash;\r\n    request.date = _date;\r\n    request.department = _department;\r\n    request.category = _request_category;\r\n    request.status = REQUEST_STATUS.PENDING;\r\n\r\n    all_requests.push(request);\r\n    total_requests += 1;\r\n\r\n    emit Request_made(msg.sender, request.id, _department);\r\n\r\n    return request;\r\n  }\r\n\r\n\r\n  /********************************ADMIN FUNCTIONS********************************/\r\n\r\n  function get_admin_details() public view returns(Admin memory admin){\r\n    Admin memory _admin = admins[msg.sender];\r\n    return _admin;\r\n  }\r\n\r\n  function get_document (uint _document_id) is_existent(_document_id) is_allowed(_document_id) public view returns (Document memory){\r\n    Document memory _document = all_documents[_document_id];\r\n    return _document;\r\n  }\r\n\r\n  function approve_request(uint _request_id) is_admin public payable{\r\n    Request memory _request = all_requests[_request_id];\r\n    _request.status = REQUEST_STATUS.SUCCESS;\r\n    all_requests[_request_id] = _request;\r\n  }\r\n\r\n  function issue_document(uint _request_id, address _userAddress, string memory _name, string memory _ipfs_hash, string memory _issued_on) is_admin public payable returns(Document memory){\r\n    \r\n    //check if user is registered\r\n    require(users[_userAddress].id != address(0x0),\"User is not registered\");\r\n\r\n    //create a new document instance\r\n    Document memory _document;\r\n    _document.id = all_documents.length;\r\n    _document.name = _name;\r\n    _document.ipfs_hash = _ipfs_hash;\r\n    _document.issued_on = _issued_on;\r\n    _document.user = _userAddress;\r\n    _document.admin = msg.sender;\r\n\r\n    //insert the document to the records\r\n    all_documents.push(_document);\r\n    documents[_userAddress].push(_document.id);\r\n\r\n    //update the request\r\n    Request memory _request = all_requests[_request_id];\r\n    _request.document_id = _document.id;\r\n    all_requests[_request_id] = _request;\r\n\r\n    emit Document_issued(_userAddress, msg.sender, _document.id);\r\n\r\n    return _document;\r\n  }\r\n\r\n\r\n  function modify_document(uint _document_id, Document memory _new_document, string memory _last_updated, string memory _message) is_existent(_document_id) is_admin public payable returns(Document memory){\r\n    \r\n    //Get the current version of the document\r\n    Document memory _old_document = all_documents[_document_id];\r\n\r\n    //update the document\r\n    _new_document.last_updated = _last_updated;\r\n    all_documents[_document_id] = _new_document;\r\n\r\n    emit Document_modified(_document_id, _old_document, _new_document, _message);\r\n\r\n    return _new_document;\r\n  }\r\n\r\n\r\n}\r\n",
  "sourcePath": "C:\\Users\\Kailash\\Desktop\\summer project\\backend\\contracts\\DeDocs.sol",
  "compiler": {
    "name": "solc",
    "version": "0.8.11+commit.d7f03943.Emscripten.clang"
  },
  "schemaVersion": "3.4.5",
  "updatedAt": "2022-06-23T06:14:40.691Z",
  "networkType": "ethereum",
  "devdoc": {
    "kind": "dev",
    "methods": {},
    "version": 1
  },
  "userdoc": {
    "kind": "user",
    "methods": {},
    "version": 1
  }
}