{
  "contractName": "DeDocs",
  "abi": [
    {
      "inputs": [],
      "stateMutability": "nonpayable",
      "type": "constructor"
    },
    {
      "anonymous": false,
      "inputs": [
        {
          "indexed": false,
          "internalType": "string",
          "name": "message",
          "type": "string"
        }
      ],
      "name": "DeDocs_deployed",
      "type": "event"
    },
    {
      "anonymous": false,
      "inputs": [
        {
          "indexed": false,
          "internalType": "address",
          "name": "user",
          "type": "address"
        },
        {
          "indexed": false,
          "internalType": "address",
          "name": "admin",
          "type": "address"
        },
        {
          "indexed": false,
          "internalType": "uint256",
          "name": "document_id",
          "type": "uint256"
        }
      ],
      "name": "Document_issued",
      "type": "event"
    },
    {
      "anonymous": false,
      "inputs": [
        {
          "indexed": false,
          "internalType": "uint256",
          "name": "document_id",
          "type": "uint256"
        },
        {
          "components": [
            {
              "internalType": "uint256",
              "name": "id",
              "type": "uint256"
            },
            {
              "internalType": "uint256",
              "name": "request_id",
              "type": "uint256"
            },
            {
              "internalType": "string",
              "name": "name",
              "type": "string"
            },
            {
              "internalType": "string",
              "name": "ipfs_hash",
              "type": "string"
            },
            {
              "internalType": "string",
              "name": "issued_on",
              "type": "string"
            },
            {
              "internalType": "string",
              "name": "last_updated",
              "type": "string"
            },
            {
              "internalType": "address",
              "name": "admin",
              "type": "address"
            },
            {
              "internalType": "address",
              "name": "user",
              "type": "address"
            }
          ],
          "indexed": false,
          "internalType": "struct DeDocs.Document",
          "name": "old_document",
          "type": "tuple"
        },
        {
          "components": [
            {
              "internalType": "uint256",
              "name": "id",
              "type": "uint256"
            },
            {
              "internalType": "uint256",
              "name": "request_id",
              "type": "uint256"
            },
            {
              "internalType": "string",
              "name": "name",
              "type": "string"
            },
            {
              "internalType": "string",
              "name": "ipfs_hash",
              "type": "string"
            },
            {
              "internalType": "string",
              "name": "issued_on",
              "type": "string"
            },
            {
              "internalType": "string",
              "name": "last_updated",
              "type": "string"
            },
            {
              "internalType": "address",
              "name": "admin",
              "type": "address"
            },
            {
              "internalType": "address",
              "name": "user",
              "type": "address"
            }
          ],
          "indexed": false,
          "internalType": "struct DeDocs.Document",
          "name": "new_document",
          "type": "tuple"
        },
        {
          "indexed": false,
          "internalType": "string",
          "name": "message",
          "type": "string"
        }
      ],
      "name": "Document_modified",
      "type": "event"
    },
    {
      "anonymous": false,
      "inputs": [
        {
          "indexed": false,
          "internalType": "address",
          "name": "user",
          "type": "address"
        },
        {
          "indexed": false,
          "internalType": "uint256",
          "name": "request_id",
          "type": "uint256"
        },
        {
          "indexed": false,
          "internalType": "enum DeDocs.DEPARTMENT",
          "name": "department",
          "type": "uint8"
        }
      ],
      "name": "Request_made",
      "type": "event"
    },
    {
      "inputs": [
        {
          "internalType": "address",
          "name": "",
          "type": "address"
        }
      ],
      "name": "admins",
      "outputs": [
        {
          "internalType": "address",
          "name": "id",
          "type": "address"
        },
        {
          "internalType": "string",
          "name": "name",
          "type": "string"
        },
        {
          "internalType": "enum DeDocs.DEPARTMENT",
          "name": "department",
          "type": "uint8"
        }
      ],
      "stateMutability": "view",
      "type": "function",
      "constant": true
    },
    {
      "inputs": [
        {
          "internalType": "uint256",
          "name": "",
          "type": "uint256"
        }
      ],
      "name": "all_documents",
      "outputs": [
        {
          "internalType": "uint256",
          "name": "id",
          "type": "uint256"
        },
        {
          "internalType": "uint256",
          "name": "request_id",
          "type": "uint256"
        },
        {
          "internalType": "string",
          "name": "name",
          "type": "string"
        },
        {
          "internalType": "string",
          "name": "ipfs_hash",
          "type": "string"
        },
        {
          "internalType": "string",
          "name": "issued_on",
          "type": "string"
        },
        {
          "internalType": "string",
          "name": "last_updated",
          "type": "string"
        },
        {
          "internalType": "address",
          "name": "admin",
          "type": "address"
        },
        {
          "internalType": "address",
          "name": "user",
          "type": "address"
        }
      ],
      "stateMutability": "view",
      "type": "function",
      "constant": true
    },
    {
      "inputs": [
        {
          "internalType": "uint256",
          "name": "",
          "type": "uint256"
        }
      ],
      "name": "all_requests",
      "outputs": [
        {
          "internalType": "uint256",
          "name": "id",
          "type": "uint256"
        },
        {
          "internalType": "address",
          "name": "user_id",
          "type": "address"
        },
        {
          "internalType": "string",
          "name": "subject",
          "type": "string"
        },
        {
          "internalType": "string",
          "name": "description",
          "type": "string"
        },
        {
          "internalType": "string",
          "name": "ipfs_hash",
          "type": "string"
        },
        {
          "internalType": "string",
          "name": "date",
          "type": "string"
        },
        {
          "internalType": "enum DeDocs.DEPARTMENT",
          "name": "department",
          "type": "uint8"
        },
        {
          "internalType": "enum DeDocs.REQUEST_CATEGORY",
          "name": "category",
          "type": "uint8"
        },
        {
          "internalType": "enum DeDocs.REQUEST_STATUS",
          "name": "status",
          "type": "uint8"
        },
        {
          "internalType": "uint256",
          "name": "document_id",
          "type": "uint256"
        },
        {
          "internalType": "string",
          "name": "remarks",
          "type": "string"
        }
      ],
      "stateMutability": "view",
      "type": "function",
      "constant": true
    },
    {
      "inputs": [
        {
          "internalType": "address",
          "name": "",
          "type": "address"
        },
        {
          "internalType": "uint256",
          "name": "",
          "type": "uint256"
        }
      ],
      "name": "documents",
      "outputs": [
        {
          "internalType": "uint256",
          "name": "",
          "type": "uint256"
        }
      ],
      "stateMutability": "view",
      "type": "function",
      "constant": true
    },
    {
      "inputs": [
        {
          "internalType": "address",
          "name": "",
          "type": "address"
        },
        {
          "internalType": "uint256",
          "name": "",
          "type": "uint256"
        }
      ],
      "name": "requests",
      "outputs": [
        {
          "internalType": "uint256",
          "name": "",
          "type": "uint256"
        }
      ],
      "stateMutability": "view",
      "type": "function",
      "constant": true
    },
    {
      "inputs": [],
      "name": "total_requests",
      "outputs": [
        {
          "internalType": "uint256",
          "name": "",
          "type": "uint256"
        }
      ],
      "stateMutability": "view",
      "type": "function",
      "constant": true
    },
    {
      "inputs": [
        {
          "internalType": "address",
          "name": "",
          "type": "address"
        }
      ],
      "name": "users",
      "outputs": [
        {
          "internalType": "address",
          "name": "id",
          "type": "address"
        },
        {
          "internalType": "string",
          "name": "name",
          "type": "string"
        },
        {
          "internalType": "string",
          "name": "dob",
          "type": "string"
        },
        {
          "internalType": "string",
          "name": "password",
          "type": "string"
        },
        {
          "internalType": "string",
          "name": "joined",
          "type": "string"
        },
        {
          "internalType": "uint256",
          "name": "total_requests",
          "type": "uint256"
        }
      ],
      "stateMutability": "view",
      "type": "function",
      "constant": true
    },
    {
      "inputs": [
        {
          "internalType": "string",
          "name": "_name",
          "type": "string"
        },
        {
          "internalType": "string",
          "name": "_dob",
          "type": "string"
        },
        {
          "internalType": "string",
          "name": "_password",
          "type": "string"
        },
        {
          "internalType": "string",
          "name": "_joined",
          "type": "string"
        }
      ],
      "name": "register_user",
      "outputs": [
        {
          "components": [
            {
              "internalType": "address",
              "name": "id",
              "type": "address"
            },
            {
              "internalType": "string",
              "name": "name",
              "type": "string"
            },
            {
              "internalType": "string",
              "name": "dob",
              "type": "string"
            },
            {
              "internalType": "string",
              "name": "password",
              "type": "string"
            },
            {
              "internalType": "string",
              "name": "joined",
              "type": "string"
            },
            {
              "internalType": "uint256",
              "name": "total_requests",
              "type": "uint256"
            }
          ],
          "internalType": "struct DeDocs.User",
          "name": "",
          "type": "tuple"
        }
      ],
      "stateMutability": "payable",
      "type": "function",
      "payable": true
    },
    {
      "inputs": [
        {
          "internalType": "string",
          "name": "_name",
          "type": "string"
        },
        {
          "internalType": "enum DeDocs.DEPARTMENT",
          "name": "_department",
          "type": "uint8"
        }
      ],
      "name": "register_admin",
      "outputs": [
        {
          "components": [
            {
              "internalType": "address",
              "name": "id",
              "type": "address"
            },
            {
              "internalType": "string",
              "name": "name",
              "type": "string"
            },
            {
              "internalType": "enum DeDocs.DEPARTMENT",
              "name": "department",
              "type": "uint8"
            }
          ],
          "internalType": "struct DeDocs.Admin",
          "name": "",
          "type": "tuple"
        }
      ],
      "stateMutability": "payable",
      "type": "function",
      "payable": true
    },
    {
      "inputs": [],
      "name": "get_departments",
      "outputs": [
        {
          "internalType": "string[4]",
          "name": "departments",
          "type": "string[4]"
        }
      ],
      "stateMutability": "pure",
      "type": "function",
      "constant": true
    },
    {
      "inputs": [
        {
          "internalType": "address",
          "name": "_address",
          "type": "address"
        }
      ],
      "name": "get_role",
      "outputs": [
        {
          "internalType": "enum DeDocs.ROLE",
          "name": "role",
          "type": "uint8"
        }
      ],
      "stateMutability": "view",
      "type": "function",
      "constant": true
    },
    {
      "inputs": [],
      "name": "get_all_requests",
      "outputs": [
        {
          "components": [
            {
              "internalType": "uint256",
              "name": "id",
              "type": "uint256"
            },
            {
              "internalType": "address",
              "name": "user_id",
              "type": "address"
            },
            {
              "internalType": "string",
              "name": "subject",
              "type": "string"
            },
            {
              "internalType": "string",
              "name": "description",
              "type": "string"
            },
            {
              "internalType": "string",
              "name": "ipfs_hash",
              "type": "string"
            },
            {
              "internalType": "string",
              "name": "date",
              "type": "string"
            },
            {
              "internalType": "enum DeDocs.DEPARTMENT",
              "name": "department",
              "type": "uint8"
            },
            {
              "internalType": "enum DeDocs.REQUEST_CATEGORY",
              "name": "category",
              "type": "uint8"
            },
            {
              "internalType": "enum DeDocs.REQUEST_STATUS",
              "name": "status",
              "type": "uint8"
            },
            {
              "internalType": "uint256",
              "name": "document_id",
              "type": "uint256"
            },
            {
              "internalType": "string",
              "name": "remarks",
              "type": "string"
            }
          ],
          "internalType": "struct DeDocs.Request[]",
          "name": "",
          "type": "tuple[]"
        }
      ],
      "stateMutability": "view",
      "type": "function",
      "constant": true
    },
    {
      "inputs": [
        {
          "internalType": "address",
          "name": "_address",
          "type": "address"
        }
      ],
      "name": "get_user_details",
      "outputs": [
        {
          "components": [
            {
              "internalType": "address",
              "name": "id",
              "type": "address"
            },
            {
              "internalType": "string",
              "name": "name",
              "type": "string"
            },
            {
              "internalType": "string",
              "name": "dob",
              "type": "string"
            },
            {
              "internalType": "string",
              "name": "password",
              "type": "string"
            },
            {
              "internalType": "string",
              "name": "joined",
              "type": "string"
            },
            {
              "internalType": "uint256",
              "name": "total_requests",
              "type": "uint256"
            }
          ],
          "internalType": "struct DeDocs.User",
          "name": "user",
          "type": "tuple"
        }
      ],
      "stateMutability": "view",
      "type": "function",
      "constant": true
    },
    {
      "inputs": [],
      "name": "get_user_requests",
      "outputs": [
        {
          "internalType": "uint256[]",
          "name": "_requests",
          "type": "uint256[]"
        }
      ],
      "stateMutability": "view",
      "type": "function",
      "constant": true
    },
    {
      "inputs": [
        {
          "internalType": "enum DeDocs.DEPARTMENT",
          "name": "_department",
          "type": "uint8"
        },
        {
          "internalType": "string",
          "name": "_subject",
          "type": "string"
        },
        {
          "internalType": "string",
          "name": "_description",
          "type": "string"
        },
        {
          "internalType": "string",
          "name": "_ipfs_hash",
          "type": "string"
        },
        {
          "internalType": "enum DeDocs.REQUEST_CATEGORY",
          "name": "_request_category",
          "type": "uint8"
        },
        {
          "internalType": "string",
          "name": "_date",
          "type": "string"
        }
      ],
      "name": "make_request",
      "outputs": [
        {
          "components": [
            {
              "internalType": "uint256",
              "name": "id",
              "type": "uint256"
            },
            {
              "internalType": "address",
              "name": "user_id",
              "type": "address"
            },
            {
              "internalType": "string",
              "name": "subject",
              "type": "string"
            },
            {
              "internalType": "string",
              "name": "description",
              "type": "string"
            },
            {
              "internalType": "string",
              "name": "ipfs_hash",
              "type": "string"
            },
            {
              "internalType": "string",
              "name": "date",
              "type": "string"
            },
            {
              "internalType": "enum DeDocs.DEPARTMENT",
              "name": "department",
              "type": "uint8"
            },
            {
              "internalType": "enum DeDocs.REQUEST_CATEGORY",
              "name": "category",
              "type": "uint8"
            },
            {
              "internalType": "enum DeDocs.REQUEST_STATUS",
              "name": "status",
              "type": "uint8"
            },
            {
              "internalType": "uint256",
              "name": "document_id",
              "type": "uint256"
            },
            {
              "internalType": "string",
              "name": "remarks",
              "type": "string"
            }
          ],
          "internalType": "struct DeDocs.Request",
          "name": "",
          "type": "tuple"
        }
      ],
      "stateMutability": "payable",
      "type": "function",
      "payable": true
    },
    {
      "inputs": [],
      "name": "get_admin_details",
      "outputs": [
        {
          "components": [
            {
              "internalType": "address",
              "name": "id",
              "type": "address"
            },
            {
              "internalType": "string",
              "name": "name",
              "type": "string"
            },
            {
              "internalType": "enum DeDocs.DEPARTMENT",
              "name": "department",
              "type": "uint8"
            }
          ],
          "internalType": "struct DeDocs.Admin",
          "name": "admin",
          "type": "tuple"
        }
      ],
      "stateMutability": "view",
      "type": "function",
      "constant": true
    },
    {
      "inputs": [
        {
          "internalType": "uint256",
          "name": "_document_id",
          "type": "uint256"
        }
      ],
      "name": "get_document",
      "outputs": [
        {
          "components": [
            {
              "internalType": "uint256",
              "name": "id",
              "type": "uint256"
            },
            {
              "internalType": "uint256",
              "name": "request_id",
              "type": "uint256"
            },
            {
              "internalType": "string",
              "name": "name",
              "type": "string"
            },
            {
              "internalType": "string",
              "name": "ipfs_hash",
              "type": "string"
            },
            {
              "internalType": "string",
              "name": "issued_on",
              "type": "string"
            },
            {
              "internalType": "string",
              "name": "last_updated",
              "type": "string"
            },
            {
              "internalType": "address",
              "name": "admin",
              "type": "address"
            },
            {
              "internalType": "address",
              "name": "user",
              "type": "address"
            }
          ],
          "internalType": "struct DeDocs.Document",
          "name": "",
          "type": "tuple"
        }
      ],
      "stateMutability": "view",
      "type": "function",
      "constant": true
    },
    {
      "inputs": [
        {
          "internalType": "uint256",
          "name": "_request_id",
          "type": "uint256"
        }
      ],
      "name": "approve_request",
      "outputs": [],
      "stateMutability": "payable",
      "type": "function",
      "payable": true
    },
    {
      "inputs": [
        {
          "internalType": "uint256",
          "name": "_request_id",
          "type": "uint256"
        },
        {
          "internalType": "address",
          "name": "_userAddress",
          "type": "address"
        },
        {
          "internalType": "string",
          "name": "_name",
          "type": "string"
        },
        {
          "internalType": "string",
          "name": "_ipfs_hash",
          "type": "string"
        },
        {
          "internalType": "string",
          "name": "_issued_on",
          "type": "string"
        }
      ],
      "name": "issue_document",
      "outputs": [
        {
          "components": [
            {
              "internalType": "uint256",
              "name": "id",
              "type": "uint256"
            },
            {
              "internalType": "uint256",
              "name": "request_id",
              "type": "uint256"
            },
            {
              "internalType": "string",
              "name": "name",
              "type": "string"
            },
            {
              "internalType": "string",
              "name": "ipfs_hash",
              "type": "string"
            },
            {
              "internalType": "string",
              "name": "issued_on",
              "type": "string"
            },
            {
              "internalType": "string",
              "name": "last_updated",
              "type": "string"
            },
            {
              "internalType": "address",
              "name": "admin",
              "type": "address"
            },
            {
              "internalType": "address",
              "name": "user",
              "type": "address"
            }
          ],
          "internalType": "struct DeDocs.Document",
          "name": "",
          "type": "tuple"
        }
      ],
      "stateMutability": "payable",
      "type": "function",
      "payable": true
    },
    {
      "inputs": [
        {
          "internalType": "uint256",
          "name": "_document_id",
          "type": "uint256"
        },
        {
          "components": [
            {
              "internalType": "uint256",
              "name": "id",
              "type": "uint256"
            },
            {
              "internalType": "uint256",
              "name": "request_id",
              "type": "uint256"
            },
            {
              "internalType": "string",
              "name": "name",
              "type": "string"
            },
            {
              "internalType": "string",
              "name": "ipfs_hash",
              "type": "string"
            },
            {
              "internalType": "string",
              "name": "issued_on",
              "type": "string"
            },
            {
              "internalType": "string",
              "name": "last_updated",
              "type": "string"
            },
            {
              "internalType": "address",
              "name": "admin",
              "type": "address"
            },
            {
              "internalType": "address",
              "name": "user",
              "type": "address"
            }
          ],
          "internalType": "struct DeDocs.Document",
          "name": "_new_document",
          "type": "tuple"
        },
        {
          "internalType": "string",
          "name": "_last_updated",
          "type": "string"
        },
        {
          "internalType": "string",
          "name": "_message",
          "type": "string"
        }
      ],
      "name": "modify_document",
      "outputs": [
        {
          "components": [
            {
              "internalType": "uint256",
              "name": "id",
              "type": "uint256"
            },
            {
              "internalType": "uint256",
              "name": "request_id",
              "type": "uint256"
            },
            {
              "internalType": "string",
              "name": "name",
              "type": "string"
            },
            {
              "internalType": "string",
              "name": "ipfs_hash",
              "type": "string"
            },
            {
              "internalType": "string",
              "name": "issued_on",
              "type": "string"
            },
            {
              "internalType": "string",
              "name": "last_updated",
              "type": "string"
            },
            {
              "internalType": "address",
              "name": "admin",
              "type": "address"
            },
            {
              "internalType": "address",
              "name": "user",
              "type": "address"
            }
          ],
          "internalType": "struct DeDocs.Document",
          "name": "",
          "type": "tuple"
        }
      ],
      "stateMutability": "payable",
      "type": "function",
      "payable": true
    }
  ],
  "bytecode": "0x6080604052600080553480156200001557600080fd5b507f9ab3570e7e18bfba94b9c1020a507301d734b0c1bd22301391288a326884adc16040516200004590620000b4565b60405180910390a1620000d6565b600082825260208201905092915050565b7f436f6e7472616374206465706c6f796564207375636365737366756c6c790000600082015250565b60006200009c601e8362000053565b9150620000a98262000064565b602082019050919050565b60006020820190508181036000830152620000cf816200008d565b9050919050565b61590480620000e66000396000f3fe60806040526004361061011f5760003560e01c8063789469bd116100a0578063ca76115c11610064578063ca76115c14610451578063cb736f261461047c578063d2965f04146104ac578063d9371aeb146104e9578063f7a37b52146105195761011f565b8063789469bd146103475780639ecebe2a146103775780639ef6cf57146103b4578063a87430ba146103e4578063bb5bfd66146104265761011f565b806339c22db8116100e757806339c22db81461021f578063429b62e51461025c578063633988441461029b578063726f091e146102d85780637673ac95146103035761011f565b80630776a4f3146101245780630c99d1301461015457806318db724f1461017057806326611b5a146101b757806338925c7d146101e2575b600080fd5b61013e60048036038101906101399190614204565b610544565b60405161014b919061445b565b60405180910390f35b61016e600480360381019061016991906144a9565b6107a0565b005b34801561017c57600080fd5b50610197600480360381019061019291906144a9565b610e74565b6040516101ae9b9a99989796959493929190614645565b60405180910390f35b3480156101c357600080fd5b506101cc6111cd565b6040516101d99190614713565b60405180910390f35b3480156101ee57600080fd5b50610209600480360381019061020491906144a9565b6111d3565b60405161021691906147f3565b60405180910390f35b34801561022b57600080fd5b5061024660048036038101906102419190614841565b6116b6565b60405161025391906148b6565b60405180910390f35b34801561026857600080fd5b50610283600480360381019061027e9190614841565b6117ff565b604051610292939291906148d1565b60405180910390f35b3480156102a757600080fd5b506102c260048036038101906102bd919061490f565b6118de565b6040516102cf9190614713565b60405180910390f35b3480156102e457600080fd5b506102ed61190f565b6040516102fa9190614a05565b60405180910390f35b34801561030f57600080fd5b5061032a600480360381019061032591906144a9565b6119fa565b60405161033e989796959493929190614a27565b60405180910390f35b610361600480360381019061035c9190614ae6565b611cb2565b60405161036e9190614ba1565b60405180910390f35b34801561038357600080fd5b5061039e6004803603810190610399919061490f565b611ee5565b6040516103ab9190614713565b60405180910390f35b6103ce60048036038101906103c99190614be8565b611f16565b6040516103db9190614e0e565b60405180910390f35b3480156103f057600080fd5b5061040b60048036038101906104069190614841565b612233565b60405161041d96959493929190614e30565b60405180910390f35b34801561043257600080fd5b5061043b6124af565b604051610448919061507a565b60405180910390f35b34801561045d57600080fd5b50610466612904565b604051610473919061514b565b60405180910390f35b6104966004803603810190610491919061516d565b61299f565b6040516104a391906147f3565b60405180910390f35b3480156104b857600080fd5b506104d360048036038101906104ce9190614841565b6133c2565b6040516104e0919061445b565b60405180910390f35b61050360048036038101906104fe9190615380565b6136c9565b60405161051091906147f3565b60405180910390f35b34801561052557600080fd5b5061052e613cb4565b60405161053b9190614ba1565b60405180910390f35b61054c613e34565b600073ffffffffffffffffffffffffffffffffffffffff16600360003373ffffffffffffffffffffffffffffffffffffffff1673ffffffffffffffffffffffffffffffffffffffff16815260200190815260200160002060000160009054906101000a900473ffffffffffffffffffffffffffffffffffffffff1673ffffffffffffffffffffffffffffffffffffffff161461061d576040517f08c379a0000000000000000000000000000000000000000000000000000000008152600401610614906154ad565b60405180910390fd5b610625613e34565b33816000019073ffffffffffffffffffffffffffffffffffffffff16908173ffffffffffffffffffffffffffffffffffffffff168152505085816020018190525084816040018190525083816060018190525082816080018190525060008160a001818152505080600360003373ffffffffffffffffffffffffffffffffffffffff1673ffffffffffffffffffffffffffffffffffffffff16815260200190815260200160002060008201518160000160006101000a81548173ffffffffffffffffffffffffffffffffffffffff021916908373ffffffffffffffffffffffffffffffffffffffff160217905550602082015181600101908051906020019061072f929190613e80565b50604082015181600201908051906020019061074c929190613e80565b506060820151816003019080519060200190610769929190613e80565b506080820151816004019080519060200190610786929190613e80565b5060a0820151816005015590505080915050949350505050565b600073ffffffffffffffffffffffffffffffffffffffff16600460003373ffffffffffffffffffffffffffffffffffffffff1673ffffffffffffffffffffffffffffffffffffffff16815260200190815260200160002060000160009054906101000a900473ffffffffffffffffffffffffffffffffffffffff1673ffffffffffffffffffffffffffffffffffffffff161415610872576040517f08c379a00000000000000000000000000000000000000000000000000000000081526004016108699061553f565b60405180910390fd5b6000600182815481106108885761088761555f565b5b906000526020600020906009020160405180610160016040529081600082015481526020016001820160009054906101000a900473ffffffffffffffffffffffffffffffffffffffff1673ffffffffffffffffffffffffffffffffffffffff1673ffffffffffffffffffffffffffffffffffffffff168152602001600282018054610912906155bd565b80601f016020809104026020016040519081016040528092919081815260200182805461093e906155bd565b801561098b5780601f106109605761010080835404028352916020019161098b565b820191906000526020600020905b81548152906001019060200180831161096e57829003601f168201915b505050505081526020016003820180546109a4906155bd565b80601f01602080910402602001604051908101604052809291908181526020018280546109d0906155bd565b8015610a1d5780601f106109f257610100808354040283529160200191610a1d565b820191906000526020600020905b815481529060010190602001808311610a0057829003601f168201915b50505050508152602001600482018054610a36906155bd565b80601f0160208091040260200160405190810160405280929190818152602001828054610a62906155bd565b8015610aaf5780601f10610a8457610100808354040283529160200191610aaf565b820191906000526020600020905b815481529060010190602001808311610a9257829003601f168201915b50505050508152602001600582018054610ac8906155bd565b80601f0160208091040260200160405190810160405280929190818152602001828054610af4906155bd565b8015610b415780601f10610b1657610100808354040283529160200191610b41565b820191906000526020600020905b815481529060010190602001808311610b2457829003601f168201915b505050505081526020016006820160009054906101000a900460ff166003811115610b6f57610b6e61453e565b5b6003811115610b8157610b8061453e565b5b81526020016006820160019054906101000a900460ff166002811115610baa57610ba961453e565b5b6002811115610bbc57610bbb61453e565b5b81526020016006820160029054906101000a900460ff166002811115610be557610be461453e565b5b6002811115610bf757610bf661453e565b5b815260200160078201548152602001600882018054610c15906155bd565b80601f0160208091040260200160405190810160405280929190818152602001828054610c41906155bd565b8015610c8e5780601f10610c6357610100808354040283529160200191610c8e565b820191906000526020600020905b815481529060010190602001808311610c7157829003601f168201915b505050505081525050905060018161010001906002811115610cb357610cb261453e565b5b90816002811115610cc757610cc661453e565b5b815250508060018381548110610ce057610cdf61555f565b5b90600052602060002090600902016000820151816000015560208201518160010160006101000a81548173ffffffffffffffffffffffffffffffffffffffff021916908373ffffffffffffffffffffffffffffffffffffffff1602179055506040820151816002019080519060200190610d5b929190613e80565b506060820151816003019080519060200190610d78929190613e80565b506080820151816004019080519060200190610d95929190613e80565b5060a0820151816005019080519060200190610db2929190613e80565b5060c08201518160060160006101000a81548160ff02191690836003811115610dde57610ddd61453e565b5b021790555060e08201518160060160016101000a81548160ff02191690836002811115610e0e57610e0d61453e565b5b02179055506101008201518160060160026101000a81548160ff02191690836002811115610e3f57610e3e61453e565b5b02179055506101208201518160070155610140820151816008019080519060200190610e6c929190613e80565b509050505050565b60018181548110610e8457600080fd5b90600052602060002090600902016000915090508060000154908060010160009054906101000a900473ffffffffffffffffffffffffffffffffffffffff1690806002018054610ed3906155bd565b80601f0160208091040260200160405190810160405280929190818152602001828054610eff906155bd565b8015610f4c5780601f10610f2157610100808354040283529160200191610f4c565b820191906000526020600020905b815481529060010190602001808311610f2f57829003601f168201915b505050505090806003018054610f61906155bd565b80601f0160208091040260200160405190810160405280929190818152602001828054610f8d906155bd565b8015610fda5780601f10610faf57610100808354040283529160200191610fda565b820191906000526020600020905b815481529060010190602001808311610fbd57829003601f168201915b505050505090806004018054610fef906155bd565b80601f016020809104026020016040519081016040528092919081815260200182805461101b906155bd565b80156110685780601f1061103d57610100808354040283529160200191611068565b820191906000526020600020905b81548152906001019060200180831161104b57829003601f168201915b50505050509080600501805461107d906155bd565b80601f01602080910402602001604051908101604052809291908181526020018280546110a9906155bd565b80156110f65780601f106110cb576101008083540402835291602001916110f6565b820191906000526020600020905b8154815290600101906020018083116110d957829003601f168201915b5050505050908060060160009054906101000a900460ff16908060060160019054906101000a900460ff16908060060160029054906101000a900460ff169080600701549080600801805461114a906155bd565b80601f0160208091040260200160405190810160405280929190818152602001828054611176906155bd565b80156111c35780601f10611198576101008083540402835291602001916111c3565b820191906000526020600020905b8154815290600101906020018083116111a657829003601f168201915b505050505090508b565b60005481565b6111db613f06565b816002805490508110611223576040517f08c379a000000000000000000000000000000000000000000000000000000000815260040161121a9061563b565b60405180910390fd5b82600073ffffffffffffffffffffffffffffffffffffffff16600460003373ffffffffffffffffffffffffffffffffffffffff1673ffffffffffffffffffffffffffffffffffffffff16815260200190815260200160002060000160009054906101000a900473ffffffffffffffffffffffffffffffffffffffff1673ffffffffffffffffffffffffffffffffffffffff1614158061133257503373ffffffffffffffffffffffffffffffffffffffff16600282815481106112e8576112e761555f565b5b906000526020600020906008020160070160009054906101000a900473ffffffffffffffffffffffffffffffffffffffff1673ffffffffffffffffffffffffffffffffffffffff16145b611371576040517f08c379a0000000000000000000000000000000000000000000000000000000008152600401611368906156cd565b60405180910390fd5b6000600285815481106113875761138661555f565b5b90600052602060002090600802016040518061010001604052908160008201548152602001600182015481526020016002820180546113c5906155bd565b80601f01602080910402602001604051908101604052809291908181526020018280546113f1906155bd565b801561143e5780601f106114135761010080835404028352916020019161143e565b820191906000526020600020905b81548152906001019060200180831161142157829003601f168201915b50505050508152602001600382018054611457906155bd565b80601f0160208091040260200160405190810160405280929190818152602001828054611483906155bd565b80156114d05780601f106114a5576101008083540402835291602001916114d0565b820191906000526020600020905b8154815290600101906020018083116114b357829003601f168201915b505050505081526020016004820180546114e9906155bd565b80601f0160208091040260200160405190810160405280929190818152602001828054611515906155bd565b80156115625780601f1061153757610100808354040283529160200191611562565b820191906000526020600020905b81548152906001019060200180831161154557829003601f168201915b5050505050815260200160058201805461157b906155bd565b80601f01602080910402602001604051908101604052809291908181526020018280546115a7906155bd565b80156115f45780601f106115c9576101008083540402835291602001916115f4565b820191906000526020600020905b8154815290600101906020018083116115d757829003601f168201915b505050505081526020016006820160009054906101000a900473ffffffffffffffffffffffffffffffffffffffff1673ffffffffffffffffffffffffffffffffffffffff1673ffffffffffffffffffffffffffffffffffffffff1681526020016007820160009054906101000a900473ffffffffffffffffffffffffffffffffffffffff1673ffffffffffffffffffffffffffffffffffffffff1673ffffffffffffffffffffffffffffffffffffffff16815250509050809350505050919050565b60008073ffffffffffffffffffffffffffffffffffffffff16600360008473ffffffffffffffffffffffffffffffffffffffff1673ffffffffffffffffffffffffffffffffffffffff16815260200190815260200160002060000160009054906101000a900473ffffffffffffffffffffffffffffffffffffffff1673ffffffffffffffffffffffffffffffffffffffff161461175657600290506117fa565b600073ffffffffffffffffffffffffffffffffffffffff16600460008473ffffffffffffffffffffffffffffffffffffffff1673ffffffffffffffffffffffffffffffffffffffff16815260200190815260200160002060000160009054906101000a900473ffffffffffffffffffffffffffffffffffffffff1673ffffffffffffffffffffffffffffffffffffffff16146117f557600190506117fa565b600090505b919050565b60046020528060005260406000206000915090508060000160009054906101000a900473ffffffffffffffffffffffffffffffffffffffff1690806001018054611848906155bd565b80601f0160208091040260200160405190810160405280929190818152602001828054611874906155bd565b80156118c15780601f10611896576101008083540402835291602001916118c1565b820191906000526020600020905b8154815290600101906020018083116118a457829003601f168201915b5050505050908060020160009054906101000a900460ff16905083565b600660205281600052604060002081815481106118fa57600080fd5b90600052602060002001600091509150505481565b611917613f77565b600060405180608001604052806040518060600160405280602881526020016158a76028913981526020016040518060400160405280600a81526020017f494e434f4d45205441580000000000000000000000000000000000000000000081525081526020016040518060400160405280601581526020017f4d554e49434950414c20434f52504f524154494f4e000000000000000000000081525081526020016040518060400160405280601a81526020017f5354415445205452414e53504f5254442045504152544d454e5400000000000081525081525090508091505090565b60028181548110611a0a57600080fd5b9060005260206000209060080201600091509050806000015490806001015490806002018054611a39906155bd565b80601f0160208091040260200160405190810160405280929190818152602001828054611a65906155bd565b8015611ab25780601f10611a8757610100808354040283529160200191611ab2565b820191906000526020600020905b815481529060010190602001808311611a9557829003601f168201915b505050505090806003018054611ac7906155bd565b80601f0160208091040260200160405190810160405280929190818152602001828054611af3906155bd565b8015611b405780601f10611b1557610100808354040283529160200191611b40565b820191906000526020600020905b815481529060010190602001808311611b2357829003601f168201915b505050505090806004018054611b55906155bd565b80601f0160208091040260200160405190810160405280929190818152602001828054611b81906155bd565b8015611bce5780601f10611ba357610100808354040283529160200191611bce565b820191906000526020600020905b815481529060010190602001808311611bb157829003601f168201915b505050505090806005018054611be3906155bd565b80601f0160208091040260200160405190810160405280929190818152602001828054611c0f906155bd565b8015611c5c5780601f10611c3157610100808354040283529160200191611c5c565b820191906000526020600020905b815481529060010190602001808311611c3f57829003601f168201915b5050505050908060060160009054906101000a900473ffffffffffffffffffffffffffffffffffffffff16908060070160009054906101000a900473ffffffffffffffffffffffffffffffffffffffff16905088565b611cba613f9e565b600073ffffffffffffffffffffffffffffffffffffffff16600460003373ffffffffffffffffffffffffffffffffffffffff1673ffffffffffffffffffffffffffffffffffffffff16815260200190815260200160002060000160009054906101000a900473ffffffffffffffffffffffffffffffffffffffff1673ffffffffffffffffffffffffffffffffffffffff1614611d8b576040517f08c379a0000000000000000000000000000000000000000000000000000000008152600401611d82906154ad565b60405180910390fd5b611d93613f9e565b33816000019073ffffffffffffffffffffffffffffffffffffffff16908173ffffffffffffffffffffffffffffffffffffffff16815250508381602001819052508281604001906003811115611dec57611deb61453e565b5b90816003811115611e0057611dff61453e565b5b8152505080600460003373ffffffffffffffffffffffffffffffffffffffff1673ffffffffffffffffffffffffffffffffffffffff16815260200190815260200160002060008201518160000160006101000a81548173ffffffffffffffffffffffffffffffffffffffff021916908373ffffffffffffffffffffffffffffffffffffffff1602179055506020820151816001019080519060200190611ea7929190613e80565b5060408201518160020160006101000a81548160ff02191690836003811115611ed357611ed261453e565b5b02179055509050508091505092915050565b60056020528160005260406000208181548110611f0157600080fd5b90600052602060002001600091509150505481565b611f1e613fe7565b611f26613fe7565b60005481600001818152505033816020019073ffffffffffffffffffffffffffffffffffffffff16908173ffffffffffffffffffffffffffffffffffffffff1681525050868160400181905250858160600181905250848160800181905250828160a00181905250878160c001906003811115611fa657611fa561453e565b5b90816003811115611fba57611fb961453e565b5b81525050838160e001906002811115611fd657611fd561453e565b5b90816002811115611fea57611fe961453e565b5b81525050600081610100019060028111156120085761200761453e565b5b9081600281111561201c5761201b61453e565b5b8152505060018190806001815401808255809150506001900390600052602060002090600902016000909190919091506000820151816000015560208201518160010160006101000a81548173ffffffffffffffffffffffffffffffffffffffff021916908373ffffffffffffffffffffffffffffffffffffffff16021790555060408201518160020190805190602001906120b9929190613e80565b5060608201518160030190805190602001906120d6929190613e80565b5060808201518160040190805190602001906120f3929190613e80565b5060a0820151816005019080519060200190612110929190613e80565b5060c08201518160060160006101000a81548160ff0219169083600381111561213c5761213b61453e565b5b021790555060e08201518160060160016101000a81548160ff0219169083600281111561216c5761216b61453e565b5b02179055506101008201518160060160026101000a81548160ff0219169083600281111561219d5761219c61453e565b5b021790555061012082015181600701556101408201518160080190805190602001906121ca929190613e80565b50505060016000808282546121df919061571c565b925050819055507fb0d5a35d53d1b590b4e2ab0193806445dd4ad70aab99e4a02454aaf4ae4939b63382600001518a60405161221d93929190615772565b60405180910390a1809150509695505050505050565b60036020528060005260406000206000915090508060000160009054906101000a900473ffffffffffffffffffffffffffffffffffffffff169080600101805461227c906155bd565b80601f01602080910402602001604051908101604052809291908181526020018280546122a8906155bd565b80156122f55780601f106122ca576101008083540402835291602001916122f5565b820191906000526020600020905b8154815290600101906020018083116122d857829003601f168201915b50505050509080600201805461230a906155bd565b80601f0160208091040260200160405190810160405280929190818152602001828054612336906155bd565b80156123835780601f1061235857610100808354040283529160200191612383565b820191906000526020600020905b81548152906001019060200180831161236657829003601f168201915b505050505090806003018054612398906155bd565b80601f01602080910402602001604051908101604052809291908181526020018280546123c4906155bd565b80156124115780601f106123e657610100808354040283529160200191612411565b820191906000526020600020905b8154815290600101906020018083116123f457829003601f168201915b505050505090806004018054612426906155bd565b80601f0160208091040260200160405190810160405280929190818152602001828054612452906155bd565b801561249f5780601f106124745761010080835404028352916020019161249f565b820191906000526020600020905b81548152906001019060200180831161248257829003601f168201915b5050505050908060050154905086565b60606001805480602002602001604051908101604052809291908181526020016000905b828210156128fb578382906000526020600020906009020160405180610160016040529081600082015481526020016001820160009054906101000a900473ffffffffffffffffffffffffffffffffffffffff1673ffffffffffffffffffffffffffffffffffffffff1673ffffffffffffffffffffffffffffffffffffffff168152602001600282018054612567906155bd565b80601f0160208091040260200160405190810160405280929190818152602001828054612593906155bd565b80156125e05780601f106125b5576101008083540402835291602001916125e0565b820191906000526020600020905b8154815290600101906020018083116125c357829003601f168201915b505050505081526020016003820180546125f9906155bd565b80601f0160208091040260200160405190810160405280929190818152602001828054612625906155bd565b80156126725780601f1061264757610100808354040283529160200191612672565b820191906000526020600020905b81548152906001019060200180831161265557829003601f168201915b5050505050815260200160048201805461268b906155bd565b80601f01602080910402602001604051908101604052809291908181526020018280546126b7906155bd565b80156127045780601f106126d957610100808354040283529160200191612704565b820191906000526020600020905b8154815290600101906020018083116126e757829003601f168201915b5050505050815260200160058201805461271d906155bd565b80601f0160208091040260200160405190810160405280929190818152602001828054612749906155bd565b80156127965780601f1061276b57610100808354040283529160200191612796565b820191906000526020600020905b81548152906001019060200180831161277957829003601f168201915b505050505081526020016006820160009054906101000a900460ff1660038111156127c4576127c361453e565b5b60038111156127d6576127d561453e565b5b81526020016006820160019054906101000a900460ff1660028111156127ff576127fe61453e565b5b60028111156128115761281061453e565b5b81526020016006820160029054906101000a900460ff16600281111561283a5761283961453e565b5b600281111561284c5761284b61453e565b5b81526020016007820154815260200160088201805461286a906155bd565b80601f0160208091040260200160405190810160405280929190818152602001828054612896906155bd565b80156128e35780601f106128b8576101008083540402835291602001916128e3565b820191906000526020600020905b8154815290600101906020018083116128c657829003601f168201915b505050505081525050815260200190600101906124d3565b50505050905090565b60606000600560003373ffffffffffffffffffffffffffffffffffffffff1673ffffffffffffffffffffffffffffffffffffffff16815260200190815260200160002080548060200260200160405190810160405280929190818152602001828054801561299157602002820191906000526020600020905b81548152602001906001019080831161297d575b505050505090508091505090565b6129a7613f06565b600073ffffffffffffffffffffffffffffffffffffffff16600460003373ffffffffffffffffffffffffffffffffffffffff1673ffffffffffffffffffffffffffffffffffffffff16815260200190815260200160002060000160009054906101000a900473ffffffffffffffffffffffffffffffffffffffff1673ffffffffffffffffffffffffffffffffffffffff161415612a79576040517f08c379a0000000000000000000000000000000000000000000000000000000008152600401612a709061553f565b60405180910390fd5b600073ffffffffffffffffffffffffffffffffffffffff16600360008773ffffffffffffffffffffffffffffffffffffffff1673ffffffffffffffffffffffffffffffffffffffff16815260200190815260200160002060000160009054906101000a900473ffffffffffffffffffffffffffffffffffffffff1673ffffffffffffffffffffffffffffffffffffffff161415612b4b576040517f08c379a0000000000000000000000000000000000000000000000000000000008152600401612b42906157f5565b60405180910390fd5b612b53613f06565b600280549050816000018181525050848160400181905250838160600181905250828160800181905250858160e0019073ffffffffffffffffffffffffffffffffffffffff16908173ffffffffffffffffffffffffffffffffffffffff1681525050338160c0019073ffffffffffffffffffffffffffffffffffffffff16908173ffffffffffffffffffffffffffffffffffffffff1681525050600281908060018154018082558091505060019003906000526020600020906008020160009091909190915060008201518160000155602082015181600101556040820151816002019080519060200190612c49929190613e80565b506060820151816003019080519060200190612c66929190613e80565b506080820151816004019080519060200190612c83929190613e80565b5060a0820151816005019080519060200190612ca0929190613e80565b5060c08201518160060160006101000a81548173ffffffffffffffffffffffffffffffffffffffff021916908373ffffffffffffffffffffffffffffffffffffffff16021790555060e08201518160070160006101000a81548173ffffffffffffffffffffffffffffffffffffffff021916908373ffffffffffffffffffffffffffffffffffffffff1602179055505050600660008773ffffffffffffffffffffffffffffffffffffffff1673ffffffffffffffffffffffffffffffffffffffff16815260200190815260200160002081600001519080600181540180825580915050600190039060005260206000200160009091909190915055600060018881548110612db157612db061555f565b5b906000526020600020906009020160405180610160016040529081600082015481526020016001820160009054906101000a900473ffffffffffffffffffffffffffffffffffffffff1673ffffffffffffffffffffffffffffffffffffffff1673ffffffffffffffffffffffffffffffffffffffff168152602001600282018054612e3b906155bd565b80601f0160208091040260200160405190810160405280929190818152602001828054612e67906155bd565b8015612eb45780601f10612e8957610100808354040283529160200191612eb4565b820191906000526020600020905b815481529060010190602001808311612e9757829003601f168201915b50505050508152602001600382018054612ecd906155bd565b80601f0160208091040260200160405190810160405280929190818152602001828054612ef9906155bd565b8015612f465780601f10612f1b57610100808354040283529160200191612f46565b820191906000526020600020905b815481529060010190602001808311612f2957829003601f168201915b50505050508152602001600482018054612f5f906155bd565b80601f0160208091040260200160405190810160405280929190818152602001828054612f8b906155bd565b8015612fd85780601f10612fad57610100808354040283529160200191612fd8565b820191906000526020600020905b815481529060010190602001808311612fbb57829003601f168201915b50505050508152602001600582018054612ff1906155bd565b80601f016020809104026020016040519081016040528092919081815260200182805461301d906155bd565b801561306a5780601f1061303f5761010080835404028352916020019161306a565b820191906000526020600020905b81548152906001019060200180831161304d57829003601f168201915b505050505081526020016006820160009054906101000a900460ff1660038111156130985761309761453e565b5b60038111156130aa576130a961453e565b5b81526020016006820160019054906101000a900460ff1660028111156130d3576130d261453e565b5b60028111156130e5576130e461453e565b5b81526020016006820160029054906101000a900460ff16600281111561310e5761310d61453e565b5b60028111156131205761311f61453e565b5b81526020016007820154815260200160088201805461313e906155bd565b80601f016020809104026020016040519081016040528092919081815260200182805461316a906155bd565b80156131b75780601f1061318c576101008083540402835291602001916131b7565b820191906000526020600020905b81548152906001019060200180831161319a57829003601f168201915b505050505081525050905081600001518161012001818152505080600189815481106131e6576131e561555f565b5b90600052602060002090600902016000820151816000015560208201518160010160006101000a81548173ffffffffffffffffffffffffffffffffffffffff021916908373ffffffffffffffffffffffffffffffffffffffff1602179055506040820151816002019080519060200190613261929190613e80565b50606082015181600301908051906020019061327e929190613e80565b50608082015181600401908051906020019061329b929190613e80565b5060a08201518160050190805190602001906132b8929190613e80565b5060c08201518160060160006101000a81548160ff021916908360038111156132e4576132e361453e565b5b021790555060e08201518160060160016101000a81548160ff021916908360028111156133145761331361453e565b5b02179055506101008201518160060160026101000a81548160ff021916908360028111156133455761334461453e565b5b02179055506101208201518160070155610140820151816008019080519060200190613372929190613e80565b509050507e494c81a93fd8df13d923d73c93e872db4f00090d204b824064d00fb4759f51873384600001516040516133ac93929190615815565b60405180910390a1819250505095945050505050565b6133ca613e34565b6000600360008473ffffffffffffffffffffffffffffffffffffffff1673ffffffffffffffffffffffffffffffffffffffff1681526020019081526020016000206040518060c00160405290816000820160009054906101000a900473ffffffffffffffffffffffffffffffffffffffff1673ffffffffffffffffffffffffffffffffffffffff1673ffffffffffffffffffffffffffffffffffffffff16815260200160018201805461347c906155bd565b80601f01602080910402602001604051908101604052809291908181526020018280546134a8906155bd565b80156134f55780601f106134ca576101008083540402835291602001916134f5565b820191906000526020600020905b8154815290600101906020018083116134d857829003601f168201915b5050505050815260200160028201805461350e906155bd565b80601f016020809104026020016040519081016040528092919081815260200182805461353a906155bd565b80156135875780601f1061355c57610100808354040283529160200191613587565b820191906000526020600020905b81548152906001019060200180831161356a57829003601f168201915b505050505081526020016003820180546135a0906155bd565b80601f01602080910402602001604051908101604052809291908181526020018280546135cc906155bd565b80156136195780601f106135ee57610100808354040283529160200191613619565b820191906000526020600020905b8154815290600101906020018083116135fc57829003601f168201915b50505050508152602001600482018054613632906155bd565b80601f016020809104026020016040519081016040528092919081815260200182805461365e906155bd565b80156136ab5780601f10613680576101008083540402835291602001916136ab565b820191906000526020600020905b81548152906001019060200180831161368e57829003601f168201915b50505050508152602001600582015481525050905080915050919050565b6136d1613f06565b846002805490508110613719576040517f08c379a00000000000000000000000000000000000000000000000000000000081526004016137109061563b565b60405180910390fd5b600073ffffffffffffffffffffffffffffffffffffffff16600460003373ffffffffffffffffffffffffffffffffffffffff1673ffffffffffffffffffffffffffffffffffffffff16815260200190815260200160002060000160009054906101000a900473ffffffffffffffffffffffffffffffffffffffff1673ffffffffffffffffffffffffffffffffffffffff1614156137eb576040517f08c379a00000000000000000000000000000000000000000000000000000000081526004016137e29061553f565b60405180910390fd5b6000600287815481106138015761380061555f565b5b906000526020600020906008020160405180610100016040529081600082015481526020016001820154815260200160028201805461383f906155bd565b80601f016020809104026020016040519081016040528092919081815260200182805461386b906155bd565b80156138b85780601f1061388d576101008083540402835291602001916138b8565b820191906000526020600020905b81548152906001019060200180831161389b57829003601f168201915b505050505081526020016003820180546138d1906155bd565b80601f01602080910402602001604051908101604052809291908181526020018280546138fd906155bd565b801561394a5780601f1061391f5761010080835404028352916020019161394a565b820191906000526020600020905b81548152906001019060200180831161392d57829003601f168201915b50505050508152602001600482018054613963906155bd565b80601f016020809104026020016040519081016040528092919081815260200182805461398f906155bd565b80156139dc5780601f106139b1576101008083540402835291602001916139dc565b820191906000526020600020905b8154815290600101906020018083116139bf57829003601f168201915b505050505081526020016005820180546139f5906155bd565b80601f0160208091040260200160405190810160405280929190818152602001828054613a21906155bd565b8015613a6e5780601f10613a4357610100808354040283529160200191613a6e565b820191906000526020600020905b815481529060010190602001808311613a5157829003601f168201915b505050505081526020016006820160009054906101000a900473ffffffffffffffffffffffffffffffffffffffff1673ffffffffffffffffffffffffffffffffffffffff1673ffffffffffffffffffffffffffffffffffffffff1681526020016007820160009054906101000a900473ffffffffffffffffffffffffffffffffffffffff1673ffffffffffffffffffffffffffffffffffffffff1673ffffffffffffffffffffffffffffffffffffffff16815250509050848660a001819052508560028881548110613b4357613b4261555f565b5b906000526020600020906008020160008201518160000155602082015181600101556040820151816002019080519060200190613b81929190613e80565b506060820151816003019080519060200190613b9e929190613e80565b506080820151816004019080519060200190613bbb929190613e80565b5060a0820151816005019080519060200190613bd8929190613e80565b5060c08201518160060160006101000a81548173ffffffffffffffffffffffffffffffffffffffff021916908373ffffffffffffffffffffffffffffffffffffffff16021790555060e08201518160070160006101000a81548173ffffffffffffffffffffffffffffffffffffffff021916908373ffffffffffffffffffffffffffffffffffffffff1602179055509050507fb2425fd63b8e5e3d2626dd510012c35043486569b145edafe9a5d2f884f55af187828887604051613c9f949392919061584c565b60405180910390a18592505050949350505050565b613cbc613f9e565b6000600460003373ffffffffffffffffffffffffffffffffffffffff1673ffffffffffffffffffffffffffffffffffffffff1681526020019081526020016000206040518060600160405290816000820160009054906101000a900473ffffffffffffffffffffffffffffffffffffffff1673ffffffffffffffffffffffffffffffffffffffff1673ffffffffffffffffffffffffffffffffffffffff168152602001600182018054613d6e906155bd565b80601f0160208091040260200160405190810160405280929190818152602001828054613d9a906155bd565b8015613de75780601f10613dbc57610100808354040283529160200191613de7565b820191906000526020600020905b815481529060010190602001808311613dca57829003601f168201915b505050505081526020016002820160009054906101000a900460ff166003811115613e1557613e1461453e565b5b6003811115613e2757613e2661453e565b5b8152505090508091505090565b6040518060c00160405280600073ffffffffffffffffffffffffffffffffffffffff16815260200160608152602001606081526020016060815260200160608152602001600081525090565b828054613e8c906155bd565b90600052602060002090601f016020900481019282613eae5760008555613ef5565b82601f10613ec757805160ff1916838001178555613ef5565b82800160010185558215613ef5579182015b82811115613ef4578251825591602001919060010190613ed9565b5b509050613f02919061408d565b5090565b604051806101000160405280600081526020016000815260200160608152602001606081526020016060815260200160608152602001600073ffffffffffffffffffffffffffffffffffffffff168152602001600073ffffffffffffffffffffffffffffffffffffffff1681525090565b60405180608001604052806004905b6060815260200190600190039081613f865790505090565b6040518060600160405280600073ffffffffffffffffffffffffffffffffffffffff1681526020016060815260200160006003811115613fe157613fe061453e565b5b81525090565b60405180610160016040528060008152602001600073ffffffffffffffffffffffffffffffffffffffff16815260200160608152602001606081526020016060815260200160608152602001600060038111156140475761404661453e565b5b8152602001600060028111156140605761405f61453e565b5b8152602001600060028111156140795761407861453e565b5b815260200160008152602001606081525090565b5b808211156140a657600081600090555060010161408e565b5090565b6000604051905090565b600080fd5b600080fd5b600080fd5b600080fd5b6000601f19601f8301169050919050565b7f4e487b7100000000000000000000000000000000000000000000000000000000600052604160045260246000fd5b614111826140c8565b810181811067ffffffffffffffff821117156141305761412f6140d9565b5b80604052505050565b60006141436140aa565b905061414f8282614108565b919050565b600067ffffffffffffffff82111561416f5761416e6140d9565b5b614178826140c8565b9050602081019050919050565b82818337600083830152505050565b60006141a76141a284614154565b614139565b9050828152602081018484840111156141c3576141c26140c3565b5b6141ce848285614185565b509392505050565b600082601f8301126141eb576141ea6140be565b5b81356141fb848260208601614194565b91505092915050565b6000806000806080858703121561421e5761421d6140b4565b5b600085013567ffffffffffffffff81111561423c5761423b6140b9565b5b614248878288016141d6565b945050602085013567ffffffffffffffff811115614269576142686140b9565b5b614275878288016141d6565b935050604085013567ffffffffffffffff811115614296576142956140b9565b5b6142a2878288016141d6565b925050606085013567ffffffffffffffff8111156142c3576142c26140b9565b5b6142cf878288016141d6565b91505092959194509250565b600073ffffffffffffffffffffffffffffffffffffffff82169050919050565b6000614306826142db565b9050919050565b614316816142fb565b82525050565b600081519050919050565b600082825260208201905092915050565b60005b8381101561435657808201518184015260208101905061433b565b83811115614365576000848401525b50505050565b60006143768261431c565b6143808185614327565b9350614390818560208601614338565b614399816140c8565b840191505092915050565b6000819050919050565b6143b7816143a4565b82525050565b600060c0830160008301516143d5600086018261430d565b50602083015184820360208601526143ed828261436b565b91505060408301518482036040860152614407828261436b565b91505060608301518482036060860152614421828261436b565b9150506080830151848203608086015261443b828261436b565b91505060a083015161445060a08601826143ae565b508091505092915050565b6000602082019050818103600083015261447581846143bd565b905092915050565b614486816143a4565b811461449157600080fd5b50565b6000813590506144a38161447d565b92915050565b6000602082840312156144bf576144be6140b4565b5b60006144cd84828501614494565b91505092915050565b6144df816143a4565b82525050565b6144ee816142fb565b82525050565b600082825260208201905092915050565b60006145108261431c565b61451a81856144f4565b935061452a818560208601614338565b614533816140c8565b840191505092915050565b7f4e487b7100000000000000000000000000000000000000000000000000000000600052602160045260246000fd5b6004811061457e5761457d61453e565b5b50565b600081905061458f8261456d565b919050565b600061459f82614581565b9050919050565b6145af81614594565b82525050565b600381106145c6576145c561453e565b5b50565b60008190506145d7826145b5565b919050565b60006145e7826145c9565b9050919050565b6145f7816145dc565b82525050565b6003811061460e5761460d61453e565b5b50565b600081905061461f826145fd565b919050565b600061462f82614611565b9050919050565b61463f81614624565b82525050565b60006101608201905061465b600083018e6144d6565b614668602083018d6144e5565b818103604083015261467a818c614505565b9050818103606083015261468e818b614505565b905081810360808301526146a2818a614505565b905081810360a08301526146b68189614505565b90506146c560c08301886145a6565b6146d260e08301876145ee565b6146e0610100830186614636565b6146ee6101208301856144d6565b8181036101408301526147018184614505565b90509c9b505050505050505050505050565b600060208201905061472860008301846144d6565b92915050565b60006101008301600083015161474760008601826143ae565b50602083015161475a60208601826143ae565b5060408301518482036040860152614772828261436b565b9150506060830151848203606086015261478c828261436b565b915050608083015184820360808601526147a6828261436b565b91505060a083015184820360a08601526147c0828261436b565b91505060c08301516147d560c086018261430d565b5060e08301516147e860e086018261430d565b508091505092915050565b6000602082019050818103600083015261480d818461472e565b905092915050565b61481e816142fb565b811461482957600080fd5b50565b60008135905061483b81614815565b92915050565b600060208284031215614857576148566140b4565b5b60006148658482850161482c565b91505092915050565b6003811061487f5761487e61453e565b5b50565b60008190506148908261486e565b919050565b60006148a082614882565b9050919050565b6148b081614895565b82525050565b60006020820190506148cb60008301846148a7565b92915050565b60006060820190506148e660008301866144e5565b81810360208301526148f88185614505565b905061490760408301846145a6565b949350505050565b60008060408385031215614926576149256140b4565b5b60006149348582860161482c565b925050602061494585828601614494565b9150509250929050565b600060049050919050565b600081905092915050565b6000819050919050565b600061497b838361436b565b905092915050565b6000602082019050919050565b600061499b8261494f565b6149a5818561495a565b9350836020820285016149b785614965565b8060005b858110156149f357848403895281516149d4858261496f565b94506149df83614983565b925060208a019950506001810190506149bb565b50829750879550505050505092915050565b60006020820190508181036000830152614a1f8184614990565b905092915050565b600061010082019050614a3d600083018b6144d6565b614a4a602083018a6144d6565b8181036040830152614a5c8189614505565b90508181036060830152614a708188614505565b90508181036080830152614a848187614505565b905081810360a0830152614a988186614505565b9050614aa760c08301856144e5565b614ab460e08301846144e5565b9998505050505050505050565b60048110614ace57600080fd5b50565b600081359050614ae081614ac1565b92915050565b60008060408385031215614afd57614afc6140b4565b5b600083013567ffffffffffffffff811115614b1b57614b1a6140b9565b5b614b27858286016141d6565b9250506020614b3885828601614ad1565b9150509250929050565b614b4b81614594565b82525050565b6000606083016000830151614b69600086018261430d565b5060208301518482036020860152614b81828261436b565b9150506040830151614b966040860182614b42565b508091505092915050565b60006020820190508181036000830152614bbb8184614b51565b905092915050565b60038110614bd057600080fd5b50565b600081359050614be281614bc3565b92915050565b60008060008060008060c08789031215614c0557614c046140b4565b5b6000614c1389828a01614ad1565b965050602087013567ffffffffffffffff811115614c3457614c336140b9565b5b614c4089828a016141d6565b955050604087013567ffffffffffffffff811115614c6157614c606140b9565b5b614c6d89828a016141d6565b945050606087013567ffffffffffffffff811115614c8e57614c8d6140b9565b5b614c9a89828a016141d6565b9350506080614cab89828a01614bd3565b92505060a087013567ffffffffffffffff811115614ccc57614ccb6140b9565b5b614cd889828a016141d6565b9150509295509295509295565b614cee816145dc565b82525050565b614cfd81614624565b82525050565b600061016083016000830151614d1c60008601826143ae565b506020830151614d2f602086018261430d565b5060408301518482036040860152614d47828261436b565b91505060608301518482036060860152614d61828261436b565b91505060808301518482036080860152614d7b828261436b565b91505060a083015184820360a0860152614d95828261436b565b91505060c0830151614daa60c0860182614b42565b5060e0830151614dbd60e0860182614ce5565b50610100830151614dd2610100860182614cf4565b50610120830151614de76101208601826143ae565b50610140830151848203610140860152614e01828261436b565b9150508091505092915050565b60006020820190508181036000830152614e288184614d03565b905092915050565b600060c082019050614e4560008301896144e5565b8181036020830152614e578188614505565b90508181036040830152614e6b8187614505565b90508181036060830152614e7f8186614505565b90508181036080830152614e938185614505565b9050614ea260a08301846144d6565b979650505050505050565b600081519050919050565b600082825260208201905092915050565b6000819050602082019050919050565b600061016083016000830151614ef260008601826143ae565b506020830151614f05602086018261430d565b5060408301518482036040860152614f1d828261436b565b91505060608301518482036060860152614f37828261436b565b91505060808301518482036080860152614f51828261436b565b91505060a083015184820360a0860152614f6b828261436b565b91505060c0830151614f8060c0860182614b42565b5060e0830151614f9360e0860182614ce5565b50610100830151614fa8610100860182614cf4565b50610120830151614fbd6101208601826143ae565b50610140830151848203610140860152614fd7828261436b565b9150508091505092915050565b6000614ff08383614ed9565b905092915050565b6000602082019050919050565b600061501082614ead565b61501a8185614eb8565b93508360208202850161502c85614ec9565b8060005b8581101561506857848403895281516150498582614fe4565b945061505483614ff8565b925060208a01995050600181019050615030565b50829750879550505050505092915050565b600060208201905081810360008301526150948184615005565b905092915050565b600081519050919050565b600082825260208201905092915050565b6000819050602082019050919050565b60006150d483836143ae565b60208301905092915050565b6000602082019050919050565b60006150f88261509c565b61510281856150a7565b935061510d836150b8565b8060005b8381101561513e57815161512588826150c8565b9750615130836150e0565b925050600181019050615111565b5085935050505092915050565b6000602082019050818103600083015261516581846150ed565b905092915050565b600080600080600060a08688031215615189576151886140b4565b5b600061519788828901614494565b95505060206151a88882890161482c565b945050604086013567ffffffffffffffff8111156151c9576151c86140b9565b5b6151d5888289016141d6565b935050606086013567ffffffffffffffff8111156151f6576151f56140b9565b5b615202888289016141d6565b925050608086013567ffffffffffffffff811115615223576152226140b9565b5b61522f888289016141d6565b9150509295509295909350565b600080fd5b600080fd5b6000610100828403121561525d5761525c61523c565b5b615268610100614139565b9050600061527884828501614494565b600083015250602061528c84828501614494565b602083015250604082013567ffffffffffffffff8111156152b0576152af615241565b5b6152bc848285016141d6565b604083015250606082013567ffffffffffffffff8111156152e0576152df615241565b5b6152ec848285016141d6565b606083015250608082013567ffffffffffffffff8111156153105761530f615241565b5b61531c848285016141d6565b60808301525060a082013567ffffffffffffffff8111156153405761533f615241565b5b61534c848285016141d6565b60a08301525060c06153608482850161482c565b60c08301525060e06153748482850161482c565b60e08301525092915050565b6000806000806080858703121561539a576153996140b4565b5b60006153a887828801614494565b945050602085013567ffffffffffffffff8111156153c9576153c86140b9565b5b6153d587828801615246565b935050604085013567ffffffffffffffff8111156153f6576153f56140b9565b5b615402878288016141d6565b925050606085013567ffffffffffffffff811115615423576154226140b9565b5b61542f878288016141d6565b91505092959194509250565b7f54686973206164647265737320697320616c726561647920726567697374657260008201527f6564000000000000000000000000000000000000000000000000000000000000602082015250565b60006154976022836144f4565b91506154a28261543b565b604082019050919050565b600060208201905081810360008301526154c68161548a565b9050919050565b7f4f6e6c792061646d696e732063616e20706572666f726d20746869732061637460008201527f696f6e0000000000000000000000000000000000000000000000000000000000602082015250565b60006155296023836144f4565b9150615534826154cd565b604082019050919050565b600060208201905081810360008301526155588161551c565b9050919050565b7f4e487b7100000000000000000000000000000000000000000000000000000000600052603260045260246000fd5b7f4e487b7100000000000000000000000000000000000000000000000000000000600052602260045260246000fd5b600060028204905060018216806155d557607f821691505b602082108114156155e9576155e861558e565b5b50919050565b7f446f63756d656e7420646f6573206e6f74206578697374000000000000000000600082015250565b60006156256017836144f4565b9150615630826155ef565b602082019050919050565b6000602082019050818103600083015261565481615618565b9050919050565b7f596f7520617265206e6f7420616c6c6f77656420746f20706572666f726d207460008201527f68697320616374696f6e00000000000000000000000000000000000000000000602082015250565b60006156b7602a836144f4565b91506156c28261565b565b604082019050919050565b600060208201905081810360008301526156e6816156aa565b9050919050565b7f4e487b7100000000000000000000000000000000000000000000000000000000600052601160045260246000fd5b6000615727826143a4565b9150615732836143a4565b9250827fffffffffffffffffffffffffffffffffffffffffffffffffffffffffffffffff03821115615767576157666156ed565b5b828201905092915050565b600060608201905061578760008301866144e5565b61579460208301856144d6565b6157a160408301846145a6565b949350505050565b7f55736572206973206e6f74207265676973746572656400000000000000000000600082015250565b60006157df6016836144f4565b91506157ea826157a9565b602082019050919050565b6000602082019050818103600083015261580e816157d2565b9050919050565b600060608201905061582a60008301866144e5565b61583760208301856144e5565b61584460408301846144d6565b949350505050565b600060808201905061586160008301876144d6565b8181036020830152615873818661472e565b90508181036040830152615887818561472e565b9050818103606083015261589b8184614505565b90509594505050505056fe554e49515545204944454e54494649434154494f4e20415554484f52495459204f4620494e444941a264697066735822122026e098610178b2efe86b1fc0c02cd9c0cdd3b4979a4873aca0017be2533e2c2664736f6c634300080b0033",
  "immutableReferences": {},
  "source": "// SPDX-License-Identifier: MIT\r\npragma solidity >=0.4.22 <0.9.0;\r\n\r\ncontract DeDocs {\r\n\r\n  enum ROLE{\r\n    NOT_REGISTERED,\r\n    ADMIN,\r\n    USER\r\n  }\r\n\r\n  enum DEPARTMENT{\r\n    UNIQUE_IDENTIFICATION_AUTHORITY_OF_INDIA,\r\n    INCOME_TAX,\r\n    MUNICIPAL_CORPORATION,\r\n    STATE_TRANSPORT_DEPARTMENT\r\n  }\r\n\r\n  enum REQUEST_CATEGORY{\r\n    ISSUE,\r\n    UPDATE,\r\n    RECTIFY\r\n  }\r\n\r\n  enum REQUEST_STATUS{\r\n    PENDING,\r\n    SUCCESS,\r\n    REJECTED\r\n  }\r\n\r\n  struct Admin{\r\n    address id;\r\n    string name;\r\n    DEPARTMENT department;\r\n  }\r\n  \r\n  struct User{\r\n    address id;\r\n    string name;\r\n    string dob;\r\n    string password;    \r\n    string joined;\r\n    uint total_requests;\r\n  }\r\n\r\n  struct Request{\r\n    uint id;\r\n    address user_id;\r\n    string subject;\r\n    string description;\r\n    string ipfs_hash;\r\n    string date;\r\n    DEPARTMENT department;\r\n    REQUEST_CATEGORY category;\r\n    REQUEST_STATUS status;\r\n    uint document_id;\r\n    string remarks;\r\n  }\r\n\r\n  struct Document{\r\n    uint id;\r\n    uint request_id;\r\n    string name;\r\n    string ipfs_hash;\r\n    string issued_on;\r\n    string last_updated;\r\n    address admin;\r\n    address user;\r\n  }\r\n\r\n  event DeDocs_deployed(string message);\r\n  event Request_made(address user, uint request_id, DEPARTMENT department);\r\n  event Document_issued(address user, address admin, uint document_id);\r\n  event Document_modified(uint document_id, Document old_document, Document new_document, string message);\r\n\r\n  uint public total_requests = 0;\r\n\r\n  Request[] public all_requests;\r\n\r\n  Document[] public all_documents; //array to store all the documents of the system\r\n  mapping(address => User) public users; // mapping of user address to user data \r\n  mapping(address => Admin) public admins; //mapping of admin address to admin data\r\n  mapping(address => uint256[]) public requests; //mapping of the user addess to all the requests made by that address\r\n  mapping(address => uint256[]) public documents; // mapping of the user address to their documents\r\n  \r\n\r\n  modifier is_admin(){\r\n    require(admins[msg.sender].id != address(0x0),\"Only admins can perform this action\");\r\n    _;\r\n  }\r\n\r\n  modifier is_existent(uint _document_id){\r\n    require(_document_id < all_documents.length, \"Document does not exist\");\r\n    _;\r\n  }\r\n\r\n  modifier is_allowed(uint _document_id){\r\n    require(admins[msg.sender].id != address(0x0) || all_documents[_document_id].user == msg.sender, \"You are not allowed to perform this action\");\r\n    _;\r\n  }\r\n\r\n  constructor()  {\r\n      emit DeDocs_deployed(\"Contract deployed successfully\");\r\n  }\r\n\r\n  function register_user(string memory _name, string memory _dob, string memory _password, string memory _joined) payable public returns (User memory){\r\n\r\n    require(users[msg.sender].id == address(0x0),\"This address is already registered\");\r\n\r\n    User memory _user;\r\n    _user.id = msg.sender;\r\n    _user.name = _name;\r\n    _user.dob = _dob;\r\n    _user.password = _password;\r\n    _user.joined = _joined;\r\n    _user.total_requests = 0;\r\n\r\n    users[msg.sender] = _user;\r\n\r\n    return _user;\r\n  }\r\n\r\n  function register_admin(string memory _name, DEPARTMENT _department) payable public returns (Admin memory){\r\n\r\n    require(admins[msg.sender].id == address(0x0),\"This address is already registered\");\r\n\r\n    Admin memory _admin;\r\n    _admin.id = msg.sender;\r\n    _admin.name = _name;\r\n    _admin.department = _department;\r\n\r\n    admins[msg.sender] = _admin;\r\n\r\n    return _admin;\r\n  }\r\n\r\n  function get_departments() public pure returns(string[4] memory departments){\r\n    string[4] memory _departments = [\"UNIQUE IDENTIFICATION AUTHORITY OF INDIA\",\"INCOME TAX\",\"MUNICIPAL CORPORATION\",\"STATE TRANSPORTD EPARTMENT\"];\r\n    return _departments;\r\n  }\r\n\r\n  function get_role(address _address) public view returns(ROLE role){\r\n\r\n    if(users[_address].id != address(0x0)) return ROLE.USER;\r\n    if(admins[_address].id != address(0x0)) return ROLE.ADMIN;\r\n\r\n    return ROLE.NOT_REGISTERED;\r\n\r\n  }\r\n\r\n  function get_all_requests() public view returns(Request[] memory){\r\n    return all_requests;\r\n  }\r\n\r\n  /***********************************  USER FUNCTIONS  *********************************/\r\n\r\n  function get_user_details(address _address) public view returns(User memory user){\r\n    User memory _user = users[_address];\r\n    return _user;\r\n  }\r\n\r\n  function get_user_requests() public view returns(uint256[] memory _requests){\r\n\r\n    uint256[] memory _my_requests = requests[msg.sender];\r\n    return _my_requests;\r\n    \r\n  }\r\n\r\n  function make_request(DEPARTMENT _department,  string memory _subject, string memory _description, string memory _ipfs_hash, REQUEST_CATEGORY _request_category, string memory _date) public payable returns(Request memory){\r\n\r\n    Request memory request;\r\n\r\n    request.id = total_requests;\r\n    request.user_id = msg.sender;\r\n    request.subject = _subject;\r\n    request.description = _description;\r\n    request.ipfs_hash = _ipfs_hash;\r\n    request.date = _date;\r\n    request.department = _department;\r\n    request.category = _request_category;\r\n    request.status = REQUEST_STATUS.PENDING;\r\n\r\n    all_requests.push(request);\r\n    total_requests += 1;\r\n\r\n    emit Request_made(msg.sender, request.id, _department);\r\n\r\n    return request;\r\n  }\r\n\r\n\r\n  /********************************ADMIN FUNCTIONS********************************/\r\n\r\n  function get_admin_details() public view returns(Admin memory admin){\r\n    Admin memory _admin = admins[msg.sender];\r\n    return _admin;\r\n  }\r\n\r\n  function get_document (uint _document_id) is_existent(_document_id) is_allowed(_document_id) public view returns (Document memory){\r\n    Document memory _document = all_documents[_document_id];\r\n    return _document;\r\n  }\r\n\r\n  function approve_request(uint _request_id) is_admin public payable{\r\n    Request memory _request = all_requests[_request_id];\r\n    _request.status = REQUEST_STATUS.SUCCESS;\r\n    all_requests[_request_id] = _request;\r\n  }\r\n\r\n  function issue_document(uint _request_id, address _userAddress, string memory _name, string memory _ipfs_hash, string memory _issued_on) is_admin public payable returns(Document memory){\r\n    \r\n    //check if user is registered\r\n    require(users[_userAddress].id != address(0x0),\"User is not registered\");\r\n\r\n    //create a new document instance\r\n    Document memory _document;\r\n    _document.id = all_documents.length;\r\n    _document.name = _name;\r\n    _document.ipfs_hash = _ipfs_hash;\r\n    _document.issued_on = _issued_on;\r\n    _document.user = _userAddress;\r\n    _document.admin = msg.sender;\r\n\r\n    //insert the document to the records\r\n    all_documents.push(_document);\r\n    documents[_userAddress].push(_document.id);\r\n\r\n    //update the request\r\n    Request memory _request = all_requests[_request_id];\r\n    _request.document_id = _document.id;\r\n    all_requests[_request_id] = _request;\r\n\r\n    emit Document_issued(_userAddress, msg.sender, _document.id);\r\n\r\n    return _document;\r\n  }\r\n\r\n\r\n  function modify_document(uint _document_id, Document memory _new_document, string memory _last_updated, string memory _message) is_existent(_document_id) is_admin public payable returns(Document memory){\r\n    \r\n    //Get the current version of the document\r\n    Document memory _old_document = all_documents[_document_id];\r\n\r\n    //update the document\r\n    _new_document.last_updated = _last_updated;\r\n    all_documents[_document_id] = _new_document;\r\n\r\n    emit Document_modified(_document_id, _old_document, _new_document, _message);\r\n\r\n    return _new_document;\r\n  }\r\n\r\n\r\n}\r\n",
  "sourcePath": "C:\\Users\\Kailash\\Desktop\\summer project\\backend\\contracts\\DeDocs.sol",
  "compiler": {
    "name": "solc",
    "version": "0.8.11+commit.d7f03943.Emscripten.clang"
  },
  "schemaVersion": "3.4.5",
  "updatedAt": "2022-06-28T19:52:26.862Z",
  "networkType": "ethereum",
  "devdoc": {
    "kind": "dev",
    "methods": {},
    "version": 1
  },
  "userdoc": {
    "kind": "user",
    "methods": {},
    "version": 1
  }
}