{
  "contractName": "DeDocs",
  "abi": [
    {
      "inputs": [],
      "stateMutability": "nonpayable",
      "type": "constructor"
    },
    {
      "anonymous": false,
      "inputs": [
        {
          "indexed": false,
          "internalType": "string",
          "name": "message",
          "type": "string"
        }
      ],
      "name": "DeDocs_deployed",
      "type": "event"
    },
    {
      "anonymous": false,
      "inputs": [
        {
          "indexed": false,
          "internalType": "address",
          "name": "user",
          "type": "address"
        },
        {
          "indexed": false,
          "internalType": "address",
          "name": "admin",
          "type": "address"
        },
        {
          "indexed": false,
          "internalType": "uint256",
          "name": "document_id",
          "type": "uint256"
        },
        {
          "indexed": false,
          "internalType": "string",
          "name": "timestamp",
          "type": "string"
        }
      ],
      "name": "Document_issued",
      "type": "event"
    },
    {
      "anonymous": false,
      "inputs": [
        {
          "indexed": false,
          "internalType": "uint256",
          "name": "document_id",
          "type": "uint256"
        },
        {
          "components": [
            {
              "internalType": "uint256",
              "name": "id",
              "type": "uint256"
            },
            {
              "internalType": "uint256",
              "name": "request_id",
              "type": "uint256"
            },
            {
              "internalType": "string",
              "name": "name",
              "type": "string"
            },
            {
              "internalType": "string",
              "name": "uid",
              "type": "string"
            },
            {
              "internalType": "string",
              "name": "ipfs_hash",
              "type": "string"
            },
            {
              "internalType": "string",
              "name": "issued_on",
              "type": "string"
            },
            {
              "internalType": "string",
              "name": "last_updated",
              "type": "string"
            },
            {
              "internalType": "address",
              "name": "admin",
              "type": "address"
            },
            {
              "internalType": "address",
              "name": "user",
              "type": "address"
            },
            {
              "internalType": "enum DeDocs.DEPARTMENT",
              "name": "department",
              "type": "uint8"
            }
          ],
          "indexed": false,
          "internalType": "struct DeDocs.Document",
          "name": "document",
          "type": "tuple"
        },
        {
          "indexed": false,
          "internalType": "string",
          "name": "message",
          "type": "string"
        },
        {
          "indexed": false,
          "internalType": "string",
          "name": "timestamp",
          "type": "string"
        }
      ],
      "name": "Document_modified",
      "type": "event"
    },
    {
      "anonymous": false,
      "inputs": [
        {
          "indexed": false,
          "internalType": "address",
          "name": "user",
          "type": "address"
        },
        {
          "indexed": false,
          "internalType": "uint256",
          "name": "request_id",
          "type": "uint256"
        },
        {
          "indexed": false,
          "internalType": "enum DeDocs.DEPARTMENT",
          "name": "department",
          "type": "uint8"
        }
      ],
      "name": "Request_made",
      "type": "event"
    },
    {
      "inputs": [
        {
          "internalType": "address",
          "name": "",
          "type": "address"
        }
      ],
      "name": "admins",
      "outputs": [
        {
          "internalType": "address",
          "name": "id",
          "type": "address"
        },
        {
          "internalType": "string",
          "name": "name",
          "type": "string"
        },
        {
          "internalType": "enum DeDocs.DEPARTMENT",
          "name": "department",
          "type": "uint8"
        }
      ],
      "stateMutability": "view",
      "type": "function",
      "constant": true
    },
    {
      "inputs": [
        {
          "internalType": "uint256",
          "name": "",
          "type": "uint256"
        }
      ],
      "name": "all_documents",
      "outputs": [
        {
          "internalType": "uint256",
          "name": "id",
          "type": "uint256"
        },
        {
          "internalType": "uint256",
          "name": "request_id",
          "type": "uint256"
        },
        {
          "internalType": "string",
          "name": "name",
          "type": "string"
        },
        {
          "internalType": "string",
          "name": "uid",
          "type": "string"
        },
        {
          "internalType": "string",
          "name": "ipfs_hash",
          "type": "string"
        },
        {
          "internalType": "string",
          "name": "issued_on",
          "type": "string"
        },
        {
          "internalType": "string",
          "name": "last_updated",
          "type": "string"
        },
        {
          "internalType": "address",
          "name": "admin",
          "type": "address"
        },
        {
          "internalType": "address",
          "name": "user",
          "type": "address"
        },
        {
          "internalType": "enum DeDocs.DEPARTMENT",
          "name": "department",
          "type": "uint8"
        }
      ],
      "stateMutability": "view",
      "type": "function",
      "constant": true
    },
    {
      "inputs": [
        {
          "internalType": "uint256",
          "name": "",
          "type": "uint256"
        }
      ],
      "name": "all_requests",
      "outputs": [
        {
          "internalType": "uint256",
          "name": "id",
          "type": "uint256"
        },
        {
          "internalType": "address",
          "name": "user_id",
          "type": "address"
        },
        {
          "internalType": "string",
          "name": "subject",
          "type": "string"
        },
        {
          "internalType": "string",
          "name": "description",
          "type": "string"
        },
        {
          "internalType": "string",
          "name": "ipfs_hash",
          "type": "string"
        },
        {
          "internalType": "string",
          "name": "date",
          "type": "string"
        },
        {
          "internalType": "enum DeDocs.DEPARTMENT",
          "name": "department",
          "type": "uint8"
        },
        {
          "internalType": "enum DeDocs.REQUEST_CATEGORY",
          "name": "category",
          "type": "uint8"
        },
        {
          "internalType": "enum DeDocs.REQUEST_STATUS",
          "name": "status",
          "type": "uint8"
        },
        {
          "internalType": "uint256",
          "name": "document_id",
          "type": "uint256"
        },
        {
          "internalType": "string",
          "name": "remarks",
          "type": "string"
        }
      ],
      "stateMutability": "view",
      "type": "function",
      "constant": true
    },
    {
      "inputs": [
        {
          "internalType": "address",
          "name": "",
          "type": "address"
        },
        {
          "internalType": "uint256",
          "name": "",
          "type": "uint256"
        }
      ],
      "name": "documents",
      "outputs": [
        {
          "internalType": "uint256",
          "name": "",
          "type": "uint256"
        }
      ],
      "stateMutability": "view",
      "type": "function",
      "constant": true
    },
    {
      "inputs": [
        {
          "internalType": "address",
          "name": "",
          "type": "address"
        },
        {
          "internalType": "uint256",
          "name": "",
          "type": "uint256"
        }
      ],
      "name": "requests",
      "outputs": [
        {
          "internalType": "uint256",
          "name": "",
          "type": "uint256"
        }
      ],
      "stateMutability": "view",
      "type": "function",
      "constant": true
    },
    {
      "inputs": [],
      "name": "total_requests",
      "outputs": [
        {
          "internalType": "uint256",
          "name": "",
          "type": "uint256"
        }
      ],
      "stateMutability": "view",
      "type": "function",
      "constant": true
    },
    {
      "inputs": [],
      "name": "total_users",
      "outputs": [
        {
          "internalType": "uint256",
          "name": "",
          "type": "uint256"
        }
      ],
      "stateMutability": "view",
      "type": "function",
      "constant": true
    },
    {
      "inputs": [
        {
          "internalType": "address",
          "name": "",
          "type": "address"
        }
      ],
      "name": "users",
      "outputs": [
        {
          "internalType": "address",
          "name": "id",
          "type": "address"
        },
        {
          "internalType": "string",
          "name": "name",
          "type": "string"
        },
        {
          "internalType": "string",
          "name": "dob",
          "type": "string"
        },
        {
          "internalType": "string",
          "name": "password",
          "type": "string"
        },
        {
          "internalType": "string",
          "name": "joined",
          "type": "string"
        },
        {
          "internalType": "uint256",
          "name": "total_requests",
          "type": "uint256"
        }
      ],
      "stateMutability": "view",
      "type": "function",
      "constant": true
    },
    {
      "inputs": [
        {
          "internalType": "string",
          "name": "_name",
          "type": "string"
        },
        {
          "internalType": "string",
          "name": "_dob",
          "type": "string"
        },
        {
          "internalType": "string",
          "name": "_password",
          "type": "string"
        },
        {
          "internalType": "string",
          "name": "_joined",
          "type": "string"
        }
      ],
      "name": "register_user",
      "outputs": [
        {
          "components": [
            {
              "internalType": "address",
              "name": "id",
              "type": "address"
            },
            {
              "internalType": "string",
              "name": "name",
              "type": "string"
            },
            {
              "internalType": "string",
              "name": "dob",
              "type": "string"
            },
            {
              "internalType": "string",
              "name": "password",
              "type": "string"
            },
            {
              "internalType": "string",
              "name": "joined",
              "type": "string"
            },
            {
              "internalType": "uint256",
              "name": "total_requests",
              "type": "uint256"
            }
          ],
          "internalType": "struct DeDocs.User",
          "name": "",
          "type": "tuple"
        }
      ],
      "stateMutability": "payable",
      "type": "function",
      "payable": true
    },
    {
      "inputs": [
        {
          "internalType": "string",
          "name": "_name",
          "type": "string"
        },
        {
          "internalType": "enum DeDocs.DEPARTMENT",
          "name": "_department",
          "type": "uint8"
        }
      ],
      "name": "register_admin",
      "outputs": [
        {
          "components": [
            {
              "internalType": "address",
              "name": "id",
              "type": "address"
            },
            {
              "internalType": "string",
              "name": "name",
              "type": "string"
            },
            {
              "internalType": "enum DeDocs.DEPARTMENT",
              "name": "department",
              "type": "uint8"
            }
          ],
          "internalType": "struct DeDocs.Admin",
          "name": "",
          "type": "tuple"
        }
      ],
      "stateMutability": "payable",
      "type": "function",
      "payable": true
    },
    {
      "inputs": [],
      "name": "get_departments",
      "outputs": [
        {
          "internalType": "string[4]",
          "name": "departments",
          "type": "string[4]"
        }
      ],
      "stateMutability": "pure",
      "type": "function",
      "constant": true
    },
    {
      "inputs": [
        {
          "internalType": "address",
          "name": "_address",
          "type": "address"
        }
      ],
      "name": "get_role",
      "outputs": [
        {
          "internalType": "enum DeDocs.ROLE",
          "name": "role",
          "type": "uint8"
        }
      ],
      "stateMutability": "view",
      "type": "function",
      "constant": true
    },
    {
      "inputs": [],
      "name": "get_all_requests",
      "outputs": [
        {
          "components": [
            {
              "internalType": "uint256",
              "name": "id",
              "type": "uint256"
            },
            {
              "internalType": "address",
              "name": "user_id",
              "type": "address"
            },
            {
              "internalType": "string",
              "name": "subject",
              "type": "string"
            },
            {
              "internalType": "string",
              "name": "description",
              "type": "string"
            },
            {
              "internalType": "string",
              "name": "ipfs_hash",
              "type": "string"
            },
            {
              "internalType": "string",
              "name": "date",
              "type": "string"
            },
            {
              "internalType": "enum DeDocs.DEPARTMENT",
              "name": "department",
              "type": "uint8"
            },
            {
              "internalType": "enum DeDocs.REQUEST_CATEGORY",
              "name": "category",
              "type": "uint8"
            },
            {
              "internalType": "enum DeDocs.REQUEST_STATUS",
              "name": "status",
              "type": "uint8"
            },
            {
              "internalType": "uint256",
              "name": "document_id",
              "type": "uint256"
            },
            {
              "internalType": "string",
              "name": "remarks",
              "type": "string"
            }
          ],
          "internalType": "struct DeDocs.Request[]",
          "name": "",
          "type": "tuple[]"
        }
      ],
      "stateMutability": "view",
      "type": "function",
      "constant": true
    },
    {
      "inputs": [],
      "name": "get_all_documents",
      "outputs": [
        {
          "components": [
            {
              "internalType": "uint256",
              "name": "id",
              "type": "uint256"
            },
            {
              "internalType": "uint256",
              "name": "request_id",
              "type": "uint256"
            },
            {
              "internalType": "string",
              "name": "name",
              "type": "string"
            },
            {
              "internalType": "string",
              "name": "uid",
              "type": "string"
            },
            {
              "internalType": "string",
              "name": "ipfs_hash",
              "type": "string"
            },
            {
              "internalType": "string",
              "name": "issued_on",
              "type": "string"
            },
            {
              "internalType": "string",
              "name": "last_updated",
              "type": "string"
            },
            {
              "internalType": "address",
              "name": "admin",
              "type": "address"
            },
            {
              "internalType": "address",
              "name": "user",
              "type": "address"
            },
            {
              "internalType": "enum DeDocs.DEPARTMENT",
              "name": "department",
              "type": "uint8"
            }
          ],
          "internalType": "struct DeDocs.Document[]",
          "name": "",
          "type": "tuple[]"
        }
      ],
      "stateMutability": "view",
      "type": "function",
      "constant": true
    },
    {
      "inputs": [
        {
          "internalType": "uint256",
          "name": "_document_id",
          "type": "uint256"
        },
        {
          "internalType": "address",
          "name": "_address",
          "type": "address"
        }
      ],
      "name": "verify_document",
      "outputs": [
        {
          "internalType": "bool",
          "name": "",
          "type": "bool"
        },
        {
          "internalType": "string",
          "name": "",
          "type": "string"
        }
      ],
      "stateMutability": "view",
      "type": "function",
      "constant": true
    },
    {
      "inputs": [
        {
          "internalType": "address",
          "name": "_address",
          "type": "address"
        }
      ],
      "name": "get_user_details",
      "outputs": [
        {
          "components": [
            {
              "internalType": "address",
              "name": "id",
              "type": "address"
            },
            {
              "internalType": "string",
              "name": "name",
              "type": "string"
            },
            {
              "internalType": "string",
              "name": "dob",
              "type": "string"
            },
            {
              "internalType": "string",
              "name": "password",
              "type": "string"
            },
            {
              "internalType": "string",
              "name": "joined",
              "type": "string"
            },
            {
              "internalType": "uint256",
              "name": "total_requests",
              "type": "uint256"
            }
          ],
          "internalType": "struct DeDocs.User",
          "name": "user",
          "type": "tuple"
        }
      ],
      "stateMutability": "view",
      "type": "function",
      "constant": true
    },
    {
      "inputs": [],
      "name": "get_user_requests",
      "outputs": [
        {
          "internalType": "uint256[]",
          "name": "_requests",
          "type": "uint256[]"
        }
      ],
      "stateMutability": "view",
      "type": "function",
      "constant": true
    },
    {
      "inputs": [],
      "name": "get_user_documents",
      "outputs": [
        {
          "internalType": "uint256[]",
          "name": "_documents",
          "type": "uint256[]"
        }
      ],
      "stateMutability": "view",
      "type": "function",
      "constant": true
    },
    {
      "inputs": [
        {
          "internalType": "enum DeDocs.DEPARTMENT",
          "name": "_department",
          "type": "uint8"
        },
        {
          "internalType": "string",
          "name": "_subject",
          "type": "string"
        },
        {
          "internalType": "string",
          "name": "_description",
          "type": "string"
        },
        {
          "internalType": "string",
          "name": "_ipfs_hash",
          "type": "string"
        },
        {
          "internalType": "enum DeDocs.REQUEST_CATEGORY",
          "name": "_request_category",
          "type": "uint8"
        },
        {
          "internalType": "string",
          "name": "_date",
          "type": "string"
        },
        {
          "internalType": "uint256",
          "name": "_document_id",
          "type": "uint256"
        }
      ],
      "name": "make_request",
      "outputs": [
        {
          "components": [
            {
              "internalType": "uint256",
              "name": "id",
              "type": "uint256"
            },
            {
              "internalType": "address",
              "name": "user_id",
              "type": "address"
            },
            {
              "internalType": "string",
              "name": "subject",
              "type": "string"
            },
            {
              "internalType": "string",
              "name": "description",
              "type": "string"
            },
            {
              "internalType": "string",
              "name": "ipfs_hash",
              "type": "string"
            },
            {
              "internalType": "string",
              "name": "date",
              "type": "string"
            },
            {
              "internalType": "enum DeDocs.DEPARTMENT",
              "name": "department",
              "type": "uint8"
            },
            {
              "internalType": "enum DeDocs.REQUEST_CATEGORY",
              "name": "category",
              "type": "uint8"
            },
            {
              "internalType": "enum DeDocs.REQUEST_STATUS",
              "name": "status",
              "type": "uint8"
            },
            {
              "internalType": "uint256",
              "name": "document_id",
              "type": "uint256"
            },
            {
              "internalType": "string",
              "name": "remarks",
              "type": "string"
            }
          ],
          "internalType": "struct DeDocs.Request",
          "name": "",
          "type": "tuple"
        }
      ],
      "stateMutability": "payable",
      "type": "function",
      "payable": true
    },
    {
      "inputs": [],
      "name": "get_admin_details",
      "outputs": [
        {
          "components": [
            {
              "internalType": "address",
              "name": "id",
              "type": "address"
            },
            {
              "internalType": "string",
              "name": "name",
              "type": "string"
            },
            {
              "internalType": "enum DeDocs.DEPARTMENT",
              "name": "department",
              "type": "uint8"
            }
          ],
          "internalType": "struct DeDocs.Admin",
          "name": "admin",
          "type": "tuple"
        }
      ],
      "stateMutability": "view",
      "type": "function",
      "constant": true
    },
    {
      "inputs": [
        {
          "internalType": "uint256",
          "name": "_document_id",
          "type": "uint256"
        }
      ],
      "name": "get_document",
      "outputs": [
        {
          "components": [
            {
              "internalType": "uint256",
              "name": "id",
              "type": "uint256"
            },
            {
              "internalType": "uint256",
              "name": "request_id",
              "type": "uint256"
            },
            {
              "internalType": "string",
              "name": "name",
              "type": "string"
            },
            {
              "internalType": "string",
              "name": "uid",
              "type": "string"
            },
            {
              "internalType": "string",
              "name": "ipfs_hash",
              "type": "string"
            },
            {
              "internalType": "string",
              "name": "issued_on",
              "type": "string"
            },
            {
              "internalType": "string",
              "name": "last_updated",
              "type": "string"
            },
            {
              "internalType": "address",
              "name": "admin",
              "type": "address"
            },
            {
              "internalType": "address",
              "name": "user",
              "type": "address"
            },
            {
              "internalType": "enum DeDocs.DEPARTMENT",
              "name": "department",
              "type": "uint8"
            }
          ],
          "internalType": "struct DeDocs.Document",
          "name": "",
          "type": "tuple"
        }
      ],
      "stateMutability": "view",
      "type": "function",
      "constant": true
    },
    {
      "inputs": [
        {
          "internalType": "uint256",
          "name": "_request_id",
          "type": "uint256"
        },
        {
          "internalType": "string",
          "name": "_remarks",
          "type": "string"
        }
      ],
      "name": "reject_request",
      "outputs": [],
      "stateMutability": "payable",
      "type": "function",
      "payable": true
    },
    {
      "inputs": [
        {
          "internalType": "uint256",
          "name": "_request_id",
          "type": "uint256"
        }
      ],
      "name": "approve_request",
      "outputs": [],
      "stateMutability": "payable",
      "type": "function",
      "payable": true
    },
    {
      "inputs": [
        {
          "internalType": "uint256",
          "name": "_request_id",
          "type": "uint256"
        },
        {
          "internalType": "address",
          "name": "_userAddress",
          "type": "address"
        },
        {
          "internalType": "string",
          "name": "_name",
          "type": "string"
        },
        {
          "internalType": "string",
          "name": "_uid",
          "type": "string"
        },
        {
          "internalType": "string",
          "name": "_ipfs_hash",
          "type": "string"
        },
        {
          "internalType": "string",
          "name": "_issued_on",
          "type": "string"
        }
      ],
      "name": "issue_document",
      "outputs": [
        {
          "components": [
            {
              "internalType": "uint256",
              "name": "id",
              "type": "uint256"
            },
            {
              "internalType": "uint256",
              "name": "request_id",
              "type": "uint256"
            },
            {
              "internalType": "string",
              "name": "name",
              "type": "string"
            },
            {
              "internalType": "string",
              "name": "uid",
              "type": "string"
            },
            {
              "internalType": "string",
              "name": "ipfs_hash",
              "type": "string"
            },
            {
              "internalType": "string",
              "name": "issued_on",
              "type": "string"
            },
            {
              "internalType": "string",
              "name": "last_updated",
              "type": "string"
            },
            {
              "internalType": "address",
              "name": "admin",
              "type": "address"
            },
            {
              "internalType": "address",
              "name": "user",
              "type": "address"
            },
            {
              "internalType": "enum DeDocs.DEPARTMENT",
              "name": "department",
              "type": "uint8"
            }
          ],
          "internalType": "struct DeDocs.Document",
          "name": "",
          "type": "tuple"
        }
      ],
      "stateMutability": "payable",
      "type": "function",
      "payable": true
    },
    {
      "inputs": [
        {
          "internalType": "uint256",
          "name": "_document_id",
          "type": "uint256"
        },
        {
          "internalType": "string",
          "name": "_new_hash",
          "type": "string"
        },
        {
          "internalType": "string",
          "name": "_last_updated",
          "type": "string"
        },
        {
          "internalType": "string",
          "name": "_message",
          "type": "string"
        }
      ],
      "name": "modify_document",
      "outputs": [
        {
          "components": [
            {
              "internalType": "uint256",
              "name": "id",
              "type": "uint256"
            },
            {
              "internalType": "uint256",
              "name": "request_id",
              "type": "uint256"
            },
            {
              "internalType": "string",
              "name": "name",
              "type": "string"
            },
            {
              "internalType": "string",
              "name": "uid",
              "type": "string"
            },
            {
              "internalType": "string",
              "name": "ipfs_hash",
              "type": "string"
            },
            {
              "internalType": "string",
              "name": "issued_on",
              "type": "string"
            },
            {
              "internalType": "string",
              "name": "last_updated",
              "type": "string"
            },
            {
              "internalType": "address",
              "name": "admin",
              "type": "address"
            },
            {
              "internalType": "address",
              "name": "user",
              "type": "address"
            },
            {
              "internalType": "enum DeDocs.DEPARTMENT",
              "name": "department",
              "type": "uint8"
            }
          ],
          "internalType": "struct DeDocs.Document",
          "name": "",
          "type": "tuple"
        }
      ],
      "stateMutability": "payable",
      "type": "function",
      "payable": true
    }
  ],
  "bytecode": "0x608060405260008055600060015534801561001957600080fd5b507f9ab3570e7e18bfba94b9c1020a507301d734b0c1bd22301391288a326884adc1604051610079906020808252601e908201527f436f6e7472616374206465706c6f796564207375636365737366756c6c790000604082015260600190565b60405180910390a1614f9980620000916000396000f3fe6080604052600436106101295760e060020a60003504630776a4f3811461012e5780630c99d1301461015757806316dd9b591461016c57806318db724f1461018c57806326611b5a146101c357806338925c7d146101e757806339c22db814610207578063429b62e5146102345780636339884414610263578063726f091e146102835780637673ac95146102a5578063789469bd146102db578063915c74de146102fb5780639ecebe2a14610329578063a6d6e94914610349578063a87430ba1461036b578063bb5bfd661461039d578063bf5ba0fb146103bf578063c5dbb79e146103e1578063ca76115c146103f4578063cf56202214610409578063d2965f041461041c578063e7cc62bd1461043c578063f66c99dc14610452578063f7a37b5214610472575b600080fd5b61014161013c366004614205565b610487565b60405161014e919061430b565b60405180910390f35b61016a6101653660046143a9565b6105c5565b005b61017f61017a3660046143de565b610b69565b60405161014e91906145ab565b34801561019857600080fd5b506101ac6101a73660046143a9565b611462565b60405161014e9b9a999897969594939291906145e1565b3480156101cf57600080fd5b506101d960005481565b60405190815260200161014e565b3480156101f357600080fd5b5061017f6102023660046143a9565b611787565b34801561021357600080fd5b506102276102223660046146a2565b611bf6565b60405161014e91906146bd565b34801561024057600080fd5b5061025461024f3660046146a2565b611c50565b60405161014e939291906146d0565b34801561026f57600080fd5b506101d961027e366004614703565b611d08565b34801561028f57600080fd5b50610298611d39565b60405161014e919061472d565b3480156102b157600080fd5b506102c56102c03660046143a9565b611e0f565b60405161014e9a9998979695949392919061477a565b6102ee6102e9366004614832565b61212e565b60405161014e919061487f565b34801561030757600080fd5b5061031b6103163660046148c9565b612227565b60405161014e9291906148ec565b34801561033557600080fd5b506101d9610344366004614703565b6122fd565b34801561035557600080fd5b5061035e612319565b60405161014e9190614907565b34801561037757600080fd5b5061038b6103863660046146a2565b6126be565b60405161014e96959493929190614968565b3480156103a957600080fd5b506103b261291d565b60405161014e9190614ac6565b3480156103cb57600080fd5b506103d4612d1d565b60405161014e9190614b1a565b61017f6103ef366004614b5e565b612d7f565b34801561040057600080fd5b506103d46132f7565b61016a610417366004614b92565b613357565b34801561042857600080fd5b506101416104373660046146a2565b613906565b34801561044857600080fd5b506101d960015481565b610465610460366004614be7565b613b9d565b60405161014e9190614cbe565b34801561047e57600080fd5b506102ee613e41565b61048f613f42565b33600090815260046020526040902054600160a060020a0316156104d15760405160e560020a62461bcd0281526004016104c890614cd1565b60405180910390fd5b6104d9613f42565b33808252602080830188815260408085018990526060850188905260808501879052600060a086018190529384526004835290922083518154600160a060020a031916600160a060020a0390911617815591518051849392610542926001850192910190613f81565b506040820151805161055e916002840191602090910190613f81565b506060820151805161057a916003840191602090910190613f81565b5060808201518051610596916004840191602090910190613f81565b5060a09190910151600590910155600180549060006105b483614d30565b90915550909150505b949350505050565b33600090815260056020526040902054600160a060020a03166105fd5760405160e560020a62461bcd0281526004016104c890614d4b565b60006002828154811061061257610612614d91565b906000526020600020906009020160405180610160016040529081600082015481526020016001820160009054906101000a9004600160a060020a0316600160a060020a0316600160a060020a0316815260200160028201805461067590614dab565b80601f01602080910402602001604051908101604052809291908181526020018280546106a190614dab565b80156106ee5780601f106106c3576101008083540402835291602001916106ee565b820191906000526020600020905b8154815290600101906020018083116106d157829003601f168201915b5050505050815260200160038201805461070790614dab565b80601f016020809104026020016040519081016040528092919081815260200182805461073390614dab565b80156107805780601f1061075557610100808354040283529160200191610780565b820191906000526020600020905b81548152906001019060200180831161076357829003601f168201915b5050505050815260200160048201805461079990614dab565b80601f01602080910402602001604051908101604052809291908181526020018280546107c590614dab565b80156108125780601f106107e757610100808354040283529160200191610812565b820191906000526020600020905b8154815290600101906020018083116107f557829003601f168201915b5050505050815260200160058201805461082b90614dab565b80601f016020809104026020016040519081016040528092919081815260200182805461085790614dab565b80156108a45780601f10610879576101008083540402835291602001916108a4565b820191906000526020600020905b81548152906001019060200180831161088757829003601f168201915b5050509183525050600682015460209091019060ff1660038111156108cb576108cb6144a3565b60038111156108dc576108dc6144a3565b81526020016006820160019054906101000a900460ff166002811115610904576109046144a3565b6002811115610915576109156144a3565b81526020016006820160029054906101000a900460ff16600281111561093d5761093d6144a3565b600281111561094e5761094e6144a3565b81526020016007820154815260200160088201805461096c90614dab565b80601f016020809104026020016040519081016040528092919081815260200182805461099890614dab565b80156109e55780601f106109ba576101008083540402835291602001916109e5565b820191906000526020600020905b8154815290600101906020018083116109c857829003601f168201915b50505091909252505060016101008301525060028054919250829184908110610a1057610a10614d91565b600091825260209182902083516009929092020190815582820151600182018054600160a060020a031916600160a060020a03909216919091179055604083015180519192610a6792600285019290910190613f81565b5060608201518051610a83916003840191602090910190613f81565b5060808201518051610a9f916004840191602090910190613f81565b5060a08201518051610abb916005840191602090910190613f81565b5060c082015160068201805460ff19166001836003811115610adf57610adf6144a3565b021790555060e082015160068201805461ff001916610100836002811115610b0957610b096144a3565b021790555061010082015160068201805462ff0000191662010000836002811115610b3657610b366144a3565b021790555061012082015160078201556101408201518051610b62916008840191602090910190613f81565b5050505050565b610b71614005565b33600090815260056020526040902054600160a060020a0316610ba95760405160e560020a62461bcd0281526004016104c890614d4b565b600160a060020a0386811660009081526004602052604090205416610c0f5760405160e560020a62461bcd0281526020600482015260166024820152605260020a75155cd95c881a5cc81b9bdd081c9959da5cdd195c99590260448201526064016104c8565b600060028881548110610c2457610c24614d91565b906000526020600020906009020160405180610160016040529081600082015481526020016001820160009054906101000a9004600160a060020a0316600160a060020a0316600160a060020a03168152602001600282018054610c8790614dab565b80601f0160208091040260200160405190810160405280929190818152602001828054610cb390614dab565b8015610d005780601f10610cd557610100808354040283529160200191610d00565b820191906000526020600020905b815481529060010190602001808311610ce357829003601f168201915b50505050508152602001600382018054610d1990614dab565b80601f0160208091040260200160405190810160405280929190818152602001828054610d4590614dab565b8015610d925780601f10610d6757610100808354040283529160200191610d92565b820191906000526020600020905b815481529060010190602001808311610d7557829003601f168201915b50505050508152602001600482018054610dab90614dab565b80601f0160208091040260200160405190810160405280929190818152602001828054610dd790614dab565b8015610e245780601f10610df957610100808354040283529160200191610e24565b820191906000526020600020905b815481529060010190602001808311610e0757829003601f168201915b50505050508152602001600582018054610e3d90614dab565b80601f0160208091040260200160405190810160405280929190818152602001828054610e6990614dab565b8015610eb65780601f10610e8b57610100808354040283529160200191610eb6565b820191906000526020600020905b815481529060010190602001808311610e9957829003601f168201915b5050509183525050600682015460209091019060ff166003811115610edd57610edd6144a3565b6003811115610eee57610eee6144a3565b81526020016006820160019054906101000a900460ff166002811115610f1657610f166144a3565b6002811115610f2757610f276144a3565b81526020016006820160029054906101000a900460ff166002811115610f4f57610f4f6144a3565b6002811115610f6057610f606144a3565b815260200160078201548152602001600882018054610f7e90614dab565b80601f0160208091040260200160405190810160405280929190818152602001828054610faa90614dab565b8015610ff75780601f10610fcc57610100808354040283529160200191610ff7565b820191906000526020600020905b815481529060010190602001808311610fda57829003601f168201915b50505050508152505090508061012001516000146110775760405160e560020a62461bcd02815260206004820152603160248201527f446f63756d656e742068617320616c7265616479206265656e206973737565646044820152607a60020a7008199bdc881d1a1a5cc81c995c5d595cdd0260648201526084016104c8565b61107f614005565b60035461108d906001614dea565b815260408101879052606081018690526080810185905260a08101849052600160a060020a0388166101008201523360e082015260c082015161012082019060038111156110dd576110dd6144a3565b908160038111156110f0576110f06144a3565b90525060038054600181018255600091909152815160099091027fc2575a0e9e593c00f959f8c92f12db2869c3395a3b0502d05e2516446f71f85b81019182556020808401517fc2575a0e9e593c00f959f8c92f12db2869c3395a3b0502d05e2516446f71f85c83015560408401518051859493611194937fc2575a0e9e593c00f959f8c92f12db2869c3395a3b0502d05e2516446f71f85d909101920190613f81565b50606082015180516111b0916003840191602090910190613f81565b50608082015180516111cc916004840191602090910190613f81565b5060a082015180516111e8916005840191602090910190613f81565b5060c08201518051611204916006840191602090910190613f81565b5060e0820151600782018054600160a060020a0319908116600160a060020a03938416179091556101008401516008840180549283169190931690811783556101208501519291600160a860020a0319161760a060020a83600381111561126d5761126d6144a3565b02179055505050600160a060020a038816600090815260076020908152604082208351815460018101835591845291909220909101558051610120830152600280548391908b9081106112c2576112c2614d91565b600091825260209182902083516009929092020190815582820151600182018054600160a060020a031916600160a060020a0390921691909117905560408301518051919261131992600285019290910190613f81565b5060608201518051611335916003840191602090910190613f81565b5060808201518051611351916004840191602090910190613f81565b5060a0820151805161136d916005840191602090910190613f81565b5060c082015160068201805460ff19166001836003811115611391576113916144a3565b021790555060e082015160068201805461ff0019166101008360028111156113bb576113bb6144a3565b021790555061010082015160068201805462ff00001916620100008360028111156113e8576113e86144a3565b021790555061012082015160078201556101408201518051611414916008840191602090910190613f81565b505081516040517f17996aa8290ab524448faa4d34e5699cdbfce21451bd43063fd8106c2d6604f8925061144e918b913391908990614e02565b60405180910390a198975050505050505050565b6002818154811061147257600080fd5b6000918252602090912060099091020180546001820154600283018054929450600160a060020a0390911692916114a890614dab565b80601f01602080910402602001604051908101604052809291908181526020018280546114d490614dab565b80156115215780601f106114f657610100808354040283529160200191611521565b820191906000526020600020905b81548152906001019060200180831161150457829003601f168201915b50505050509080600301805461153690614dab565b80601f016020809104026020016040519081016040528092919081815260200182805461156290614dab565b80156115af5780601f10611584576101008083540402835291602001916115af565b820191906000526020600020905b81548152906001019060200180831161159257829003601f168201915b5050505050908060040180546115c490614dab565b80601f01602080910402602001604051908101604052809291908181526020018280546115f090614dab565b801561163d5780601f106116125761010080835404028352916020019161163d565b820191906000526020600020905b81548152906001019060200180831161162057829003601f168201915b50505050509080600501805461165290614dab565b80601f016020809104026020016040519081016040528092919081815260200182805461167e90614dab565b80156116cb5780601f106116a0576101008083540402835291602001916116cb565b820191906000526020600020905b8154815290600101906020018083116116ae57829003601f168201915b50505060068401546007850154600886018054959660ff8085169761010086048216975062010000909504169450919261170490614dab565b80601f016020809104026020016040519081016040528092919081815260200182805461173090614dab565b801561177d5780601f106117525761010080835404028352916020019161177d565b820191906000526020600020905b81548152906001019060200180831161176057829003601f168201915b505050505090508b565b61178f614005565b60035482908111156117b65760405160e560020a62461bcd0281526004016104c890614e35565b336000908152600560205260409020548390600160a060020a0316151580611815575033600160a060020a0316600382815481106117f6576117f6614d91565b6000918252602090912060086009909202010154600160a060020a0316145b61187a5760405160e560020a62461bcd02815260206004820152602a60248201527f596f7520617265206e6f7420616c6c6f77656420746f20706572666f726d2074604482015260b160020a693434b99030b1ba34b7b70260648201526084016104c8565b60006003858154811061188f5761188f614d91565b90600052602060002090600902016040518061014001604052908160008201548152602001600182015481526020016002820180546118cd90614dab565b80601f01602080910402602001604051908101604052809291908181526020018280546118f990614dab565b80156119465780601f1061191b57610100808354040283529160200191611946565b820191906000526020600020905b81548152906001019060200180831161192957829003601f168201915b5050505050815260200160038201805461195f90614dab565b80601f016020809104026020016040519081016040528092919081815260200182805461198b90614dab565b80156119d85780601f106119ad576101008083540402835291602001916119d8565b820191906000526020600020905b8154815290600101906020018083116119bb57829003601f168201915b505050505081526020016004820180546119f190614dab565b80601f0160208091040260200160405190810160405280929190818152602001828054611a1d90614dab565b8015611a6a5780601f10611a3f57610100808354040283529160200191611a6a565b820191906000526020600020905b815481529060010190602001808311611a4d57829003601f168201915b50505050508152602001600582018054611a8390614dab565b80601f0160208091040260200160405190810160405280929190818152602001828054611aaf90614dab565b8015611afc5780601f10611ad157610100808354040283529160200191611afc565b820191906000526020600020905b815481529060010190602001808311611adf57829003601f168201915b50505050508152602001600682018054611b1590614dab565b80601f0160208091040260200160405190810160405280929190818152602001828054611b4190614dab565b8015611b8e5780601f10611b6357610100808354040283529160200191611b8e565b820191906000526020600020905b815481529060010190602001808311611b7157829003601f168201915b50505091835250506007820154600160a060020a0390811660208301526008830154908116604083015260609091019060a060020a900460ff166003811115611bd957611bd96144a3565b6003811115611bea57611bea6144a3565b90525095945050505050565b600160a060020a0381811660009081526004602052604081205490911615611c2057506002919050565b600160a060020a038281166000908152600560205260409020541615611c4857506001919050565b506000919050565b60056020526000908152604090208054600182018054600160a060020a039092169291611c7c90614dab565b80601f0160208091040260200160405190810160405280929190818152602001828054611ca890614dab565b8015611cf55780601f10611cca57610100808354040283529160200191611cf5565b820191906000526020600020905b815481529060010190602001808311611cd857829003601f168201915b5050506002909301549192505060ff1683565b60076020528160005260406000208181548110611d2457600080fd5b90600052602060002001600091509150505481565b611d4161407a565b60006040518060800160405280604051806060016040528060288152602001614eef6028913981526020016040518060400160405280600a815260200160b360020a690929c869e9a8a40a882b028152508152602001604051806040016040528060158152602001605960020a7426aaa724a1a4a820a61021a7a92827a920aa24a7a70281525081526020016040518060400160405280601a81526020017f5354415445205452414e53504f5254442045504152544d454e5400000000000081525081525090508091505090565b60038181548110611e1f57600080fd5b9060005260206000209060090201600091509050806000015490806001015490806002018054611e4e90614dab565b80601f0160208091040260200160405190810160405280929190818152602001828054611e7a90614dab565b8015611ec75780601f10611e9c57610100808354040283529160200191611ec7565b820191906000526020600020905b815481529060010190602001808311611eaa57829003601f168201915b505050505090806003018054611edc90614dab565b80601f0160208091040260200160405190810160405280929190818152602001828054611f0890614dab565b8015611f555780601f10611f2a57610100808354040283529160200191611f55565b820191906000526020600020905b815481529060010190602001808311611f3857829003601f168201915b505050505090806004018054611f6a90614dab565b80601f0160208091040260200160405190810160405280929190818152602001828054611f9690614dab565b8015611fe35780601f10611fb857610100808354040283529160200191611fe3565b820191906000526020600020905b815481529060010190602001808311611fc657829003601f168201915b505050505090806005018054611ff890614dab565b80601f016020809104026020016040519081016040528092919081815260200182805461202490614dab565b80156120715780601f1061204657610100808354040283529160200191612071565b820191906000526020600020905b81548152906001019060200180831161205457829003601f168201915b50505050509080600601805461208690614dab565b80601f01602080910402602001604051908101604052809291908181526020018280546120b290614dab565b80156120ff5780601f106120d4576101008083540402835291602001916120ff565b820191906000526020600020905b8154815290600101906020018083116120e257829003601f168201915b5050505060078301546008909301549192600160a060020a0390811692908116915060a060020a900460ff168a565b6121366140a1565b33600090815260056020526040902054600160a060020a03161561216f5760405160e560020a62461bcd0281526004016104c890614cd1565b6121776140a1565b3381526020810184905260408101836003811115612197576121976144a3565b908160038111156121aa576121aa6144a3565b90525033600090815260056020908152604090912082518154600160a060020a031916600160a060020a0390911617815582820151805184936121f4926001850192910190613f81565b50604082015160028201805460ff19166001836003811115612218576122186144a3565b02179055509195945050505050565b6003546000906060908411156122725750506040805180820190915260178152604a60020a76111bd8dd5b595b9d08191bd95cc81b9bdd08195e1a5cdd0260208201526000906122f6565b82600160a060020a03166003858154811061228f5761228f614d91565b6000918252602090912060086009909202010154600160a060020a031614156122d6576001604051806060016040528060288152602001614f3c60289139915091506122f6565b6000604051806060016040528060258152602001614f1760259139915091505b9250929050565b60066020528160005260406000208181548110611d2457600080fd5b60606003805480602002602001604051908101604052809291908181526020016000905b828210156126b5578382906000526020600020906009020160405180610140016040529081600082015481526020016001820154815260200160028201805461238590614dab565b80601f01602080910402602001604051908101604052809291908181526020018280546123b190614dab565b80156123fe5780601f106123d3576101008083540402835291602001916123fe565b820191906000526020600020905b8154815290600101906020018083116123e157829003601f168201915b5050505050815260200160038201805461241790614dab565b80601f016020809104026020016040519081016040528092919081815260200182805461244390614dab565b80156124905780601f1061246557610100808354040283529160200191612490565b820191906000526020600020905b81548152906001019060200180831161247357829003601f168201915b505050505081526020016004820180546124a990614dab565b80601f01602080910402602001604051908101604052809291908181526020018280546124d590614dab565b80156125225780601f106124f757610100808354040283529160200191612522565b820191906000526020600020905b81548152906001019060200180831161250557829003601f168201915b5050505050815260200160058201805461253b90614dab565b80601f016020809104026020016040519081016040528092919081815260200182805461256790614dab565b80156125b45780601f10612589576101008083540402835291602001916125b4565b820191906000526020600020905b81548152906001019060200180831161259757829003601f168201915b505050505081526020016006820180546125cd90614dab565b80601f01602080910402602001604051908101604052809291908181526020018280546125f990614dab565b80156126465780601f1061261b57610100808354040283529160200191612646565b820191906000526020600020905b81548152906001019060200180831161262957829003601f168201915b50505091835250506007820154600160a060020a0390811660208301526008830154908116604083015260609091019060a060020a900460ff166003811115612691576126916144a3565b60038111156126a2576126a26144a3565b815250508152602001906001019061233d565b50505050905090565b60046020526000908152604090208054600182018054600160a060020a0390921692916126ea90614dab565b80601f016020809104026020016040519081016040528092919081815260200182805461271690614dab565b80156127635780601f1061273857610100808354040283529160200191612763565b820191906000526020600020905b81548152906001019060200180831161274657829003601f168201915b50505050509080600201805461277890614dab565b80601f01602080910402602001604051908101604052809291908181526020018280546127a490614dab565b80156127f15780601f106127c6576101008083540402835291602001916127f1565b820191906000526020600020905b8154815290600101906020018083116127d457829003601f168201915b50505050509080600301805461280690614dab565b80601f016020809104026020016040519081016040528092919081815260200182805461283290614dab565b801561287f5780601f106128545761010080835404028352916020019161287f565b820191906000526020600020905b81548152906001019060200180831161286257829003601f168201915b50505050509080600401805461289490614dab565b80601f01602080910402602001604051908101604052809291908181526020018280546128c090614dab565b801561290d5780601f106128e25761010080835404028352916020019161290d565b820191906000526020600020905b8154815290600101906020018083116128f057829003601f168201915b5050505050908060050154905086565b60606002805480602002602001604051908101604052809291908181526020016000905b828210156126b5576000848152602090819020604080516101608101825260098602909201805483526001810154600160a060020a0316938301939093526002830180549293929184019161299590614dab565b80601f01602080910402602001604051908101604052809291908181526020018280546129c190614dab565b8015612a0e5780601f106129e357610100808354040283529160200191612a0e565b820191906000526020600020905b8154815290600101906020018083116129f157829003601f168201915b50505050508152602001600382018054612a2790614dab565b80601f0160208091040260200160405190810160405280929190818152602001828054612a5390614dab565b8015612aa05780601f10612a7557610100808354040283529160200191612aa0565b820191906000526020600020905b815481529060010190602001808311612a8357829003601f168201915b50505050508152602001600482018054612ab990614dab565b80601f0160208091040260200160405190810160405280929190818152602001828054612ae590614dab565b8015612b325780601f10612b0757610100808354040283529160200191612b32565b820191906000526020600020905b815481529060010190602001808311612b1557829003601f168201915b50505050508152602001600582018054612b4b90614dab565b80601f0160208091040260200160405190810160405280929190818152602001828054612b7790614dab565b8015612bc45780601f10612b9957610100808354040283529160200191612bc4565b820191906000526020600020905b815481529060010190602001808311612ba757829003601f168201915b5050509183525050600682015460209091019060ff166003811115612beb57612beb6144a3565b6003811115612bfc57612bfc6144a3565b81526020016006820160019054906101000a900460ff166002811115612c2457612c246144a3565b6002811115612c3557612c356144a3565b81526020016006820160029054906101000a900460ff166002811115612c5d57612c5d6144a3565b6002811115612c6e57612c6e6144a3565b815260200160078201548152602001600882018054612c8c90614dab565b80601f0160208091040260200160405190810160405280929190818152602001828054612cb890614dab565b8015612d055780601f10612cda57610100808354040283529160200191612d05565b820191906000526020600020905b815481529060010190602001808311612ce857829003601f168201915b50505050508152505081526020019060010190612941565b336000908152600760209081526040808320805482518185028101850190935280835260609493830182828015612d7357602002820191906000526020600020905b815481526020019060010190808311612d5f575b50939695505050505050565b612d87614005565b6003548590811115612dae5760405160e560020a62461bcd0281526004016104c890614e35565b33600090815260056020526040902054600160a060020a0316612de65760405160e560020a62461bcd0281526004016104c890614d4b565b60006003612df5600189614e69565b81548110612e0557612e05614d91565b9060005260206000209060090201604051806101400160405290816000820154815260200160018201548152602001600282018054612e4390614dab565b80601f0160208091040260200160405190810160405280929190818152602001828054612e6f90614dab565b8015612ebc5780601f10612e9157610100808354040283529160200191612ebc565b820191906000526020600020905b815481529060010190602001808311612e9f57829003601f168201915b50505050508152602001600382018054612ed590614dab565b80601f0160208091040260200160405190810160405280929190818152602001828054612f0190614dab565b8015612f4e5780601f10612f2357610100808354040283529160200191612f4e565b820191906000526020600020905b815481529060010190602001808311612f3157829003601f168201915b50505050508152602001600482018054612f6790614dab565b80601f0160208091040260200160405190810160405280929190818152602001828054612f9390614dab565b8015612fe05780601f10612fb557610100808354040283529160200191612fe0565b820191906000526020600020905b815481529060010190602001808311612fc357829003601f168201915b50505050508152602001600582018054612ff990614dab565b80601f016020809104026020016040519081016040528092919081815260200182805461302590614dab565b80156130725780601f1061304757610100808354040283529160200191613072565b820191906000526020600020905b81548152906001019060200180831161305557829003601f168201915b5050505050815260200160068201805461308b90614dab565b80601f01602080910402602001604051908101604052809291908181526020018280546130b790614dab565b80156131045780601f106130d957610100808354040283529160200191613104565b820191906000526020600020905b8154815290600101906020018083116130e757829003601f168201915b50505091835250506007820154600160a060020a0390811660208301526008830154908116604083015260609091019060a060020a900460ff16600381111561314f5761314f6144a3565b6003811115613160576131606144a3565b90525060c0810186905260808101879052905080600361318160018a614e69565b8154811061319157613191614d91565b9060005260206000209060090201600082015181600001556020820151816001015560408201518160020190805190602001906131cf929190613f81565b50606082015180516131eb916003840191602090910190613f81565b5060808201518051613207916004840191602090910190613f81565b5060a08201518051613223916005840191602090910190613f81565b5060c0820151805161323f916006840191602090910190613f81565b5060e0820151600782018054600160a060020a0319908116600160a060020a03938416179091556101008401516008840180549283169190931690811783556101208501519291600160a860020a0319161760a060020a8360038111156132a8576132a86144a3565b02179055509050507fc4f15c88bda961a26d5674062e979fe4f589189d2977fa373051e3860cee0daa878286886040516132e59493929190614e80565b60405180910390a19695505050505050565b336000908152600660209081526040808320805482518185028101850190935280835260609493830182828015612d735760200282019190600052602060002090815481526020019060010190808311612d5f5750939695505050505050565b33600090815260056020526040902054600160a060020a031661338f5760405160e560020a62461bcd0281526004016104c890614d4b565b6000600283815481106133a4576133a4614d91565b906000526020600020906009020160405180610160016040529081600082015481526020016001820160009054906101000a9004600160a060020a0316600160a060020a0316600160a060020a0316815260200160028201805461340790614dab565b80601f016020809104026020016040519081016040528092919081815260200182805461343390614dab565b80156134805780601f1061345557610100808354040283529160200191613480565b820191906000526020600020905b81548152906001019060200180831161346357829003601f168201915b5050505050815260200160038201805461349990614dab565b80601f01602080910402602001604051908101604052809291908181526020018280546134c590614dab565b80156135125780601f106134e757610100808354040283529160200191613512565b820191906000526020600020905b8154815290600101906020018083116134f557829003601f168201915b5050505050815260200160048201805461352b90614dab565b80601f016020809104026020016040519081016040528092919081815260200182805461355790614dab565b80156135a45780601f10613579576101008083540402835291602001916135a4565b820191906000526020600020905b81548152906001019060200180831161358757829003601f168201915b505050505081526020016005820180546135bd90614dab565b80601f01602080910402602001604051908101604052809291908181526020018280546135e990614dab565b80156136365780601f1061360b57610100808354040283529160200191613636565b820191906000526020600020905b81548152906001019060200180831161361957829003601f168201915b5050509183525050600682015460209091019060ff16600381111561365d5761365d6144a3565b600381111561366e5761366e6144a3565b81526020016006820160019054906101000a900460ff166002811115613696576136966144a3565b60028111156136a7576136a76144a3565b81526020016006820160029054906101000a900460ff1660028111156136cf576136cf6144a3565b60028111156136e0576136e06144a3565b8152602001600782015481526020016008820180546136fe90614dab565b80601f016020809104026020016040519081016040528092919081815260200182805461372a90614dab565b80156137775780601f1061374c57610100808354040283529160200191613777565b820191906000526020600020905b81548152906001019060200180831161375a57829003601f168201915b50505091909252505060026101008301819052610140830185905280549293508392909150859081106137ac576137ac614d91565b600091825260209182902083516009929092020190815582820151600182018054600160a060020a031916600160a060020a0390921691909117905560408301518051919261380392600285019290910190613f81565b506060820151805161381f916003840191602090910190613f81565b506080820151805161383b916004840191602090910190613f81565b5060a08201518051613857916005840191602090910190613f81565b5060c082015160068201805460ff1916600183600381111561387b5761387b6144a3565b021790555060e082015160068201805461ff0019166101008360028111156138a5576138a56144a3565b021790555061010082015160068201805462ff00001916620100008360028111156138d2576138d26144a3565b0217905550610120820151600782015561014082015180516138fe916008840191602090910190613f81565b505050505050565b61390e613f42565b600160a060020a038083166000908152600460209081526040808320815160c081019092528054909416815260018401805493949193919284019161395290614dab565b80601f016020809104026020016040519081016040528092919081815260200182805461397e90614dab565b80156139cb5780601f106139a0576101008083540402835291602001916139cb565b820191906000526020600020905b8154815290600101906020018083116139ae57829003601f168201915b505050505081526020016002820180546139e490614dab565b80601f0160208091040260200160405190810160405280929190818152602001828054613a1090614dab565b8015613a5d5780601f10613a3257610100808354040283529160200191613a5d565b820191906000526020600020905b815481529060010190602001808311613a4057829003601f168201915b50505050508152602001600382018054613a7690614dab565b80601f0160208091040260200160405190810160405280929190818152602001828054613aa290614dab565b8015613aef5780601f10613ac457610100808354040283529160200191613aef565b820191906000526020600020905b815481529060010190602001808311613ad257829003601f168201915b50505050508152602001600482018054613b0890614dab565b80601f0160208091040260200160405190810160405280929190818152602001828054613b3490614dab565b8015613b815780601f10613b5657610100808354040283529160200191613b81565b820191906000526020600020905b815481529060010190602001808311613b6457829003601f168201915b5050509183525050600591909101546020909101529392505050565b613ba56140d6565b613bad6140d6565b600054815233602082015260408101889052606081018790526080810186905260a0810184905260c08101896003811115613bea57613bea6144a3565b90816003811115613bfd57613bfd6144a3565b90525060e08101856002811115613c1657613c166144a3565b90816002811115613c2957613c296144a3565b90525060006101008201819052610120820184905260028054600181018255915281517f405787fa12a823e0f2b7631cc41b3ba8828b3321ca811111fa75cd3aa3bb5ace60099092029182019081556020808401517f405787fa12a823e0f2b7631cc41b3ba8828b3321ca811111fa75cd3aa3bb5acf84018054600160a060020a031916600160a060020a03909216919091179055604084015180518594613cf7937f405787fa12a823e0f2b7631cc41b3ba8828b3321ca811111fa75cd3aa3bb5ad0909101920190613f81565b5060608201518051613d13916003840191602090910190613f81565b5060808201518051613d2f916004840191602090910190613f81565b5060a08201518051613d4b916005840191602090910190613f81565b5060c082015160068201805460ff19166001836003811115613d6f57613d6f6144a3565b021790555060e082015160068201805461ff001916610100836002811115613d9957613d996144a3565b021790555061010082015160068201805462ff0000191662010000836002811115613dc657613dc66144a3565b021790555061012082015160078201556101408201518051613df2916008840191602090910190613f81565b5050506001600080828254613e079190614dea565b909155505080516040517fb0d5a35d53d1b590b4e2ab0193806445dd4ad70aab99e4a02454aaf4ae4939b69161144e913391908d90614eca565b613e496140a1565b3360009081526005602090815260408083208151606081019092528054600160a060020a031682526001810180549293919291840191613e8890614dab565b80601f0160208091040260200160405190810160405280929190818152602001828054613eb490614dab565b8015613f015780601f10613ed657610100808354040283529160200191613f01565b820191906000526020600020905b815481529060010190602001808311613ee457829003601f168201915b5050509183525050600282015460209091019060ff166003811115613f2857613f286144a3565b6003811115613f3957613f396144a3565b90525092915050565b6040518060c001604052806000600160a060020a0316815260200160608152602001606081526020016060815260200160608152602001600081525090565b828054613f8d90614dab565b90600052602060002090601f016020900481019282613faf5760008555613ff5565b82601f10613fc857805160ff1916838001178555613ff5565b82800160010185558215613ff5579182015b82811115613ff5578251825591602001919060010190613fda565b5061400192915061414a565b5090565b604051806101400160405280600081526020016000815260200160608152602001606081526020016060815260200160608152602001606081526020016000600160a060020a031681526020016000600160a060020a0316815260200160006003811115614075576140756144a3565b905290565b60405180608001604052806004905b60608152602001906001900390816140895790505090565b60405180606001604052806000600160a060020a031681526020016060815260200160006003811115614075576140756144a3565b604051806101600160405280600081526020016000600160a060020a031681526020016060815260200160608152602001606081526020016060815260200160006003811115614128576141286144a3565b8152602001600081526020016000815260200160008152602001606081525090565b5b80821115614001576000815560010161414b565b60e060020a634e487b710260009081526041600452602490fd5b600082601f83011261418a57600080fd5b81356001604060020a03808211156141a4576141a461415f565b604051601f8301601f19908116603f011681019082821181831017156141cc576141cc61415f565b816040528381528660208588010111156141e557600080fd5b836020870160208301376000602085830101528094505050505092915050565b6000806000806080858703121561421b57600080fd5b84356001604060020a038082111561423257600080fd5b61423e88838901614179565b9550602087013591508082111561425457600080fd5b61426088838901614179565b9450604087013591508082111561427657600080fd5b61428288838901614179565b9350606087013591508082111561429857600080fd5b506142a587828801614179565b91505092959194509250565b600160a060020a03169052565b6000815180845260005b818110156142e4576020818501810151868301820152016142c8565b818111156142f6576000602083870101525b50601f01601f19169290920160200192915050565b60208082528251600160a060020a03168282015282015160c0604083015260009061433960e08401826142be565b90506040840151601f198085840301606086015261435783836142be565b9250606086015191508085840301608086015261437483836142be565b925060808601519150808584030160a08601525061439282826142be565b91505060a084015160c08401528091505092915050565b6000602082840312156143bb57600080fd5b5035919050565b8035600160a060020a03811681146143d957600080fd5b919050565b60008060008060008060c087890312156143f757600080fd5b86359550614407602088016143c2565b945060408701356001604060020a038082111561442357600080fd5b61442f8a838b01614179565b9550606089013591508082111561444557600080fd5b6144518a838b01614179565b9450608089013591508082111561446757600080fd5b6144738a838b01614179565b935060a089013591508082111561448957600080fd5b5061449689828a01614179565b9150509295509295509295565b60e060020a634e487b710260009081526021600452602490fd5b600481106144cd576144cd6144a3565b9052565b6000610140825184526020830151602085015260408301518160408601526144fb828601826142be565b9150506060830151848203606086015261451582826142be565b9150506080830151848203608086015261452f82826142be565b91505060a083015184820360a086015261454982826142be565b91505060c083015184820360c086015261456382826142be565b91505060e083015161457860e08601826142b1565b506101008084015161458c828701826142b1565b5050610120808401516145a1828701826144bd565b5090949350505050565b6020815260006145be60208301846144d1565b9392505050565b600381106145d5576145d56144a3565b50565b6144cd816145c5565b8b8152600160a060020a038b1660208201526101606040820181905260009061460c8382018d6142be565b90508281036060840152614620818c6142be565b90508281036080840152614634818b6142be565b905082810360a0840152614648818a6142be565b905061465760c08401896144bd565b614660876145c5565b8660e084015261466f866145c5565b856101008401528461012084015282810361014084015261469081856142be565b9e9d5050505050505050505050505050565b6000602082840312156146b457600080fd5b6145be826143c2565b602081016146ca836145c5565b91905290565b600160a060020a03841681526060602082018190526000906146f4908301856142be565b90506105bd60408301846144bd565b6000806040838503121561471657600080fd5b61471f836143c2565b946020939093013593505050565b602080825260009060a0830183820185845b600481101561476e57601f1987850301835261475c8483516142be565b9350918401919084019060010161473f565b50919695505050505050565b60006101408c83528b602084015280604084015261479a8184018c6142be565b905082810360608401526147ae818b6142be565b905082810360808401526147c2818a6142be565b905082810360a08401526147d681896142be565b905082810360c08401526147ea81886142be565b600160a060020a0387811660e08601528616610100850152915061481490506101208301846144bd565b9b9a5050505050505050505050565b8035600481106143d957600080fd5b6000806040838503121561484557600080fd5b82356001604060020a0381111561485b57600080fd5b61486785828601614179565b92505061487660208401614823565b90509250929050565b60208082528251600160a060020a031682820152820151606060408301526000906148ad60808401826142be565b905060408401516148c160608501826144bd565b509392505050565b600080604083850312156148dc57600080fd5b82359150614876602084016143c2565b82151581526040602082015260006105bd60408301846142be565b600060208083018184528085518083526040860191506040848202870101925083870160005b8281101561495b57603f198886030184526149498583516144d1565b9450928501929085019060010161492d565b5092979650505050505050565b600160a060020a038716815260c06020820181905260009061498c908301886142be565b828103604084015261499e81886142be565b905082810360608401526149b281876142be565b905082810360808401526149c681866142be565b9150508260a0830152979650505050505050565b60006101608251845260208301516149f560208601826142b1565b506040830151816040860152614a0d828601826142be565b91505060608301518482036060860152614a2782826142be565b91505060808301518482036080860152614a4182826142be565b91505060a083015184820360a0860152614a5b82826142be565b91505060c0830151614a7060c08601826144bd565b5060e0830151614a8360e08601826145d8565b5061010080840151614a97828701826145d8565b505061012083810151908501526101408084015185830382870152614abc83826142be565b9695505050505050565b600060208083018184528085518083526040860191506040848202870101925083870160005b8281101561495b57603f19888603018452614b088583516149da565b94509285019290850190600101614aec565b6020808252825182820181905260009190848201906040850190845b81811015614b5257835183529284019291840191600101614b36565b50909695505050505050565b60008060008060808587031215614b7457600080fd5b8435935060208501356001604060020a038082111561425457600080fd5b60008060408385031215614ba557600080fd5b8235915060208301356001604060020a03811115614bc257600080fd5b614bce85828601614179565b9150509250929050565b8035600381106143d957600080fd5b600080600080600080600060e0888a031215614c0257600080fd5b614c0b88614823565b965060208801356001604060020a0380821115614c2757600080fd5b614c338b838c01614179565b975060408a0135915080821115614c4957600080fd5b614c558b838c01614179565b965060608a0135915080821115614c6b57600080fd5b614c778b838c01614179565b9550614c8560808b01614bd8565b945060a08a0135915080821115614c9b57600080fd5b50614ca88a828b01614179565b92505060c0880135905092959891949750929550565b6020815260006145be60208301846149da565b60208082526022908201527f54686973206164647265737320697320616c7265616479207265676973746572604082015260f260020a61195902606082015260800190565b60e060020a634e487b710260009081526011600452602490fd5b6000600019821415614d4457614d44614d16565b5060010190565b60208082526023908201527f4f6e6c792061646d696e732063616e20706572666f726d207468697320616374604082015260e960020a6234b7b702606082015260800190565b60e060020a634e487b710260009081526032600452602490fd5b600281046001821680614dbf57607f821691505b60208210811415614de45760e060020a634e487b710260009081526022600452602490fd5b50919050565b60008219821115614dfd57614dfd614d16565b500190565b600160a060020a0385811682528416602082015260408101839052608060608201819052600090614abc908301846142be565b6020808252601790820152604a60020a76111bd8dd5b595b9d08191bd95cc81b9bdd08195e1a5cdd02604082015260600190565b600082821015614e7b57614e7b614d16565b500390565b848152608060208201526000614e9960808301866144d1565b8281036040840152614eab81866142be565b90508281036060840152614ebf81856142be565b979650505050505050565b600160a060020a038416815260208101839052606081016105bd60408301846144bd56fe554e49515545204944454e54494649434154494f4e20415554484f52495459204f4620494e444941446f63756d656e7420646f6573206e6f742062656c6f6e6720746f20746869732075736572446f63756d656e742076657269666965642073756363657366756c6c792020202020202020202020a26469706673582212209645a7a53512073449977e802a90461eeed3e8ab7cb092ef168d02fa4413923964736f6c634300080b0033",
  "immutableReferences": {},
  "source": "// SPDX-License-Identifier: MIT\r\npragma solidity >=0.4.22 <0.9.0;\r\n\r\ncontract DeDocs {\r\n\r\n  enum ROLE{\r\n    NOT_REGISTERED,\r\n    ADMIN,\r\n    USER\r\n  }\r\n\r\n  enum DEPARTMENT{\r\n    UNIQUE_IDENTIFICATION_AUTHORITY_OF_INDIA,\r\n    INCOME_TAX,\r\n    MUNICIPAL_CORPORATION,\r\n    STATE_TRANSPORT_DEPARTMENT\r\n  }\r\n\r\n  enum REQUEST_CATEGORY{\r\n    ISSUE,\r\n    UPDATE,\r\n    RECTIFY\r\n  }\r\n\r\n  enum REQUEST_STATUS{\r\n    PENDING,\r\n    SUCCESS,\r\n    REJECTED\r\n  }\r\n\r\n  struct Admin{\r\n    address id;\r\n    string name;\r\n    DEPARTMENT department;\r\n  }\r\n  \r\n  struct User{\r\n    address id;\r\n    string name;\r\n    string dob;\r\n    string password;    \r\n    string joined;\r\n    uint total_requests;\r\n  }\r\n\r\n  struct Request{\r\n    uint id;\r\n    address user_id;\r\n    string subject;\r\n    string description;\r\n    string ipfs_hash;\r\n    string date;\r\n    DEPARTMENT department;\r\n    REQUEST_CATEGORY category;\r\n    REQUEST_STATUS status;\r\n    uint document_id;\r\n    string remarks;\r\n  }\r\n\r\n  struct Document{\r\n    uint id;\r\n    uint request_id;\r\n    string name;\r\n    string uid;\r\n    string ipfs_hash;\r\n    string issued_on;\r\n    string last_updated;\r\n    address admin;\r\n    address user;\r\n    DEPARTMENT department;\r\n  }\r\n\r\n  event DeDocs_deployed(string message);\r\n  event Request_made(address user, uint request_id, DEPARTMENT department);\r\n  event Document_issued(address user, address admin, uint document_id, string timestamp);\r\n  event Document_modified(uint document_id, Document document, string message, string timestamp);\r\n\r\n  uint public total_requests = 0;\r\n  uint public total_users = 0;\r\n\r\n  Request[] public all_requests;\r\n\r\n  Document[] public all_documents; //array to store all the documents of the system\r\n  mapping(address => User) public users; // mapping of user address to user data \r\n  mapping(address => Admin) public admins; //mapping of admin address to admin data\r\n  mapping(address => uint256[]) public requests; //mapping of the user addess to all the requests made by that address\r\n  mapping(address => uint256[]) public documents; // mapping of the user address to their documents\r\n  \r\n\r\n  modifier is_admin(){\r\n    require(admins[msg.sender].id != address(0x0),\"Only admins can perform this action\");\r\n    _;\r\n  }\r\n\r\n  modifier is_existent(uint _document_id){\r\n    require(_document_id <= all_documents.length, \"Document does not exist\");\r\n    _;\r\n  }\r\n\r\n  modifier is_allowed(uint _document_id){\r\n    require(admins[msg.sender].id != address(0x0) || all_documents[_document_id].user == msg.sender, \"You are not allowed to perform this action\");\r\n    _;\r\n  }\r\n\r\n  constructor()  {\r\n      emit DeDocs_deployed(\"Contract deployed successfully\");\r\n  }\r\n\r\n  function register_user(string memory _name, string memory _dob, string memory _password, string memory _joined) payable public returns (User memory){\r\n\r\n    require(users[msg.sender].id == address(0x0),\"This address is already registered\");\r\n\r\n    User memory _user;\r\n    _user.id = msg.sender;\r\n    _user.name = _name;\r\n    _user.dob = _dob;\r\n    _user.password = _password;\r\n    _user.joined = _joined;\r\n    _user.total_requests = 0;\r\n\r\n    users[msg.sender] = _user;\r\n\r\n    total_users++;\r\n    \r\n    return _user;\r\n  }\r\n\r\n  function register_admin(string memory _name, DEPARTMENT _department) payable public returns (Admin memory){\r\n\r\n    require(admins[msg.sender].id == address(0x0),\"This address is already registered\");\r\n\r\n    Admin memory _admin;\r\n    _admin.id = msg.sender;\r\n    _admin.name = _name;\r\n    _admin.department = _department;\r\n\r\n    admins[msg.sender] = _admin;\r\n\r\n    return _admin;\r\n  }\r\n\r\n  function get_departments() public pure returns(string[4] memory departments){\r\n    string[4] memory _departments = [\"UNIQUE IDENTIFICATION AUTHORITY OF INDIA\",\"INCOME TAX\",\"MUNICIPAL CORPORATION\",\"STATE TRANSPORTD EPARTMENT\"];\r\n    return _departments;\r\n  }\r\n\r\n  function get_role(address _address) public view returns(ROLE role){\r\n\r\n    if(users[_address].id != address(0x0)) return ROLE.USER;\r\n    if(admins[_address].id != address(0x0)) return ROLE.ADMIN;\r\n\r\n    return ROLE.NOT_REGISTERED;\r\n\r\n  }\r\n\r\n  function get_all_requests() public view returns(Request[] memory){\r\n    return all_requests;\r\n  }\r\n\r\n  function get_all_documents() public view returns(Document[] memory){\r\n    return all_documents;\r\n  }\r\n\r\n  function verify_document(uint _document_id, address _address) public view returns(bool, string memory){\r\n\r\n    // Check if document exists\r\n    if(_document_id > all_documents.length) return (false, \"Document does not exist\");\r\n\r\n    //Check if document is by correct user\r\n    if(all_documents[_document_id].user == _address) return (true, \"Document verified succesfully           \");\r\n    else return (false,\"Document does not belong to this user\");\r\n\r\n\r\n  }\r\n\r\n  /***********************************  USER FUNCTIONS  *********************************/\r\n\r\n  function get_user_details(address _address) public view returns(User memory user){\r\n    User memory _user = users[_address];\r\n    return _user;\r\n  }\r\n\r\n  function get_user_requests() public view returns(uint256[] memory _requests){\r\n\r\n    uint256[] memory _my_requests = requests[msg.sender];\r\n    return _my_requests;\r\n    \r\n  }\r\n\r\n  function get_user_documents() public view returns(uint256[] memory _documents){\r\n\r\n    uint256[] memory _my_documents = documents[msg.sender];\r\n    return _my_documents;\r\n    \r\n  }\r\n\r\n  function make_request(DEPARTMENT _department,  string memory _subject, string memory _description, string memory _ipfs_hash, REQUEST_CATEGORY _request_category, string memory _date, uint _document_id) public payable returns(Request memory){\r\n\r\n    Request memory request;\r\n\r\n    request.id = total_requests;\r\n    request.user_id = msg.sender;\r\n    request.subject = _subject;\r\n    request.description = _description;\r\n    request.ipfs_hash = _ipfs_hash;\r\n    request.date = _date;\r\n    request.department = _department;\r\n    request.category = _request_category;\r\n    request.status = REQUEST_STATUS.PENDING;\r\n    request.document_id = _document_id;\r\n\r\n    all_requests.push(request);\r\n    total_requests += 1;\r\n\r\n    emit Request_made(msg.sender, request.id, _department);\r\n\r\n    return request;\r\n  }\r\n\r\n\r\n  /********************************ADMIN FUNCTIONS********************************/\r\n\r\n  function get_admin_details() public view returns(Admin memory admin){\r\n    Admin memory _admin = admins[msg.sender];\r\n    return _admin;\r\n  }\r\n\r\n  function get_document (uint _document_id) is_existent(_document_id) is_allowed(_document_id) public view returns (Document memory){\r\n    Document memory _document = all_documents[_document_id];\r\n    return _document;\r\n  }\r\n\r\n  function reject_request(uint _request_id, string memory _remarks) is_admin public payable{\r\n    Request memory _request = all_requests[_request_id];\r\n    _request.status = REQUEST_STATUS.REJECTED;\r\n    _request.remarks = _remarks;\r\n    all_requests[_request_id] = _request;\r\n  }\r\n\r\n  function approve_request(uint _request_id) is_admin public payable{\r\n    Request memory _request = all_requests[_request_id];\r\n    _request.status = REQUEST_STATUS.SUCCESS;\r\n    all_requests[_request_id] = _request;\r\n  }\r\n\r\n  function issue_document(uint _request_id, address _userAddress, string memory _name, string memory _uid, string memory _ipfs_hash, string memory _issued_on) is_admin public payable returns(Document memory){\r\n    \r\n    //check if user is registered\r\n    require(users[_userAddress].id != address(0x0),\"User is not registered\");\r\n\r\n    //check if no document is already issued for this request\r\n    Request memory _request = all_requests[_request_id];\r\n    require(_request.document_id == 0,\"Document has already been issued for this request\");\r\n\r\n    //create a new document instance\r\n    Document memory _document;\r\n    _document.id = all_documents.length + 1;\r\n    _document.name = _name;\r\n    _document.uid = _uid;\r\n    _document.ipfs_hash = _ipfs_hash;\r\n    _document.issued_on = _issued_on;\r\n    _document.user = _userAddress;\r\n    _document.admin = msg.sender;\r\n    _document.department = _request.department;\r\n\r\n    //insert the document to the records\r\n    all_documents.push(_document);\r\n    documents[_userAddress].push(_document.id);\r\n\r\n    //update the request\r\n    _request.document_id = _document.id;\r\n    all_requests[_request_id] = _request;\r\n\r\n    emit Document_issued(_userAddress, msg.sender, _document.id,_issued_on);\r\n\r\n    return _document;\r\n  }\r\n\r\n\r\n  function modify_document(uint _document_id, string memory _new_hash, string memory _last_updated, string memory _message) is_existent(_document_id) is_admin public payable returns(Document memory){\r\n    \r\n    //Get the current version of the document\r\n    Document memory _document = all_documents[_document_id - 1];\r\n\r\n    //update the document\r\n    _document.last_updated = _last_updated;\r\n    _document.ipfs_hash = _new_hash;\r\n    all_documents[_document_id - 1] = _document;\r\n\r\n    emit Document_modified(_document_id, _document, _message,_last_updated);\r\n\r\n    return _document;\r\n  }\r\n\r\n}\r\n",
  "sourcePath": "C:\\Users\\Kailash\\Desktop\\summer project\\backend\\contracts\\DeDocs.sol",
  "compiler": {
    "name": "solc",
    "version": "0.8.11+commit.d7f03943.Emscripten.clang"
  },
  "schemaVersion": "3.4.5",
  "updatedAt": "2022-08-03T23:44:16.924Z",
  "networkType": "ethereum",
  "devdoc": {
    "kind": "dev",
    "methods": {},
    "version": 1
  },
  "userdoc": {
    "kind": "user",
    "methods": {},
    "version": 1
  }
}