{
  "contractName": "DeDocs",
  "abi": [
    {
      "inputs": [],
      "stateMutability": "nonpayable",
      "type": "constructor"
    },
    {
      "anonymous": false,
      "inputs": [
        {
          "indexed": false,
          "internalType": "string",
          "name": "message",
          "type": "string"
        }
      ],
      "name": "DeDocs_deployed",
      "type": "event"
    },
    {
      "anonymous": false,
      "inputs": [
        {
          "indexed": false,
          "internalType": "address",
          "name": "user",
          "type": "address"
        },
        {
          "indexed": false,
          "internalType": "address",
          "name": "admin",
          "type": "address"
        },
        {
          "indexed": false,
          "internalType": "uint256",
          "name": "document_id",
          "type": "uint256"
        },
        {
          "indexed": false,
          "internalType": "string",
          "name": "timestamp",
          "type": "string"
        }
      ],
      "name": "Document_issued",
      "type": "event"
    },
    {
      "anonymous": false,
      "inputs": [
        {
          "indexed": false,
          "internalType": "uint256",
          "name": "document_id",
          "type": "uint256"
        },
        {
          "components": [
            {
              "internalType": "uint256",
              "name": "id",
              "type": "uint256"
            },
            {
              "internalType": "uint256",
              "name": "request_id",
              "type": "uint256"
            },
            {
              "internalType": "string",
              "name": "name",
              "type": "string"
            },
            {
              "internalType": "string",
              "name": "uid",
              "type": "string"
            },
            {
              "internalType": "string",
              "name": "ipfs_hash",
              "type": "string"
            },
            {
              "internalType": "string",
              "name": "issued_on",
              "type": "string"
            },
            {
              "internalType": "string",
              "name": "last_updated",
              "type": "string"
            },
            {
              "internalType": "address",
              "name": "admin",
              "type": "address"
            },
            {
              "internalType": "address",
              "name": "user",
              "type": "address"
            },
            {
              "internalType": "enum DeDocs.DEPARTMENT",
              "name": "department",
              "type": "uint8"
            }
          ],
          "indexed": false,
          "internalType": "struct DeDocs.Document",
          "name": "document",
          "type": "tuple"
        },
        {
          "indexed": false,
          "internalType": "string",
          "name": "message",
          "type": "string"
        },
        {
          "indexed": false,
          "internalType": "string",
          "name": "timestamp",
          "type": "string"
        }
      ],
      "name": "Document_modified",
      "type": "event"
    },
    {
      "anonymous": false,
      "inputs": [
        {
          "indexed": false,
          "internalType": "address",
          "name": "user",
          "type": "address"
        },
        {
          "indexed": false,
          "internalType": "uint256",
          "name": "request_id",
          "type": "uint256"
        },
        {
          "indexed": false,
          "internalType": "enum DeDocs.DEPARTMENT",
          "name": "department",
          "type": "uint8"
        }
      ],
      "name": "Request_made",
      "type": "event"
    },
    {
      "inputs": [
        {
          "internalType": "address",
          "name": "",
          "type": "address"
        }
      ],
      "name": "admins",
      "outputs": [
        {
          "internalType": "address",
          "name": "id",
          "type": "address"
        },
        {
          "internalType": "string",
          "name": "name",
          "type": "string"
        },
        {
          "internalType": "enum DeDocs.DEPARTMENT",
          "name": "department",
          "type": "uint8"
        }
      ],
      "stateMutability": "view",
      "type": "function",
      "constant": true
    },
    {
      "inputs": [
        {
          "internalType": "uint256",
          "name": "",
          "type": "uint256"
        }
      ],
      "name": "all_documents",
      "outputs": [
        {
          "internalType": "uint256",
          "name": "id",
          "type": "uint256"
        },
        {
          "internalType": "uint256",
          "name": "request_id",
          "type": "uint256"
        },
        {
          "internalType": "string",
          "name": "name",
          "type": "string"
        },
        {
          "internalType": "string",
          "name": "uid",
          "type": "string"
        },
        {
          "internalType": "string",
          "name": "ipfs_hash",
          "type": "string"
        },
        {
          "internalType": "string",
          "name": "issued_on",
          "type": "string"
        },
        {
          "internalType": "string",
          "name": "last_updated",
          "type": "string"
        },
        {
          "internalType": "address",
          "name": "admin",
          "type": "address"
        },
        {
          "internalType": "address",
          "name": "user",
          "type": "address"
        },
        {
          "internalType": "enum DeDocs.DEPARTMENT",
          "name": "department",
          "type": "uint8"
        }
      ],
      "stateMutability": "view",
      "type": "function",
      "constant": true
    },
    {
      "inputs": [
        {
          "internalType": "uint256",
          "name": "",
          "type": "uint256"
        }
      ],
      "name": "all_requests",
      "outputs": [
        {
          "internalType": "uint256",
          "name": "id",
          "type": "uint256"
        },
        {
          "internalType": "address",
          "name": "user_id",
          "type": "address"
        },
        {
          "internalType": "string",
          "name": "subject",
          "type": "string"
        },
        {
          "internalType": "string",
          "name": "description",
          "type": "string"
        },
        {
          "internalType": "string",
          "name": "ipfs_hash",
          "type": "string"
        },
        {
          "internalType": "string",
          "name": "date",
          "type": "string"
        },
        {
          "internalType": "enum DeDocs.DEPARTMENT",
          "name": "department",
          "type": "uint8"
        },
        {
          "internalType": "enum DeDocs.REQUEST_CATEGORY",
          "name": "category",
          "type": "uint8"
        },
        {
          "internalType": "enum DeDocs.REQUEST_STATUS",
          "name": "status",
          "type": "uint8"
        },
        {
          "internalType": "uint256",
          "name": "document_id",
          "type": "uint256"
        },
        {
          "internalType": "string",
          "name": "remarks",
          "type": "string"
        }
      ],
      "stateMutability": "view",
      "type": "function",
      "constant": true
    },
    {
      "inputs": [
        {
          "internalType": "address",
          "name": "",
          "type": "address"
        },
        {
          "internalType": "uint256",
          "name": "",
          "type": "uint256"
        }
      ],
      "name": "documents",
      "outputs": [
        {
          "internalType": "uint256",
          "name": "",
          "type": "uint256"
        }
      ],
      "stateMutability": "view",
      "type": "function",
      "constant": true
    },
    {
      "inputs": [
        {
          "internalType": "address",
          "name": "",
          "type": "address"
        },
        {
          "internalType": "uint256",
          "name": "",
          "type": "uint256"
        }
      ],
      "name": "requests",
      "outputs": [
        {
          "internalType": "uint256",
          "name": "",
          "type": "uint256"
        }
      ],
      "stateMutability": "view",
      "type": "function",
      "constant": true
    },
    {
      "inputs": [],
      "name": "total_requests",
      "outputs": [
        {
          "internalType": "uint256",
          "name": "",
          "type": "uint256"
        }
      ],
      "stateMutability": "view",
      "type": "function",
      "constant": true
    },
    {
      "inputs": [],
      "name": "total_users",
      "outputs": [
        {
          "internalType": "uint256",
          "name": "",
          "type": "uint256"
        }
      ],
      "stateMutability": "view",
      "type": "function",
      "constant": true
    },
    {
      "inputs": [
        {
          "internalType": "address",
          "name": "",
          "type": "address"
        }
      ],
      "name": "users",
      "outputs": [
        {
          "internalType": "address",
          "name": "id",
          "type": "address"
        },
        {
          "internalType": "string",
          "name": "name",
          "type": "string"
        },
        {
          "internalType": "string",
          "name": "dob",
          "type": "string"
        },
        {
          "internalType": "string",
          "name": "password",
          "type": "string"
        },
        {
          "internalType": "string",
          "name": "joined",
          "type": "string"
        },
        {
          "internalType": "uint256",
          "name": "total_requests",
          "type": "uint256"
        }
      ],
      "stateMutability": "view",
      "type": "function",
      "constant": true
    },
    {
      "inputs": [
        {
          "internalType": "string",
          "name": "_name",
          "type": "string"
        },
        {
          "internalType": "string",
          "name": "_dob",
          "type": "string"
        },
        {
          "internalType": "string",
          "name": "_password",
          "type": "string"
        },
        {
          "internalType": "string",
          "name": "_joined",
          "type": "string"
        }
      ],
      "name": "register_user",
      "outputs": [
        {
          "components": [
            {
              "internalType": "address",
              "name": "id",
              "type": "address"
            },
            {
              "internalType": "string",
              "name": "name",
              "type": "string"
            },
            {
              "internalType": "string",
              "name": "dob",
              "type": "string"
            },
            {
              "internalType": "string",
              "name": "password",
              "type": "string"
            },
            {
              "internalType": "string",
              "name": "joined",
              "type": "string"
            },
            {
              "internalType": "uint256",
              "name": "total_requests",
              "type": "uint256"
            }
          ],
          "internalType": "struct DeDocs.User",
          "name": "",
          "type": "tuple"
        }
      ],
      "stateMutability": "payable",
      "type": "function",
      "payable": true
    },
    {
      "inputs": [
        {
          "internalType": "string",
          "name": "_name",
          "type": "string"
        },
        {
          "internalType": "enum DeDocs.DEPARTMENT",
          "name": "_department",
          "type": "uint8"
        }
      ],
      "name": "register_admin",
      "outputs": [
        {
          "components": [
            {
              "internalType": "address",
              "name": "id",
              "type": "address"
            },
            {
              "internalType": "string",
              "name": "name",
              "type": "string"
            },
            {
              "internalType": "enum DeDocs.DEPARTMENT",
              "name": "department",
              "type": "uint8"
            }
          ],
          "internalType": "struct DeDocs.Admin",
          "name": "",
          "type": "tuple"
        }
      ],
      "stateMutability": "payable",
      "type": "function",
      "payable": true
    },
    {
      "inputs": [],
      "name": "get_departments",
      "outputs": [
        {
          "internalType": "string[4]",
          "name": "departments",
          "type": "string[4]"
        }
      ],
      "stateMutability": "pure",
      "type": "function",
      "constant": true
    },
    {
      "inputs": [
        {
          "internalType": "address",
          "name": "_address",
          "type": "address"
        }
      ],
      "name": "get_role",
      "outputs": [
        {
          "internalType": "enum DeDocs.ROLE",
          "name": "role",
          "type": "uint8"
        }
      ],
      "stateMutability": "view",
      "type": "function",
      "constant": true
    },
    {
      "inputs": [],
      "name": "get_all_requests",
      "outputs": [
        {
          "components": [
            {
              "internalType": "uint256",
              "name": "id",
              "type": "uint256"
            },
            {
              "internalType": "address",
              "name": "user_id",
              "type": "address"
            },
            {
              "internalType": "string",
              "name": "subject",
              "type": "string"
            },
            {
              "internalType": "string",
              "name": "description",
              "type": "string"
            },
            {
              "internalType": "string",
              "name": "ipfs_hash",
              "type": "string"
            },
            {
              "internalType": "string",
              "name": "date",
              "type": "string"
            },
            {
              "internalType": "enum DeDocs.DEPARTMENT",
              "name": "department",
              "type": "uint8"
            },
            {
              "internalType": "enum DeDocs.REQUEST_CATEGORY",
              "name": "category",
              "type": "uint8"
            },
            {
              "internalType": "enum DeDocs.REQUEST_STATUS",
              "name": "status",
              "type": "uint8"
            },
            {
              "internalType": "uint256",
              "name": "document_id",
              "type": "uint256"
            },
            {
              "internalType": "string",
              "name": "remarks",
              "type": "string"
            }
          ],
          "internalType": "struct DeDocs.Request[]",
          "name": "",
          "type": "tuple[]"
        }
      ],
      "stateMutability": "view",
      "type": "function",
      "constant": true
    },
    {
      "inputs": [],
      "name": "get_all_documents",
      "outputs": [
        {
          "components": [
            {
              "internalType": "uint256",
              "name": "id",
              "type": "uint256"
            },
            {
              "internalType": "uint256",
              "name": "request_id",
              "type": "uint256"
            },
            {
              "internalType": "string",
              "name": "name",
              "type": "string"
            },
            {
              "internalType": "string",
              "name": "uid",
              "type": "string"
            },
            {
              "internalType": "string",
              "name": "ipfs_hash",
              "type": "string"
            },
            {
              "internalType": "string",
              "name": "issued_on",
              "type": "string"
            },
            {
              "internalType": "string",
              "name": "last_updated",
              "type": "string"
            },
            {
              "internalType": "address",
              "name": "admin",
              "type": "address"
            },
            {
              "internalType": "address",
              "name": "user",
              "type": "address"
            },
            {
              "internalType": "enum DeDocs.DEPARTMENT",
              "name": "department",
              "type": "uint8"
            }
          ],
          "internalType": "struct DeDocs.Document[]",
          "name": "",
          "type": "tuple[]"
        }
      ],
      "stateMutability": "view",
      "type": "function",
      "constant": true
    },
    {
      "inputs": [
        {
          "internalType": "address",
          "name": "_address",
          "type": "address"
        }
      ],
      "name": "get_user_details",
      "outputs": [
        {
          "components": [
            {
              "internalType": "address",
              "name": "id",
              "type": "address"
            },
            {
              "internalType": "string",
              "name": "name",
              "type": "string"
            },
            {
              "internalType": "string",
              "name": "dob",
              "type": "string"
            },
            {
              "internalType": "string",
              "name": "password",
              "type": "string"
            },
            {
              "internalType": "string",
              "name": "joined",
              "type": "string"
            },
            {
              "internalType": "uint256",
              "name": "total_requests",
              "type": "uint256"
            }
          ],
          "internalType": "struct DeDocs.User",
          "name": "user",
          "type": "tuple"
        }
      ],
      "stateMutability": "view",
      "type": "function",
      "constant": true
    },
    {
      "inputs": [],
      "name": "get_user_requests",
      "outputs": [
        {
          "internalType": "uint256[]",
          "name": "_requests",
          "type": "uint256[]"
        }
      ],
      "stateMutability": "view",
      "type": "function",
      "constant": true
    },
    {
      "inputs": [],
      "name": "get_user_documents",
      "outputs": [
        {
          "internalType": "uint256[]",
          "name": "_documents",
          "type": "uint256[]"
        }
      ],
      "stateMutability": "view",
      "type": "function",
      "constant": true
    },
    {
      "inputs": [
        {
          "internalType": "enum DeDocs.DEPARTMENT",
          "name": "_department",
          "type": "uint8"
        },
        {
          "internalType": "string",
          "name": "_subject",
          "type": "string"
        },
        {
          "internalType": "string",
          "name": "_description",
          "type": "string"
        },
        {
          "internalType": "string",
          "name": "_ipfs_hash",
          "type": "string"
        },
        {
          "internalType": "enum DeDocs.REQUEST_CATEGORY",
          "name": "_request_category",
          "type": "uint8"
        },
        {
          "internalType": "string",
          "name": "_date",
          "type": "string"
        },
        {
          "internalType": "uint256",
          "name": "_document_id",
          "type": "uint256"
        }
      ],
      "name": "make_request",
      "outputs": [
        {
          "components": [
            {
              "internalType": "uint256",
              "name": "id",
              "type": "uint256"
            },
            {
              "internalType": "address",
              "name": "user_id",
              "type": "address"
            },
            {
              "internalType": "string",
              "name": "subject",
              "type": "string"
            },
            {
              "internalType": "string",
              "name": "description",
              "type": "string"
            },
            {
              "internalType": "string",
              "name": "ipfs_hash",
              "type": "string"
            },
            {
              "internalType": "string",
              "name": "date",
              "type": "string"
            },
            {
              "internalType": "enum DeDocs.DEPARTMENT",
              "name": "department",
              "type": "uint8"
            },
            {
              "internalType": "enum DeDocs.REQUEST_CATEGORY",
              "name": "category",
              "type": "uint8"
            },
            {
              "internalType": "enum DeDocs.REQUEST_STATUS",
              "name": "status",
              "type": "uint8"
            },
            {
              "internalType": "uint256",
              "name": "document_id",
              "type": "uint256"
            },
            {
              "internalType": "string",
              "name": "remarks",
              "type": "string"
            }
          ],
          "internalType": "struct DeDocs.Request",
          "name": "",
          "type": "tuple"
        }
      ],
      "stateMutability": "payable",
      "type": "function",
      "payable": true
    },
    {
      "inputs": [],
      "name": "get_admin_details",
      "outputs": [
        {
          "components": [
            {
              "internalType": "address",
              "name": "id",
              "type": "address"
            },
            {
              "internalType": "string",
              "name": "name",
              "type": "string"
            },
            {
              "internalType": "enum DeDocs.DEPARTMENT",
              "name": "department",
              "type": "uint8"
            }
          ],
          "internalType": "struct DeDocs.Admin",
          "name": "admin",
          "type": "tuple"
        }
      ],
      "stateMutability": "view",
      "type": "function",
      "constant": true
    },
    {
      "inputs": [
        {
          "internalType": "uint256",
          "name": "_document_id",
          "type": "uint256"
        }
      ],
      "name": "get_document",
      "outputs": [
        {
          "components": [
            {
              "internalType": "uint256",
              "name": "id",
              "type": "uint256"
            },
            {
              "internalType": "uint256",
              "name": "request_id",
              "type": "uint256"
            },
            {
              "internalType": "string",
              "name": "name",
              "type": "string"
            },
            {
              "internalType": "string",
              "name": "uid",
              "type": "string"
            },
            {
              "internalType": "string",
              "name": "ipfs_hash",
              "type": "string"
            },
            {
              "internalType": "string",
              "name": "issued_on",
              "type": "string"
            },
            {
              "internalType": "string",
              "name": "last_updated",
              "type": "string"
            },
            {
              "internalType": "address",
              "name": "admin",
              "type": "address"
            },
            {
              "internalType": "address",
              "name": "user",
              "type": "address"
            },
            {
              "internalType": "enum DeDocs.DEPARTMENT",
              "name": "department",
              "type": "uint8"
            }
          ],
          "internalType": "struct DeDocs.Document",
          "name": "",
          "type": "tuple"
        }
      ],
      "stateMutability": "view",
      "type": "function",
      "constant": true
    },
    {
      "inputs": [
        {
          "internalType": "uint256",
          "name": "_request_id",
          "type": "uint256"
        },
        {
          "internalType": "string",
          "name": "_remarks",
          "type": "string"
        }
      ],
      "name": "reject_request",
      "outputs": [],
      "stateMutability": "payable",
      "type": "function",
      "payable": true
    },
    {
      "inputs": [
        {
          "internalType": "uint256",
          "name": "_request_id",
          "type": "uint256"
        }
      ],
      "name": "approve_request",
      "outputs": [],
      "stateMutability": "payable",
      "type": "function",
      "payable": true
    },
    {
      "inputs": [
        {
          "internalType": "uint256",
          "name": "_request_id",
          "type": "uint256"
        },
        {
          "internalType": "address",
          "name": "_userAddress",
          "type": "address"
        },
        {
          "internalType": "string",
          "name": "_name",
          "type": "string"
        },
        {
          "internalType": "string",
          "name": "_uid",
          "type": "string"
        },
        {
          "internalType": "string",
          "name": "_ipfs_hash",
          "type": "string"
        },
        {
          "internalType": "string",
          "name": "_issued_on",
          "type": "string"
        }
      ],
      "name": "issue_document",
      "outputs": [
        {
          "components": [
            {
              "internalType": "uint256",
              "name": "id",
              "type": "uint256"
            },
            {
              "internalType": "uint256",
              "name": "request_id",
              "type": "uint256"
            },
            {
              "internalType": "string",
              "name": "name",
              "type": "string"
            },
            {
              "internalType": "string",
              "name": "uid",
              "type": "string"
            },
            {
              "internalType": "string",
              "name": "ipfs_hash",
              "type": "string"
            },
            {
              "internalType": "string",
              "name": "issued_on",
              "type": "string"
            },
            {
              "internalType": "string",
              "name": "last_updated",
              "type": "string"
            },
            {
              "internalType": "address",
              "name": "admin",
              "type": "address"
            },
            {
              "internalType": "address",
              "name": "user",
              "type": "address"
            },
            {
              "internalType": "enum DeDocs.DEPARTMENT",
              "name": "department",
              "type": "uint8"
            }
          ],
          "internalType": "struct DeDocs.Document",
          "name": "",
          "type": "tuple"
        }
      ],
      "stateMutability": "payable",
      "type": "function",
      "payable": true
    },
    {
      "inputs": [
        {
          "internalType": "uint256",
          "name": "_document_id",
          "type": "uint256"
        },
        {
          "internalType": "string",
          "name": "_new_hash",
          "type": "string"
        },
        {
          "internalType": "string",
          "name": "_last_updated",
          "type": "string"
        },
        {
          "internalType": "string",
          "name": "_message",
          "type": "string"
        }
      ],
      "name": "modify_document",
      "outputs": [
        {
          "components": [
            {
              "internalType": "uint256",
              "name": "id",
              "type": "uint256"
            },
            {
              "internalType": "uint256",
              "name": "request_id",
              "type": "uint256"
            },
            {
              "internalType": "string",
              "name": "name",
              "type": "string"
            },
            {
              "internalType": "string",
              "name": "uid",
              "type": "string"
            },
            {
              "internalType": "string",
              "name": "ipfs_hash",
              "type": "string"
            },
            {
              "internalType": "string",
              "name": "issued_on",
              "type": "string"
            },
            {
              "internalType": "string",
              "name": "last_updated",
              "type": "string"
            },
            {
              "internalType": "address",
              "name": "admin",
              "type": "address"
            },
            {
              "internalType": "address",
              "name": "user",
              "type": "address"
            },
            {
              "internalType": "enum DeDocs.DEPARTMENT",
              "name": "department",
              "type": "uint8"
            }
          ],
          "internalType": "struct DeDocs.Document",
          "name": "",
          "type": "tuple"
        }
      ],
      "stateMutability": "payable",
      "type": "function",
      "payable": true
    }
  ],
  "bytecode": "0x608060405260008055600060015534801561001957600080fd5b507f9ab3570e7e18bfba94b9c1020a507301d734b0c1bd22301391288a326884adc1604051610079906020808252601e908201527f436f6e7472616374206465706c6f796564207375636365737366756c6c790000604082015260600190565b60405180910390a1614dff80620000916000396000f3fe60806040526004361061011e5760e060020a60003504630776a4f381146101235780630c99d1301461014c57806316dd9b591461016157806318db724f1461018157806326611b5a146101b857806338925c7d146101dc57806339c22db8146101fc578063429b62e5146102295780636339884414610258578063726f091e146102785780637673ac951461029a578063789469bd146102d05780639ecebe2a146102f0578063a6d6e94914610310578063a87430ba14610332578063bb5bfd6614610364578063bf5ba0fb14610386578063c5dbb79e146103a8578063ca76115c146103bb578063cf562022146103d0578063d2965f04146103e3578063e7cc62bd14610403578063f66c99dc14610419578063f7a37b5214610439575b600080fd5b6101366101313660046140f6565b61044e565b60405161014391906141fc565b60405180910390f35b61015f61015a36600461429a565b61058c565b005b61017461016f3660046142cf565b610b30565b604051610143919061449c565b34801561018d57600080fd5b506101a161019c36600461429a565b611429565b6040516101439b9a999897969594939291906144d2565b3480156101c457600080fd5b506101ce60005481565b604051908152602001610143565b3480156101e857600080fd5b506101746101f736600461429a565b61174e565b34801561020857600080fd5b5061021c610217366004614593565b611bbd565b60405161014391906145ae565b34801561023557600080fd5b50610249610244366004614593565b611c17565b604051610143939291906145c1565b34801561026457600080fd5b506101ce6102733660046145f4565b611ccf565b34801561028457600080fd5b5061028d611d00565b604051610143919061461e565b3480156102a657600080fd5b506102ba6102b536600461429a565b611dd6565b6040516101439a9998979695949392919061466b565b6102e36102de366004614723565b6120f5565b6040516101439190614770565b3480156102fc57600080fd5b506101ce61030b3660046145f4565b6121ee565b34801561031c57600080fd5b5061032561220a565b60405161014391906147ba565b34801561033e57600080fd5b5061035261034d366004614593565b6125af565b6040516101439695949392919061481b565b34801561037057600080fd5b5061037961280e565b6040516101439190614979565b34801561039257600080fd5b5061039b612c0e565b60405161014391906149cd565b6101746103b6366004614a11565b612c70565b3480156103c757600080fd5b5061039b6131e8565b61015f6103de366004614a45565b613248565b3480156103ef57600080fd5b506101366103fe366004614593565b6137f7565b34801561040f57600080fd5b506101ce60015481565b61042c610427366004614a9a565b613a8e565b6040516101439190614b71565b34801561044557600080fd5b506102e3613d32565b610456613e33565b33600090815260046020526040902054600160a060020a0316156104985760405160e560020a62461bcd02815260040161048f90614b84565b60405180910390fd5b6104a0613e33565b33808252602080830188815260408085018990526060850188905260808501879052600060a086018190529384526004835290922083518154600160a060020a031916600160a060020a0390911617815591518051849392610509926001850192910190613e72565b5060408201518051610525916002840191602090910190613e72565b5060608201518051610541916003840191602090910190613e72565b506080820151805161055d916004840191602090910190613e72565b5060a091909101516005909101556001805490600061057b83614be3565b90915550909150505b949350505050565b33600090815260056020526040902054600160a060020a03166105c45760405160e560020a62461bcd02815260040161048f90614bfe565b6000600282815481106105d9576105d9614c44565b906000526020600020906009020160405180610160016040529081600082015481526020016001820160009054906101000a9004600160a060020a0316600160a060020a0316600160a060020a0316815260200160028201805461063c90614c5e565b80601f016020809104026020016040519081016040528092919081815260200182805461066890614c5e565b80156106b55780601f1061068a576101008083540402835291602001916106b5565b820191906000526020600020905b81548152906001019060200180831161069857829003601f168201915b505050505081526020016003820180546106ce90614c5e565b80601f01602080910402602001604051908101604052809291908181526020018280546106fa90614c5e565b80156107475780601f1061071c57610100808354040283529160200191610747565b820191906000526020600020905b81548152906001019060200180831161072a57829003601f168201915b5050505050815260200160048201805461076090614c5e565b80601f016020809104026020016040519081016040528092919081815260200182805461078c90614c5e565b80156107d95780601f106107ae576101008083540402835291602001916107d9565b820191906000526020600020905b8154815290600101906020018083116107bc57829003601f168201915b505050505081526020016005820180546107f290614c5e565b80601f016020809104026020016040519081016040528092919081815260200182805461081e90614c5e565b801561086b5780601f106108405761010080835404028352916020019161086b565b820191906000526020600020905b81548152906001019060200180831161084e57829003601f168201915b5050509183525050600682015460209091019060ff16600381111561089257610892614394565b60038111156108a3576108a3614394565b81526020016006820160019054906101000a900460ff1660028111156108cb576108cb614394565b60028111156108dc576108dc614394565b81526020016006820160029054906101000a900460ff16600281111561090457610904614394565b600281111561091557610915614394565b81526020016007820154815260200160088201805461093390614c5e565b80601f016020809104026020016040519081016040528092919081815260200182805461095f90614c5e565b80156109ac5780601f10610981576101008083540402835291602001916109ac565b820191906000526020600020905b81548152906001019060200180831161098f57829003601f168201915b505050919092525050600161010083015250600280549192508291849081106109d7576109d7614c44565b600091825260209182902083516009929092020190815582820151600182018054600160a060020a031916600160a060020a03909216919091179055604083015180519192610a2e92600285019290910190613e72565b5060608201518051610a4a916003840191602090910190613e72565b5060808201518051610a66916004840191602090910190613e72565b5060a08201518051610a82916005840191602090910190613e72565b5060c082015160068201805460ff19166001836003811115610aa657610aa6614394565b021790555060e082015160068201805461ff001916610100836002811115610ad057610ad0614394565b021790555061010082015160068201805462ff0000191662010000836002811115610afd57610afd614394565b021790555061012082015160078201556101408201518051610b29916008840191602090910190613e72565b5050505050565b610b38613ef6565b33600090815260056020526040902054600160a060020a0316610b705760405160e560020a62461bcd02815260040161048f90614bfe565b600160a060020a0386811660009081526004602052604090205416610bd65760405160e560020a62461bcd0281526020600482015260166024820152605260020a75155cd95c881a5cc81b9bdd081c9959da5cdd195c995902604482015260640161048f565b600060028881548110610beb57610beb614c44565b906000526020600020906009020160405180610160016040529081600082015481526020016001820160009054906101000a9004600160a060020a0316600160a060020a0316600160a060020a03168152602001600282018054610c4e90614c5e565b80601f0160208091040260200160405190810160405280929190818152602001828054610c7a90614c5e565b8015610cc75780601f10610c9c57610100808354040283529160200191610cc7565b820191906000526020600020905b815481529060010190602001808311610caa57829003601f168201915b50505050508152602001600382018054610ce090614c5e565b80601f0160208091040260200160405190810160405280929190818152602001828054610d0c90614c5e565b8015610d595780601f10610d2e57610100808354040283529160200191610d59565b820191906000526020600020905b815481529060010190602001808311610d3c57829003601f168201915b50505050508152602001600482018054610d7290614c5e565b80601f0160208091040260200160405190810160405280929190818152602001828054610d9e90614c5e565b8015610deb5780601f10610dc057610100808354040283529160200191610deb565b820191906000526020600020905b815481529060010190602001808311610dce57829003601f168201915b50505050508152602001600582018054610e0490614c5e565b80601f0160208091040260200160405190810160405280929190818152602001828054610e3090614c5e565b8015610e7d5780601f10610e5257610100808354040283529160200191610e7d565b820191906000526020600020905b815481529060010190602001808311610e6057829003601f168201915b5050509183525050600682015460209091019060ff166003811115610ea457610ea4614394565b6003811115610eb557610eb5614394565b81526020016006820160019054906101000a900460ff166002811115610edd57610edd614394565b6002811115610eee57610eee614394565b81526020016006820160029054906101000a900460ff166002811115610f1657610f16614394565b6002811115610f2757610f27614394565b815260200160078201548152602001600882018054610f4590614c5e565b80601f0160208091040260200160405190810160405280929190818152602001828054610f7190614c5e565b8015610fbe5780601f10610f9357610100808354040283529160200191610fbe565b820191906000526020600020905b815481529060010190602001808311610fa157829003601f168201915b505050505081525050905080610120015160001461103e5760405160e560020a62461bcd02815260206004820152603160248201527f446f63756d656e742068617320616c7265616479206265656e206973737565646044820152607a60020a7008199bdc881d1a1a5cc81c995c5d595cdd02606482015260840161048f565b611046613ef6565b600354611054906001614c9d565b815260408101879052606081018690526080810185905260a08101849052600160a060020a0388166101008201523360e082015260c082015161012082019060038111156110a4576110a4614394565b908160038111156110b7576110b7614394565b90525060038054600181018255600091909152815160099091027fc2575a0e9e593c00f959f8c92f12db2869c3395a3b0502d05e2516446f71f85b81019182556020808401517fc2575a0e9e593c00f959f8c92f12db2869c3395a3b0502d05e2516446f71f85c8301556040840151805185949361115b937fc2575a0e9e593c00f959f8c92f12db2869c3395a3b0502d05e2516446f71f85d909101920190613e72565b5060608201518051611177916003840191602090910190613e72565b5060808201518051611193916004840191602090910190613e72565b5060a082015180516111af916005840191602090910190613e72565b5060c082015180516111cb916006840191602090910190613e72565b5060e0820151600782018054600160a060020a0319908116600160a060020a03938416179091556101008401516008840180549283169190931690811783556101208501519291600160a860020a0319161760a060020a83600381111561123457611234614394565b02179055505050600160a060020a038816600090815260076020908152604082208351815460018101835591845291909220909101558051610120830152600280548391908b90811061128957611289614c44565b600091825260209182902083516009929092020190815582820151600182018054600160a060020a031916600160a060020a039092169190911790556040830151805191926112e092600285019290910190613e72565b50606082015180516112fc916003840191602090910190613e72565b5060808201518051611318916004840191602090910190613e72565b5060a08201518051611334916005840191602090910190613e72565b5060c082015160068201805460ff1916600183600381111561135857611358614394565b021790555060e082015160068201805461ff00191661010083600281111561138257611382614394565b021790555061010082015160068201805462ff00001916620100008360028111156113af576113af614394565b0217905550610120820151600782015561014082015180516113db916008840191602090910190613e72565b505081516040517f17996aa8290ab524448faa4d34e5699cdbfce21451bd43063fd8106c2d6604f89250611415918b913391908990614cb5565b60405180910390a198975050505050505050565b6002818154811061143957600080fd5b6000918252602090912060099091020180546001820154600283018054929450600160a060020a03909116929161146f90614c5e565b80601f016020809104026020016040519081016040528092919081815260200182805461149b90614c5e565b80156114e85780601f106114bd576101008083540402835291602001916114e8565b820191906000526020600020905b8154815290600101906020018083116114cb57829003601f168201915b5050505050908060030180546114fd90614c5e565b80601f016020809104026020016040519081016040528092919081815260200182805461152990614c5e565b80156115765780601f1061154b57610100808354040283529160200191611576565b820191906000526020600020905b81548152906001019060200180831161155957829003601f168201915b50505050509080600401805461158b90614c5e565b80601f01602080910402602001604051908101604052809291908181526020018280546115b790614c5e565b80156116045780601f106115d957610100808354040283529160200191611604565b820191906000526020600020905b8154815290600101906020018083116115e757829003601f168201915b50505050509080600501805461161990614c5e565b80601f016020809104026020016040519081016040528092919081815260200182805461164590614c5e565b80156116925780601f1061166757610100808354040283529160200191611692565b820191906000526020600020905b81548152906001019060200180831161167557829003601f168201915b50505060068401546007850154600886018054959660ff808516976101008604821697506201000090950416945091926116cb90614c5e565b80601f01602080910402602001604051908101604052809291908181526020018280546116f790614c5e565b80156117445780601f1061171957610100808354040283529160200191611744565b820191906000526020600020905b81548152906001019060200180831161172757829003601f168201915b505050505090508b565b611756613ef6565b600354829081111561177d5760405160e560020a62461bcd02815260040161048f90614ce8565b336000908152600560205260409020548390600160a060020a03161515806117dc575033600160a060020a0316600382815481106117bd576117bd614c44565b6000918252602090912060086009909202010154600160a060020a0316145b6118415760405160e560020a62461bcd02815260206004820152602a60248201527f596f7520617265206e6f7420616c6c6f77656420746f20706572666f726d2074604482015260b160020a693434b99030b1ba34b7b702606482015260840161048f565b60006003858154811061185657611856614c44565b906000526020600020906009020160405180610140016040529081600082015481526020016001820154815260200160028201805461189490614c5e565b80601f01602080910402602001604051908101604052809291908181526020018280546118c090614c5e565b801561190d5780601f106118e25761010080835404028352916020019161190d565b820191906000526020600020905b8154815290600101906020018083116118f057829003601f168201915b5050505050815260200160038201805461192690614c5e565b80601f016020809104026020016040519081016040528092919081815260200182805461195290614c5e565b801561199f5780601f106119745761010080835404028352916020019161199f565b820191906000526020600020905b81548152906001019060200180831161198257829003601f168201915b505050505081526020016004820180546119b890614c5e565b80601f01602080910402602001604051908101604052809291908181526020018280546119e490614c5e565b8015611a315780601f10611a0657610100808354040283529160200191611a31565b820191906000526020600020905b815481529060010190602001808311611a1457829003601f168201915b50505050508152602001600582018054611a4a90614c5e565b80601f0160208091040260200160405190810160405280929190818152602001828054611a7690614c5e565b8015611ac35780601f10611a9857610100808354040283529160200191611ac3565b820191906000526020600020905b815481529060010190602001808311611aa657829003601f168201915b50505050508152602001600682018054611adc90614c5e565b80601f0160208091040260200160405190810160405280929190818152602001828054611b0890614c5e565b8015611b555780601f10611b2a57610100808354040283529160200191611b55565b820191906000526020600020905b815481529060010190602001808311611b3857829003601f168201915b50505091835250506007820154600160a060020a0390811660208301526008830154908116604083015260609091019060a060020a900460ff166003811115611ba057611ba0614394565b6003811115611bb157611bb1614394565b90525095945050505050565b600160a060020a0381811660009081526004602052604081205490911615611be757506002919050565b600160a060020a038281166000908152600560205260409020541615611c0f57506001919050565b506000919050565b60056020526000908152604090208054600182018054600160a060020a039092169291611c4390614c5e565b80601f0160208091040260200160405190810160405280929190818152602001828054611c6f90614c5e565b8015611cbc5780601f10611c9157610100808354040283529160200191611cbc565b820191906000526020600020905b815481529060010190602001808311611c9f57829003601f168201915b5050506002909301549192505060ff1683565b60076020528160005260406000208181548110611ceb57600080fd5b90600052602060002001600091509150505481565b611d08613f6b565b60006040518060800160405280604051806060016040528060288152602001614da26028913981526020016040518060400160405280600a815260200160b360020a690929c869e9a8a40a882b028152508152602001604051806040016040528060158152602001605960020a7426aaa724a1a4a820a61021a7a92827a920aa24a7a70281525081526020016040518060400160405280601a81526020017f5354415445205452414e53504f5254442045504152544d454e5400000000000081525081525090508091505090565b60038181548110611de657600080fd5b9060005260206000209060090201600091509050806000015490806001015490806002018054611e1590614c5e565b80601f0160208091040260200160405190810160405280929190818152602001828054611e4190614c5e565b8015611e8e5780601f10611e6357610100808354040283529160200191611e8e565b820191906000526020600020905b815481529060010190602001808311611e7157829003601f168201915b505050505090806003018054611ea390614c5e565b80601f0160208091040260200160405190810160405280929190818152602001828054611ecf90614c5e565b8015611f1c5780601f10611ef157610100808354040283529160200191611f1c565b820191906000526020600020905b815481529060010190602001808311611eff57829003601f168201915b505050505090806004018054611f3190614c5e565b80601f0160208091040260200160405190810160405280929190818152602001828054611f5d90614c5e565b8015611faa5780601f10611f7f57610100808354040283529160200191611faa565b820191906000526020600020905b815481529060010190602001808311611f8d57829003601f168201915b505050505090806005018054611fbf90614c5e565b80601f0160208091040260200160405190810160405280929190818152602001828054611feb90614c5e565b80156120385780601f1061200d57610100808354040283529160200191612038565b820191906000526020600020905b81548152906001019060200180831161201b57829003601f168201915b50505050509080600601805461204d90614c5e565b80601f016020809104026020016040519081016040528092919081815260200182805461207990614c5e565b80156120c65780601f1061209b576101008083540402835291602001916120c6565b820191906000526020600020905b8154815290600101906020018083116120a957829003601f168201915b5050505060078301546008909301549192600160a060020a0390811692908116915060a060020a900460ff168a565b6120fd613f92565b33600090815260056020526040902054600160a060020a0316156121365760405160e560020a62461bcd02815260040161048f90614b84565b61213e613f92565b338152602081018490526040810183600381111561215e5761215e614394565b9081600381111561217157612171614394565b90525033600090815260056020908152604090912082518154600160a060020a031916600160a060020a0390911617815582820151805184936121bb926001850192910190613e72565b50604082015160028201805460ff191660018360038111156121df576121df614394565b02179055509195945050505050565b60066020528160005260406000208181548110611ceb57600080fd5b60606003805480602002602001604051908101604052809291908181526020016000905b828210156125a6578382906000526020600020906009020160405180610140016040529081600082015481526020016001820154815260200160028201805461227690614c5e565b80601f01602080910402602001604051908101604052809291908181526020018280546122a290614c5e565b80156122ef5780601f106122c4576101008083540402835291602001916122ef565b820191906000526020600020905b8154815290600101906020018083116122d257829003601f168201915b5050505050815260200160038201805461230890614c5e565b80601f016020809104026020016040519081016040528092919081815260200182805461233490614c5e565b80156123815780601f1061235657610100808354040283529160200191612381565b820191906000526020600020905b81548152906001019060200180831161236457829003601f168201915b5050505050815260200160048201805461239a90614c5e565b80601f01602080910402602001604051908101604052809291908181526020018280546123c690614c5e565b80156124135780601f106123e857610100808354040283529160200191612413565b820191906000526020600020905b8154815290600101906020018083116123f657829003601f168201915b5050505050815260200160058201805461242c90614c5e565b80601f016020809104026020016040519081016040528092919081815260200182805461245890614c5e565b80156124a55780601f1061247a576101008083540402835291602001916124a5565b820191906000526020600020905b81548152906001019060200180831161248857829003601f168201915b505050505081526020016006820180546124be90614c5e565b80601f01602080910402602001604051908101604052809291908181526020018280546124ea90614c5e565b80156125375780601f1061250c57610100808354040283529160200191612537565b820191906000526020600020905b81548152906001019060200180831161251a57829003601f168201915b50505091835250506007820154600160a060020a0390811660208301526008830154908116604083015260609091019060a060020a900460ff16600381111561258257612582614394565b600381111561259357612593614394565b815250508152602001906001019061222e565b50505050905090565b60046020526000908152604090208054600182018054600160a060020a0390921692916125db90614c5e565b80601f016020809104026020016040519081016040528092919081815260200182805461260790614c5e565b80156126545780601f1061262957610100808354040283529160200191612654565b820191906000526020600020905b81548152906001019060200180831161263757829003601f168201915b50505050509080600201805461266990614c5e565b80601f016020809104026020016040519081016040528092919081815260200182805461269590614c5e565b80156126e25780601f106126b7576101008083540402835291602001916126e2565b820191906000526020600020905b8154815290600101906020018083116126c557829003601f168201915b5050505050908060030180546126f790614c5e565b80601f016020809104026020016040519081016040528092919081815260200182805461272390614c5e565b80156127705780601f1061274557610100808354040283529160200191612770565b820191906000526020600020905b81548152906001019060200180831161275357829003601f168201915b50505050509080600401805461278590614c5e565b80601f01602080910402602001604051908101604052809291908181526020018280546127b190614c5e565b80156127fe5780601f106127d3576101008083540402835291602001916127fe565b820191906000526020600020905b8154815290600101906020018083116127e157829003601f168201915b5050505050908060050154905086565b60606002805480602002602001604051908101604052809291908181526020016000905b828210156125a6576000848152602090819020604080516101608101825260098602909201805483526001810154600160a060020a0316938301939093526002830180549293929184019161288690614c5e565b80601f01602080910402602001604051908101604052809291908181526020018280546128b290614c5e565b80156128ff5780601f106128d4576101008083540402835291602001916128ff565b820191906000526020600020905b8154815290600101906020018083116128e257829003601f168201915b5050505050815260200160038201805461291890614c5e565b80601f016020809104026020016040519081016040528092919081815260200182805461294490614c5e565b80156129915780601f1061296657610100808354040283529160200191612991565b820191906000526020600020905b81548152906001019060200180831161297457829003601f168201915b505050505081526020016004820180546129aa90614c5e565b80601f01602080910402602001604051908101604052809291908181526020018280546129d690614c5e565b8015612a235780601f106129f857610100808354040283529160200191612a23565b820191906000526020600020905b815481529060010190602001808311612a0657829003601f168201915b50505050508152602001600582018054612a3c90614c5e565b80601f0160208091040260200160405190810160405280929190818152602001828054612a6890614c5e565b8015612ab55780601f10612a8a57610100808354040283529160200191612ab5565b820191906000526020600020905b815481529060010190602001808311612a9857829003601f168201915b5050509183525050600682015460209091019060ff166003811115612adc57612adc614394565b6003811115612aed57612aed614394565b81526020016006820160019054906101000a900460ff166002811115612b1557612b15614394565b6002811115612b2657612b26614394565b81526020016006820160029054906101000a900460ff166002811115612b4e57612b4e614394565b6002811115612b5f57612b5f614394565b815260200160078201548152602001600882018054612b7d90614c5e565b80601f0160208091040260200160405190810160405280929190818152602001828054612ba990614c5e565b8015612bf65780601f10612bcb57610100808354040283529160200191612bf6565b820191906000526020600020905b815481529060010190602001808311612bd957829003601f168201915b50505050508152505081526020019060010190612832565b336000908152600760209081526040808320805482518185028101850190935280835260609493830182828015612c6457602002820191906000526020600020905b815481526020019060010190808311612c50575b50939695505050505050565b612c78613ef6565b6003548590811115612c9f5760405160e560020a62461bcd02815260040161048f90614ce8565b33600090815260056020526040902054600160a060020a0316612cd75760405160e560020a62461bcd02815260040161048f90614bfe565b60006003612ce6600189614d1c565b81548110612cf657612cf6614c44565b9060005260206000209060090201604051806101400160405290816000820154815260200160018201548152602001600282018054612d3490614c5e565b80601f0160208091040260200160405190810160405280929190818152602001828054612d6090614c5e565b8015612dad5780601f10612d8257610100808354040283529160200191612dad565b820191906000526020600020905b815481529060010190602001808311612d9057829003601f168201915b50505050508152602001600382018054612dc690614c5e565b80601f0160208091040260200160405190810160405280929190818152602001828054612df290614c5e565b8015612e3f5780601f10612e1457610100808354040283529160200191612e3f565b820191906000526020600020905b815481529060010190602001808311612e2257829003601f168201915b50505050508152602001600482018054612e5890614c5e565b80601f0160208091040260200160405190810160405280929190818152602001828054612e8490614c5e565b8015612ed15780601f10612ea657610100808354040283529160200191612ed1565b820191906000526020600020905b815481529060010190602001808311612eb457829003601f168201915b50505050508152602001600582018054612eea90614c5e565b80601f0160208091040260200160405190810160405280929190818152602001828054612f1690614c5e565b8015612f635780601f10612f3857610100808354040283529160200191612f63565b820191906000526020600020905b815481529060010190602001808311612f4657829003601f168201915b50505050508152602001600682018054612f7c90614c5e565b80601f0160208091040260200160405190810160405280929190818152602001828054612fa890614c5e565b8015612ff55780601f10612fca57610100808354040283529160200191612ff5565b820191906000526020600020905b815481529060010190602001808311612fd857829003601f168201915b50505091835250506007820154600160a060020a0390811660208301526008830154908116604083015260609091019060a060020a900460ff16600381111561304057613040614394565b600381111561305157613051614394565b90525060c0810186905260808101879052905080600361307260018a614d1c565b8154811061308257613082614c44565b9060005260206000209060090201600082015181600001556020820151816001015560408201518160020190805190602001906130c0929190613e72565b50606082015180516130dc916003840191602090910190613e72565b50608082015180516130f8916004840191602090910190613e72565b5060a08201518051613114916005840191602090910190613e72565b5060c08201518051613130916006840191602090910190613e72565b5060e0820151600782018054600160a060020a0319908116600160a060020a03938416179091556101008401516008840180549283169190931690811783556101208501519291600160a860020a0319161760a060020a83600381111561319957613199614394565b02179055509050507fc4f15c88bda961a26d5674062e979fe4f589189d2977fa373051e3860cee0daa878286886040516131d69493929190614d33565b60405180910390a19695505050505050565b336000908152600660209081526040808320805482518185028101850190935280835260609493830182828015612c645760200282019190600052602060002090815481526020019060010190808311612c505750939695505050505050565b33600090815260056020526040902054600160a060020a03166132805760405160e560020a62461bcd02815260040161048f90614bfe565b60006002838154811061329557613295614c44565b906000526020600020906009020160405180610160016040529081600082015481526020016001820160009054906101000a9004600160a060020a0316600160a060020a0316600160a060020a031681526020016002820180546132f890614c5e565b80601f016020809104026020016040519081016040528092919081815260200182805461332490614c5e565b80156133715780601f1061334657610100808354040283529160200191613371565b820191906000526020600020905b81548152906001019060200180831161335457829003601f168201915b5050505050815260200160038201805461338a90614c5e565b80601f01602080910402602001604051908101604052809291908181526020018280546133b690614c5e565b80156134035780601f106133d857610100808354040283529160200191613403565b820191906000526020600020905b8154815290600101906020018083116133e657829003601f168201915b5050505050815260200160048201805461341c90614c5e565b80601f016020809104026020016040519081016040528092919081815260200182805461344890614c5e565b80156134955780601f1061346a57610100808354040283529160200191613495565b820191906000526020600020905b81548152906001019060200180831161347857829003601f168201915b505050505081526020016005820180546134ae90614c5e565b80601f01602080910402602001604051908101604052809291908181526020018280546134da90614c5e565b80156135275780601f106134fc57610100808354040283529160200191613527565b820191906000526020600020905b81548152906001019060200180831161350a57829003601f168201915b5050509183525050600682015460209091019060ff16600381111561354e5761354e614394565b600381111561355f5761355f614394565b81526020016006820160019054906101000a900460ff16600281111561358757613587614394565b600281111561359857613598614394565b81526020016006820160029054906101000a900460ff1660028111156135c0576135c0614394565b60028111156135d1576135d1614394565b8152602001600782015481526020016008820180546135ef90614c5e565b80601f016020809104026020016040519081016040528092919081815260200182805461361b90614c5e565b80156136685780601f1061363d57610100808354040283529160200191613668565b820191906000526020600020905b81548152906001019060200180831161364b57829003601f168201915b505050919092525050600261010083018190526101408301859052805492935083929091508590811061369d5761369d614c44565b600091825260209182902083516009929092020190815582820151600182018054600160a060020a031916600160a060020a039092169190911790556040830151805191926136f492600285019290910190613e72565b5060608201518051613710916003840191602090910190613e72565b506080820151805161372c916004840191602090910190613e72565b5060a08201518051613748916005840191602090910190613e72565b5060c082015160068201805460ff1916600183600381111561376c5761376c614394565b021790555060e082015160068201805461ff00191661010083600281111561379657613796614394565b021790555061010082015160068201805462ff00001916620100008360028111156137c3576137c3614394565b0217905550610120820151600782015561014082015180516137ef916008840191602090910190613e72565b505050505050565b6137ff613e33565b600160a060020a038083166000908152600460209081526040808320815160c081019092528054909416815260018401805493949193919284019161384390614c5e565b80601f016020809104026020016040519081016040528092919081815260200182805461386f90614c5e565b80156138bc5780601f10613891576101008083540402835291602001916138bc565b820191906000526020600020905b81548152906001019060200180831161389f57829003601f168201915b505050505081526020016002820180546138d590614c5e565b80601f016020809104026020016040519081016040528092919081815260200182805461390190614c5e565b801561394e5780601f106139235761010080835404028352916020019161394e565b820191906000526020600020905b81548152906001019060200180831161393157829003601f168201915b5050505050815260200160038201805461396790614c5e565b80601f016020809104026020016040519081016040528092919081815260200182805461399390614c5e565b80156139e05780601f106139b5576101008083540402835291602001916139e0565b820191906000526020600020905b8154815290600101906020018083116139c357829003601f168201915b505050505081526020016004820180546139f990614c5e565b80601f0160208091040260200160405190810160405280929190818152602001828054613a2590614c5e565b8015613a725780601f10613a4757610100808354040283529160200191613a72565b820191906000526020600020905b815481529060010190602001808311613a5557829003601f168201915b5050509183525050600591909101546020909101529392505050565b613a96613fc7565b613a9e613fc7565b600054815233602082015260408101889052606081018790526080810186905260a0810184905260c08101896003811115613adb57613adb614394565b90816003811115613aee57613aee614394565b90525060e08101856002811115613b0757613b07614394565b90816002811115613b1a57613b1a614394565b90525060006101008201819052610120820184905260028054600181018255915281517f405787fa12a823e0f2b7631cc41b3ba8828b3321ca811111fa75cd3aa3bb5ace60099092029182019081556020808401517f405787fa12a823e0f2b7631cc41b3ba8828b3321ca811111fa75cd3aa3bb5acf84018054600160a060020a031916600160a060020a03909216919091179055604084015180518594613be8937f405787fa12a823e0f2b7631cc41b3ba8828b3321ca811111fa75cd3aa3bb5ad0909101920190613e72565b5060608201518051613c04916003840191602090910190613e72565b5060808201518051613c20916004840191602090910190613e72565b5060a08201518051613c3c916005840191602090910190613e72565b5060c082015160068201805460ff19166001836003811115613c6057613c60614394565b021790555060e082015160068201805461ff001916610100836002811115613c8a57613c8a614394565b021790555061010082015160068201805462ff0000191662010000836002811115613cb757613cb7614394565b021790555061012082015160078201556101408201518051613ce3916008840191602090910190613e72565b5050506001600080828254613cf89190614c9d565b909155505080516040517fb0d5a35d53d1b590b4e2ab0193806445dd4ad70aab99e4a02454aaf4ae4939b691611415913391908d90614d7d565b613d3a613f92565b3360009081526005602090815260408083208151606081019092528054600160a060020a031682526001810180549293919291840191613d7990614c5e565b80601f0160208091040260200160405190810160405280929190818152602001828054613da590614c5e565b8015613df25780601f10613dc757610100808354040283529160200191613df2565b820191906000526020600020905b815481529060010190602001808311613dd557829003601f168201915b5050509183525050600282015460209091019060ff166003811115613e1957613e19614394565b6003811115613e2a57613e2a614394565b90525092915050565b6040518060c001604052806000600160a060020a0316815260200160608152602001606081526020016060815260200160608152602001600081525090565b828054613e7e90614c5e565b90600052602060002090601f016020900481019282613ea05760008555613ee6565b82601f10613eb957805160ff1916838001178555613ee6565b82800160010185558215613ee6579182015b82811115613ee6578251825591602001919060010190613ecb565b50613ef292915061403b565b5090565b604051806101400160405280600081526020016000815260200160608152602001606081526020016060815260200160608152602001606081526020016000600160a060020a031681526020016000600160a060020a0316815260200160006003811115613f6657613f66614394565b905290565b60405180608001604052806004905b6060815260200190600190039081613f7a5790505090565b60405180606001604052806000600160a060020a031681526020016060815260200160006003811115613f6657613f66614394565b604051806101600160405280600081526020016000600160a060020a03168152602001606081526020016060815260200160608152602001606081526020016000600381111561401957614019614394565b8152602001600081526020016000815260200160008152602001606081525090565b5b80821115613ef2576000815560010161403c565b60e060020a634e487b710260009081526041600452602490fd5b600082601f83011261407b57600080fd5b81356001604060020a038082111561409557614095614050565b604051601f8301601f19908116603f011681019082821181831017156140bd576140bd614050565b816040528381528660208588010111156140d657600080fd5b836020870160208301376000602085830101528094505050505092915050565b6000806000806080858703121561410c57600080fd5b84356001604060020a038082111561412357600080fd5b61412f8883890161406a565b9550602087013591508082111561414557600080fd5b6141518883890161406a565b9450604087013591508082111561416757600080fd5b6141738883890161406a565b9350606087013591508082111561418957600080fd5b506141968782880161406a565b91505092959194509250565b600160a060020a03169052565b6000815180845260005b818110156141d5576020818501810151868301820152016141b9565b818111156141e7576000602083870101525b50601f01601f19169290920160200192915050565b60208082528251600160a060020a03168282015282015160c0604083015260009061422a60e08401826141af565b90506040840151601f198085840301606086015261424883836141af565b9250606086015191508085840301608086015261426583836141af565b925060808601519150808584030160a08601525061428382826141af565b91505060a084015160c08401528091505092915050565b6000602082840312156142ac57600080fd5b5035919050565b8035600160a060020a03811681146142ca57600080fd5b919050565b60008060008060008060c087890312156142e857600080fd5b863595506142f8602088016142b3565b945060408701356001604060020a038082111561431457600080fd5b6143208a838b0161406a565b9550606089013591508082111561433657600080fd5b6143428a838b0161406a565b9450608089013591508082111561435857600080fd5b6143648a838b0161406a565b935060a089013591508082111561437a57600080fd5b5061438789828a0161406a565b9150509295509295509295565b60e060020a634e487b710260009081526021600452602490fd5b600481106143be576143be614394565b9052565b6000610140825184526020830151602085015260408301518160408601526143ec828601826141af565b9150506060830151848203606086015261440682826141af565b9150506080830151848203608086015261442082826141af565b91505060a083015184820360a086015261443a82826141af565b91505060c083015184820360c086015261445482826141af565b91505060e083015161446960e08601826141a2565b506101008084015161447d828701826141a2565b505061012080840151614492828701826143ae565b5090949350505050565b6020815260006144af60208301846143c2565b9392505050565b600381106144c6576144c6614394565b50565b6143be816144b6565b8b8152600160a060020a038b166020820152610160604082018190526000906144fd8382018d6141af565b90508281036060840152614511818c6141af565b90508281036080840152614525818b6141af565b905082810360a0840152614539818a6141af565b905061454860c08401896143ae565b614551876144b6565b8660e0840152614560866144b6565b856101008401528461012084015282810361014084015261458181856141af565b9e9d5050505050505050505050505050565b6000602082840312156145a557600080fd5b6144af826142b3565b602081016145bb836144b6565b91905290565b600160a060020a03841681526060602082018190526000906145e5908301856141af565b905061058460408301846143ae565b6000806040838503121561460757600080fd5b614610836142b3565b946020939093013593505050565b602080825260009060a0830183820185845b600481101561465f57601f1987850301835261464d8483516141af565b93509184019190840190600101614630565b50919695505050505050565b60006101408c83528b602084015280604084015261468b8184018c6141af565b9050828103606084015261469f818b6141af565b905082810360808401526146b3818a6141af565b905082810360a08401526146c781896141af565b905082810360c08401526146db81886141af565b600160a060020a0387811660e08601528616610100850152915061470590506101208301846143ae565b9b9a5050505050505050505050565b8035600481106142ca57600080fd5b6000806040838503121561473657600080fd5b82356001604060020a0381111561474c57600080fd5b6147588582860161406a565b92505061476760208401614714565b90509250929050565b60208082528251600160a060020a0316828201528201516060604083015260009061479e60808401826141af565b905060408401516147b260608501826143ae565b509392505050565b600060208083018184528085518083526040860191506040848202870101925083870160005b8281101561480e57603f198886030184526147fc8583516143c2565b945092850192908501906001016147e0565b5092979650505050505050565b600160a060020a038716815260c06020820181905260009061483f908301886141af565b828103604084015261485181886141af565b9050828103606084015261486581876141af565b9050828103608084015261487981866141af565b9150508260a0830152979650505050505050565b60006101608251845260208301516148a860208601826141a2565b5060408301518160408601526148c0828601826141af565b915050606083015184820360608601526148da82826141af565b915050608083015184820360808601526148f482826141af565b91505060a083015184820360a086015261490e82826141af565b91505060c083015161492360c08601826143ae565b5060e083015161493660e08601826144c9565b506101008084015161494a828701826144c9565b50506101208381015190850152610140808401518583038287015261496f83826141af565b9695505050505050565b600060208083018184528085518083526040860191506040848202870101925083870160005b8281101561480e57603f198886030184526149bb85835161488d565b9450928501929085019060010161499f565b6020808252825182820181905260009190848201906040850190845b81811015614a05578351835292840192918401916001016149e9565b50909695505050505050565b60008060008060808587031215614a2757600080fd5b8435935060208501356001604060020a038082111561414557600080fd5b60008060408385031215614a5857600080fd5b8235915060208301356001604060020a03811115614a7557600080fd5b614a818582860161406a565b9150509250929050565b8035600381106142ca57600080fd5b600080600080600080600060e0888a031215614ab557600080fd5b614abe88614714565b965060208801356001604060020a0380821115614ada57600080fd5b614ae68b838c0161406a565b975060408a0135915080821115614afc57600080fd5b614b088b838c0161406a565b965060608a0135915080821115614b1e57600080fd5b614b2a8b838c0161406a565b9550614b3860808b01614a8b565b945060a08a0135915080821115614b4e57600080fd5b50614b5b8a828b0161406a565b92505060c0880135905092959891949750929550565b6020815260006144af602083018461488d565b60208082526022908201527f54686973206164647265737320697320616c7265616479207265676973746572604082015260f260020a61195902606082015260800190565b60e060020a634e487b710260009081526011600452602490fd5b6000600019821415614bf757614bf7614bc9565b5060010190565b60208082526023908201527f4f6e6c792061646d696e732063616e20706572666f726d207468697320616374604082015260e960020a6234b7b702606082015260800190565b60e060020a634e487b710260009081526032600452602490fd5b600281046001821680614c7257607f821691505b60208210811415614c975760e060020a634e487b710260009081526022600452602490fd5b50919050565b60008219821115614cb057614cb0614bc9565b500190565b600160a060020a038581168252841660208201526040810183905260806060820181905260009061496f908301846141af565b6020808252601790820152604a60020a76111bd8dd5b595b9d08191bd95cc81b9bdd08195e1a5cdd02604082015260600190565b600082821015614d2e57614d2e614bc9565b500390565b848152608060208201526000614d4c60808301866143c2565b8281036040840152614d5e81866141af565b90508281036060840152614d7281856141af565b979650505050505050565b600160a060020a0384168152602081018390526060810161058460408301846143ae56fe554e49515545204944454e54494649434154494f4e20415554484f52495459204f4620494e444941a2646970667358221220411e610763b64550e50f70c869e79a67e7f7395972246fd8cc517e90f86798d064736f6c634300080b0033",
  "immutableReferences": {},
  "source": "// SPDX-License-Identifier: MIT\r\npragma solidity >=0.4.22 <0.9.0;\r\n\r\ncontract DeDocs {\r\n\r\n  enum ROLE{\r\n    NOT_REGISTERED,\r\n    ADMIN,\r\n    USER\r\n  }\r\n\r\n  enum DEPARTMENT{\r\n    UNIQUE_IDENTIFICATION_AUTHORITY_OF_INDIA,\r\n    INCOME_TAX,\r\n    MUNICIPAL_CORPORATION,\r\n    STATE_TRANSPORT_DEPARTMENT\r\n  }\r\n\r\n  enum REQUEST_CATEGORY{\r\n    ISSUE,\r\n    UPDATE,\r\n    RECTIFY\r\n  }\r\n\r\n  enum REQUEST_STATUS{\r\n    PENDING,\r\n    SUCCESS,\r\n    REJECTED\r\n  }\r\n\r\n  struct Admin{\r\n    address id;\r\n    string name;\r\n    DEPARTMENT department;\r\n  }\r\n  \r\n  struct User{\r\n    address id;\r\n    string name;\r\n    string dob;\r\n    string password;    \r\n    string joined;\r\n    uint total_requests;\r\n  }\r\n\r\n  struct Request{\r\n    uint id;\r\n    address user_id;\r\n    string subject;\r\n    string description;\r\n    string ipfs_hash;\r\n    string date;\r\n    DEPARTMENT department;\r\n    REQUEST_CATEGORY category;\r\n    REQUEST_STATUS status;\r\n    uint document_id;\r\n    string remarks;\r\n  }\r\n\r\n  struct Document{\r\n    uint id;\r\n    uint request_id;\r\n    string name;\r\n    string uid;\r\n    string ipfs_hash;\r\n    string issued_on;\r\n    string last_updated;\r\n    address admin;\r\n    address user;\r\n    DEPARTMENT department;\r\n  }\r\n\r\n  event DeDocs_deployed(string message);\r\n  event Request_made(address user, uint request_id, DEPARTMENT department);\r\n  event Document_issued(address user, address admin, uint document_id, string timestamp);\r\n  event Document_modified(uint document_id, Document document, string message, string timestamp);\r\n\r\n  uint public total_requests = 0;\r\n  uint public total_users = 0;\r\n\r\n  Request[] public all_requests;\r\n\r\n  Document[] public all_documents; //array to store all the documents of the system\r\n  mapping(address => User) public users; // mapping of user address to user data \r\n  mapping(address => Admin) public admins; //mapping of admin address to admin data\r\n  mapping(address => uint256[]) public requests; //mapping of the user addess to all the requests made by that address\r\n  mapping(address => uint256[]) public documents; // mapping of the user address to their documents\r\n  \r\n\r\n  modifier is_admin(){\r\n    require(admins[msg.sender].id != address(0x0),\"Only admins can perform this action\");\r\n    _;\r\n  }\r\n\r\n  modifier is_existent(uint _document_id){\r\n    require(_document_id <= all_documents.length, \"Document does not exist\");\r\n    _;\r\n  }\r\n\r\n  modifier is_allowed(uint _document_id){\r\n    require(admins[msg.sender].id != address(0x0) || all_documents[_document_id].user == msg.sender, \"You are not allowed to perform this action\");\r\n    _;\r\n  }\r\n\r\n  constructor()  {\r\n      emit DeDocs_deployed(\"Contract deployed successfully\");\r\n  }\r\n\r\n  function register_user(string memory _name, string memory _dob, string memory _password, string memory _joined) payable public returns (User memory){\r\n\r\n    require(users[msg.sender].id == address(0x0),\"This address is already registered\");\r\n\r\n    User memory _user;\r\n    _user.id = msg.sender;\r\n    _user.name = _name;\r\n    _user.dob = _dob;\r\n    _user.password = _password;\r\n    _user.joined = _joined;\r\n    _user.total_requests = 0;\r\n\r\n    users[msg.sender] = _user;\r\n\r\n    total_users++;\r\n    \r\n    return _user;\r\n  }\r\n\r\n  function register_admin(string memory _name, DEPARTMENT _department) payable public returns (Admin memory){\r\n\r\n    require(admins[msg.sender].id == address(0x0),\"This address is already registered\");\r\n\r\n    Admin memory _admin;\r\n    _admin.id = msg.sender;\r\n    _admin.name = _name;\r\n    _admin.department = _department;\r\n\r\n    admins[msg.sender] = _admin;\r\n\r\n    return _admin;\r\n  }\r\n\r\n  function get_departments() public pure returns(string[4] memory departments){\r\n    string[4] memory _departments = [\"UNIQUE IDENTIFICATION AUTHORITY OF INDIA\",\"INCOME TAX\",\"MUNICIPAL CORPORATION\",\"STATE TRANSPORTD EPARTMENT\"];\r\n    return _departments;\r\n  }\r\n\r\n  function get_role(address _address) public view returns(ROLE role){\r\n\r\n    if(users[_address].id != address(0x0)) return ROLE.USER;\r\n    if(admins[_address].id != address(0x0)) return ROLE.ADMIN;\r\n\r\n    return ROLE.NOT_REGISTERED;\r\n\r\n  }\r\n\r\n  function get_all_requests() public view returns(Request[] memory){\r\n    return all_requests;\r\n  }\r\n\r\n  function get_all_documents() public view returns(Document[] memory){\r\n    return all_documents;\r\n  }\r\n\r\n  /***********************************  USER FUNCTIONS  *********************************/\r\n\r\n  function get_user_details(address _address) public view returns(User memory user){\r\n    User memory _user = users[_address];\r\n    return _user;\r\n  }\r\n\r\n  function get_user_requests() public view returns(uint256[] memory _requests){\r\n\r\n    uint256[] memory _my_requests = requests[msg.sender];\r\n    return _my_requests;\r\n    \r\n  }\r\n\r\n  function get_user_documents() public view returns(uint256[] memory _documents){\r\n\r\n    uint256[] memory _my_documents = documents[msg.sender];\r\n    return _my_documents;\r\n    \r\n  }\r\n\r\n  function make_request(DEPARTMENT _department,  string memory _subject, string memory _description, string memory _ipfs_hash, REQUEST_CATEGORY _request_category, string memory _date, uint _document_id) public payable returns(Request memory){\r\n\r\n    Request memory request;\r\n\r\n    request.id = total_requests;\r\n    request.user_id = msg.sender;\r\n    request.subject = _subject;\r\n    request.description = _description;\r\n    request.ipfs_hash = _ipfs_hash;\r\n    request.date = _date;\r\n    request.department = _department;\r\n    request.category = _request_category;\r\n    request.status = REQUEST_STATUS.PENDING;\r\n    request.document_id = _document_id;\r\n\r\n    all_requests.push(request);\r\n    total_requests += 1;\r\n\r\n    emit Request_made(msg.sender, request.id, _department);\r\n\r\n    return request;\r\n  }\r\n\r\n\r\n  /********************************ADMIN FUNCTIONS********************************/\r\n\r\n  function get_admin_details() public view returns(Admin memory admin){\r\n    Admin memory _admin = admins[msg.sender];\r\n    return _admin;\r\n  }\r\n\r\n  function get_document (uint _document_id) is_existent(_document_id) is_allowed(_document_id) public view returns (Document memory){\r\n    Document memory _document = all_documents[_document_id];\r\n    return _document;\r\n  }\r\n\r\n  function reject_request(uint _request_id, string memory _remarks) is_admin public payable{\r\n    Request memory _request = all_requests[_request_id];\r\n    _request.status = REQUEST_STATUS.REJECTED;\r\n    _request.remarks = _remarks;\r\n    all_requests[_request_id] = _request;\r\n  }\r\n\r\n  function approve_request(uint _request_id) is_admin public payable{\r\n    Request memory _request = all_requests[_request_id];\r\n    _request.status = REQUEST_STATUS.SUCCESS;\r\n    all_requests[_request_id] = _request;\r\n  }\r\n\r\n  function issue_document(uint _request_id, address _userAddress, string memory _name, string memory _uid, string memory _ipfs_hash, string memory _issued_on) is_admin public payable returns(Document memory){\r\n    \r\n    //check if user is registered\r\n    require(users[_userAddress].id != address(0x0),\"User is not registered\");\r\n\r\n    //check if no document is already issued for this request\r\n    Request memory _request = all_requests[_request_id];\r\n    require(_request.document_id == 0,\"Document has already been issued for this request\");\r\n\r\n    //create a new document instance\r\n    Document memory _document;\r\n    _document.id = all_documents.length + 1;\r\n    _document.name = _name;\r\n    _document.uid = _uid;\r\n    _document.ipfs_hash = _ipfs_hash;\r\n    _document.issued_on = _issued_on;\r\n    _document.user = _userAddress;\r\n    _document.admin = msg.sender;\r\n    _document.department = _request.department;\r\n\r\n    //insert the document to the records\r\n    all_documents.push(_document);\r\n    documents[_userAddress].push(_document.id);\r\n\r\n    //update the request\r\n    _request.document_id = _document.id;\r\n    all_requests[_request_id] = _request;\r\n\r\n    emit Document_issued(_userAddress, msg.sender, _document.id,_issued_on);\r\n\r\n    return _document;\r\n  }\r\n\r\n\r\n  function modify_document(uint _document_id, string memory _new_hash, string memory _last_updated, string memory _message) is_existent(_document_id) is_admin public payable returns(Document memory){\r\n    \r\n    //Get the current version of the document\r\n    Document memory _document = all_documents[_document_id - 1];\r\n\r\n    //update the document\r\n    _document.last_updated = _last_updated;\r\n    _document.ipfs_hash = _new_hash;\r\n    all_documents[_document_id - 1] = _document;\r\n\r\n    emit Document_modified(_document_id, _document, _message,_last_updated);\r\n\r\n    return _document;\r\n  }\r\n\r\n}\r\n",
  "sourcePath": "C:\\Users\\Kailash\\Desktop\\summer project\\backend\\contracts\\DeDocs.sol",
  "compiler": {
    "name": "solc",
    "version": "0.8.11+commit.d7f03943.Emscripten.clang"
  },
  "schemaVersion": "3.4.5",
  "updatedAt": "2022-08-03T13:35:26.638Z",
  "networkType": "ethereum",
  "devdoc": {
    "kind": "dev",
    "methods": {},
    "version": 1
  },
  "userdoc": {
    "kind": "user",
    "methods": {},
    "version": 1
  }
}