{
  "contractName": "DeDocs",
  "abi": [
    {
      "inputs": [],
      "stateMutability": "nonpayable",
      "type": "constructor"
    },
    {
      "anonymous": false,
      "inputs": [
        {
          "indexed": false,
          "internalType": "string",
          "name": "message",
          "type": "string"
        }
      ],
      "name": "DeDocs_deployed",
      "type": "event"
    },
    {
      "anonymous": false,
      "inputs": [
        {
          "indexed": false,
          "internalType": "address",
          "name": "user",
          "type": "address"
        },
        {
          "indexed": false,
          "internalType": "address",
          "name": "admin",
          "type": "address"
        },
        {
          "indexed": false,
          "internalType": "uint256",
          "name": "document_id",
          "type": "uint256"
        }
      ],
      "name": "Document_issued",
      "type": "event"
    },
    {
      "anonymous": false,
      "inputs": [
        {
          "indexed": false,
          "internalType": "uint256",
          "name": "document_id",
          "type": "uint256"
        },
        {
          "components": [
            {
              "internalType": "uint256",
              "name": "id",
              "type": "uint256"
            },
            {
              "internalType": "uint256",
              "name": "request_id",
              "type": "uint256"
            },
            {
              "internalType": "string",
              "name": "name",
              "type": "string"
            },
            {
              "internalType": "string",
              "name": "uid",
              "type": "string"
            },
            {
              "internalType": "string",
              "name": "ipfs_hash",
              "type": "string"
            },
            {
              "internalType": "string",
              "name": "issued_on",
              "type": "string"
            },
            {
              "internalType": "string",
              "name": "last_updated",
              "type": "string"
            },
            {
              "internalType": "address",
              "name": "admin",
              "type": "address"
            },
            {
              "internalType": "address",
              "name": "user",
              "type": "address"
            }
          ],
          "indexed": false,
          "internalType": "struct DeDocs.Document",
          "name": "old_document",
          "type": "tuple"
        },
        {
          "components": [
            {
              "internalType": "uint256",
              "name": "id",
              "type": "uint256"
            },
            {
              "internalType": "uint256",
              "name": "request_id",
              "type": "uint256"
            },
            {
              "internalType": "string",
              "name": "name",
              "type": "string"
            },
            {
              "internalType": "string",
              "name": "uid",
              "type": "string"
            },
            {
              "internalType": "string",
              "name": "ipfs_hash",
              "type": "string"
            },
            {
              "internalType": "string",
              "name": "issued_on",
              "type": "string"
            },
            {
              "internalType": "string",
              "name": "last_updated",
              "type": "string"
            },
            {
              "internalType": "address",
              "name": "admin",
              "type": "address"
            },
            {
              "internalType": "address",
              "name": "user",
              "type": "address"
            }
          ],
          "indexed": false,
          "internalType": "struct DeDocs.Document",
          "name": "new_document",
          "type": "tuple"
        },
        {
          "indexed": false,
          "internalType": "string",
          "name": "message",
          "type": "string"
        }
      ],
      "name": "Document_modified",
      "type": "event"
    },
    {
      "anonymous": false,
      "inputs": [
        {
          "indexed": false,
          "internalType": "address",
          "name": "user",
          "type": "address"
        },
        {
          "indexed": false,
          "internalType": "uint256",
          "name": "request_id",
          "type": "uint256"
        },
        {
          "indexed": false,
          "internalType": "enum DeDocs.DEPARTMENT",
          "name": "department",
          "type": "uint8"
        }
      ],
      "name": "Request_made",
      "type": "event"
    },
    {
      "inputs": [
        {
          "internalType": "address",
          "name": "",
          "type": "address"
        }
      ],
      "name": "admins",
      "outputs": [
        {
          "internalType": "address",
          "name": "id",
          "type": "address"
        },
        {
          "internalType": "string",
          "name": "name",
          "type": "string"
        },
        {
          "internalType": "enum DeDocs.DEPARTMENT",
          "name": "department",
          "type": "uint8"
        }
      ],
      "stateMutability": "view",
      "type": "function",
      "constant": true
    },
    {
      "inputs": [
        {
          "internalType": "uint256",
          "name": "",
          "type": "uint256"
        }
      ],
      "name": "all_documents",
      "outputs": [
        {
          "internalType": "uint256",
          "name": "id",
          "type": "uint256"
        },
        {
          "internalType": "uint256",
          "name": "request_id",
          "type": "uint256"
        },
        {
          "internalType": "string",
          "name": "name",
          "type": "string"
        },
        {
          "internalType": "string",
          "name": "uid",
          "type": "string"
        },
        {
          "internalType": "string",
          "name": "ipfs_hash",
          "type": "string"
        },
        {
          "internalType": "string",
          "name": "issued_on",
          "type": "string"
        },
        {
          "internalType": "string",
          "name": "last_updated",
          "type": "string"
        },
        {
          "internalType": "address",
          "name": "admin",
          "type": "address"
        },
        {
          "internalType": "address",
          "name": "user",
          "type": "address"
        }
      ],
      "stateMutability": "view",
      "type": "function",
      "constant": true
    },
    {
      "inputs": [
        {
          "internalType": "uint256",
          "name": "",
          "type": "uint256"
        }
      ],
      "name": "all_requests",
      "outputs": [
        {
          "internalType": "uint256",
          "name": "id",
          "type": "uint256"
        },
        {
          "internalType": "address",
          "name": "user_id",
          "type": "address"
        },
        {
          "internalType": "string",
          "name": "subject",
          "type": "string"
        },
        {
          "internalType": "string",
          "name": "description",
          "type": "string"
        },
        {
          "internalType": "string",
          "name": "ipfs_hash",
          "type": "string"
        },
        {
          "internalType": "string",
          "name": "date",
          "type": "string"
        },
        {
          "internalType": "enum DeDocs.DEPARTMENT",
          "name": "department",
          "type": "uint8"
        },
        {
          "internalType": "enum DeDocs.REQUEST_CATEGORY",
          "name": "category",
          "type": "uint8"
        },
        {
          "internalType": "enum DeDocs.REQUEST_STATUS",
          "name": "status",
          "type": "uint8"
        },
        {
          "internalType": "uint256",
          "name": "document_id",
          "type": "uint256"
        },
        {
          "internalType": "string",
          "name": "remarks",
          "type": "string"
        }
      ],
      "stateMutability": "view",
      "type": "function",
      "constant": true
    },
    {
      "inputs": [
        {
          "internalType": "address",
          "name": "",
          "type": "address"
        },
        {
          "internalType": "uint256",
          "name": "",
          "type": "uint256"
        }
      ],
      "name": "documents",
      "outputs": [
        {
          "internalType": "uint256",
          "name": "",
          "type": "uint256"
        }
      ],
      "stateMutability": "view",
      "type": "function",
      "constant": true
    },
    {
      "inputs": [
        {
          "internalType": "address",
          "name": "",
          "type": "address"
        },
        {
          "internalType": "uint256",
          "name": "",
          "type": "uint256"
        }
      ],
      "name": "requests",
      "outputs": [
        {
          "internalType": "uint256",
          "name": "",
          "type": "uint256"
        }
      ],
      "stateMutability": "view",
      "type": "function",
      "constant": true
    },
    {
      "inputs": [],
      "name": "total_requests",
      "outputs": [
        {
          "internalType": "uint256",
          "name": "",
          "type": "uint256"
        }
      ],
      "stateMutability": "view",
      "type": "function",
      "constant": true
    },
    {
      "inputs": [
        {
          "internalType": "address",
          "name": "",
          "type": "address"
        }
      ],
      "name": "users",
      "outputs": [
        {
          "internalType": "address",
          "name": "id",
          "type": "address"
        },
        {
          "internalType": "string",
          "name": "name",
          "type": "string"
        },
        {
          "internalType": "string",
          "name": "dob",
          "type": "string"
        },
        {
          "internalType": "string",
          "name": "password",
          "type": "string"
        },
        {
          "internalType": "string",
          "name": "joined",
          "type": "string"
        },
        {
          "internalType": "uint256",
          "name": "total_requests",
          "type": "uint256"
        }
      ],
      "stateMutability": "view",
      "type": "function",
      "constant": true
    },
    {
      "inputs": [
        {
          "internalType": "string",
          "name": "_name",
          "type": "string"
        },
        {
          "internalType": "string",
          "name": "_dob",
          "type": "string"
        },
        {
          "internalType": "string",
          "name": "_password",
          "type": "string"
        },
        {
          "internalType": "string",
          "name": "_joined",
          "type": "string"
        }
      ],
      "name": "register_user",
      "outputs": [
        {
          "components": [
            {
              "internalType": "address",
              "name": "id",
              "type": "address"
            },
            {
              "internalType": "string",
              "name": "name",
              "type": "string"
            },
            {
              "internalType": "string",
              "name": "dob",
              "type": "string"
            },
            {
              "internalType": "string",
              "name": "password",
              "type": "string"
            },
            {
              "internalType": "string",
              "name": "joined",
              "type": "string"
            },
            {
              "internalType": "uint256",
              "name": "total_requests",
              "type": "uint256"
            }
          ],
          "internalType": "struct DeDocs.User",
          "name": "",
          "type": "tuple"
        }
      ],
      "stateMutability": "payable",
      "type": "function",
      "payable": true
    },
    {
      "inputs": [
        {
          "internalType": "string",
          "name": "_name",
          "type": "string"
        },
        {
          "internalType": "enum DeDocs.DEPARTMENT",
          "name": "_department",
          "type": "uint8"
        }
      ],
      "name": "register_admin",
      "outputs": [
        {
          "components": [
            {
              "internalType": "address",
              "name": "id",
              "type": "address"
            },
            {
              "internalType": "string",
              "name": "name",
              "type": "string"
            },
            {
              "internalType": "enum DeDocs.DEPARTMENT",
              "name": "department",
              "type": "uint8"
            }
          ],
          "internalType": "struct DeDocs.Admin",
          "name": "",
          "type": "tuple"
        }
      ],
      "stateMutability": "payable",
      "type": "function",
      "payable": true
    },
    {
      "inputs": [],
      "name": "get_departments",
      "outputs": [
        {
          "internalType": "string[4]",
          "name": "departments",
          "type": "string[4]"
        }
      ],
      "stateMutability": "pure",
      "type": "function",
      "constant": true
    },
    {
      "inputs": [
        {
          "internalType": "address",
          "name": "_address",
          "type": "address"
        }
      ],
      "name": "get_role",
      "outputs": [
        {
          "internalType": "enum DeDocs.ROLE",
          "name": "role",
          "type": "uint8"
        }
      ],
      "stateMutability": "view",
      "type": "function",
      "constant": true
    },
    {
      "inputs": [],
      "name": "get_all_requests",
      "outputs": [
        {
          "components": [
            {
              "internalType": "uint256",
              "name": "id",
              "type": "uint256"
            },
            {
              "internalType": "address",
              "name": "user_id",
              "type": "address"
            },
            {
              "internalType": "string",
              "name": "subject",
              "type": "string"
            },
            {
              "internalType": "string",
              "name": "description",
              "type": "string"
            },
            {
              "internalType": "string",
              "name": "ipfs_hash",
              "type": "string"
            },
            {
              "internalType": "string",
              "name": "date",
              "type": "string"
            },
            {
              "internalType": "enum DeDocs.DEPARTMENT",
              "name": "department",
              "type": "uint8"
            },
            {
              "internalType": "enum DeDocs.REQUEST_CATEGORY",
              "name": "category",
              "type": "uint8"
            },
            {
              "internalType": "enum DeDocs.REQUEST_STATUS",
              "name": "status",
              "type": "uint8"
            },
            {
              "internalType": "uint256",
              "name": "document_id",
              "type": "uint256"
            },
            {
              "internalType": "string",
              "name": "remarks",
              "type": "string"
            }
          ],
          "internalType": "struct DeDocs.Request[]",
          "name": "",
          "type": "tuple[]"
        }
      ],
      "stateMutability": "view",
      "type": "function",
      "constant": true
    },
    {
      "inputs": [
        {
          "internalType": "address",
          "name": "_address",
          "type": "address"
        }
      ],
      "name": "get_user_details",
      "outputs": [
        {
          "components": [
            {
              "internalType": "address",
              "name": "id",
              "type": "address"
            },
            {
              "internalType": "string",
              "name": "name",
              "type": "string"
            },
            {
              "internalType": "string",
              "name": "dob",
              "type": "string"
            },
            {
              "internalType": "string",
              "name": "password",
              "type": "string"
            },
            {
              "internalType": "string",
              "name": "joined",
              "type": "string"
            },
            {
              "internalType": "uint256",
              "name": "total_requests",
              "type": "uint256"
            }
          ],
          "internalType": "struct DeDocs.User",
          "name": "user",
          "type": "tuple"
        }
      ],
      "stateMutability": "view",
      "type": "function",
      "constant": true
    },
    {
      "inputs": [],
      "name": "get_user_requests",
      "outputs": [
        {
          "internalType": "uint256[]",
          "name": "_requests",
          "type": "uint256[]"
        }
      ],
      "stateMutability": "view",
      "type": "function",
      "constant": true
    },
    {
      "inputs": [
        {
          "internalType": "enum DeDocs.DEPARTMENT",
          "name": "_department",
          "type": "uint8"
        },
        {
          "internalType": "string",
          "name": "_subject",
          "type": "string"
        },
        {
          "internalType": "string",
          "name": "_description",
          "type": "string"
        },
        {
          "internalType": "string",
          "name": "_ipfs_hash",
          "type": "string"
        },
        {
          "internalType": "enum DeDocs.REQUEST_CATEGORY",
          "name": "_request_category",
          "type": "uint8"
        },
        {
          "internalType": "string",
          "name": "_date",
          "type": "string"
        }
      ],
      "name": "make_request",
      "outputs": [
        {
          "components": [
            {
              "internalType": "uint256",
              "name": "id",
              "type": "uint256"
            },
            {
              "internalType": "address",
              "name": "user_id",
              "type": "address"
            },
            {
              "internalType": "string",
              "name": "subject",
              "type": "string"
            },
            {
              "internalType": "string",
              "name": "description",
              "type": "string"
            },
            {
              "internalType": "string",
              "name": "ipfs_hash",
              "type": "string"
            },
            {
              "internalType": "string",
              "name": "date",
              "type": "string"
            },
            {
              "internalType": "enum DeDocs.DEPARTMENT",
              "name": "department",
              "type": "uint8"
            },
            {
              "internalType": "enum DeDocs.REQUEST_CATEGORY",
              "name": "category",
              "type": "uint8"
            },
            {
              "internalType": "enum DeDocs.REQUEST_STATUS",
              "name": "status",
              "type": "uint8"
            },
            {
              "internalType": "uint256",
              "name": "document_id",
              "type": "uint256"
            },
            {
              "internalType": "string",
              "name": "remarks",
              "type": "string"
            }
          ],
          "internalType": "struct DeDocs.Request",
          "name": "",
          "type": "tuple"
        }
      ],
      "stateMutability": "payable",
      "type": "function",
      "payable": true
    },
    {
      "inputs": [],
      "name": "get_admin_details",
      "outputs": [
        {
          "components": [
            {
              "internalType": "address",
              "name": "id",
              "type": "address"
            },
            {
              "internalType": "string",
              "name": "name",
              "type": "string"
            },
            {
              "internalType": "enum DeDocs.DEPARTMENT",
              "name": "department",
              "type": "uint8"
            }
          ],
          "internalType": "struct DeDocs.Admin",
          "name": "admin",
          "type": "tuple"
        }
      ],
      "stateMutability": "view",
      "type": "function",
      "constant": true
    },
    {
      "inputs": [
        {
          "internalType": "uint256",
          "name": "_document_id",
          "type": "uint256"
        }
      ],
      "name": "get_document",
      "outputs": [
        {
          "components": [
            {
              "internalType": "uint256",
              "name": "id",
              "type": "uint256"
            },
            {
              "internalType": "uint256",
              "name": "request_id",
              "type": "uint256"
            },
            {
              "internalType": "string",
              "name": "name",
              "type": "string"
            },
            {
              "internalType": "string",
              "name": "uid",
              "type": "string"
            },
            {
              "internalType": "string",
              "name": "ipfs_hash",
              "type": "string"
            },
            {
              "internalType": "string",
              "name": "issued_on",
              "type": "string"
            },
            {
              "internalType": "string",
              "name": "last_updated",
              "type": "string"
            },
            {
              "internalType": "address",
              "name": "admin",
              "type": "address"
            },
            {
              "internalType": "address",
              "name": "user",
              "type": "address"
            }
          ],
          "internalType": "struct DeDocs.Document",
          "name": "",
          "type": "tuple"
        }
      ],
      "stateMutability": "view",
      "type": "function",
      "constant": true
    },
    {
      "inputs": [
        {
          "internalType": "uint256",
          "name": "_request_id",
          "type": "uint256"
        },
        {
          "internalType": "string",
          "name": "_remarks",
          "type": "string"
        }
      ],
      "name": "reject_request",
      "outputs": [],
      "stateMutability": "payable",
      "type": "function",
      "payable": true
    },
    {
      "inputs": [
        {
          "internalType": "uint256",
          "name": "_request_id",
          "type": "uint256"
        }
      ],
      "name": "approve_request",
      "outputs": [],
      "stateMutability": "payable",
      "type": "function",
      "payable": true
    },
    {
      "inputs": [
        {
          "internalType": "uint256",
          "name": "_request_id",
          "type": "uint256"
        },
        {
          "internalType": "address",
          "name": "_userAddress",
          "type": "address"
        },
        {
          "internalType": "string",
          "name": "_name",
          "type": "string"
        },
        {
          "internalType": "string",
          "name": "_uid",
          "type": "string"
        },
        {
          "internalType": "string",
          "name": "_ipfs_hash",
          "type": "string"
        },
        {
          "internalType": "string",
          "name": "_issued_on",
          "type": "string"
        }
      ],
      "name": "issue_document",
      "outputs": [
        {
          "components": [
            {
              "internalType": "uint256",
              "name": "id",
              "type": "uint256"
            },
            {
              "internalType": "uint256",
              "name": "request_id",
              "type": "uint256"
            },
            {
              "internalType": "string",
              "name": "name",
              "type": "string"
            },
            {
              "internalType": "string",
              "name": "uid",
              "type": "string"
            },
            {
              "internalType": "string",
              "name": "ipfs_hash",
              "type": "string"
            },
            {
              "internalType": "string",
              "name": "issued_on",
              "type": "string"
            },
            {
              "internalType": "string",
              "name": "last_updated",
              "type": "string"
            },
            {
              "internalType": "address",
              "name": "admin",
              "type": "address"
            },
            {
              "internalType": "address",
              "name": "user",
              "type": "address"
            }
          ],
          "internalType": "struct DeDocs.Document",
          "name": "",
          "type": "tuple"
        }
      ],
      "stateMutability": "payable",
      "type": "function",
      "payable": true
    },
    {
      "inputs": [
        {
          "internalType": "uint256",
          "name": "_document_id",
          "type": "uint256"
        },
        {
          "components": [
            {
              "internalType": "uint256",
              "name": "id",
              "type": "uint256"
            },
            {
              "internalType": "uint256",
              "name": "request_id",
              "type": "uint256"
            },
            {
              "internalType": "string",
              "name": "name",
              "type": "string"
            },
            {
              "internalType": "string",
              "name": "uid",
              "type": "string"
            },
            {
              "internalType": "string",
              "name": "ipfs_hash",
              "type": "string"
            },
            {
              "internalType": "string",
              "name": "issued_on",
              "type": "string"
            },
            {
              "internalType": "string",
              "name": "last_updated",
              "type": "string"
            },
            {
              "internalType": "address",
              "name": "admin",
              "type": "address"
            },
            {
              "internalType": "address",
              "name": "user",
              "type": "address"
            }
          ],
          "internalType": "struct DeDocs.Document",
          "name": "_new_document",
          "type": "tuple"
        },
        {
          "internalType": "string",
          "name": "_last_updated",
          "type": "string"
        },
        {
          "internalType": "string",
          "name": "_message",
          "type": "string"
        }
      ],
      "name": "modify_document",
      "outputs": [
        {
          "components": [
            {
              "internalType": "uint256",
              "name": "id",
              "type": "uint256"
            },
            {
              "internalType": "uint256",
              "name": "request_id",
              "type": "uint256"
            },
            {
              "internalType": "string",
              "name": "name",
              "type": "string"
            },
            {
              "internalType": "string",
              "name": "uid",
              "type": "string"
            },
            {
              "internalType": "string",
              "name": "ipfs_hash",
              "type": "string"
            },
            {
              "internalType": "string",
              "name": "issued_on",
              "type": "string"
            },
            {
              "internalType": "string",
              "name": "last_updated",
              "type": "string"
            },
            {
              "internalType": "address",
              "name": "admin",
              "type": "address"
            },
            {
              "internalType": "address",
              "name": "user",
              "type": "address"
            }
          ],
          "internalType": "struct DeDocs.Document",
          "name": "",
          "type": "tuple"
        }
      ],
      "stateMutability": "payable",
      "type": "function",
      "payable": true
    }
  ],
  "bytecode": "0x60806040526000805534801561001457600080fd5b507f9ab3570e7e18bfba94b9c1020a507301d734b0c1bd22301391288a326884adc1604051610074906020808252601e908201527f436f6e7472616374206465706c6f796564207375636365737366756c6c790000604082015260600190565b60405180910390a1614886806200008c6000396000f3fe6080604052600436106100fd5760e060020a60003504630776a4f381146101025780630c99d1301461012b57806316dd9b591461014057806318db724f1461016057806326611b5a1461019757806338925c7d146101bb57806339c22db8146101db578063429b62e5146102085780636339884414610237578063726f091e146102575780637673ac9514610279578063789469bd146102ae5780637f4b7e9f146102ce5780639ecebe2a146102e15780639ef6cf5714610301578063a87430ba14610321578063bb5bfd6614610353578063ca76115c14610375578063cf56202214610397578063d2965f04146103aa578063f7a37b52146103ca575b600080fd5b610115610110366004613b84565b6103df565b6040516101229190613c8a565b60405180910390f35b61013e610139366004613d28565b610507565b005b61015361014e366004613d5d565b610aae565b6040516101229190613ee7565b34801561016c57600080fd5b5061018061017b366004613d28565b611347565b6040516101229b9a99989796959493929190613f4b565b3480156101a357600080fd5b506101ad60005481565b604051908152602001610122565b3480156101c757600080fd5b506101536101d6366004613d28565b61166c565b3480156101e757600080fd5b506101fb6101f636600461400c565b611aa7565b6040516101229190614027565b34801561021457600080fd5b5061022861022336600461400c565b611b01565b6040516101229392919061403a565b34801561024357600080fd5b506101ad61025236600461406d565b611bb9565b34801561026357600080fd5b5061026c611bea565b6040516101229190614097565b34801561028557600080fd5b50610299610294366004613d28565b611cc0565b604051610122999897969594939291906140e4565b6102c16102bc36600461418e565b611fd3565b60405161012291906141db565b6101536102dc366004614225565b6120cc565b3480156102ed57600080fd5b506101ad6102fc36600461406d565b6125c6565b61031461030f366004614380565b6125e2565b6040516101229190614508565b34801561032d57600080fd5b5061034161033c36600461400c565b61289b565b6040516101229695949392919061451b565b34801561035f57600080fd5b50610368612afa565b604051610122919061458d565b34801561038157600080fd5b5061038a612f03565b60405161012291906145ee565b61013e6103a5366004614632565b612f65565b3480156103b657600080fd5b506101156103c536600461400c565b613512565b3480156103d657600080fd5b506102c16137a9565b6103e76138aa565b33600090815260036020526040902054600160a060020a0316156104295760405160e560020a62461bcd02815260040161042090614678565b60405180910390fd5b6104316138aa565b33808252602080830188815260408085018990526060850188905260808501879052600060a086018190529384526003835290922083518154600160a060020a031916600160a060020a039091161781559151805184939261049a9260018501929101906138e9565b50604082015180516104b69160028401916020909101906138e9565b50606082015180516104d29160038401916020909101906138e9565b50608082015180516104ee9160048401916020909101906138e9565b5060a0919091015160059091015590505b949350505050565b33600090815260046020526040902054600160a060020a031661053f5760405160e560020a62461bcd028152600401610420906146bd565b60006001828154811061055457610554614703565b906000526020600020906009020160405180610160016040529081600082015481526020016001820160009054906101000a9004600160a060020a0316600160a060020a0316600160a060020a031681526020016002820180546105b79061471d565b80601f01602080910402602001604051908101604052809291908181526020018280546105e39061471d565b80156106305780601f1061060557610100808354040283529160200191610630565b820191906000526020600020905b81548152906001019060200180831161061357829003601f168201915b505050505081526020016003820180546106499061471d565b80601f01602080910402602001604051908101604052809291908181526020018280546106759061471d565b80156106c25780601f10610697576101008083540402835291602001916106c2565b820191906000526020600020905b8154815290600101906020018083116106a557829003601f168201915b505050505081526020016004820180546106db9061471d565b80601f01602080910402602001604051908101604052809291908181526020018280546107079061471d565b80156107545780601f1061072957610100808354040283529160200191610754565b820191906000526020600020905b81548152906001019060200180831161073757829003601f168201915b5050505050815260200160058201805461076d9061471d565b80601f01602080910402602001604051908101604052809291908181526020018280546107999061471d565b80156107e65780601f106107bb576101008083540402835291602001916107e6565b820191906000526020600020905b8154815290600101906020018083116107c957829003601f168201915b5050509183525050600682015460209091019060ff16600381111561080d5761080d613f01565b600381111561081e5761081e613f01565b81526020016006820160019054906101000a900460ff16600281111561084657610846613f01565b600281111561085757610857613f01565b81526020016006820160029054906101000a900460ff16600281111561087f5761087f613f01565b600281111561089057610890613f01565b8152602001600782015481526020016008820180546108ae9061471d565b80601f01602080910402602001604051908101604052809291908181526020018280546108da9061471d565b80156109275780601f106108fc57610100808354040283529160200191610927565b820191906000526020600020905b81548152906001019060200180831161090a57829003601f168201915b5050509190925250919250600191505061010082018181525050806001838154811061095557610955614703565b600091825260209182902083516009929092020190815582820151600182018054600160a060020a031916600160a060020a039092169190911790556040830151805191926109ac926002850192909101906138e9565b50606082015180516109c89160038401916020909101906138e9565b50608082015180516109e49160048401916020909101906138e9565b5060a08201518051610a009160058401916020909101906138e9565b5060c082015160068201805460ff19166001836003811115610a2457610a24613f01565b021790555060e082015160068201805461ff001916610100836002811115610a4e57610a4e613f01565b021790555061010082015160068201805462ff0000191662010000836002811115610a7b57610a7b613f01565b021790555061012082015160078201556101408201518051610aa79160088401916020909101906138e9565b5050505050565b610ab661396d565b33600090815260046020526040902054600160a060020a0316610aee5760405160e560020a62461bcd028152600401610420906146bd565b600160a060020a0386811660009081526003602052604090205416610b545760405160e560020a62461bcd0281526020600482015260166024820152605260020a75155cd95c881a5cc81b9bdd081c9959da5cdd195c9959026044820152606401610420565b600060018881548110610b6957610b69614703565b906000526020600020906009020160405180610160016040529081600082015481526020016001820160009054906101000a9004600160a060020a0316600160a060020a0316600160a060020a03168152602001600282018054610bcc9061471d565b80601f0160208091040260200160405190810160405280929190818152602001828054610bf89061471d565b8015610c455780601f10610c1a57610100808354040283529160200191610c45565b820191906000526020600020905b815481529060010190602001808311610c2857829003601f168201915b50505050508152602001600382018054610c5e9061471d565b80601f0160208091040260200160405190810160405280929190818152602001828054610c8a9061471d565b8015610cd75780601f10610cac57610100808354040283529160200191610cd7565b820191906000526020600020905b815481529060010190602001808311610cba57829003601f168201915b50505050508152602001600482018054610cf09061471d565b80601f0160208091040260200160405190810160405280929190818152602001828054610d1c9061471d565b8015610d695780601f10610d3e57610100808354040283529160200191610d69565b820191906000526020600020905b815481529060010190602001808311610d4c57829003601f168201915b50505050508152602001600582018054610d829061471d565b80601f0160208091040260200160405190810160405280929190818152602001828054610dae9061471d565b8015610dfb5780601f10610dd057610100808354040283529160200191610dfb565b820191906000526020600020905b815481529060010190602001808311610dde57829003601f168201915b5050509183525050600682015460209091019060ff166003811115610e2257610e22613f01565b6003811115610e3357610e33613f01565b81526020016006820160019054906101000a900460ff166002811115610e5b57610e5b613f01565b6002811115610e6c57610e6c613f01565b81526020016006820160029054906101000a900460ff166002811115610e9457610e94613f01565b6002811115610ea557610ea5613f01565b815260200160078201548152602001600882018054610ec39061471d565b80601f0160208091040260200160405190810160405280929190818152602001828054610eef9061471d565b8015610f3c5780601f10610f1157610100808354040283529160200191610f3c565b820191906000526020600020905b815481529060010190602001808311610f1f57829003601f168201915b5050505050815250509050806101200151600014610fbc5760405160e560020a62461bcd02815260206004820152603160248201527f446f63756d656e742068617320616c7265616479206265656e206973737565646044820152607a60020a7008199bdc881d1a1a5cc81c995c5d595cdd026064820152608401610420565b610fc461396d565b600254610fd290600161475c565b815260408101878152606082018790526080820186905260a08201859052600160a060020a0389166101008301523360e083015260028054600181018255600091909152825160099091027f405787fa12a823e0f2b7631cc41b3ba8828b3321ca811111fa75cd3aa3bb5ace81019182556020808501517f405787fa12a823e0f2b7631cc41b3ba8828b3321ca811111fa75cd3aa3bb5acf8301559251805185946110a1937f405787fa12a823e0f2b7631cc41b3ba8828b3321ca811111fa75cd3aa3bb5ad0019201906138e9565b50606082015180516110bd9160038401916020909101906138e9565b50608082015180516110d99160048401916020909101906138e9565b5060a082015180516110f59160058401916020909101906138e9565b5060c082015180516111119160068401916020909101906138e9565b5060e0820151600782018054600160a060020a0319908116600160a060020a039384161790915561010090930151600890920180549093169181169190911790915588166000908152600660209081526040822083518154600181810184559285529290932090910191909155815161012084015280548391908b90811061119b5761119b614703565b600091825260209182902083516009929092020190815582820151600182018054600160a060020a031916600160a060020a039092169190911790556040830151805191926111f2926002850192909101906138e9565b506060820151805161120e9160038401916020909101906138e9565b506080820151805161122a9160048401916020909101906138e9565b5060a082015180516112469160058401916020909101906138e9565b5060c082015160068201805460ff1916600183600381111561126a5761126a613f01565b021790555060e082015160068201805461ff00191661010083600281111561129457611294613f01565b021790555061010082015160068201805462ff00001916620100008360028111156112c1576112c1613f01565b0217905550610120820151600782015561014082015180516112ed9160088401916020909101906138e9565b5050815160408051600160a060020a038c168152336020820152908101919091527e494c81a93fd8df13d923d73c93e872db4f00090d204b824064d00fb4759f51915060600160405180910390a198975050505050505050565b6001818154811061135757600080fd5b6000918252602090912060099091020180546001820154600283018054929450600160a060020a03909116929161138d9061471d565b80601f01602080910402602001604051908101604052809291908181526020018280546113b99061471d565b80156114065780601f106113db57610100808354040283529160200191611406565b820191906000526020600020905b8154815290600101906020018083116113e957829003601f168201915b50505050509080600301805461141b9061471d565b80601f01602080910402602001604051908101604052809291908181526020018280546114479061471d565b80156114945780601f1061146957610100808354040283529160200191611494565b820191906000526020600020905b81548152906001019060200180831161147757829003601f168201915b5050505050908060040180546114a99061471d565b80601f01602080910402602001604051908101604052809291908181526020018280546114d59061471d565b80156115225780601f106114f757610100808354040283529160200191611522565b820191906000526020600020905b81548152906001019060200180831161150557829003601f168201915b5050505050908060050180546115379061471d565b80601f01602080910402602001604051908101604052809291908181526020018280546115639061471d565b80156115b05780601f10611585576101008083540402835291602001916115b0565b820191906000526020600020905b81548152906001019060200180831161159357829003601f168201915b50505060068401546007850154600886018054959660ff808516976101008604821697506201000090950416945091926115e99061471d565b80601f01602080910402602001604051908101604052809291908181526020018280546116159061471d565b80156116625780601f1061163757610100808354040283529160200191611662565b820191906000526020600020905b81548152906001019060200180831161164557829003601f168201915b505050505090508b565b61167461396d565b6002548290811061169a5760405160e560020a62461bcd02815260040161042090614786565b336000908152600460205260409020548390600160a060020a03161515806116f9575033600160a060020a0316600282815481106116da576116da614703565b6000918252602090912060086009909202010154600160a060020a0316145b61175e5760405160e560020a62461bcd02815260206004820152602a60248201527f596f7520617265206e6f7420616c6c6f77656420746f20706572666f726d2074604482015260b160020a693434b99030b1ba34b7b7026064820152608401610420565b60006002858154811061177357611773614703565b90600052602060002090600902016040518061012001604052908160008201548152602001600182015481526020016002820180546117b19061471d565b80601f01602080910402602001604051908101604052809291908181526020018280546117dd9061471d565b801561182a5780601f106117ff5761010080835404028352916020019161182a565b820191906000526020600020905b81548152906001019060200180831161180d57829003601f168201915b505050505081526020016003820180546118439061471d565b80601f016020809104026020016040519081016040528092919081815260200182805461186f9061471d565b80156118bc5780601f10611891576101008083540402835291602001916118bc565b820191906000526020600020905b81548152906001019060200180831161189f57829003601f168201915b505050505081526020016004820180546118d59061471d565b80601f01602080910402602001604051908101604052809291908181526020018280546119019061471d565b801561194e5780601f106119235761010080835404028352916020019161194e565b820191906000526020600020905b81548152906001019060200180831161193157829003601f168201915b505050505081526020016005820180546119679061471d565b80601f01602080910402602001604051908101604052809291908181526020018280546119939061471d565b80156119e05780601f106119b5576101008083540402835291602001916119e0565b820191906000526020600020905b8154815290600101906020018083116119c357829003601f168201915b505050505081526020016006820180546119f99061471d565b80601f0160208091040260200160405190810160405280929190818152602001828054611a259061471d565b8015611a725780601f10611a4757610100808354040283529160200191611a72565b820191906000526020600020905b815481529060010190602001808311611a5557829003601f168201915b50505091835250506007820154600160a060020a03908116602083015260089092015490911660409091015295945050505050565b600160a060020a0381811660009081526003602052604081205490911615611ad157506002919050565b600160a060020a038281166000908152600460205260409020541615611af957506001919050565b506000919050565b60046020526000908152604090208054600182018054600160a060020a039092169291611b2d9061471d565b80601f0160208091040260200160405190810160405280929190818152602001828054611b599061471d565b8015611ba65780601f10611b7b57610100808354040283529160200191611ba6565b820191906000526020600020905b815481529060010190602001808311611b8957829003601f168201915b5050506002909301549192505060ff1683565b60066020528160005260406000208181548110611bd557600080fd5b90600052602060002001600091509150505481565b611bf26139cb565b600060405180608001604052806040518060600160405280602881526020016148296028913981526020016040518060400160405280600a815260200160b360020a690929c869e9a8a40a882b028152508152602001604051806040016040528060158152602001605960020a7426aaa724a1a4a820a61021a7a92827a920aa24a7a70281525081526020016040518060400160405280601a81526020017f5354415445205452414e53504f5254442045504152544d454e5400000000000081525081525090508091505090565b60028181548110611cd057600080fd5b9060005260206000209060090201600091509050806000015490806001015490806002018054611cff9061471d565b80601f0160208091040260200160405190810160405280929190818152602001828054611d2b9061471d565b8015611d785780601f10611d4d57610100808354040283529160200191611d78565b820191906000526020600020905b815481529060010190602001808311611d5b57829003601f168201915b505050505090806003018054611d8d9061471d565b80601f0160208091040260200160405190810160405280929190818152602001828054611db99061471d565b8015611e065780601f10611ddb57610100808354040283529160200191611e06565b820191906000526020600020905b815481529060010190602001808311611de957829003601f168201915b505050505090806004018054611e1b9061471d565b80601f0160208091040260200160405190810160405280929190818152602001828054611e479061471d565b8015611e945780601f10611e6957610100808354040283529160200191611e94565b820191906000526020600020905b815481529060010190602001808311611e7757829003601f168201915b505050505090806005018054611ea99061471d565b80601f0160208091040260200160405190810160405280929190818152602001828054611ed59061471d565b8015611f225780601f10611ef757610100808354040283529160200191611f22565b820191906000526020600020905b815481529060010190602001808311611f0557829003601f168201915b505050505090806006018054611f379061471d565b80601f0160208091040260200160405190810160405280929190818152602001828054611f639061471d565b8015611fb05780601f10611f8557610100808354040283529160200191611fb0565b820191906000526020600020905b815481529060010190602001808311611f9357829003601f168201915b5050505060078301546008909301549192600160a060020a039081169216905089565b611fdb6139f2565b33600090815260046020526040902054600160a060020a0316156120145760405160e560020a62461bcd02815260040161042090614678565b61201c6139f2565b338152602081018490526040810183600381111561203c5761203c613f01565b9081600381111561204f5761204f613f01565b90525033600090815260046020908152604090912082518154600160a060020a031916600160a060020a0390911617815582820151805184936120999260018501929101906138e9565b50604082015160028201805460ff191660018360038111156120bd576120bd613f01565b02179055509195945050505050565b6120d461396d565b600254859081106120fa5760405160e560020a62461bcd02815260040161042090614786565b33600090815260046020526040902054600160a060020a03166121325760405160e560020a62461bcd028152600401610420906146bd565b60006002878154811061214757612147614703565b90600052602060002090600902016040518061012001604052908160008201548152602001600182015481526020016002820180546121859061471d565b80601f01602080910402602001604051908101604052809291908181526020018280546121b19061471d565b80156121fe5780601f106121d3576101008083540402835291602001916121fe565b820191906000526020600020905b8154815290600101906020018083116121e157829003601f168201915b505050505081526020016003820180546122179061471d565b80601f01602080910402602001604051908101604052809291908181526020018280546122439061471d565b80156122905780601f1061226557610100808354040283529160200191612290565b820191906000526020600020905b81548152906001019060200180831161227357829003601f168201915b505050505081526020016004820180546122a99061471d565b80601f01602080910402602001604051908101604052809291908181526020018280546122d59061471d565b80156123225780601f106122f757610100808354040283529160200191612322565b820191906000526020600020905b81548152906001019060200180831161230557829003601f168201915b5050505050815260200160058201805461233b9061471d565b80601f01602080910402602001604051908101604052809291908181526020018280546123679061471d565b80156123b45780601f10612389576101008083540402835291602001916123b4565b820191906000526020600020905b81548152906001019060200180831161239757829003601f168201915b505050505081526020016006820180546123cd9061471d565b80601f01602080910402602001604051908101604052809291908181526020018280546123f99061471d565b80156124465780601f1061241b57610100808354040283529160200191612446565b820191906000526020600020905b81548152906001019060200180831161242957829003601f168201915b50505091835250506007820154600160a060020a03908116602083015260089092015490911660409091015260c087018690526002805491925087918990811061249257612492614703565b9060005260206000209060090201600082015181600001556020820151816001015560408201518160020190805190602001906124d09291906138e9565b50606082015180516124ec9160038401916020909101906138e9565b50608082015180516125089160048401916020909101906138e9565b5060a082015180516125249160058401916020909101906138e9565b5060c082015180516125409160068401916020909101906138e9565b5060e0820151600782018054600160a060020a0319908116600160a060020a0393841617909155610100909301516008909201805490931691161790556040517f386502b6fd852a624c6e5e337bb921b9ec8773385f324720d316431627ff3947906125b390899084908a9089906147ba565b60405180910390a1509395945050505050565b60056020528160005260406000208181548110611bd557600080fd5b6125ea613a2c565b6125f2613a2c565b600054815233602082015260408101879052606081018690526080810185905260a0810183905260c0810188600381111561262f5761262f613f01565b9081600381111561264257612642613f01565b90525060e0810184600281111561265b5761265b613f01565b9081600281111561266e5761266e613f01565b905250600061010082018190525060006101208201819052600180548082018255915281517fb10e2d527612073b26eecdfd717e6a320cf44b4afac2b0732d9fcbe2b7fa0cf660099092029182019081556020808401517fb10e2d527612073b26eecdfd717e6a320cf44b4afac2b0732d9fcbe2b7fa0cf784018054600160a060020a031916600160a060020a0390921691909117905560408401518051859461273e937fb10e2d527612073b26eecdfd717e6a320cf44b4afac2b0732d9fcbe2b7fa0cf89091019201906138e9565b506060820151805161275a9160038401916020909101906138e9565b50608082015180516127769160048401916020909101906138e9565b5060a082015180516127929160058401916020909101906138e9565b5060c082015160068201805460ff191660018360038111156127b6576127b6613f01565b021790555060e082015160068201805461ff0019166101008360028111156127e0576127e0613f01565b021790555061010082015160068201805462ff000019166201000083600281111561280d5761280d613f01565b0217905550610120820151600782015561014082015180516128399160088401916020909101906138e9565b505050600160008082825461284e919061475c565b909155505080516040517fb0d5a35d53d1b590b4e2ab0193806445dd4ad70aab99e4a02454aaf4ae4939b691612888913391908c90614804565b60405180910390a1979650505050505050565b60036020526000908152604090208054600182018054600160a060020a0390921692916128c79061471d565b80601f01602080910402602001604051908101604052809291908181526020018280546128f39061471d565b80156129405780601f1061291557610100808354040283529160200191612940565b820191906000526020600020905b81548152906001019060200180831161292357829003601f168201915b5050505050908060020180546129559061471d565b80601f01602080910402602001604051908101604052809291908181526020018280546129819061471d565b80156129ce5780601f106129a3576101008083540402835291602001916129ce565b820191906000526020600020905b8154815290600101906020018083116129b157829003601f168201915b5050505050908060030180546129e39061471d565b80601f0160208091040260200160405190810160405280929190818152602001828054612a0f9061471d565b8015612a5c5780601f10612a3157610100808354040283529160200191612a5c565b820191906000526020600020905b815481529060010190602001808311612a3f57829003601f168201915b505050505090806004018054612a719061471d565b80601f0160208091040260200160405190810160405280929190818152602001828054612a9d9061471d565b8015612aea5780601f10612abf57610100808354040283529160200191612aea565b820191906000526020600020905b815481529060010190602001808311612acd57829003601f168201915b5050505050908060050154905086565b60606001805480602002602001604051908101604052809291908181526020016000905b82821015612efa576000848152602090819020604080516101608101825260098602909201805483526001810154600160a060020a03169383019390935260028301805492939291840191612b729061471d565b80601f0160208091040260200160405190810160405280929190818152602001828054612b9e9061471d565b8015612beb5780601f10612bc057610100808354040283529160200191612beb565b820191906000526020600020905b815481529060010190602001808311612bce57829003601f168201915b50505050508152602001600382018054612c049061471d565b80601f0160208091040260200160405190810160405280929190818152602001828054612c309061471d565b8015612c7d5780601f10612c5257610100808354040283529160200191612c7d565b820191906000526020600020905b815481529060010190602001808311612c6057829003601f168201915b50505050508152602001600482018054612c969061471d565b80601f0160208091040260200160405190810160405280929190818152602001828054612cc29061471d565b8015612d0f5780601f10612ce457610100808354040283529160200191612d0f565b820191906000526020600020905b815481529060010190602001808311612cf257829003601f168201915b50505050508152602001600582018054612d289061471d565b80601f0160208091040260200160405190810160405280929190818152602001828054612d549061471d565b8015612da15780601f10612d7657610100808354040283529160200191612da1565b820191906000526020600020905b815481529060010190602001808311612d8457829003601f168201915b5050509183525050600682015460209091019060ff166003811115612dc857612dc8613f01565b6003811115612dd957612dd9613f01565b81526020016006820160019054906101000a900460ff166002811115612e0157612e01613f01565b6002811115612e1257612e12613f01565b81526020016006820160029054906101000a900460ff166002811115612e3a57612e3a613f01565b6002811115612e4b57612e4b613f01565b815260200160078201548152602001600882018054612e699061471d565b80601f0160208091040260200160405190810160405280929190818152602001828054612e959061471d565b8015612ee25780601f10612eb757610100808354040283529160200191612ee2565b820191906000526020600020905b815481529060010190602001808311612ec557829003601f168201915b50505050508152505081526020019060010190612b1e565b50505050905090565b336000908152600560209081526040808320805482518185028101850190935280835260609493830182828015612f5957602002820191906000526020600020905b815481526020019060010190808311612f45575b50939695505050505050565b33600090815260046020526040902054600160a060020a0316612f9d5760405160e560020a62461bcd028152600401610420906146bd565b600060018381548110612fb257612fb2614703565b906000526020600020906009020160405180610160016040529081600082015481526020016001820160009054906101000a9004600160a060020a0316600160a060020a0316600160a060020a031681526020016002820180546130159061471d565b80601f01602080910402602001604051908101604052809291908181526020018280546130419061471d565b801561308e5780601f106130635761010080835404028352916020019161308e565b820191906000526020600020905b81548152906001019060200180831161307157829003601f168201915b505050505081526020016003820180546130a79061471d565b80601f01602080910402602001604051908101604052809291908181526020018280546130d39061471d565b80156131205780601f106130f557610100808354040283529160200191613120565b820191906000526020600020905b81548152906001019060200180831161310357829003601f168201915b505050505081526020016004820180546131399061471d565b80601f01602080910402602001604051908101604052809291908181526020018280546131659061471d565b80156131b25780601f10613187576101008083540402835291602001916131b2565b820191906000526020600020905b81548152906001019060200180831161319557829003601f168201915b505050505081526020016005820180546131cb9061471d565b80601f01602080910402602001604051908101604052809291908181526020018280546131f79061471d565b80156132445780601f1061321957610100808354040283529160200191613244565b820191906000526020600020905b81548152906001019060200180831161322757829003601f168201915b5050509183525050600682015460209091019060ff16600381111561326b5761326b613f01565b600381111561327c5761327c613f01565b81526020016006820160019054906101000a900460ff1660028111156132a4576132a4613f01565b60028111156132b5576132b5613f01565b81526020016006820160029054906101000a900460ff1660028111156132dd576132dd613f01565b60028111156132ee576132ee613f01565b81526020016007820154815260200160088201805461330c9061471d565b80601f01602080910402602001604051908101604052809291908181526020018280546133389061471d565b80156133855780601f1061335a57610100808354040283529160200191613385565b820191906000526020600020905b81548152906001019060200180831161336857829003601f168201915b5050509190925250506002610100830152506101408101839052600180549192508291859081106133b8576133b8614703565b600091825260209182902083516009929092020190815582820151600182018054600160a060020a031916600160a060020a0390921691909117905560408301518051919261340f926002850192909101906138e9565b506060820151805161342b9160038401916020909101906138e9565b50608082015180516134479160048401916020909101906138e9565b5060a082015180516134639160058401916020909101906138e9565b5060c082015160068201805460ff1916600183600381111561348757613487613f01565b021790555060e082015160068201805461ff0019166101008360028111156134b1576134b1613f01565b021790555061010082015160068201805462ff00001916620100008360028111156134de576134de613f01565b02179055506101208201516007820155610140820151805161350a9160088401916020909101906138e9565b505050505050565b61351a6138aa565b600160a060020a038083166000908152600360209081526040808320815160c081019092528054909416815260018401805493949193919284019161355e9061471d565b80601f016020809104026020016040519081016040528092919081815260200182805461358a9061471d565b80156135d75780601f106135ac576101008083540402835291602001916135d7565b820191906000526020600020905b8154815290600101906020018083116135ba57829003601f168201915b505050505081526020016002820180546135f09061471d565b80601f016020809104026020016040519081016040528092919081815260200182805461361c9061471d565b80156136695780601f1061363e57610100808354040283529160200191613669565b820191906000526020600020905b81548152906001019060200180831161364c57829003601f168201915b505050505081526020016003820180546136829061471d565b80601f01602080910402602001604051908101604052809291908181526020018280546136ae9061471d565b80156136fb5780601f106136d0576101008083540402835291602001916136fb565b820191906000526020600020905b8154815290600101906020018083116136de57829003601f168201915b505050505081526020016004820180546137149061471d565b80601f01602080910402602001604051908101604052809291908181526020018280546137409061471d565b801561378d5780601f106137625761010080835404028352916020019161378d565b820191906000526020600020905b81548152906001019060200180831161377057829003601f168201915b5050509183525050600591909101546020909101529392505050565b6137b16139f2565b3360009081526004602090815260408083208151606081019092528054600160a060020a0316825260018101805492939192918401916137f09061471d565b80601f016020809104026020016040519081016040528092919081815260200182805461381c9061471d565b80156138695780601f1061383e57610100808354040283529160200191613869565b820191906000526020600020905b81548152906001019060200180831161384c57829003601f168201915b5050509183525050600282015460209091019060ff16600381111561389057613890613f01565b60038111156138a1576138a1613f01565b90525092915050565b6040518060c001604052806000600160a060020a0316815260200160608152602001606081526020016060815260200160608152602001600081525090565b8280546138f59061471d565b90600052602060002090601f016020900481019282613917576000855561395d565b82601f1061393057805160ff191683800117855561395d565b8280016001018555821561395d579182015b8281111561395d578251825591602001919060010190613942565b50613969929150613aa0565b5090565b604051806101200160405280600081526020016000815260200160608152602001606081526020016060815260200160608152602001606081526020016000600160a060020a031681526020016000600160a060020a031681525090565b60405180608001604052806004905b60608152602001906001900390816139da5790505090565b60405180606001604052806000600160a060020a031681526020016060815260200160006003811115613a2757613a27613f01565b905290565b604051806101600160405280600081526020016000600160a060020a031681526020016060815260200160608152602001606081526020016060815260200160006003811115613a7e57613a7e613f01565b8152602001600081526020016000815260200160008152602001606081525090565b5b808211156139695760008155600101613aa1565b60e060020a634e487b710260009081526041600452602490fd5b60405161012081016001604060020a0381118282101715613af257613af2613ab5565b60405290565b600082601f830112613b0957600080fd5b81356001604060020a0380821115613b2357613b23613ab5565b604051601f8301601f19908116603f01168101908282118183101715613b4b57613b4b613ab5565b81604052838152866020858801011115613b6457600080fd5b836020870160208301376000602085830101528094505050505092915050565b60008060008060808587031215613b9a57600080fd5b84356001604060020a0380821115613bb157600080fd5b613bbd88838901613af8565b95506020870135915080821115613bd357600080fd5b613bdf88838901613af8565b94506040870135915080821115613bf557600080fd5b613c0188838901613af8565b93506060870135915080821115613c1757600080fd5b50613c2487828801613af8565b91505092959194509250565b600160a060020a03169052565b6000815180845260005b81811015613c6357602081850181015186830182015201613c47565b81811115613c75576000602083870101525b50601f01601f19169290920160200192915050565b60208082528251600160a060020a03168282015282015160c06040830152600090613cb860e0840182613c3d565b90506040840151601f1980858403016060860152613cd68383613c3d565b92506060860151915080858403016080860152613cf38383613c3d565b925060808601519150808584030160a086015250613d118282613c3d565b91505060a084015160c08401528091505092915050565b600060208284031215613d3a57600080fd5b5035919050565b8035600160a060020a0381168114613d5857600080fd5b919050565b60008060008060008060c08789031215613d7657600080fd5b86359550613d8660208801613d41565b945060408701356001604060020a0380821115613da257600080fd5b613dae8a838b01613af8565b95506060890135915080821115613dc457600080fd5b613dd08a838b01613af8565b94506080890135915080821115613de657600080fd5b613df28a838b01613af8565b935060a0890135915080821115613e0857600080fd5b50613e1589828a01613af8565b9150509295509295509295565b600061012082518452602083015160208501526040830151816040860152613e4c82860182613c3d565b91505060608301518482036060860152613e668282613c3d565b91505060808301518482036080860152613e808282613c3d565b91505060a083015184820360a0860152613e9a8282613c3d565b91505060c083015184820360c0860152613eb48282613c3d565b91505060e0830151613ec960e0860182613c30565b5061010080840151613edd82870182613c30565b5090949350505050565b602081526000613efa6020830184613e22565b9392505050565b60e060020a634e487b710260009081526021600452602490fd5b60048110613f2b57613f2b613f01565b9052565b60038110613f3f57613f3f613f01565b50565b613f2b81613f2f565b8b8152600160a060020a038b16602082015261016060408201819052600090613f768382018d613c3d565b90508281036060840152613f8a818c613c3d565b90508281036080840152613f9e818b613c3d565b905082810360a0840152613fb2818a613c3d565b9050613fc160c0840189613f1b565b613fca87613f2f565b8660e0840152613fd986613f2f565b8561010084015284610120840152828103610140840152613ffa8185613c3d565b9e9d5050505050505050505050505050565b60006020828403121561401e57600080fd5b613efa82613d41565b6020810161403483613f2f565b91905290565b600160a060020a038416815260606020820181905260009061405e90830185613c3d565b90506104ff6040830184613f1b565b6000806040838503121561408057600080fd5b61408983613d41565b946020939093013593505050565b602080825260009060a0830183820185845b60048110156140d857601f198785030183526140c6848351613c3d565b935091840191908401906001016140a9565b50919695505050505050565b60006101208b83528a60208401528060408401526141048184018b613c3d565b90508281036060840152614118818a613c3d565b9050828103608084015261412c8189613c3d565b905082810360a08401526141408188613c3d565b905082810360c08401526141548187613c3d565b600160a060020a0395861660e085015293909416610100909201919091525098975050505050505050565b803560048110613d5857600080fd5b600080604083850312156141a157600080fd5b82356001604060020a038111156141b757600080fd5b6141c385828601613af8565b9250506141d26020840161417f565b90509250929050565b60208082528251600160a060020a031682820152820151606060408301526000906142096080840182613c3d565b9050604084015161421d6060850182613f1b565b509392505050565b6000806000806080858703121561423b57600080fd5b8435935060208501356001604060020a038082111561425957600080fd5b90860190610120828903121561426e57600080fd5b614276613acf565b823581526020830135602082015260408301358281111561429657600080fd5b6142a28a828601613af8565b6040830152506060830135828111156142ba57600080fd5b6142c68a828601613af8565b6060830152506080830135828111156142de57600080fd5b6142ea8a828601613af8565b60808301525060a08301358281111561430257600080fd5b61430e8a828601613af8565b60a08301525060c08301358281111561432657600080fd5b6143328a828601613af8565b60c08301525061434460e08401613d41565b60e0820152610100614357818501613d41565b9082015294506040870135915080821115613bf557600080fd5b803560038110613d5857600080fd5b60008060008060008060c0878903121561439957600080fd5b6143a28761417f565b955060208701356001604060020a03808211156143be57600080fd5b6143ca8a838b01613af8565b965060408901359150808211156143e057600080fd5b6143ec8a838b01613af8565b9550606089013591508082111561440257600080fd5b61440e8a838b01613af8565b9450613df260808a01614371565b60006101608251845260208301516144376020860182613c30565b50604083015181604086015261444f82860182613c3d565b915050606083015184820360608601526144698282613c3d565b915050608083015184820360808601526144838282613c3d565b91505060a083015184820360a086015261449d8282613c3d565b91505060c08301516144b260c0860182613f1b565b5060e08301516144c560e0860182613f42565b50610100808401516144d982870182613f42565b5050610120838101519085015261014080840151858303828701526144fe8382613c3d565b9695505050505050565b602081526000613efa602083018461441c565b600160a060020a038716815260c06020820181905260009061453f90830188613c3d565b82810360408401526145518188613c3d565b905082810360608401526145658187613c3d565b905082810360808401526145798186613c3d565b9150508260a0830152979650505050505050565b600060208083018184528085518083526040860191506040848202870101925083870160005b828110156145e157603f198886030184526145cf85835161441c565b945092850192908501906001016145b3565b5092979650505050505050565b6020808252825182820181905260009190848201906040850190845b818110156146265783518352928401929184019160010161460a565b50909695505050505050565b6000806040838503121561464557600080fd5b8235915060208301356001604060020a0381111561466257600080fd5b61466e85828601613af8565b9150509250929050565b60208082526022908201527f54686973206164647265737320697320616c7265616479207265676973746572604082015260f260020a61195902606082015260800190565b60208082526023908201527f4f6e6c792061646d696e732063616e20706572666f726d207468697320616374604082015260e960020a6234b7b702606082015260800190565b60e060020a634e487b710260009081526032600452602490fd5b60028104600182168061473157607f821691505b602082108114156147565760e060020a634e487b710260009081526022600452602490fd5b50919050565b600082198211156147815760e060020a634e487b710260009081526011600452602490fd5b500190565b6020808252601790820152604a60020a76111bd8dd5b595b9d08191bd95cc81b9bdd08195e1a5cdd02604082015260600190565b8481526080602082015260006147d36080830186613e22565b82810360408401526147e58186613e22565b905082810360608401526147f98185613c3d565b979650505050505050565b600160a060020a038416815260208101839052606081016104ff6040830184613f1b56fe554e49515545204944454e54494649434154494f4e20415554484f52495459204f4620494e444941a2646970667358221220f6283bc6dc3790bac762e5e4ae58d4a05ef436afc7393acd9ef4f6938aa658c764736f6c634300080b0033",
  "immutableReferences": {},
  "source": "// SPDX-License-Identifier: MIT\r\npragma solidity >=0.4.22 <0.9.0;\r\n\r\ncontract DeDocs {\r\n\r\n  enum ROLE{\r\n    NOT_REGISTERED,\r\n    ADMIN,\r\n    USER\r\n  }\r\n\r\n  enum DEPARTMENT{\r\n    UNIQUE_IDENTIFICATION_AUTHORITY_OF_INDIA,\r\n    INCOME_TAX,\r\n    MUNICIPAL_CORPORATION,\r\n    STATE_TRANSPORT_DEPARTMENT\r\n  }\r\n\r\n  enum REQUEST_CATEGORY{\r\n    ISSUE,\r\n    UPDATE,\r\n    RECTIFY\r\n  }\r\n\r\n  enum REQUEST_STATUS{\r\n    PENDING,\r\n    SUCCESS,\r\n    REJECTED\r\n  }\r\n\r\n  struct Admin{\r\n    address id;\r\n    string name;\r\n    DEPARTMENT department;\r\n  }\r\n  \r\n  struct User{\r\n    address id;\r\n    string name;\r\n    string dob;\r\n    string password;    \r\n    string joined;\r\n    uint total_requests;\r\n  }\r\n\r\n  struct Request{\r\n    uint id;\r\n    address user_id;\r\n    string subject;\r\n    string description;\r\n    string ipfs_hash;\r\n    string date;\r\n    DEPARTMENT department;\r\n    REQUEST_CATEGORY category;\r\n    REQUEST_STATUS status;\r\n    uint document_id;\r\n    string remarks;\r\n  }\r\n\r\n  struct Document{\r\n    uint id;\r\n    uint request_id;\r\n    string name;\r\n    string uid;\r\n    string ipfs_hash;\r\n    string issued_on;\r\n    string last_updated;\r\n    address admin;\r\n    address user;\r\n  }\r\n\r\n  event DeDocs_deployed(string message);\r\n  event Request_made(address user, uint request_id, DEPARTMENT department);\r\n  event Document_issued(address user, address admin, uint document_id);\r\n  event Document_modified(uint document_id, Document old_document, Document new_document, string message);\r\n\r\n  uint public total_requests = 0;\r\n\r\n  Request[] public all_requests;\r\n\r\n  Document[] public all_documents; //array to store all the documents of the system\r\n  mapping(address => User) public users; // mapping of user address to user data \r\n  mapping(address => Admin) public admins; //mapping of admin address to admin data\r\n  mapping(address => uint256[]) public requests; //mapping of the user addess to all the requests made by that address\r\n  mapping(address => uint256[]) public documents; // mapping of the user address to their documents\r\n  \r\n\r\n  modifier is_admin(){\r\n    require(admins[msg.sender].id != address(0x0),\"Only admins can perform this action\");\r\n    _;\r\n  }\r\n\r\n  modifier is_existent(uint _document_id){\r\n    require(_document_id < all_documents.length, \"Document does not exist\");\r\n    _;\r\n  }\r\n\r\n  modifier is_allowed(uint _document_id){\r\n    require(admins[msg.sender].id != address(0x0) || all_documents[_document_id].user == msg.sender, \"You are not allowed to perform this action\");\r\n    _;\r\n  }\r\n\r\n  constructor()  {\r\n      emit DeDocs_deployed(\"Contract deployed successfully\");\r\n  }\r\n\r\n  function register_user(string memory _name, string memory _dob, string memory _password, string memory _joined) payable public returns (User memory){\r\n\r\n    require(users[msg.sender].id == address(0x0),\"This address is already registered\");\r\n\r\n    User memory _user;\r\n    _user.id = msg.sender;\r\n    _user.name = _name;\r\n    _user.dob = _dob;\r\n    _user.password = _password;\r\n    _user.joined = _joined;\r\n    _user.total_requests = 0;\r\n\r\n    users[msg.sender] = _user;\r\n\r\n    return _user;\r\n  }\r\n\r\n  function register_admin(string memory _name, DEPARTMENT _department) payable public returns (Admin memory){\r\n\r\n    require(admins[msg.sender].id == address(0x0),\"This address is already registered\");\r\n\r\n    Admin memory _admin;\r\n    _admin.id = msg.sender;\r\n    _admin.name = _name;\r\n    _admin.department = _department;\r\n\r\n    admins[msg.sender] = _admin;\r\n\r\n    return _admin;\r\n  }\r\n\r\n  function get_departments() public pure returns(string[4] memory departments){\r\n    string[4] memory _departments = [\"UNIQUE IDENTIFICATION AUTHORITY OF INDIA\",\"INCOME TAX\",\"MUNICIPAL CORPORATION\",\"STATE TRANSPORTD EPARTMENT\"];\r\n    return _departments;\r\n  }\r\n\r\n  function get_role(address _address) public view returns(ROLE role){\r\n\r\n    if(users[_address].id != address(0x0)) return ROLE.USER;\r\n    if(admins[_address].id != address(0x0)) return ROLE.ADMIN;\r\n\r\n    return ROLE.NOT_REGISTERED;\r\n\r\n  }\r\n\r\n  function get_all_requests() public view returns(Request[] memory){\r\n    return all_requests;\r\n  }\r\n\r\n  /***********************************  USER FUNCTIONS  *********************************/\r\n\r\n  function get_user_details(address _address) public view returns(User memory user){\r\n    User memory _user = users[_address];\r\n    return _user;\r\n  }\r\n\r\n  function get_user_requests() public view returns(uint256[] memory _requests){\r\n\r\n    uint256[] memory _my_requests = requests[msg.sender];\r\n    return _my_requests;\r\n    \r\n  }\r\n\r\n  function make_request(DEPARTMENT _department,  string memory _subject, string memory _description, string memory _ipfs_hash, REQUEST_CATEGORY _request_category, string memory _date) public payable returns(Request memory){\r\n\r\n    Request memory request;\r\n\r\n    request.id = total_requests;\r\n    request.user_id = msg.sender;\r\n    request.subject = _subject;\r\n    request.description = _description;\r\n    request.ipfs_hash = _ipfs_hash;\r\n    request.date = _date;\r\n    request.department = _department;\r\n    request.category = _request_category;\r\n    request.status = REQUEST_STATUS.PENDING;\r\n    request.document_id = 0;\r\n\r\n    all_requests.push(request);\r\n    total_requests += 1;\r\n\r\n    emit Request_made(msg.sender, request.id, _department);\r\n\r\n    return request;\r\n  }\r\n\r\n\r\n  /********************************ADMIN FUNCTIONS********************************/\r\n\r\n  function get_admin_details() public view returns(Admin memory admin){\r\n    Admin memory _admin = admins[msg.sender];\r\n    return _admin;\r\n  }\r\n\r\n  function get_document (uint _document_id) is_existent(_document_id) is_allowed(_document_id) public view returns (Document memory){\r\n    Document memory _document = all_documents[_document_id];\r\n    return _document;\r\n  }\r\n\r\n  function reject_request(uint _request_id, string memory _remarks) is_admin public payable{\r\n    Request memory _request = all_requests[_request_id];\r\n    _request.status = REQUEST_STATUS.REJECTED;\r\n    _request.remarks = _remarks;\r\n    all_requests[_request_id] = _request;\r\n  }\r\n\r\n  function approve_request(uint _request_id) is_admin public payable{\r\n    Request memory _request = all_requests[_request_id];\r\n    _request.status = REQUEST_STATUS.SUCCESS;\r\n    all_requests[_request_id] = _request;\r\n  }\r\n\r\n  function issue_document(uint _request_id, address _userAddress, string memory _name, string memory _uid, string memory _ipfs_hash, string memory _issued_on) is_admin public payable returns(Document memory){\r\n    \r\n    //check if user is registered\r\n    require(users[_userAddress].id != address(0x0),\"User is not registered\");\r\n\r\n    //check if no document is already issued for this request\r\n    Request memory _request = all_requests[_request_id];\r\n    require(_request.document_id == 0,\"Document has already been issued for this request\");\r\n\r\n    //create a new document instance\r\n    Document memory _document;\r\n    _document.id = all_documents.length + 1;\r\n    _document.name = _name;\r\n    _document.uid = _uid;\r\n    _document.ipfs_hash = _ipfs_hash;\r\n    _document.issued_on = _issued_on;\r\n    _document.user = _userAddress;\r\n    _document.admin = msg.sender;\r\n\r\n    //insert the document to the records\r\n    all_documents.push(_document);\r\n    documents[_userAddress].push(_document.id);\r\n\r\n    //update the request\r\n    _request.document_id = _document.id;\r\n    all_requests[_request_id] = _request;\r\n\r\n    emit Document_issued(_userAddress, msg.sender, _document.id);\r\n\r\n    return _document;\r\n  }\r\n\r\n\r\n  function modify_document(uint _document_id, Document memory _new_document, string memory _last_updated, string memory _message) is_existent(_document_id) is_admin public payable returns(Document memory){\r\n    \r\n    //Get the current version of the document\r\n    Document memory _old_document = all_documents[_document_id];\r\n\r\n    //update the document\r\n    _new_document.last_updated = _last_updated;\r\n    all_documents[_document_id] = _new_document;\r\n\r\n    emit Document_modified(_document_id, _old_document, _new_document, _message);\r\n\r\n    return _new_document;\r\n  }\r\n\r\n}\r\n",
  "sourcePath": "C:\\Users\\Kailash\\Desktop\\summer project\\backend\\contracts\\DeDocs.sol",
  "compiler": {
    "name": "solc",
    "version": "0.8.11+commit.d7f03943.Emscripten.clang"
  },
  "schemaVersion": "3.4.5",
  "updatedAt": "2022-06-30T21:47:00.908Z",
  "networkType": "ethereum",
  "devdoc": {
    "kind": "dev",
    "methods": {},
    "version": 1
  },
  "userdoc": {
    "kind": "user",
    "methods": {},
    "version": 1
  }
}