{
  "contractName": "DeDocs",
  "abi": [
    {
      "inputs": [],
      "stateMutability": "nonpayable",
      "type": "constructor"
    },
    {
      "anonymous": false,
      "inputs": [
        {
          "indexed": false,
          "internalType": "string",
          "name": "message",
          "type": "string"
        }
      ],
      "name": "DeDocs_deployed",
      "type": "event"
    },
    {
      "anonymous": false,
      "inputs": [
        {
          "indexed": false,
          "internalType": "address",
          "name": "user",
          "type": "address"
        },
        {
          "indexed": false,
          "internalType": "address",
          "name": "admin",
          "type": "address"
        },
        {
          "indexed": false,
          "internalType": "uint256",
          "name": "document_id",
          "type": "uint256"
        },
        {
          "indexed": false,
          "internalType": "string",
          "name": "timestamp",
          "type": "string"
        }
      ],
      "name": "Document_issued",
      "type": "event"
    },
    {
      "anonymous": false,
      "inputs": [
        {
          "indexed": false,
          "internalType": "uint256",
          "name": "document_id",
          "type": "uint256"
        },
        {
          "components": [
            {
              "internalType": "uint256",
              "name": "id",
              "type": "uint256"
            },
            {
              "internalType": "uint256",
              "name": "request_id",
              "type": "uint256"
            },
            {
              "internalType": "string",
              "name": "name",
              "type": "string"
            },
            {
              "internalType": "string",
              "name": "uid",
              "type": "string"
            },
            {
              "internalType": "string",
              "name": "ipfs_hash",
              "type": "string"
            },
            {
              "internalType": "string",
              "name": "issued_on",
              "type": "string"
            },
            {
              "internalType": "string",
              "name": "last_updated",
              "type": "string"
            },
            {
              "internalType": "address",
              "name": "admin",
              "type": "address"
            },
            {
              "internalType": "address",
              "name": "user",
              "type": "address"
            },
            {
              "internalType": "enum DeDocs.DEPARTMENT",
              "name": "department",
              "type": "uint8"
            }
          ],
          "indexed": false,
          "internalType": "struct DeDocs.Document",
          "name": "document",
          "type": "tuple"
        },
        {
          "indexed": false,
          "internalType": "string",
          "name": "message",
          "type": "string"
        },
        {
          "indexed": false,
          "internalType": "string",
          "name": "timestamp",
          "type": "string"
        }
      ],
      "name": "Document_modified",
      "type": "event"
    },
    {
      "anonymous": false,
      "inputs": [
        {
          "indexed": false,
          "internalType": "address",
          "name": "user",
          "type": "address"
        },
        {
          "indexed": false,
          "internalType": "uint256",
          "name": "request_id",
          "type": "uint256"
        },
        {
          "indexed": false,
          "internalType": "enum DeDocs.DEPARTMENT",
          "name": "department",
          "type": "uint8"
        }
      ],
      "name": "Request_made",
      "type": "event"
    },
    {
      "inputs": [
        {
          "internalType": "address",
          "name": "",
          "type": "address"
        }
      ],
      "name": "admins",
      "outputs": [
        {
          "internalType": "address",
          "name": "id",
          "type": "address"
        },
        {
          "internalType": "string",
          "name": "name",
          "type": "string"
        },
        {
          "internalType": "enum DeDocs.DEPARTMENT",
          "name": "department",
          "type": "uint8"
        }
      ],
      "stateMutability": "view",
      "type": "function",
      "constant": true
    },
    {
      "inputs": [
        {
          "internalType": "uint256",
          "name": "",
          "type": "uint256"
        }
      ],
      "name": "all_documents",
      "outputs": [
        {
          "internalType": "uint256",
          "name": "id",
          "type": "uint256"
        },
        {
          "internalType": "uint256",
          "name": "request_id",
          "type": "uint256"
        },
        {
          "internalType": "string",
          "name": "name",
          "type": "string"
        },
        {
          "internalType": "string",
          "name": "uid",
          "type": "string"
        },
        {
          "internalType": "string",
          "name": "ipfs_hash",
          "type": "string"
        },
        {
          "internalType": "string",
          "name": "issued_on",
          "type": "string"
        },
        {
          "internalType": "string",
          "name": "last_updated",
          "type": "string"
        },
        {
          "internalType": "address",
          "name": "admin",
          "type": "address"
        },
        {
          "internalType": "address",
          "name": "user",
          "type": "address"
        },
        {
          "internalType": "enum DeDocs.DEPARTMENT",
          "name": "department",
          "type": "uint8"
        }
      ],
      "stateMutability": "view",
      "type": "function",
      "constant": true
    },
    {
      "inputs": [
        {
          "internalType": "uint256",
          "name": "",
          "type": "uint256"
        }
      ],
      "name": "all_requests",
      "outputs": [
        {
          "internalType": "uint256",
          "name": "id",
          "type": "uint256"
        },
        {
          "internalType": "address",
          "name": "user_id",
          "type": "address"
        },
        {
          "internalType": "string",
          "name": "subject",
          "type": "string"
        },
        {
          "internalType": "string",
          "name": "description",
          "type": "string"
        },
        {
          "internalType": "string",
          "name": "ipfs_hash",
          "type": "string"
        },
        {
          "internalType": "string",
          "name": "date",
          "type": "string"
        },
        {
          "internalType": "enum DeDocs.DEPARTMENT",
          "name": "department",
          "type": "uint8"
        },
        {
          "internalType": "enum DeDocs.REQUEST_CATEGORY",
          "name": "category",
          "type": "uint8"
        },
        {
          "internalType": "enum DeDocs.REQUEST_STATUS",
          "name": "status",
          "type": "uint8"
        },
        {
          "internalType": "uint256",
          "name": "document_id",
          "type": "uint256"
        },
        {
          "internalType": "string",
          "name": "remarks",
          "type": "string"
        }
      ],
      "stateMutability": "view",
      "type": "function",
      "constant": true
    },
    {
      "inputs": [
        {
          "internalType": "address",
          "name": "",
          "type": "address"
        },
        {
          "internalType": "uint256",
          "name": "",
          "type": "uint256"
        }
      ],
      "name": "documents",
      "outputs": [
        {
          "internalType": "uint256",
          "name": "",
          "type": "uint256"
        }
      ],
      "stateMutability": "view",
      "type": "function",
      "constant": true
    },
    {
      "inputs": [
        {
          "internalType": "address",
          "name": "",
          "type": "address"
        },
        {
          "internalType": "uint256",
          "name": "",
          "type": "uint256"
        }
      ],
      "name": "requests",
      "outputs": [
        {
          "internalType": "uint256",
          "name": "",
          "type": "uint256"
        }
      ],
      "stateMutability": "view",
      "type": "function",
      "constant": true
    },
    {
      "inputs": [],
      "name": "total_requests",
      "outputs": [
        {
          "internalType": "uint256",
          "name": "",
          "type": "uint256"
        }
      ],
      "stateMutability": "view",
      "type": "function",
      "constant": true
    },
    {
      "inputs": [
        {
          "internalType": "address",
          "name": "",
          "type": "address"
        }
      ],
      "name": "users",
      "outputs": [
        {
          "internalType": "address",
          "name": "id",
          "type": "address"
        },
        {
          "internalType": "string",
          "name": "name",
          "type": "string"
        },
        {
          "internalType": "string",
          "name": "dob",
          "type": "string"
        },
        {
          "internalType": "string",
          "name": "password",
          "type": "string"
        },
        {
          "internalType": "string",
          "name": "joined",
          "type": "string"
        },
        {
          "internalType": "uint256",
          "name": "total_requests",
          "type": "uint256"
        }
      ],
      "stateMutability": "view",
      "type": "function",
      "constant": true
    },
    {
      "inputs": [
        {
          "internalType": "string",
          "name": "_name",
          "type": "string"
        },
        {
          "internalType": "string",
          "name": "_dob",
          "type": "string"
        },
        {
          "internalType": "string",
          "name": "_password",
          "type": "string"
        },
        {
          "internalType": "string",
          "name": "_joined",
          "type": "string"
        }
      ],
      "name": "register_user",
      "outputs": [
        {
          "components": [
            {
              "internalType": "address",
              "name": "id",
              "type": "address"
            },
            {
              "internalType": "string",
              "name": "name",
              "type": "string"
            },
            {
              "internalType": "string",
              "name": "dob",
              "type": "string"
            },
            {
              "internalType": "string",
              "name": "password",
              "type": "string"
            },
            {
              "internalType": "string",
              "name": "joined",
              "type": "string"
            },
            {
              "internalType": "uint256",
              "name": "total_requests",
              "type": "uint256"
            }
          ],
          "internalType": "struct DeDocs.User",
          "name": "",
          "type": "tuple"
        }
      ],
      "stateMutability": "payable",
      "type": "function",
      "payable": true
    },
    {
      "inputs": [
        {
          "internalType": "string",
          "name": "_name",
          "type": "string"
        },
        {
          "internalType": "enum DeDocs.DEPARTMENT",
          "name": "_department",
          "type": "uint8"
        }
      ],
      "name": "register_admin",
      "outputs": [
        {
          "components": [
            {
              "internalType": "address",
              "name": "id",
              "type": "address"
            },
            {
              "internalType": "string",
              "name": "name",
              "type": "string"
            },
            {
              "internalType": "enum DeDocs.DEPARTMENT",
              "name": "department",
              "type": "uint8"
            }
          ],
          "internalType": "struct DeDocs.Admin",
          "name": "",
          "type": "tuple"
        }
      ],
      "stateMutability": "payable",
      "type": "function",
      "payable": true
    },
    {
      "inputs": [],
      "name": "get_departments",
      "outputs": [
        {
          "internalType": "string[4]",
          "name": "departments",
          "type": "string[4]"
        }
      ],
      "stateMutability": "pure",
      "type": "function",
      "constant": true
    },
    {
      "inputs": [
        {
          "internalType": "address",
          "name": "_address",
          "type": "address"
        }
      ],
      "name": "get_role",
      "outputs": [
        {
          "internalType": "enum DeDocs.ROLE",
          "name": "role",
          "type": "uint8"
        }
      ],
      "stateMutability": "view",
      "type": "function",
      "constant": true
    },
    {
      "inputs": [],
      "name": "get_all_requests",
      "outputs": [
        {
          "components": [
            {
              "internalType": "uint256",
              "name": "id",
              "type": "uint256"
            },
            {
              "internalType": "address",
              "name": "user_id",
              "type": "address"
            },
            {
              "internalType": "string",
              "name": "subject",
              "type": "string"
            },
            {
              "internalType": "string",
              "name": "description",
              "type": "string"
            },
            {
              "internalType": "string",
              "name": "ipfs_hash",
              "type": "string"
            },
            {
              "internalType": "string",
              "name": "date",
              "type": "string"
            },
            {
              "internalType": "enum DeDocs.DEPARTMENT",
              "name": "department",
              "type": "uint8"
            },
            {
              "internalType": "enum DeDocs.REQUEST_CATEGORY",
              "name": "category",
              "type": "uint8"
            },
            {
              "internalType": "enum DeDocs.REQUEST_STATUS",
              "name": "status",
              "type": "uint8"
            },
            {
              "internalType": "uint256",
              "name": "document_id",
              "type": "uint256"
            },
            {
              "internalType": "string",
              "name": "remarks",
              "type": "string"
            }
          ],
          "internalType": "struct DeDocs.Request[]",
          "name": "",
          "type": "tuple[]"
        }
      ],
      "stateMutability": "view",
      "type": "function",
      "constant": true
    },
    {
      "inputs": [],
      "name": "get_all_documents",
      "outputs": [
        {
          "components": [
            {
              "internalType": "uint256",
              "name": "id",
              "type": "uint256"
            },
            {
              "internalType": "uint256",
              "name": "request_id",
              "type": "uint256"
            },
            {
              "internalType": "string",
              "name": "name",
              "type": "string"
            },
            {
              "internalType": "string",
              "name": "uid",
              "type": "string"
            },
            {
              "internalType": "string",
              "name": "ipfs_hash",
              "type": "string"
            },
            {
              "internalType": "string",
              "name": "issued_on",
              "type": "string"
            },
            {
              "internalType": "string",
              "name": "last_updated",
              "type": "string"
            },
            {
              "internalType": "address",
              "name": "admin",
              "type": "address"
            },
            {
              "internalType": "address",
              "name": "user",
              "type": "address"
            },
            {
              "internalType": "enum DeDocs.DEPARTMENT",
              "name": "department",
              "type": "uint8"
            }
          ],
          "internalType": "struct DeDocs.Document[]",
          "name": "",
          "type": "tuple[]"
        }
      ],
      "stateMutability": "view",
      "type": "function",
      "constant": true
    },
    {
      "inputs": [
        {
          "internalType": "address",
          "name": "_address",
          "type": "address"
        }
      ],
      "name": "get_user_details",
      "outputs": [
        {
          "components": [
            {
              "internalType": "address",
              "name": "id",
              "type": "address"
            },
            {
              "internalType": "string",
              "name": "name",
              "type": "string"
            },
            {
              "internalType": "string",
              "name": "dob",
              "type": "string"
            },
            {
              "internalType": "string",
              "name": "password",
              "type": "string"
            },
            {
              "internalType": "string",
              "name": "joined",
              "type": "string"
            },
            {
              "internalType": "uint256",
              "name": "total_requests",
              "type": "uint256"
            }
          ],
          "internalType": "struct DeDocs.User",
          "name": "user",
          "type": "tuple"
        }
      ],
      "stateMutability": "view",
      "type": "function",
      "constant": true
    },
    {
      "inputs": [],
      "name": "get_user_requests",
      "outputs": [
        {
          "internalType": "uint256[]",
          "name": "_requests",
          "type": "uint256[]"
        }
      ],
      "stateMutability": "view",
      "type": "function",
      "constant": true
    },
    {
      "inputs": [],
      "name": "get_user_documents",
      "outputs": [
        {
          "internalType": "uint256[]",
          "name": "_documents",
          "type": "uint256[]"
        }
      ],
      "stateMutability": "view",
      "type": "function",
      "constant": true
    },
    {
      "inputs": [
        {
          "internalType": "enum DeDocs.DEPARTMENT",
          "name": "_department",
          "type": "uint8"
        },
        {
          "internalType": "string",
          "name": "_subject",
          "type": "string"
        },
        {
          "internalType": "string",
          "name": "_description",
          "type": "string"
        },
        {
          "internalType": "string",
          "name": "_ipfs_hash",
          "type": "string"
        },
        {
          "internalType": "enum DeDocs.REQUEST_CATEGORY",
          "name": "_request_category",
          "type": "uint8"
        },
        {
          "internalType": "string",
          "name": "_date",
          "type": "string"
        },
        {
          "internalType": "uint256",
          "name": "_document_id",
          "type": "uint256"
        }
      ],
      "name": "make_request",
      "outputs": [
        {
          "components": [
            {
              "internalType": "uint256",
              "name": "id",
              "type": "uint256"
            },
            {
              "internalType": "address",
              "name": "user_id",
              "type": "address"
            },
            {
              "internalType": "string",
              "name": "subject",
              "type": "string"
            },
            {
              "internalType": "string",
              "name": "description",
              "type": "string"
            },
            {
              "internalType": "string",
              "name": "ipfs_hash",
              "type": "string"
            },
            {
              "internalType": "string",
              "name": "date",
              "type": "string"
            },
            {
              "internalType": "enum DeDocs.DEPARTMENT",
              "name": "department",
              "type": "uint8"
            },
            {
              "internalType": "enum DeDocs.REQUEST_CATEGORY",
              "name": "category",
              "type": "uint8"
            },
            {
              "internalType": "enum DeDocs.REQUEST_STATUS",
              "name": "status",
              "type": "uint8"
            },
            {
              "internalType": "uint256",
              "name": "document_id",
              "type": "uint256"
            },
            {
              "internalType": "string",
              "name": "remarks",
              "type": "string"
            }
          ],
          "internalType": "struct DeDocs.Request",
          "name": "",
          "type": "tuple"
        }
      ],
      "stateMutability": "payable",
      "type": "function",
      "payable": true
    },
    {
      "inputs": [],
      "name": "get_admin_details",
      "outputs": [
        {
          "components": [
            {
              "internalType": "address",
              "name": "id",
              "type": "address"
            },
            {
              "internalType": "string",
              "name": "name",
              "type": "string"
            },
            {
              "internalType": "enum DeDocs.DEPARTMENT",
              "name": "department",
              "type": "uint8"
            }
          ],
          "internalType": "struct DeDocs.Admin",
          "name": "admin",
          "type": "tuple"
        }
      ],
      "stateMutability": "view",
      "type": "function",
      "constant": true
    },
    {
      "inputs": [
        {
          "internalType": "uint256",
          "name": "_document_id",
          "type": "uint256"
        }
      ],
      "name": "get_document",
      "outputs": [
        {
          "components": [
            {
              "internalType": "uint256",
              "name": "id",
              "type": "uint256"
            },
            {
              "internalType": "uint256",
              "name": "request_id",
              "type": "uint256"
            },
            {
              "internalType": "string",
              "name": "name",
              "type": "string"
            },
            {
              "internalType": "string",
              "name": "uid",
              "type": "string"
            },
            {
              "internalType": "string",
              "name": "ipfs_hash",
              "type": "string"
            },
            {
              "internalType": "string",
              "name": "issued_on",
              "type": "string"
            },
            {
              "internalType": "string",
              "name": "last_updated",
              "type": "string"
            },
            {
              "internalType": "address",
              "name": "admin",
              "type": "address"
            },
            {
              "internalType": "address",
              "name": "user",
              "type": "address"
            },
            {
              "internalType": "enum DeDocs.DEPARTMENT",
              "name": "department",
              "type": "uint8"
            }
          ],
          "internalType": "struct DeDocs.Document",
          "name": "",
          "type": "tuple"
        }
      ],
      "stateMutability": "view",
      "type": "function",
      "constant": true
    },
    {
      "inputs": [
        {
          "internalType": "uint256",
          "name": "_request_id",
          "type": "uint256"
        },
        {
          "internalType": "string",
          "name": "_remarks",
          "type": "string"
        }
      ],
      "name": "reject_request",
      "outputs": [],
      "stateMutability": "payable",
      "type": "function",
      "payable": true
    },
    {
      "inputs": [
        {
          "internalType": "uint256",
          "name": "_request_id",
          "type": "uint256"
        }
      ],
      "name": "approve_request",
      "outputs": [],
      "stateMutability": "payable",
      "type": "function",
      "payable": true
    },
    {
      "inputs": [
        {
          "internalType": "uint256",
          "name": "_request_id",
          "type": "uint256"
        },
        {
          "internalType": "address",
          "name": "_userAddress",
          "type": "address"
        },
        {
          "internalType": "string",
          "name": "_name",
          "type": "string"
        },
        {
          "internalType": "string",
          "name": "_uid",
          "type": "string"
        },
        {
          "internalType": "string",
          "name": "_ipfs_hash",
          "type": "string"
        },
        {
          "internalType": "string",
          "name": "_issued_on",
          "type": "string"
        }
      ],
      "name": "issue_document",
      "outputs": [
        {
          "components": [
            {
              "internalType": "uint256",
              "name": "id",
              "type": "uint256"
            },
            {
              "internalType": "uint256",
              "name": "request_id",
              "type": "uint256"
            },
            {
              "internalType": "string",
              "name": "name",
              "type": "string"
            },
            {
              "internalType": "string",
              "name": "uid",
              "type": "string"
            },
            {
              "internalType": "string",
              "name": "ipfs_hash",
              "type": "string"
            },
            {
              "internalType": "string",
              "name": "issued_on",
              "type": "string"
            },
            {
              "internalType": "string",
              "name": "last_updated",
              "type": "string"
            },
            {
              "internalType": "address",
              "name": "admin",
              "type": "address"
            },
            {
              "internalType": "address",
              "name": "user",
              "type": "address"
            },
            {
              "internalType": "enum DeDocs.DEPARTMENT",
              "name": "department",
              "type": "uint8"
            }
          ],
          "internalType": "struct DeDocs.Document",
          "name": "",
          "type": "tuple"
        }
      ],
      "stateMutability": "payable",
      "type": "function",
      "payable": true
    },
    {
      "inputs": [
        {
          "internalType": "uint256",
          "name": "_document_id",
          "type": "uint256"
        },
        {
          "internalType": "string",
          "name": "_new_hash",
          "type": "string"
        },
        {
          "internalType": "string",
          "name": "_last_updated",
          "type": "string"
        },
        {
          "internalType": "string",
          "name": "_message",
          "type": "string"
        }
      ],
      "name": "modify_document",
      "outputs": [
        {
          "components": [
            {
              "internalType": "uint256",
              "name": "id",
              "type": "uint256"
            },
            {
              "internalType": "uint256",
              "name": "request_id",
              "type": "uint256"
            },
            {
              "internalType": "string",
              "name": "name",
              "type": "string"
            },
            {
              "internalType": "string",
              "name": "uid",
              "type": "string"
            },
            {
              "internalType": "string",
              "name": "ipfs_hash",
              "type": "string"
            },
            {
              "internalType": "string",
              "name": "issued_on",
              "type": "string"
            },
            {
              "internalType": "string",
              "name": "last_updated",
              "type": "string"
            },
            {
              "internalType": "address",
              "name": "admin",
              "type": "address"
            },
            {
              "internalType": "address",
              "name": "user",
              "type": "address"
            },
            {
              "internalType": "enum DeDocs.DEPARTMENT",
              "name": "department",
              "type": "uint8"
            }
          ],
          "internalType": "struct DeDocs.Document",
          "name": "",
          "type": "tuple"
        }
      ],
      "stateMutability": "payable",
      "type": "function",
      "payable": true
    }
  ],
  "bytecode": "0x60806040526000805534801561001457600080fd5b507f9ab3570e7e18bfba94b9c1020a507301d734b0c1bd22301391288a326884adc1604051610074906020808252601e908201527f436f6e7472616374206465706c6f796564207375636365737366756c6c790000604082015260600190565b60405180910390a1614daf806200008c6000396000f3fe6080604052600436106101135760e060020a60003504630776a4f381146101185780630c99d1301461014157806316dd9b591461015657806318db724f1461017657806326611b5a146101ad57806338925c7d146101d157806339c22db8146101f1578063429b62e51461021e578063633988441461024d578063726f091e1461026d5780637673ac951461028f578063789469bd146102c55780639ecebe2a146102e5578063a6d6e94914610305578063a87430ba14610327578063bb5bfd6614610359578063bf5ba0fb1461037b578063c5dbb79e1461039d578063ca76115c146103b0578063cf562022146103c5578063d2965f04146103d8578063f66c99dc146103f8578063f7a37b5214610418575b600080fd5b61012b6101263660046140c1565b61042d565b60405161013891906141c7565b60405180910390f35b61015461014f366004614265565b610555565b005b61016961016436600461429a565b610afc565b6040516101389190614467565b34801561018257600080fd5b50610196610191366004614265565b6113f7565b6040516101389b9a9998979695949392919061449d565b3480156101b957600080fd5b506101c360005481565b604051908152602001610138565b3480156101dd57600080fd5b506101696101ec366004614265565b61171c565b3480156101fd57600080fd5b5061021161020c36600461455e565b611b8b565b6040516101389190614579565b34801561022a57600080fd5b5061023e61023936600461455e565b611be5565b6040516101389392919061458c565b34801561025957600080fd5b506101c36102683660046145bf565b611c9d565b34801561027957600080fd5b50610282611cce565b60405161013891906145e9565b34801561029b57600080fd5b506102af6102aa366004614265565b611da4565b6040516101389a99989796959493929190614636565b6102d86102d33660046146ee565b6120c3565b604051610138919061473b565b3480156102f157600080fd5b506101c36103003660046145bf565b6121bc565b34801561031157600080fd5b5061031a6121d8565b6040516101389190614785565b34801561033357600080fd5b5061034761034236600461455e565b61257d565b604051610138969594939291906147e6565b34801561036557600080fd5b5061036e6127dc565b6040516101389190614944565b34801561038757600080fd5b50610390612bdc565b6040516101389190614998565b6101696103ab3660046149dc565b612c3e565b3480156103bc57600080fd5b506103906131b6565b6101546103d3366004614a10565b613216565b3480156103e457600080fd5b5061012b6103f336600461455e565b6137c3565b61040b610406366004614a65565b613a5a565b6040516101389190614b3c565b34801561042457600080fd5b506102d8613cfd565b610435613dfe565b33600090815260036020526040902054600160a060020a0316156104775760405160e560020a62461bcd02815260040161046e90614b4f565b60405180910390fd5b61047f613dfe565b33808252602080830188815260408085018990526060850188905260808501879052600060a086018190529384526003835290922083518154600160a060020a031916600160a060020a03909116178155915180518493926104e8926001850192910190613e3d565b5060408201518051610504916002840191602090910190613e3d565b5060608201518051610520916003840191602090910190613e3d565b506080820151805161053c916004840191602090910190613e3d565b5060a0919091015160059091015590505b949350505050565b33600090815260046020526040902054600160a060020a031661058d5760405160e560020a62461bcd02815260040161046e90614b94565b6000600182815481106105a2576105a2614bda565b906000526020600020906009020160405180610160016040529081600082015481526020016001820160009054906101000a9004600160a060020a0316600160a060020a0316600160a060020a0316815260200160028201805461060590614bf4565b80601f016020809104026020016040519081016040528092919081815260200182805461063190614bf4565b801561067e5780601f106106535761010080835404028352916020019161067e565b820191906000526020600020905b81548152906001019060200180831161066157829003601f168201915b5050505050815260200160038201805461069790614bf4565b80601f01602080910402602001604051908101604052809291908181526020018280546106c390614bf4565b80156107105780601f106106e557610100808354040283529160200191610710565b820191906000526020600020905b8154815290600101906020018083116106f357829003601f168201915b5050505050815260200160048201805461072990614bf4565b80601f016020809104026020016040519081016040528092919081815260200182805461075590614bf4565b80156107a25780601f10610777576101008083540402835291602001916107a2565b820191906000526020600020905b81548152906001019060200180831161078557829003601f168201915b505050505081526020016005820180546107bb90614bf4565b80601f01602080910402602001604051908101604052809291908181526020018280546107e790614bf4565b80156108345780601f1061080957610100808354040283529160200191610834565b820191906000526020600020905b81548152906001019060200180831161081757829003601f168201915b5050509183525050600682015460209091019060ff16600381111561085b5761085b61435f565b600381111561086c5761086c61435f565b81526020016006820160019054906101000a900460ff1660028111156108945761089461435f565b60028111156108a5576108a561435f565b81526020016006820160029054906101000a900460ff1660028111156108cd576108cd61435f565b60028111156108de576108de61435f565b8152602001600782015481526020016008820180546108fc90614bf4565b80601f016020809104026020016040519081016040528092919081815260200182805461092890614bf4565b80156109755780601f1061094a57610100808354040283529160200191610975565b820191906000526020600020905b81548152906001019060200180831161095857829003601f168201915b505050919092525091925060019150506101008201818152505080600183815481106109a3576109a3614bda565b600091825260209182902083516009929092020190815582820151600182018054600160a060020a031916600160a060020a039092169190911790556040830151805191926109fa92600285019290910190613e3d565b5060608201518051610a16916003840191602090910190613e3d565b5060808201518051610a32916004840191602090910190613e3d565b5060a08201518051610a4e916005840191602090910190613e3d565b5060c082015160068201805460ff19166001836003811115610a7257610a7261435f565b021790555060e082015160068201805461ff001916610100836002811115610a9c57610a9c61435f565b021790555061010082015160068201805462ff0000191662010000836002811115610ac957610ac961435f565b021790555061012082015160078201556101408201518051610af5916008840191602090910190613e3d565b5050505050565b610b04613ec1565b33600090815260046020526040902054600160a060020a0316610b3c5760405160e560020a62461bcd02815260040161046e90614b94565b600160a060020a0386811660009081526003602052604090205416610ba25760405160e560020a62461bcd0281526020600482015260166024820152605260020a75155cd95c881a5cc81b9bdd081c9959da5cdd195c995902604482015260640161046e565b600060018881548110610bb757610bb7614bda565b906000526020600020906009020160405180610160016040529081600082015481526020016001820160009054906101000a9004600160a060020a0316600160a060020a0316600160a060020a03168152602001600282018054610c1a90614bf4565b80601f0160208091040260200160405190810160405280929190818152602001828054610c4690614bf4565b8015610c935780601f10610c6857610100808354040283529160200191610c93565b820191906000526020600020905b815481529060010190602001808311610c7657829003601f168201915b50505050508152602001600382018054610cac90614bf4565b80601f0160208091040260200160405190810160405280929190818152602001828054610cd890614bf4565b8015610d255780601f10610cfa57610100808354040283529160200191610d25565b820191906000526020600020905b815481529060010190602001808311610d0857829003601f168201915b50505050508152602001600482018054610d3e90614bf4565b80601f0160208091040260200160405190810160405280929190818152602001828054610d6a90614bf4565b8015610db75780601f10610d8c57610100808354040283529160200191610db7565b820191906000526020600020905b815481529060010190602001808311610d9a57829003601f168201915b50505050508152602001600582018054610dd090614bf4565b80601f0160208091040260200160405190810160405280929190818152602001828054610dfc90614bf4565b8015610e495780601f10610e1e57610100808354040283529160200191610e49565b820191906000526020600020905b815481529060010190602001808311610e2c57829003601f168201915b5050509183525050600682015460209091019060ff166003811115610e7057610e7061435f565b6003811115610e8157610e8161435f565b81526020016006820160019054906101000a900460ff166002811115610ea957610ea961435f565b6002811115610eba57610eba61435f565b81526020016006820160029054906101000a900460ff166002811115610ee257610ee261435f565b6002811115610ef357610ef361435f565b815260200160078201548152602001600882018054610f1190614bf4565b80601f0160208091040260200160405190810160405280929190818152602001828054610f3d90614bf4565b8015610f8a5780601f10610f5f57610100808354040283529160200191610f8a565b820191906000526020600020905b815481529060010190602001808311610f6d57829003601f168201915b505050505081525050905080610120015160001461100a5760405160e560020a62461bcd02815260206004820152603160248201527f446f63756d656e742068617320616c7265616479206265656e206973737565646044820152607a60020a7008199bdc881d1a1a5cc81c995c5d595cdd02606482015260840161046e565b611012613ec1565b600254611020906001614c4d565b815260408101879052606081018690526080810185905260a08101849052600160a060020a0388166101008201523360e082015260c082015161012082019060038111156110705761107061435f565b908160038111156110835761108361435f565b90525060028054600181018255600091909152815160099091027f405787fa12a823e0f2b7631cc41b3ba8828b3321ca811111fa75cd3aa3bb5ace81019182556020808401517f405787fa12a823e0f2b7631cc41b3ba8828b3321ca811111fa75cd3aa3bb5acf83015560408401518051859493611127937f405787fa12a823e0f2b7631cc41b3ba8828b3321ca811111fa75cd3aa3bb5ad0909101920190613e3d565b5060608201518051611143916003840191602090910190613e3d565b506080820151805161115f916004840191602090910190613e3d565b5060a0820151805161117b916005840191602090910190613e3d565b5060c08201518051611197916006840191602090910190613e3d565b5060e0820151600782018054600160a060020a0319908116600160a060020a03938416179091556101008401516008840180549283169190931690811783556101208501519291600160a860020a0319161760a060020a8360038111156112005761120061435f565b02179055505050600160a060020a0388166000908152600660209081526040822083518154600181810184559285529290932090910191909155815161012084015280548391908b90811061125757611257614bda565b600091825260209182902083516009929092020190815582820151600182018054600160a060020a031916600160a060020a039092169190911790556040830151805191926112ae92600285019290910190613e3d565b50606082015180516112ca916003840191602090910190613e3d565b50608082015180516112e6916004840191602090910190613e3d565b5060a08201518051611302916005840191602090910190613e3d565b5060c082015160068201805460ff191660018360038111156113265761132661435f565b021790555060e082015160068201805461ff0019166101008360028111156113505761135061435f565b021790555061010082015160068201805462ff000019166201000083600281111561137d5761137d61435f565b0217905550610120820151600782015561014082015180516113a9916008840191602090910190613e3d565b505081516040517f17996aa8290ab524448faa4d34e5699cdbfce21451bd43063fd8106c2d6604f892506113e3918b913391908990614c65565b60405180910390a198975050505050505050565b6001818154811061140757600080fd5b6000918252602090912060099091020180546001820154600283018054929450600160a060020a03909116929161143d90614bf4565b80601f016020809104026020016040519081016040528092919081815260200182805461146990614bf4565b80156114b65780601f1061148b576101008083540402835291602001916114b6565b820191906000526020600020905b81548152906001019060200180831161149957829003601f168201915b5050505050908060030180546114cb90614bf4565b80601f01602080910402602001604051908101604052809291908181526020018280546114f790614bf4565b80156115445780601f1061151957610100808354040283529160200191611544565b820191906000526020600020905b81548152906001019060200180831161152757829003601f168201915b50505050509080600401805461155990614bf4565b80601f016020809104026020016040519081016040528092919081815260200182805461158590614bf4565b80156115d25780601f106115a7576101008083540402835291602001916115d2565b820191906000526020600020905b8154815290600101906020018083116115b557829003601f168201915b5050505050908060050180546115e790614bf4565b80601f016020809104026020016040519081016040528092919081815260200182805461161390614bf4565b80156116605780601f1061163557610100808354040283529160200191611660565b820191906000526020600020905b81548152906001019060200180831161164357829003601f168201915b50505060068401546007850154600886018054959660ff8085169761010086048216975062010000909504169450919261169990614bf4565b80601f01602080910402602001604051908101604052809291908181526020018280546116c590614bf4565b80156117125780601f106116e757610100808354040283529160200191611712565b820191906000526020600020905b8154815290600101906020018083116116f557829003601f168201915b505050505090508b565b611724613ec1565b600254829081111561174b5760405160e560020a62461bcd02815260040161046e90614c98565b336000908152600460205260409020548390600160a060020a03161515806117aa575033600160a060020a03166002828154811061178b5761178b614bda565b6000918252602090912060086009909202010154600160a060020a0316145b61180f5760405160e560020a62461bcd02815260206004820152602a60248201527f596f7520617265206e6f7420616c6c6f77656420746f20706572666f726d2074604482015260b160020a693434b99030b1ba34b7b702606482015260840161046e565b60006002858154811061182457611824614bda565b906000526020600020906009020160405180610140016040529081600082015481526020016001820154815260200160028201805461186290614bf4565b80601f016020809104026020016040519081016040528092919081815260200182805461188e90614bf4565b80156118db5780601f106118b0576101008083540402835291602001916118db565b820191906000526020600020905b8154815290600101906020018083116118be57829003601f168201915b505050505081526020016003820180546118f490614bf4565b80601f016020809104026020016040519081016040528092919081815260200182805461192090614bf4565b801561196d5780601f106119425761010080835404028352916020019161196d565b820191906000526020600020905b81548152906001019060200180831161195057829003601f168201915b5050505050815260200160048201805461198690614bf4565b80601f01602080910402602001604051908101604052809291908181526020018280546119b290614bf4565b80156119ff5780601f106119d4576101008083540402835291602001916119ff565b820191906000526020600020905b8154815290600101906020018083116119e257829003601f168201915b50505050508152602001600582018054611a1890614bf4565b80601f0160208091040260200160405190810160405280929190818152602001828054611a4490614bf4565b8015611a915780601f10611a6657610100808354040283529160200191611a91565b820191906000526020600020905b815481529060010190602001808311611a7457829003601f168201915b50505050508152602001600682018054611aaa90614bf4565b80601f0160208091040260200160405190810160405280929190818152602001828054611ad690614bf4565b8015611b235780601f10611af857610100808354040283529160200191611b23565b820191906000526020600020905b815481529060010190602001808311611b0657829003601f168201915b50505091835250506007820154600160a060020a0390811660208301526008830154908116604083015260609091019060a060020a900460ff166003811115611b6e57611b6e61435f565b6003811115611b7f57611b7f61435f565b90525095945050505050565b600160a060020a0381811660009081526003602052604081205490911615611bb557506002919050565b600160a060020a038281166000908152600460205260409020541615611bdd57506001919050565b506000919050565b60046020526000908152604090208054600182018054600160a060020a039092169291611c1190614bf4565b80601f0160208091040260200160405190810160405280929190818152602001828054611c3d90614bf4565b8015611c8a5780601f10611c5f57610100808354040283529160200191611c8a565b820191906000526020600020905b815481529060010190602001808311611c6d57829003601f168201915b5050506002909301549192505060ff1683565b60066020528160005260406000208181548110611cb957600080fd5b90600052602060002001600091509150505481565b611cd6613f36565b60006040518060800160405280604051806060016040528060288152602001614d526028913981526020016040518060400160405280600a815260200160b360020a690929c869e9a8a40a882b028152508152602001604051806040016040528060158152602001605960020a7426aaa724a1a4a820a61021a7a92827a920aa24a7a70281525081526020016040518060400160405280601a81526020017f5354415445205452414e53504f5254442045504152544d454e5400000000000081525081525090508091505090565b60028181548110611db457600080fd5b9060005260206000209060090201600091509050806000015490806001015490806002018054611de390614bf4565b80601f0160208091040260200160405190810160405280929190818152602001828054611e0f90614bf4565b8015611e5c5780601f10611e3157610100808354040283529160200191611e5c565b820191906000526020600020905b815481529060010190602001808311611e3f57829003601f168201915b505050505090806003018054611e7190614bf4565b80601f0160208091040260200160405190810160405280929190818152602001828054611e9d90614bf4565b8015611eea5780601f10611ebf57610100808354040283529160200191611eea565b820191906000526020600020905b815481529060010190602001808311611ecd57829003601f168201915b505050505090806004018054611eff90614bf4565b80601f0160208091040260200160405190810160405280929190818152602001828054611f2b90614bf4565b8015611f785780601f10611f4d57610100808354040283529160200191611f78565b820191906000526020600020905b815481529060010190602001808311611f5b57829003601f168201915b505050505090806005018054611f8d90614bf4565b80601f0160208091040260200160405190810160405280929190818152602001828054611fb990614bf4565b80156120065780601f10611fdb57610100808354040283529160200191612006565b820191906000526020600020905b815481529060010190602001808311611fe957829003601f168201915b50505050509080600601805461201b90614bf4565b80601f016020809104026020016040519081016040528092919081815260200182805461204790614bf4565b80156120945780601f1061206957610100808354040283529160200191612094565b820191906000526020600020905b81548152906001019060200180831161207757829003601f168201915b5050505060078301546008909301549192600160a060020a0390811692908116915060a060020a900460ff168a565b6120cb613f5d565b33600090815260046020526040902054600160a060020a0316156121045760405160e560020a62461bcd02815260040161046e90614b4f565b61210c613f5d565b338152602081018490526040810183600381111561212c5761212c61435f565b9081600381111561213f5761213f61435f565b90525033600090815260046020908152604090912082518154600160a060020a031916600160a060020a039091161781558282015180518493612189926001850192910190613e3d565b50604082015160028201805460ff191660018360038111156121ad576121ad61435f565b02179055509195945050505050565b60056020528160005260406000208181548110611cb957600080fd5b60606002805480602002602001604051908101604052809291908181526020016000905b82821015612574578382906000526020600020906009020160405180610140016040529081600082015481526020016001820154815260200160028201805461224490614bf4565b80601f016020809104026020016040519081016040528092919081815260200182805461227090614bf4565b80156122bd5780601f10612292576101008083540402835291602001916122bd565b820191906000526020600020905b8154815290600101906020018083116122a057829003601f168201915b505050505081526020016003820180546122d690614bf4565b80601f016020809104026020016040519081016040528092919081815260200182805461230290614bf4565b801561234f5780601f106123245761010080835404028352916020019161234f565b820191906000526020600020905b81548152906001019060200180831161233257829003601f168201915b5050505050815260200160048201805461236890614bf4565b80601f016020809104026020016040519081016040528092919081815260200182805461239490614bf4565b80156123e15780601f106123b6576101008083540402835291602001916123e1565b820191906000526020600020905b8154815290600101906020018083116123c457829003601f168201915b505050505081526020016005820180546123fa90614bf4565b80601f016020809104026020016040519081016040528092919081815260200182805461242690614bf4565b80156124735780601f1061244857610100808354040283529160200191612473565b820191906000526020600020905b81548152906001019060200180831161245657829003601f168201915b5050505050815260200160068201805461248c90614bf4565b80601f01602080910402602001604051908101604052809291908181526020018280546124b890614bf4565b80156125055780601f106124da57610100808354040283529160200191612505565b820191906000526020600020905b8154815290600101906020018083116124e857829003601f168201915b50505091835250506007820154600160a060020a0390811660208301526008830154908116604083015260609091019060a060020a900460ff1660038111156125505761255061435f565b60038111156125615761256161435f565b81525050815260200190600101906121fc565b50505050905090565b60036020526000908152604090208054600182018054600160a060020a0390921692916125a990614bf4565b80601f01602080910402602001604051908101604052809291908181526020018280546125d590614bf4565b80156126225780601f106125f757610100808354040283529160200191612622565b820191906000526020600020905b81548152906001019060200180831161260557829003601f168201915b50505050509080600201805461263790614bf4565b80601f016020809104026020016040519081016040528092919081815260200182805461266390614bf4565b80156126b05780601f10612685576101008083540402835291602001916126b0565b820191906000526020600020905b81548152906001019060200180831161269357829003601f168201915b5050505050908060030180546126c590614bf4565b80601f01602080910402602001604051908101604052809291908181526020018280546126f190614bf4565b801561273e5780601f106127135761010080835404028352916020019161273e565b820191906000526020600020905b81548152906001019060200180831161272157829003601f168201915b50505050509080600401805461275390614bf4565b80601f016020809104026020016040519081016040528092919081815260200182805461277f90614bf4565b80156127cc5780601f106127a1576101008083540402835291602001916127cc565b820191906000526020600020905b8154815290600101906020018083116127af57829003601f168201915b5050505050908060050154905086565b60606001805480602002602001604051908101604052809291908181526020016000905b82821015612574576000848152602090819020604080516101608101825260098602909201805483526001810154600160a060020a0316938301939093526002830180549293929184019161285490614bf4565b80601f016020809104026020016040519081016040528092919081815260200182805461288090614bf4565b80156128cd5780601f106128a2576101008083540402835291602001916128cd565b820191906000526020600020905b8154815290600101906020018083116128b057829003601f168201915b505050505081526020016003820180546128e690614bf4565b80601f016020809104026020016040519081016040528092919081815260200182805461291290614bf4565b801561295f5780601f106129345761010080835404028352916020019161295f565b820191906000526020600020905b81548152906001019060200180831161294257829003601f168201915b5050505050815260200160048201805461297890614bf4565b80601f01602080910402602001604051908101604052809291908181526020018280546129a490614bf4565b80156129f15780601f106129c6576101008083540402835291602001916129f1565b820191906000526020600020905b8154815290600101906020018083116129d457829003601f168201915b50505050508152602001600582018054612a0a90614bf4565b80601f0160208091040260200160405190810160405280929190818152602001828054612a3690614bf4565b8015612a835780601f10612a5857610100808354040283529160200191612a83565b820191906000526020600020905b815481529060010190602001808311612a6657829003601f168201915b5050509183525050600682015460209091019060ff166003811115612aaa57612aaa61435f565b6003811115612abb57612abb61435f565b81526020016006820160019054906101000a900460ff166002811115612ae357612ae361435f565b6002811115612af457612af461435f565b81526020016006820160029054906101000a900460ff166002811115612b1c57612b1c61435f565b6002811115612b2d57612b2d61435f565b815260200160078201548152602001600882018054612b4b90614bf4565b80601f0160208091040260200160405190810160405280929190818152602001828054612b7790614bf4565b8015612bc45780601f10612b9957610100808354040283529160200191612bc4565b820191906000526020600020905b815481529060010190602001808311612ba757829003601f168201915b50505050508152505081526020019060010190612800565b336000908152600660209081526040808320805482518185028101850190935280835260609493830182828015612c3257602002820191906000526020600020905b815481526020019060010190808311612c1e575b50939695505050505050565b612c46613ec1565b6002548590811115612c6d5760405160e560020a62461bcd02815260040161046e90614c98565b33600090815260046020526040902054600160a060020a0316612ca55760405160e560020a62461bcd02815260040161046e90614b94565b60006002612cb4600189614ccc565b81548110612cc457612cc4614bda565b9060005260206000209060090201604051806101400160405290816000820154815260200160018201548152602001600282018054612d0290614bf4565b80601f0160208091040260200160405190810160405280929190818152602001828054612d2e90614bf4565b8015612d7b5780601f10612d5057610100808354040283529160200191612d7b565b820191906000526020600020905b815481529060010190602001808311612d5e57829003601f168201915b50505050508152602001600382018054612d9490614bf4565b80601f0160208091040260200160405190810160405280929190818152602001828054612dc090614bf4565b8015612e0d5780601f10612de257610100808354040283529160200191612e0d565b820191906000526020600020905b815481529060010190602001808311612df057829003601f168201915b50505050508152602001600482018054612e2690614bf4565b80601f0160208091040260200160405190810160405280929190818152602001828054612e5290614bf4565b8015612e9f5780601f10612e7457610100808354040283529160200191612e9f565b820191906000526020600020905b815481529060010190602001808311612e8257829003601f168201915b50505050508152602001600582018054612eb890614bf4565b80601f0160208091040260200160405190810160405280929190818152602001828054612ee490614bf4565b8015612f315780601f10612f0657610100808354040283529160200191612f31565b820191906000526020600020905b815481529060010190602001808311612f1457829003601f168201915b50505050508152602001600682018054612f4a90614bf4565b80601f0160208091040260200160405190810160405280929190818152602001828054612f7690614bf4565b8015612fc35780601f10612f9857610100808354040283529160200191612fc3565b820191906000526020600020905b815481529060010190602001808311612fa657829003601f168201915b50505091835250506007820154600160a060020a0390811660208301526008830154908116604083015260609091019060a060020a900460ff16600381111561300e5761300e61435f565b600381111561301f5761301f61435f565b90525060c0810186905260808101879052905080600261304060018a614ccc565b8154811061305057613050614bda565b90600052602060002090600902016000820151816000015560208201518160010155604082015181600201908051906020019061308e929190613e3d565b50606082015180516130aa916003840191602090910190613e3d565b50608082015180516130c6916004840191602090910190613e3d565b5060a082015180516130e2916005840191602090910190613e3d565b5060c082015180516130fe916006840191602090910190613e3d565b5060e0820151600782018054600160a060020a0319908116600160a060020a03938416179091556101008401516008840180549283169190931690811783556101208501519291600160a860020a0319161760a060020a8360038111156131675761316761435f565b02179055509050507fc4f15c88bda961a26d5674062e979fe4f589189d2977fa373051e3860cee0daa878286886040516131a49493929190614ce3565b60405180910390a19695505050505050565b336000908152600560209081526040808320805482518185028101850190935280835260609493830182828015612c325760200282019190600052602060002090815481526020019060010190808311612c1e5750939695505050505050565b33600090815260046020526040902054600160a060020a031661324e5760405160e560020a62461bcd02815260040161046e90614b94565b60006001838154811061326357613263614bda565b906000526020600020906009020160405180610160016040529081600082015481526020016001820160009054906101000a9004600160a060020a0316600160a060020a0316600160a060020a031681526020016002820180546132c690614bf4565b80601f01602080910402602001604051908101604052809291908181526020018280546132f290614bf4565b801561333f5780601f106133145761010080835404028352916020019161333f565b820191906000526020600020905b81548152906001019060200180831161332257829003601f168201915b5050505050815260200160038201805461335890614bf4565b80601f016020809104026020016040519081016040528092919081815260200182805461338490614bf4565b80156133d15780601f106133a6576101008083540402835291602001916133d1565b820191906000526020600020905b8154815290600101906020018083116133b457829003601f168201915b505050505081526020016004820180546133ea90614bf4565b80601f016020809104026020016040519081016040528092919081815260200182805461341690614bf4565b80156134635780601f1061343857610100808354040283529160200191613463565b820191906000526020600020905b81548152906001019060200180831161344657829003601f168201915b5050505050815260200160058201805461347c90614bf4565b80601f01602080910402602001604051908101604052809291908181526020018280546134a890614bf4565b80156134f55780601f106134ca576101008083540402835291602001916134f5565b820191906000526020600020905b8154815290600101906020018083116134d857829003601f168201915b5050509183525050600682015460209091019060ff16600381111561351c5761351c61435f565b600381111561352d5761352d61435f565b81526020016006820160019054906101000a900460ff1660028111156135555761355561435f565b60028111156135665761356661435f565b81526020016006820160029054906101000a900460ff16600281111561358e5761358e61435f565b600281111561359f5761359f61435f565b8152602001600782015481526020016008820180546135bd90614bf4565b80601f01602080910402602001604051908101604052809291908181526020018280546135e990614bf4565b80156136365780601f1061360b57610100808354040283529160200191613636565b820191906000526020600020905b81548152906001019060200180831161361957829003601f168201915b50505091909252505060026101008301525061014081018390526001805491925082918590811061366957613669614bda565b600091825260209182902083516009929092020190815582820151600182018054600160a060020a031916600160a060020a039092169190911790556040830151805191926136c092600285019290910190613e3d565b50606082015180516136dc916003840191602090910190613e3d565b50608082015180516136f8916004840191602090910190613e3d565b5060a08201518051613714916005840191602090910190613e3d565b5060c082015160068201805460ff191660018360038111156137385761373861435f565b021790555060e082015160068201805461ff0019166101008360028111156137625761376261435f565b021790555061010082015160068201805462ff000019166201000083600281111561378f5761378f61435f565b0217905550610120820151600782015561014082015180516137bb916008840191602090910190613e3d565b505050505050565b6137cb613dfe565b600160a060020a038083166000908152600360209081526040808320815160c081019092528054909416815260018401805493949193919284019161380f90614bf4565b80601f016020809104026020016040519081016040528092919081815260200182805461383b90614bf4565b80156138885780601f1061385d57610100808354040283529160200191613888565b820191906000526020600020905b81548152906001019060200180831161386b57829003601f168201915b505050505081526020016002820180546138a190614bf4565b80601f01602080910402602001604051908101604052809291908181526020018280546138cd90614bf4565b801561391a5780601f106138ef5761010080835404028352916020019161391a565b820191906000526020600020905b8154815290600101906020018083116138fd57829003601f168201915b5050505050815260200160038201805461393390614bf4565b80601f016020809104026020016040519081016040528092919081815260200182805461395f90614bf4565b80156139ac5780601f10613981576101008083540402835291602001916139ac565b820191906000526020600020905b81548152906001019060200180831161398f57829003601f168201915b505050505081526020016004820180546139c590614bf4565b80601f01602080910402602001604051908101604052809291908181526020018280546139f190614bf4565b8015613a3e5780601f10613a1357610100808354040283529160200191613a3e565b820191906000526020600020905b815481529060010190602001808311613a2157829003601f168201915b5050509183525050600591909101546020909101529392505050565b613a62613f92565b613a6a613f92565b600054815233602082015260408101889052606081018790526080810186905260a0810184905260c08101896003811115613aa757613aa761435f565b90816003811115613aba57613aba61435f565b90525060e08101856002811115613ad357613ad361435f565b90816002811115613ae657613ae661435f565b905250600061010082018190526101208201849052600180548082018255915281517fb10e2d527612073b26eecdfd717e6a320cf44b4afac2b0732d9fcbe2b7fa0cf660099092029182019081556020808401517fb10e2d527612073b26eecdfd717e6a320cf44b4afac2b0732d9fcbe2b7fa0cf784018054600160a060020a031916600160a060020a03909216919091179055604084015180518594613bb3937fb10e2d527612073b26eecdfd717e6a320cf44b4afac2b0732d9fcbe2b7fa0cf8909101920190613e3d565b5060608201518051613bcf916003840191602090910190613e3d565b5060808201518051613beb916004840191602090910190613e3d565b5060a08201518051613c07916005840191602090910190613e3d565b5060c082015160068201805460ff19166001836003811115613c2b57613c2b61435f565b021790555060e082015160068201805461ff001916610100836002811115613c5557613c5561435f565b021790555061010082015160068201805462ff0000191662010000836002811115613c8257613c8261435f565b021790555061012082015160078201556101408201518051613cae916008840191602090910190613e3d565b5050506001600080828254613cc39190614c4d565b909155505080516040517fb0d5a35d53d1b590b4e2ab0193806445dd4ad70aab99e4a02454aaf4ae4939b6916113e3913391908d90614d2d565b613d05613f5d565b3360009081526004602090815260408083208151606081019092528054600160a060020a031682526001810180549293919291840191613d4490614bf4565b80601f0160208091040260200160405190810160405280929190818152602001828054613d7090614bf4565b8015613dbd5780601f10613d9257610100808354040283529160200191613dbd565b820191906000526020600020905b815481529060010190602001808311613da057829003601f168201915b5050509183525050600282015460209091019060ff166003811115613de457613de461435f565b6003811115613df557613df561435f565b90525092915050565b6040518060c001604052806000600160a060020a0316815260200160608152602001606081526020016060815260200160608152602001600081525090565b828054613e4990614bf4565b90600052602060002090601f016020900481019282613e6b5760008555613eb1565b82601f10613e8457805160ff1916838001178555613eb1565b82800160010185558215613eb1579182015b82811115613eb1578251825591602001919060010190613e96565b50613ebd929150614006565b5090565b604051806101400160405280600081526020016000815260200160608152602001606081526020016060815260200160608152602001606081526020016000600160a060020a031681526020016000600160a060020a0316815260200160006003811115613f3157613f3161435f565b905290565b60405180608001604052806004905b6060815260200190600190039081613f455790505090565b60405180606001604052806000600160a060020a031681526020016060815260200160006003811115613f3157613f3161435f565b604051806101600160405280600081526020016000600160a060020a031681526020016060815260200160608152602001606081526020016060815260200160006003811115613fe457613fe461435f565b8152602001600081526020016000815260200160008152602001606081525090565b5b80821115613ebd5760008155600101614007565b60e060020a634e487b710260009081526041600452602490fd5b600082601f83011261404657600080fd5b81356001604060020a03808211156140605761406061401b565b604051601f8301601f19908116603f011681019082821181831017156140885761408861401b565b816040528381528660208588010111156140a157600080fd5b836020870160208301376000602085830101528094505050505092915050565b600080600080608085870312156140d757600080fd5b84356001604060020a03808211156140ee57600080fd5b6140fa88838901614035565b9550602087013591508082111561411057600080fd5b61411c88838901614035565b9450604087013591508082111561413257600080fd5b61413e88838901614035565b9350606087013591508082111561415457600080fd5b5061416187828801614035565b91505092959194509250565b600160a060020a03169052565b6000815180845260005b818110156141a057602081850181015186830182015201614184565b818111156141b2576000602083870101525b50601f01601f19169290920160200192915050565b60208082528251600160a060020a03168282015282015160c060408301526000906141f560e084018261417a565b90506040840151601f1980858403016060860152614213838361417a565b92506060860151915080858403016080860152614230838361417a565b925060808601519150808584030160a08601525061424e828261417a565b91505060a084015160c08401528091505092915050565b60006020828403121561427757600080fd5b5035919050565b8035600160a060020a038116811461429557600080fd5b919050565b60008060008060008060c087890312156142b357600080fd5b863595506142c36020880161427e565b945060408701356001604060020a03808211156142df57600080fd5b6142eb8a838b01614035565b9550606089013591508082111561430157600080fd5b61430d8a838b01614035565b9450608089013591508082111561432357600080fd5b61432f8a838b01614035565b935060a089013591508082111561434557600080fd5b5061435289828a01614035565b9150509295509295509295565b60e060020a634e487b710260009081526021600452602490fd5b600481106143895761438961435f565b9052565b6000610140825184526020830151602085015260408301518160408601526143b78286018261417a565b915050606083015184820360608601526143d1828261417a565b915050608083015184820360808601526143eb828261417a565b91505060a083015184820360a0860152614405828261417a565b91505060c083015184820360c086015261441f828261417a565b91505060e083015161443460e086018261416d565b50610100808401516144488287018261416d565b50506101208084015161445d82870182614379565b5090949350505050565b60208152600061447a602083018461438d565b9392505050565b600381106144915761449161435f565b50565b61438981614481565b8b8152600160a060020a038b166020820152610160604082018190526000906144c88382018d61417a565b905082810360608401526144dc818c61417a565b905082810360808401526144f0818b61417a565b905082810360a0840152614504818a61417a565b905061451360c0840189614379565b61451c87614481565b8660e084015261452b86614481565b856101008401528461012084015282810361014084015261454c818561417a565b9e9d5050505050505050505050505050565b60006020828403121561457057600080fd5b61447a8261427e565b6020810161458683614481565b91905290565b600160a060020a03841681526060602082018190526000906145b09083018561417a565b905061054d6040830184614379565b600080604083850312156145d257600080fd5b6145db8361427e565b946020939093013593505050565b602080825260009060a0830183820185845b600481101561462a57601f1987850301835261461884835161417a565b935091840191908401906001016145fb565b50919695505050505050565b60006101408c83528b60208401528060408401526146568184018c61417a565b9050828103606084015261466a818b61417a565b9050828103608084015261467e818a61417a565b905082810360a0840152614692818961417a565b905082810360c08401526146a6818861417a565b600160a060020a0387811660e0860152861661010085015291506146d09050610120830184614379565b9b9a5050505050505050505050565b80356004811061429557600080fd5b6000806040838503121561470157600080fd5b82356001604060020a0381111561471757600080fd5b61472385828601614035565b925050614732602084016146df565b90509250929050565b60208082528251600160a060020a03168282015282015160606040830152600090614769608084018261417a565b9050604084015161477d6060850182614379565b509392505050565b600060208083018184528085518083526040860191506040848202870101925083870160005b828110156147d957603f198886030184526147c785835161438d565b945092850192908501906001016147ab565b5092979650505050505050565b600160a060020a038716815260c06020820181905260009061480a9083018861417a565b828103604084015261481c818861417a565b90508281036060840152614830818761417a565b90508281036080840152614844818661417a565b9150508260a0830152979650505050505050565b6000610160825184526020830151614873602086018261416d565b50604083015181604086015261488b8286018261417a565b915050606083015184820360608601526148a5828261417a565b915050608083015184820360808601526148bf828261417a565b91505060a083015184820360a08601526148d9828261417a565b91505060c08301516148ee60c0860182614379565b5060e083015161490160e0860182614494565b506101008084015161491582870182614494565b50506101208381015190850152610140808401518583038287015261493a838261417a565b9695505050505050565b600060208083018184528085518083526040860191506040848202870101925083870160005b828110156147d957603f19888603018452614986858351614858565b9450928501929085019060010161496a565b6020808252825182820181905260009190848201906040850190845b818110156149d0578351835292840192918401916001016149b4565b50909695505050505050565b600080600080608085870312156149f257600080fd5b8435935060208501356001604060020a038082111561411057600080fd5b60008060408385031215614a2357600080fd5b8235915060208301356001604060020a03811115614a4057600080fd5b614a4c85828601614035565b9150509250929050565b80356003811061429557600080fd5b600080600080600080600060e0888a031215614a8057600080fd5b614a89886146df565b965060208801356001604060020a0380821115614aa557600080fd5b614ab18b838c01614035565b975060408a0135915080821115614ac757600080fd5b614ad38b838c01614035565b965060608a0135915080821115614ae957600080fd5b614af58b838c01614035565b9550614b0360808b01614a56565b945060a08a0135915080821115614b1957600080fd5b50614b268a828b01614035565b92505060c0880135905092959891949750929550565b60208152600061447a6020830184614858565b60208082526022908201527f54686973206164647265737320697320616c7265616479207265676973746572604082015260f260020a61195902606082015260800190565b60208082526023908201527f4f6e6c792061646d696e732063616e20706572666f726d207468697320616374604082015260e960020a6234b7b702606082015260800190565b60e060020a634e487b710260009081526032600452602490fd5b600281046001821680614c0857607f821691505b60208210811415614c2d5760e060020a634e487b710260009081526022600452602490fd5b50919050565b60e060020a634e487b710260009081526011600452602490fd5b60008219821115614c6057614c60614c33565b500190565b600160a060020a038581168252841660208201526040810183905260806060820181905260009061493a9083018461417a565b6020808252601790820152604a60020a76111bd8dd5b595b9d08191bd95cc81b9bdd08195e1a5cdd02604082015260600190565b600082821015614cde57614cde614c33565b500390565b848152608060208201526000614cfc608083018661438d565b8281036040840152614d0e818661417a565b90508281036060840152614d22818561417a565b979650505050505050565b600160a060020a0384168152602081018390526060810161054d604083018461437956fe554e49515545204944454e54494649434154494f4e20415554484f52495459204f4620494e444941a2646970667358221220390e0d5fa9b9e7fd2f96f0e3a5d4fd65074dfae4876d8a7abe3a63caa608644964736f6c634300080b0033",
  "immutableReferences": {},
  "source": "// SPDX-License-Identifier: MIT\r\npragma solidity >=0.4.22 <0.9.0;\r\n\r\ncontract DeDocs {\r\n\r\n  enum ROLE{\r\n    NOT_REGISTERED,\r\n    ADMIN,\r\n    USER\r\n  }\r\n\r\n  enum DEPARTMENT{\r\n    UNIQUE_IDENTIFICATION_AUTHORITY_OF_INDIA,\r\n    INCOME_TAX,\r\n    MUNICIPAL_CORPORATION,\r\n    STATE_TRANSPORT_DEPARTMENT\r\n  }\r\n\r\n  enum REQUEST_CATEGORY{\r\n    ISSUE,\r\n    UPDATE,\r\n    RECTIFY\r\n  }\r\n\r\n  enum REQUEST_STATUS{\r\n    PENDING,\r\n    SUCCESS,\r\n    REJECTED\r\n  }\r\n\r\n  struct Admin{\r\n    address id;\r\n    string name;\r\n    DEPARTMENT department;\r\n  }\r\n  \r\n  struct User{\r\n    address id;\r\n    string name;\r\n    string dob;\r\n    string password;    \r\n    string joined;\r\n    uint total_requests;\r\n  }\r\n\r\n  struct Request{\r\n    uint id;\r\n    address user_id;\r\n    string subject;\r\n    string description;\r\n    string ipfs_hash;\r\n    string date;\r\n    DEPARTMENT department;\r\n    REQUEST_CATEGORY category;\r\n    REQUEST_STATUS status;\r\n    uint document_id;\r\n    string remarks;\r\n  }\r\n\r\n  struct Document{\r\n    uint id;\r\n    uint request_id;\r\n    string name;\r\n    string uid;\r\n    string ipfs_hash;\r\n    string issued_on;\r\n    string last_updated;\r\n    address admin;\r\n    address user;\r\n    DEPARTMENT department;\r\n  }\r\n\r\n  event DeDocs_deployed(string message);\r\n  event Request_made(address user, uint request_id, DEPARTMENT department);\r\n  event Document_issued(address user, address admin, uint document_id, string timestamp);\r\n  event Document_modified(uint document_id, Document document, string message, string timestamp);\r\n\r\n  uint public total_requests = 0;\r\n\r\n  Request[] public all_requests;\r\n\r\n  Document[] public all_documents; //array to store all the documents of the system\r\n  mapping(address => User) public users; // mapping of user address to user data \r\n  mapping(address => Admin) public admins; //mapping of admin address to admin data\r\n  mapping(address => uint256[]) public requests; //mapping of the user addess to all the requests made by that address\r\n  mapping(address => uint256[]) public documents; // mapping of the user address to their documents\r\n  \r\n\r\n  modifier is_admin(){\r\n    require(admins[msg.sender].id != address(0x0),\"Only admins can perform this action\");\r\n    _;\r\n  }\r\n\r\n  modifier is_existent(uint _document_id){\r\n    require(_document_id <= all_documents.length, \"Document does not exist\");\r\n    _;\r\n  }\r\n\r\n  modifier is_allowed(uint _document_id){\r\n    require(admins[msg.sender].id != address(0x0) || all_documents[_document_id].user == msg.sender, \"You are not allowed to perform this action\");\r\n    _;\r\n  }\r\n\r\n  constructor()  {\r\n      emit DeDocs_deployed(\"Contract deployed successfully\");\r\n  }\r\n\r\n  function register_user(string memory _name, string memory _dob, string memory _password, string memory _joined) payable public returns (User memory){\r\n\r\n    require(users[msg.sender].id == address(0x0),\"This address is already registered\");\r\n\r\n    User memory _user;\r\n    _user.id = msg.sender;\r\n    _user.name = _name;\r\n    _user.dob = _dob;\r\n    _user.password = _password;\r\n    _user.joined = _joined;\r\n    _user.total_requests = 0;\r\n\r\n    users[msg.sender] = _user;\r\n\r\n    return _user;\r\n  }\r\n\r\n  function register_admin(string memory _name, DEPARTMENT _department) payable public returns (Admin memory){\r\n\r\n    require(admins[msg.sender].id == address(0x0),\"This address is already registered\");\r\n\r\n    Admin memory _admin;\r\n    _admin.id = msg.sender;\r\n    _admin.name = _name;\r\n    _admin.department = _department;\r\n\r\n    admins[msg.sender] = _admin;\r\n\r\n    return _admin;\r\n  }\r\n\r\n  function get_departments() public pure returns(string[4] memory departments){\r\n    string[4] memory _departments = [\"UNIQUE IDENTIFICATION AUTHORITY OF INDIA\",\"INCOME TAX\",\"MUNICIPAL CORPORATION\",\"STATE TRANSPORTD EPARTMENT\"];\r\n    return _departments;\r\n  }\r\n\r\n  function get_role(address _address) public view returns(ROLE role){\r\n\r\n    if(users[_address].id != address(0x0)) return ROLE.USER;\r\n    if(admins[_address].id != address(0x0)) return ROLE.ADMIN;\r\n\r\n    return ROLE.NOT_REGISTERED;\r\n\r\n  }\r\n\r\n  function get_all_requests() public view returns(Request[] memory){\r\n    return all_requests;\r\n  }\r\n\r\n  function get_all_documents() public view returns(Document[] memory){\r\n    return all_documents;\r\n  }\r\n\r\n  /***********************************  USER FUNCTIONS  *********************************/\r\n\r\n  function get_user_details(address _address) public view returns(User memory user){\r\n    User memory _user = users[_address];\r\n    return _user;\r\n  }\r\n\r\n  function get_user_requests() public view returns(uint256[] memory _requests){\r\n\r\n    uint256[] memory _my_requests = requests[msg.sender];\r\n    return _my_requests;\r\n    \r\n  }\r\n\r\n  function get_user_documents() public view returns(uint256[] memory _documents){\r\n\r\n    uint256[] memory _my_documents = documents[msg.sender];\r\n    return _my_documents;\r\n    \r\n  }\r\n\r\n  function make_request(DEPARTMENT _department,  string memory _subject, string memory _description, string memory _ipfs_hash, REQUEST_CATEGORY _request_category, string memory _date, uint _document_id) public payable returns(Request memory){\r\n\r\n    Request memory request;\r\n\r\n    request.id = total_requests;\r\n    request.user_id = msg.sender;\r\n    request.subject = _subject;\r\n    request.description = _description;\r\n    request.ipfs_hash = _ipfs_hash;\r\n    request.date = _date;\r\n    request.department = _department;\r\n    request.category = _request_category;\r\n    request.status = REQUEST_STATUS.PENDING;\r\n    request.document_id = _document_id;\r\n\r\n    all_requests.push(request);\r\n    total_requests += 1;\r\n\r\n    emit Request_made(msg.sender, request.id, _department);\r\n\r\n    return request;\r\n  }\r\n\r\n\r\n  /********************************ADMIN FUNCTIONS********************************/\r\n\r\n  function get_admin_details() public view returns(Admin memory admin){\r\n    Admin memory _admin = admins[msg.sender];\r\n    return _admin;\r\n  }\r\n\r\n  function get_document (uint _document_id) is_existent(_document_id) is_allowed(_document_id) public view returns (Document memory){\r\n    Document memory _document = all_documents[_document_id];\r\n    return _document;\r\n  }\r\n\r\n  function reject_request(uint _request_id, string memory _remarks) is_admin public payable{\r\n    Request memory _request = all_requests[_request_id];\r\n    _request.status = REQUEST_STATUS.REJECTED;\r\n    _request.remarks = _remarks;\r\n    all_requests[_request_id] = _request;\r\n  }\r\n\r\n  function approve_request(uint _request_id) is_admin public payable{\r\n    Request memory _request = all_requests[_request_id];\r\n    _request.status = REQUEST_STATUS.SUCCESS;\r\n    all_requests[_request_id] = _request;\r\n  }\r\n\r\n  function issue_document(uint _request_id, address _userAddress, string memory _name, string memory _uid, string memory _ipfs_hash, string memory _issued_on) is_admin public payable returns(Document memory){\r\n    \r\n    //check if user is registered\r\n    require(users[_userAddress].id != address(0x0),\"User is not registered\");\r\n\r\n    //check if no document is already issued for this request\r\n    Request memory _request = all_requests[_request_id];\r\n    require(_request.document_id == 0,\"Document has already been issued for this request\");\r\n\r\n    //create a new document instance\r\n    Document memory _document;\r\n    _document.id = all_documents.length + 1;\r\n    _document.name = _name;\r\n    _document.uid = _uid;\r\n    _document.ipfs_hash = _ipfs_hash;\r\n    _document.issued_on = _issued_on;\r\n    _document.user = _userAddress;\r\n    _document.admin = msg.sender;\r\n    _document.department = _request.department;\r\n\r\n    //insert the document to the records\r\n    all_documents.push(_document);\r\n    documents[_userAddress].push(_document.id);\r\n\r\n    //update the request\r\n    _request.document_id = _document.id;\r\n    all_requests[_request_id] = _request;\r\n\r\n    emit Document_issued(_userAddress, msg.sender, _document.id,_issued_on);\r\n\r\n    return _document;\r\n  }\r\n\r\n\r\n  function modify_document(uint _document_id, string memory _new_hash, string memory _last_updated, string memory _message) is_existent(_document_id) is_admin public payable returns(Document memory){\r\n    \r\n    //Get the current version of the document\r\n    Document memory _document = all_documents[_document_id - 1];\r\n\r\n    //update the document\r\n    _document.last_updated = _last_updated;\r\n    _document.ipfs_hash = _new_hash;\r\n    all_documents[_document_id - 1] = _document;\r\n\r\n    emit Document_modified(_document_id, _document, _message,_last_updated);\r\n\r\n    return _document;\r\n  }\r\n\r\n}\r\n",
  "sourcePath": "C:\\Users\\Kailash\\Desktop\\summer project\\backend\\contracts\\DeDocs.sol",
  "compiler": {
    "name": "solc",
    "version": "0.8.11+commit.d7f03943.Emscripten.clang"
  },
  "schemaVersion": "3.4.5",
  "updatedAt": "2022-07-03T21:49:35.129Z",
  "networkType": "ethereum",
  "devdoc": {
    "kind": "dev",
    "methods": {},
    "version": 1
  },
  "userdoc": {
    "kind": "user",
    "methods": {},
    "version": 1
  }
}