{
  "contractName": "DeDocs",
  "abi": [
    {
      "inputs": [],
      "stateMutability": "nonpayable",
      "type": "constructor"
    },
    {
      "anonymous": false,
      "inputs": [
        {
          "indexed": false,
          "internalType": "uint256",
          "name": "document_id",
          "type": "uint256"
        },
        {
          "indexed": false,
          "internalType": "string",
          "name": "message",
          "type": "string"
        }
      ],
      "name": "Dcoument_modified",
      "type": "event"
    },
    {
      "anonymous": false,
      "inputs": [
        {
          "indexed": false,
          "internalType": "string",
          "name": "message",
          "type": "string"
        }
      ],
      "name": "DeDocs_deployed",
      "type": "event"
    },
    {
      "inputs": [
        {
          "internalType": "address",
          "name": "",
          "type": "address"
        }
      ],
      "name": "admins",
      "outputs": [
        {
          "internalType": "address",
          "name": "id",
          "type": "address"
        },
        {
          "internalType": "string",
          "name": "name",
          "type": "string"
        }
      ],
      "stateMutability": "view",
      "type": "function",
      "constant": true
    },
    {
      "inputs": [
        {
          "internalType": "uint256",
          "name": "",
          "type": "uint256"
        }
      ],
      "name": "all_documents",
      "outputs": [
        {
          "internalType": "uint256",
          "name": "",
          "type": "uint256"
        }
      ],
      "stateMutability": "view",
      "type": "function",
      "constant": true
    },
    {
      "inputs": [
        {
          "internalType": "address",
          "name": "",
          "type": "address"
        },
        {
          "internalType": "uint256",
          "name": "",
          "type": "uint256"
        }
      ],
      "name": "documents",
      "outputs": [
        {
          "internalType": "uint256",
          "name": "",
          "type": "uint256"
        }
      ],
      "stateMutability": "view",
      "type": "function",
      "constant": true
    },
    {
      "inputs": [
        {
          "internalType": "address",
          "name": "",
          "type": "address"
        }
      ],
      "name": "users",
      "outputs": [
        {
          "internalType": "address",
          "name": "id",
          "type": "address"
        },
        {
          "internalType": "string",
          "name": "name",
          "type": "string"
        }
      ],
      "stateMutability": "view",
      "type": "function",
      "constant": true
    },
    {
      "inputs": [
        {
          "internalType": "string",
          "name": "_name",
          "type": "string"
        }
      ],
      "name": "register_user",
      "outputs": [
        {
          "components": [
            {
              "internalType": "address",
              "name": "id",
              "type": "address"
            },
            {
              "internalType": "string",
              "name": "name",
              "type": "string"
            }
          ],
          "internalType": "struct DeDocs.User",
          "name": "",
          "type": "tuple"
        }
      ],
      "stateMutability": "payable",
      "type": "function",
      "payable": true
    },
    {
      "inputs": [
        {
          "internalType": "string",
          "name": "_name",
          "type": "string"
        }
      ],
      "name": "register_admin",
      "outputs": [
        {
          "components": [
            {
              "internalType": "address",
              "name": "id",
              "type": "address"
            },
            {
              "internalType": "string",
              "name": "name",
              "type": "string"
            }
          ],
          "internalType": "struct DeDocs.Admin",
          "name": "",
          "type": "tuple"
        }
      ],
      "stateMutability": "payable",
      "type": "function",
      "payable": true
    }
  ],
  "bytecode": "0x608060405234801561001057600080fd5b507f9ab3570e7e18bfba94b9c1020a507301d734b0c1bd22301391288a326884adc160405161003e906100a8565b60405180910390a16100c8565b600082825260208201905092915050565b7f436f6e7472616374206465706c6f796564207375636365737366756c6c790000600082015250565b6000610092601e8361004b565b915061009d8261005c565b602082019050919050565b600060208201905081810360008301526100c181610085565b9050919050565b610e46806100d76000396000f3fe6080604052600436106100555760003560e01c8063429b62e51461005a57806363398844146100985780637673ac95146100d55780637d00312114610112578063a87430ba14610142578063d014fe4014610180575b600080fd5b34801561006657600080fd5b50610081600480360381019061007c91906108b6565b6101b0565b60405161008f92919061098b565b60405180910390f35b3480156100a457600080fd5b506100bf60048036038101906100ba91906109f1565b61027c565b6040516100cc9190610a40565b60405180910390f35b3480156100e157600080fd5b506100fc60048036038101906100f79190610a5b565b6102ad565b6040516101099190610a40565b60405180910390f35b61012c60048036038101906101279190610bbd565b6102d1565b6040516101399190610c9c565b60405180910390f35b34801561014e57600080fd5b50610169600480360381019061016491906108b6565b6104a3565b60405161017792919061098b565b60405180910390f35b61019a60048036038101906101959190610bbd565b61056f565b6040516101a79190610cfb565b60405180910390f35b60026020528060005260406000206000915090508060000160009054906101000a900473ffffffffffffffffffffffffffffffffffffffff16908060010180546101f990610d4c565b80601f016020809104026020016040519081016040528092919081815260200182805461022590610d4c565b80156102725780601f1061024757610100808354040283529160200191610272565b820191906000526020600020905b81548152906001019060200180831161025557829003601f168201915b5050505050905082565b6003602052816000526040600020818154811061029857600080fd5b90600052602060002001600091509150505481565b600081815481106102bd57600080fd5b906000526020600020016000915090505481565b6102d9610741565b600073ffffffffffffffffffffffffffffffffffffffff16600260003373ffffffffffffffffffffffffffffffffffffffff1673ffffffffffffffffffffffffffffffffffffffff16815260200190815260200160002060000160009054906101000a900473ffffffffffffffffffffffffffffffffffffffff1673ffffffffffffffffffffffffffffffffffffffff16146103aa576040517f08c379a00000000000000000000000000000000000000000000000000000000081526004016103a190610df0565b60405180910390fd5b6103b2610741565b33816000019073ffffffffffffffffffffffffffffffffffffffff16908173ffffffffffffffffffffffffffffffffffffffff168152505082816020018190525080600260003373ffffffffffffffffffffffffffffffffffffffff1673ffffffffffffffffffffffffffffffffffffffff16815260200190815260200160002060008201518160000160006101000a81548173ffffffffffffffffffffffffffffffffffffffff021916908373ffffffffffffffffffffffffffffffffffffffff1602179055506020820151816001019080519060200190610496929190610771565b5090505080915050919050565b60016020528060005260406000206000915090508060000160009054906101000a900473ffffffffffffffffffffffffffffffffffffffff16908060010180546104ec90610d4c565b80601f016020809104026020016040519081016040528092919081815260200182805461051890610d4c565b80156105655780601f1061053a57610100808354040283529160200191610565565b820191906000526020600020905b81548152906001019060200180831161054857829003601f168201915b5050505050905082565b6105776107f7565b600073ffffffffffffffffffffffffffffffffffffffff16600160003373ffffffffffffffffffffffffffffffffffffffff1673ffffffffffffffffffffffffffffffffffffffff16815260200190815260200160002060000160009054906101000a900473ffffffffffffffffffffffffffffffffffffffff1673ffffffffffffffffffffffffffffffffffffffff1614610648576040517f08c379a000000000000000000000000000000000000000000000000000000000815260040161063f90610df0565b60405180910390fd5b6106506107f7565b33816000019073ffffffffffffffffffffffffffffffffffffffff16908173ffffffffffffffffffffffffffffffffffffffff168152505082816020018190525080600160003373ffffffffffffffffffffffffffffffffffffffff1673ffffffffffffffffffffffffffffffffffffffff16815260200190815260200160002060008201518160000160006101000a81548173ffffffffffffffffffffffffffffffffffffffff021916908373ffffffffffffffffffffffffffffffffffffffff1602179055506020820151816001019080519060200190610734929190610771565b5090505080915050919050565b6040518060400160405280600073ffffffffffffffffffffffffffffffffffffffff168152602001606081525090565b82805461077d90610d4c565b90600052602060002090601f01602090048101928261079f57600085556107e6565b82601f106107b857805160ff19168380011785556107e6565b828001600101855582156107e6579182015b828111156107e55782518255916020019190600101906107ca565b5b5090506107f39190610827565b5090565b6040518060400160405280600073ffffffffffffffffffffffffffffffffffffffff168152602001606081525090565b5b80821115610840576000816000905550600101610828565b5090565b6000604051905090565b600080fd5b600080fd5b600073ffffffffffffffffffffffffffffffffffffffff82169050919050565b600061088382610858565b9050919050565b61089381610878565b811461089e57600080fd5b50565b6000813590506108b08161088a565b92915050565b6000602082840312156108cc576108cb61084e565b5b60006108da848285016108a1565b91505092915050565b6108ec81610878565b82525050565b600081519050919050565b600082825260208201905092915050565b60005b8381101561092c578082015181840152602081019050610911565b8381111561093b576000848401525b50505050565b6000601f19601f8301169050919050565b600061095d826108f2565b61096781856108fd565b935061097781856020860161090e565b61098081610941565b840191505092915050565b60006040820190506109a060008301856108e3565b81810360208301526109b28184610952565b90509392505050565b6000819050919050565b6109ce816109bb565b81146109d957600080fd5b50565b6000813590506109eb816109c5565b92915050565b60008060408385031215610a0857610a0761084e565b5b6000610a16858286016108a1565b9250506020610a27858286016109dc565b9150509250929050565b610a3a816109bb565b82525050565b6000602082019050610a556000830184610a31565b92915050565b600060208284031215610a7157610a7061084e565b5b6000610a7f848285016109dc565b91505092915050565b600080fd5b600080fd5b7f4e487b7100000000000000000000000000000000000000000000000000000000600052604160045260246000fd5b610aca82610941565b810181811067ffffffffffffffff82111715610ae957610ae8610a92565b5b80604052505050565b6000610afc610844565b9050610b088282610ac1565b919050565b600067ffffffffffffffff821115610b2857610b27610a92565b5b610b3182610941565b9050602081019050919050565b82818337600083830152505050565b6000610b60610b5b84610b0d565b610af2565b905082815260208101848484011115610b7c57610b7b610a8d565b5b610b87848285610b3e565b509392505050565b600082601f830112610ba457610ba3610a88565b5b8135610bb4848260208601610b4d565b91505092915050565b600060208284031215610bd357610bd261084e565b5b600082013567ffffffffffffffff811115610bf157610bf0610853565b5b610bfd84828501610b8f565b91505092915050565b610c0f81610878565b82525050565b600082825260208201905092915050565b6000610c31826108f2565b610c3b8185610c15565b9350610c4b81856020860161090e565b610c5481610941565b840191505092915050565b6000604083016000830151610c776000860182610c06565b5060208301518482036020860152610c8f8282610c26565b9150508091505092915050565b60006020820190508181036000830152610cb68184610c5f565b905092915050565b6000604083016000830151610cd66000860182610c06565b5060208301518482036020860152610cee8282610c26565b9150508091505092915050565b60006020820190508181036000830152610d158184610cbe565b905092915050565b7f4e487b7100000000000000000000000000000000000000000000000000000000600052602260045260246000fd5b60006002820490506001821680610d6457607f821691505b60208210811415610d7857610d77610d1d565b5b50919050565b7f54686973206164647265737320697320616c726561647920726567697374657260008201527f6564000000000000000000000000000000000000000000000000000000000000602082015250565b6000610dda6022836108fd565b9150610de582610d7e565b604082019050919050565b60006020820190508181036000830152610e0981610dcd565b905091905056fea2646970667358221220753fca86dd4f4e5a5c42c2c17e1d7e981c845d2cca909ad478dd00de01772f2464736f6c634300080b0033",
  "immutableReferences": {},
  "source": "// SPDX-License-Identifier: MIT\r\npragma solidity >=0.4.22 <0.9.0;\r\n\r\ncontract DeDocs {\r\n\r\n  enum ROLE{\r\n    ADMIN,\r\n    USER\r\n  }\r\n\r\n  struct Admin{\r\n    address id;\r\n    string name;\r\n  }\r\n  \r\n  struct User{\r\n    address id;\r\n    string name;\r\n  }\r\n\r\n  struct Document{\r\n    uint id;\r\n    string name;\r\n    string ipfs_hash;\r\n    string issued_on;\r\n    string last_updated;\r\n  }\r\n\r\n  event DeDocs_deployed(string message);\r\n  event Dcoument_modified(uint document_id, string message);\r\n\r\n  uint256[] public all_documents; //array to store all the documents of the system\r\n  mapping(address => User) public users; // mapping of user address to user data \r\n  mapping(address => Admin) public admins; //mapping of admin address to admin data\r\n  mapping(address => uint256[]) public documents; // mapping of the user address to their documents\r\n  \r\n\r\n  modifier is_admin(address _address){\r\n    require(admins[_address].id != address(0x0),\"Only admins can perform this action\");\r\n    _;\r\n  }\r\n\r\n  constructor()  {\r\n      emit DeDocs_deployed(\"Contract deployed successfully\");\r\n  }\r\n\r\n  function register_user(string memory _name) payable public returns (User memory){\r\n\r\n    require(users[msg.sender].id == address(0x0),\"This address is already registered\");\r\n\r\n    User memory _user;\r\n    _user.id = msg.sender;\r\n    _user.name = _name;\r\n\r\n    users[msg.sender] = _user;\r\n\r\n    return _user;\r\n  }\r\n\r\n  function register_admin(string memory _name) payable public returns (Admin memory){\r\n\r\n    require(admins[msg.sender].id == address(0x0),\"This address is already registered\");\r\n\r\n    Admin memory _admin;\r\n    _admin.id = msg.sender;\r\n    _admin.name = _name;\r\n\r\n    admins[msg.sender] = _admin;\r\n\r\n    return _admin;\r\n  }\r\n}\r\n",
  "sourcePath": "C:\\Users\\Kailash\\Desktop\\summer project\\backend\\contracts\\DeDocs.sol",
  "compiler": {
    "name": "solc",
    "version": "0.8.11+commit.d7f03943.Emscripten.clang"
  },
  "schemaVersion": "3.4.5",
  "updatedAt": "2022-05-29T06:11:04.978Z",
  "networkType": "ethereum",
  "devdoc": {
    "kind": "dev",
    "methods": {},
    "version": 1
  },
  "userdoc": {
    "kind": "user",
    "methods": {},
    "version": 1
  }
}