{
  "contractName": "DeDocs",
  "abi": [
    {
      "inputs": [],
      "stateMutability": "nonpayable",
      "type": "constructor"
    },
    {
      "anonymous": false,
      "inputs": [
        {
          "indexed": false,
          "internalType": "string",
          "name": "message",
          "type": "string"
        }
      ],
      "name": "DeDocs_deployed",
      "type": "event"
    },
    {
      "anonymous": false,
      "inputs": [
        {
          "indexed": false,
          "internalType": "address",
          "name": "user",
          "type": "address"
        },
        {
          "indexed": false,
          "internalType": "address",
          "name": "admin",
          "type": "address"
        },
        {
          "indexed": false,
          "internalType": "uint256",
          "name": "document_id",
          "type": "uint256"
        }
      ],
      "name": "Document_issued",
      "type": "event"
    },
    {
      "anonymous": false,
      "inputs": [
        {
          "indexed": false,
          "internalType": "uint256",
          "name": "document_id",
          "type": "uint256"
        },
        {
          "components": [
            {
              "internalType": "uint256",
              "name": "id",
              "type": "uint256"
            },
            {
              "internalType": "uint256",
              "name": "request_id",
              "type": "uint256"
            },
            {
              "internalType": "string",
              "name": "name",
              "type": "string"
            },
            {
              "internalType": "string",
              "name": "ipfs_hash",
              "type": "string"
            },
            {
              "internalType": "string",
              "name": "issued_on",
              "type": "string"
            },
            {
              "internalType": "string",
              "name": "last_updated",
              "type": "string"
            },
            {
              "internalType": "address",
              "name": "admin",
              "type": "address"
            },
            {
              "internalType": "address",
              "name": "user",
              "type": "address"
            }
          ],
          "indexed": false,
          "internalType": "struct DeDocs.Document",
          "name": "old_document",
          "type": "tuple"
        },
        {
          "components": [
            {
              "internalType": "uint256",
              "name": "id",
              "type": "uint256"
            },
            {
              "internalType": "uint256",
              "name": "request_id",
              "type": "uint256"
            },
            {
              "internalType": "string",
              "name": "name",
              "type": "string"
            },
            {
              "internalType": "string",
              "name": "ipfs_hash",
              "type": "string"
            },
            {
              "internalType": "string",
              "name": "issued_on",
              "type": "string"
            },
            {
              "internalType": "string",
              "name": "last_updated",
              "type": "string"
            },
            {
              "internalType": "address",
              "name": "admin",
              "type": "address"
            },
            {
              "internalType": "address",
              "name": "user",
              "type": "address"
            }
          ],
          "indexed": false,
          "internalType": "struct DeDocs.Document",
          "name": "new_document",
          "type": "tuple"
        },
        {
          "indexed": false,
          "internalType": "string",
          "name": "message",
          "type": "string"
        }
      ],
      "name": "Document_modified",
      "type": "event"
    },
    {
      "anonymous": false,
      "inputs": [
        {
          "indexed": false,
          "internalType": "address",
          "name": "user",
          "type": "address"
        },
        {
          "indexed": false,
          "internalType": "uint256",
          "name": "request_id",
          "type": "uint256"
        },
        {
          "indexed": false,
          "internalType": "enum DeDocs.DEPARTMENT",
          "name": "department",
          "type": "uint8"
        }
      ],
      "name": "Request_made",
      "type": "event"
    },
    {
      "inputs": [
        {
          "internalType": "address",
          "name": "",
          "type": "address"
        }
      ],
      "name": "admins",
      "outputs": [
        {
          "internalType": "address",
          "name": "id",
          "type": "address"
        },
        {
          "internalType": "string",
          "name": "name",
          "type": "string"
        },
        {
          "internalType": "enum DeDocs.DEPARTMENT",
          "name": "department",
          "type": "uint8"
        }
      ],
      "stateMutability": "view",
      "type": "function",
      "constant": true
    },
    {
      "inputs": [
        {
          "internalType": "uint256",
          "name": "",
          "type": "uint256"
        }
      ],
      "name": "all_documents",
      "outputs": [
        {
          "internalType": "uint256",
          "name": "id",
          "type": "uint256"
        },
        {
          "internalType": "uint256",
          "name": "request_id",
          "type": "uint256"
        },
        {
          "internalType": "string",
          "name": "name",
          "type": "string"
        },
        {
          "internalType": "string",
          "name": "ipfs_hash",
          "type": "string"
        },
        {
          "internalType": "string",
          "name": "issued_on",
          "type": "string"
        },
        {
          "internalType": "string",
          "name": "last_updated",
          "type": "string"
        },
        {
          "internalType": "address",
          "name": "admin",
          "type": "address"
        },
        {
          "internalType": "address",
          "name": "user",
          "type": "address"
        }
      ],
      "stateMutability": "view",
      "type": "function",
      "constant": true
    },
    {
      "inputs": [
        {
          "internalType": "uint256",
          "name": "",
          "type": "uint256"
        }
      ],
      "name": "all_requests",
      "outputs": [
        {
          "internalType": "uint256",
          "name": "id",
          "type": "uint256"
        },
        {
          "internalType": "address",
          "name": "user_id",
          "type": "address"
        },
        {
          "internalType": "string",
          "name": "subject",
          "type": "string"
        },
        {
          "internalType": "string",
          "name": "description",
          "type": "string"
        },
        {
          "internalType": "string",
          "name": "ipfs_hash",
          "type": "string"
        },
        {
          "internalType": "string",
          "name": "date",
          "type": "string"
        },
        {
          "internalType": "enum DeDocs.DEPARTMENT",
          "name": "department",
          "type": "uint8"
        },
        {
          "internalType": "enum DeDocs.REQUEST_CATEGORY",
          "name": "category",
          "type": "uint8"
        },
        {
          "internalType": "enum DeDocs.REQUEST_STATUS",
          "name": "status",
          "type": "uint8"
        },
        {
          "internalType": "uint256",
          "name": "document_id",
          "type": "uint256"
        },
        {
          "internalType": "string",
          "name": "remarks",
          "type": "string"
        }
      ],
      "stateMutability": "view",
      "type": "function",
      "constant": true
    },
    {
      "inputs": [
        {
          "internalType": "address",
          "name": "",
          "type": "address"
        },
        {
          "internalType": "uint256",
          "name": "",
          "type": "uint256"
        }
      ],
      "name": "documents",
      "outputs": [
        {
          "internalType": "uint256",
          "name": "",
          "type": "uint256"
        }
      ],
      "stateMutability": "view",
      "type": "function",
      "constant": true
    },
    {
      "inputs": [
        {
          "internalType": "address",
          "name": "",
          "type": "address"
        },
        {
          "internalType": "uint256",
          "name": "",
          "type": "uint256"
        }
      ],
      "name": "requests",
      "outputs": [
        {
          "internalType": "uint256",
          "name": "",
          "type": "uint256"
        }
      ],
      "stateMutability": "view",
      "type": "function",
      "constant": true
    },
    {
      "inputs": [],
      "name": "total_requests",
      "outputs": [
        {
          "internalType": "uint256",
          "name": "",
          "type": "uint256"
        }
      ],
      "stateMutability": "view",
      "type": "function",
      "constant": true
    },
    {
      "inputs": [
        {
          "internalType": "address",
          "name": "",
          "type": "address"
        }
      ],
      "name": "users",
      "outputs": [
        {
          "internalType": "address",
          "name": "id",
          "type": "address"
        },
        {
          "internalType": "string",
          "name": "name",
          "type": "string"
        },
        {
          "internalType": "string",
          "name": "dob",
          "type": "string"
        },
        {
          "internalType": "string",
          "name": "password",
          "type": "string"
        },
        {
          "internalType": "string",
          "name": "joined",
          "type": "string"
        },
        {
          "internalType": "uint256",
          "name": "total_requests",
          "type": "uint256"
        }
      ],
      "stateMutability": "view",
      "type": "function",
      "constant": true
    },
    {
      "inputs": [
        {
          "internalType": "string",
          "name": "_name",
          "type": "string"
        },
        {
          "internalType": "string",
          "name": "_dob",
          "type": "string"
        },
        {
          "internalType": "string",
          "name": "_password",
          "type": "string"
        },
        {
          "internalType": "string",
          "name": "_joined",
          "type": "string"
        }
      ],
      "name": "register_user",
      "outputs": [
        {
          "components": [
            {
              "internalType": "address",
              "name": "id",
              "type": "address"
            },
            {
              "internalType": "string",
              "name": "name",
              "type": "string"
            },
            {
              "internalType": "string",
              "name": "dob",
              "type": "string"
            },
            {
              "internalType": "string",
              "name": "password",
              "type": "string"
            },
            {
              "internalType": "string",
              "name": "joined",
              "type": "string"
            },
            {
              "internalType": "uint256",
              "name": "total_requests",
              "type": "uint256"
            }
          ],
          "internalType": "struct DeDocs.User",
          "name": "",
          "type": "tuple"
        }
      ],
      "stateMutability": "payable",
      "type": "function",
      "payable": true
    },
    {
      "inputs": [
        {
          "internalType": "string",
          "name": "_name",
          "type": "string"
        },
        {
          "internalType": "enum DeDocs.DEPARTMENT",
          "name": "_department",
          "type": "uint8"
        }
      ],
      "name": "register_admin",
      "outputs": [
        {
          "components": [
            {
              "internalType": "address",
              "name": "id",
              "type": "address"
            },
            {
              "internalType": "string",
              "name": "name",
              "type": "string"
            },
            {
              "internalType": "enum DeDocs.DEPARTMENT",
              "name": "department",
              "type": "uint8"
            }
          ],
          "internalType": "struct DeDocs.Admin",
          "name": "",
          "type": "tuple"
        }
      ],
      "stateMutability": "payable",
      "type": "function",
      "payable": true
    },
    {
      "inputs": [],
      "name": "get_departments",
      "outputs": [
        {
          "internalType": "string[4]",
          "name": "departments",
          "type": "string[4]"
        }
      ],
      "stateMutability": "pure",
      "type": "function",
      "constant": true
    },
    {
      "inputs": [
        {
          "internalType": "address",
          "name": "_address",
          "type": "address"
        }
      ],
      "name": "get_role",
      "outputs": [
        {
          "internalType": "enum DeDocs.ROLE",
          "name": "role",
          "type": "uint8"
        }
      ],
      "stateMutability": "view",
      "type": "function",
      "constant": true
    },
    {
      "inputs": [],
      "name": "get_all_requests",
      "outputs": [
        {
          "components": [
            {
              "internalType": "uint256",
              "name": "id",
              "type": "uint256"
            },
            {
              "internalType": "address",
              "name": "user_id",
              "type": "address"
            },
            {
              "internalType": "string",
              "name": "subject",
              "type": "string"
            },
            {
              "internalType": "string",
              "name": "description",
              "type": "string"
            },
            {
              "internalType": "string",
              "name": "ipfs_hash",
              "type": "string"
            },
            {
              "internalType": "string",
              "name": "date",
              "type": "string"
            },
            {
              "internalType": "enum DeDocs.DEPARTMENT",
              "name": "department",
              "type": "uint8"
            },
            {
              "internalType": "enum DeDocs.REQUEST_CATEGORY",
              "name": "category",
              "type": "uint8"
            },
            {
              "internalType": "enum DeDocs.REQUEST_STATUS",
              "name": "status",
              "type": "uint8"
            },
            {
              "internalType": "uint256",
              "name": "document_id",
              "type": "uint256"
            },
            {
              "internalType": "string",
              "name": "remarks",
              "type": "string"
            }
          ],
          "internalType": "struct DeDocs.Request[]",
          "name": "",
          "type": "tuple[]"
        }
      ],
      "stateMutability": "view",
      "type": "function",
      "constant": true
    },
    {
      "inputs": [
        {
          "internalType": "address",
          "name": "_address",
          "type": "address"
        }
      ],
      "name": "get_user_details",
      "outputs": [
        {
          "components": [
            {
              "internalType": "address",
              "name": "id",
              "type": "address"
            },
            {
              "internalType": "string",
              "name": "name",
              "type": "string"
            },
            {
              "internalType": "string",
              "name": "dob",
              "type": "string"
            },
            {
              "internalType": "string",
              "name": "password",
              "type": "string"
            },
            {
              "internalType": "string",
              "name": "joined",
              "type": "string"
            },
            {
              "internalType": "uint256",
              "name": "total_requests",
              "type": "uint256"
            }
          ],
          "internalType": "struct DeDocs.User",
          "name": "user",
          "type": "tuple"
        }
      ],
      "stateMutability": "view",
      "type": "function",
      "constant": true
    },
    {
      "inputs": [],
      "name": "get_user_requests",
      "outputs": [
        {
          "internalType": "uint256[]",
          "name": "_requests",
          "type": "uint256[]"
        }
      ],
      "stateMutability": "view",
      "type": "function",
      "constant": true
    },
    {
      "inputs": [
        {
          "internalType": "enum DeDocs.DEPARTMENT",
          "name": "_department",
          "type": "uint8"
        },
        {
          "internalType": "string",
          "name": "_subject",
          "type": "string"
        },
        {
          "internalType": "string",
          "name": "_description",
          "type": "string"
        },
        {
          "internalType": "string",
          "name": "_ipfs_hash",
          "type": "string"
        },
        {
          "internalType": "enum DeDocs.REQUEST_CATEGORY",
          "name": "_request_category",
          "type": "uint8"
        },
        {
          "internalType": "string",
          "name": "_date",
          "type": "string"
        }
      ],
      "name": "make_request",
      "outputs": [
        {
          "components": [
            {
              "internalType": "uint256",
              "name": "id",
              "type": "uint256"
            },
            {
              "internalType": "address",
              "name": "user_id",
              "type": "address"
            },
            {
              "internalType": "string",
              "name": "subject",
              "type": "string"
            },
            {
              "internalType": "string",
              "name": "description",
              "type": "string"
            },
            {
              "internalType": "string",
              "name": "ipfs_hash",
              "type": "string"
            },
            {
              "internalType": "string",
              "name": "date",
              "type": "string"
            },
            {
              "internalType": "enum DeDocs.DEPARTMENT",
              "name": "department",
              "type": "uint8"
            },
            {
              "internalType": "enum DeDocs.REQUEST_CATEGORY",
              "name": "category",
              "type": "uint8"
            },
            {
              "internalType": "enum DeDocs.REQUEST_STATUS",
              "name": "status",
              "type": "uint8"
            },
            {
              "internalType": "uint256",
              "name": "document_id",
              "type": "uint256"
            },
            {
              "internalType": "string",
              "name": "remarks",
              "type": "string"
            }
          ],
          "internalType": "struct DeDocs.Request",
          "name": "",
          "type": "tuple"
        }
      ],
      "stateMutability": "payable",
      "type": "function",
      "payable": true
    },
    {
      "inputs": [],
      "name": "get_admin_details",
      "outputs": [
        {
          "components": [
            {
              "internalType": "address",
              "name": "id",
              "type": "address"
            },
            {
              "internalType": "string",
              "name": "name",
              "type": "string"
            },
            {
              "internalType": "enum DeDocs.DEPARTMENT",
              "name": "department",
              "type": "uint8"
            }
          ],
          "internalType": "struct DeDocs.Admin",
          "name": "admin",
          "type": "tuple"
        }
      ],
      "stateMutability": "view",
      "type": "function",
      "constant": true
    },
    {
      "inputs": [
        {
          "internalType": "uint256",
          "name": "_document_id",
          "type": "uint256"
        }
      ],
      "name": "get_document",
      "outputs": [
        {
          "components": [
            {
              "internalType": "uint256",
              "name": "id",
              "type": "uint256"
            },
            {
              "internalType": "uint256",
              "name": "request_id",
              "type": "uint256"
            },
            {
              "internalType": "string",
              "name": "name",
              "type": "string"
            },
            {
              "internalType": "string",
              "name": "ipfs_hash",
              "type": "string"
            },
            {
              "internalType": "string",
              "name": "issued_on",
              "type": "string"
            },
            {
              "internalType": "string",
              "name": "last_updated",
              "type": "string"
            },
            {
              "internalType": "address",
              "name": "admin",
              "type": "address"
            },
            {
              "internalType": "address",
              "name": "user",
              "type": "address"
            }
          ],
          "internalType": "struct DeDocs.Document",
          "name": "",
          "type": "tuple"
        }
      ],
      "stateMutability": "view",
      "type": "function",
      "constant": true
    },
    {
      "inputs": [
        {
          "internalType": "uint256",
          "name": "_request_id",
          "type": "uint256"
        },
        {
          "internalType": "string",
          "name": "_remarks",
          "type": "string"
        }
      ],
      "name": "reject_request",
      "outputs": [],
      "stateMutability": "payable",
      "type": "function",
      "payable": true
    },
    {
      "inputs": [
        {
          "internalType": "uint256",
          "name": "_request_id",
          "type": "uint256"
        }
      ],
      "name": "approve_request",
      "outputs": [],
      "stateMutability": "payable",
      "type": "function",
      "payable": true
    },
    {
      "inputs": [
        {
          "internalType": "uint256",
          "name": "_request_id",
          "type": "uint256"
        },
        {
          "internalType": "address",
          "name": "_userAddress",
          "type": "address"
        },
        {
          "internalType": "string",
          "name": "_name",
          "type": "string"
        },
        {
          "internalType": "string",
          "name": "_ipfs_hash",
          "type": "string"
        },
        {
          "internalType": "string",
          "name": "_issued_on",
          "type": "string"
        }
      ],
      "name": "issue_document",
      "outputs": [
        {
          "components": [
            {
              "internalType": "uint256",
              "name": "id",
              "type": "uint256"
            },
            {
              "internalType": "uint256",
              "name": "request_id",
              "type": "uint256"
            },
            {
              "internalType": "string",
              "name": "name",
              "type": "string"
            },
            {
              "internalType": "string",
              "name": "ipfs_hash",
              "type": "string"
            },
            {
              "internalType": "string",
              "name": "issued_on",
              "type": "string"
            },
            {
              "internalType": "string",
              "name": "last_updated",
              "type": "string"
            },
            {
              "internalType": "address",
              "name": "admin",
              "type": "address"
            },
            {
              "internalType": "address",
              "name": "user",
              "type": "address"
            }
          ],
          "internalType": "struct DeDocs.Document",
          "name": "",
          "type": "tuple"
        }
      ],
      "stateMutability": "payable",
      "type": "function",
      "payable": true
    },
    {
      "inputs": [
        {
          "internalType": "uint256",
          "name": "_document_id",
          "type": "uint256"
        },
        {
          "components": [
            {
              "internalType": "uint256",
              "name": "id",
              "type": "uint256"
            },
            {
              "internalType": "uint256",
              "name": "request_id",
              "type": "uint256"
            },
            {
              "internalType": "string",
              "name": "name",
              "type": "string"
            },
            {
              "internalType": "string",
              "name": "ipfs_hash",
              "type": "string"
            },
            {
              "internalType": "string",
              "name": "issued_on",
              "type": "string"
            },
            {
              "internalType": "string",
              "name": "last_updated",
              "type": "string"
            },
            {
              "internalType": "address",
              "name": "admin",
              "type": "address"
            },
            {
              "internalType": "address",
              "name": "user",
              "type": "address"
            }
          ],
          "internalType": "struct DeDocs.Document",
          "name": "_new_document",
          "type": "tuple"
        },
        {
          "internalType": "string",
          "name": "_last_updated",
          "type": "string"
        },
        {
          "internalType": "string",
          "name": "_message",
          "type": "string"
        }
      ],
      "name": "modify_document",
      "outputs": [
        {
          "components": [
            {
              "internalType": "uint256",
              "name": "id",
              "type": "uint256"
            },
            {
              "internalType": "uint256",
              "name": "request_id",
              "type": "uint256"
            },
            {
              "internalType": "string",
              "name": "name",
              "type": "string"
            },
            {
              "internalType": "string",
              "name": "ipfs_hash",
              "type": "string"
            },
            {
              "internalType": "string",
              "name": "issued_on",
              "type": "string"
            },
            {
              "internalType": "string",
              "name": "last_updated",
              "type": "string"
            },
            {
              "internalType": "address",
              "name": "admin",
              "type": "address"
            },
            {
              "internalType": "address",
              "name": "user",
              "type": "address"
            }
          ],
          "internalType": "struct DeDocs.Document",
          "name": "",
          "type": "tuple"
        }
      ],
      "stateMutability": "payable",
      "type": "function",
      "payable": true
    }
  ],
  "bytecode": "0x60806040526000805534801561001457600080fd5b507f9ab3570e7e18bfba94b9c1020a507301d734b0c1bd22301391288a326884adc1604051610074906020808252601e908201527f436f6e7472616374206465706c6f796564207375636365737366756c6c790000604082015260600190565b60405180910390a16145ab806200008c6000396000f3fe6080604052600436106100fd5760e060020a60003504630776a4f381146101025780630c99d1301461012b57806318db724f1461014057806326611b5a1461017757806338925c7d1461019b57806339c22db8146101c8578063429b62e5146101f55780636339884414610224578063726f091e146102445780637673ac9514610266578063789469bd1461029a5780639ecebe2a146102ba5780639ef6cf57146102da578063a87430ba146102fa578063bb5bfd661461032c578063ca76115c1461034e578063cb736f2614610370578063cf56202214610383578063d2965f0414610396578063d9371aeb146103b6578063f7a37b52146103c9575b600080fd5b6101156101103660046138fc565b6103de565b6040516101229190613a02565b60405180910390f35b61013e610139366004613aa0565b610506565b005b34801561014c57600080fd5b5061016061015b366004613aa0565b610aad565b6040516101229b9a99989796959493929190613b03565b34801561018357600080fd5b5061018d60005481565b604051908152602001610122565b3480156101a757600080fd5b506101bb6101b6366004613aa0565b610dd2565b6040516101229190613c6c565b3480156101d457600080fd5b506101e86101e3366004613ca2565b61117b565b6040516101229190613cbd565b34801561020157600080fd5b50610215610210366004613ca2565b6111d5565b60405161012293929190613cd0565b34801561023057600080fd5b5061018d61023f366004613d03565b61128d565b34801561025057600080fd5b506102596112be565b6040516101229190613d2d565b34801561027257600080fd5b50610286610281366004613aa0565b611394565b604051610122989796959493929190613d7a565b6102ad6102a8366004613e0e565b611619565b6040516101229190613e5b565b3480156102c657600080fd5b5061018d6102d5366004613d03565b611712565b6102ed6102e8366004613eac565b61172e565b6040516101229190614064565b34801561030657600080fd5b5061031a610315366004613ca2565b6119dc565b60405161012296959493929190614077565b34801561033857600080fd5b50610341611c3b565b60405161012291906140e9565b34801561035a57600080fd5b50610363612044565b604051610122919061414a565b6101bb61037e36600461418e565b6120a6565b61013e610391366004614230565b612899565b3480156103a257600080fd5b506101156103b1366004613ca2565b612e46565b6101bb6103c4366004614276565b6130dd565b3480156103d557600080fd5b506102ad613528565b6103e6613629565b33600090815260036020526040902054600160a060020a0316156104285760405160e560020a62461bcd02815260040161041f9061439d565b60405180910390fd5b610430613629565b33808252602080830188815260408085018990526060850188905260808501879052600060a086018190529384526003835290922083518154600160a060020a031916600160a060020a0390911617815591518051849392610499926001850192910190613668565b50604082015180516104b5916002840191602090910190613668565b50606082015180516104d1916003840191602090910190613668565b50608082015180516104ed916004840191602090910190613668565b5060a0919091015160059091015590505b949350505050565b33600090815260046020526040902054600160a060020a031661053e5760405160e560020a62461bcd02815260040161041f906143e2565b60006001828154811061055357610553614428565b906000526020600020906009020160405180610160016040529081600082015481526020016001820160009054906101000a9004600160a060020a0316600160a060020a0316600160a060020a031681526020016002820180546105b690614442565b80601f01602080910402602001604051908101604052809291908181526020018280546105e290614442565b801561062f5780601f106106045761010080835404028352916020019161062f565b820191906000526020600020905b81548152906001019060200180831161061257829003601f168201915b5050505050815260200160038201805461064890614442565b80601f016020809104026020016040519081016040528092919081815260200182805461067490614442565b80156106c15780601f10610696576101008083540402835291602001916106c1565b820191906000526020600020905b8154815290600101906020018083116106a457829003601f168201915b505050505081526020016004820180546106da90614442565b80601f016020809104026020016040519081016040528092919081815260200182805461070690614442565b80156107535780601f1061072857610100808354040283529160200191610753565b820191906000526020600020905b81548152906001019060200180831161073657829003601f168201915b5050505050815260200160058201805461076c90614442565b80601f016020809104026020016040519081016040528092919081815260200182805461079890614442565b80156107e55780601f106107ba576101008083540402835291602001916107e5565b820191906000526020600020905b8154815290600101906020018083116107c857829003601f168201915b5050509183525050600682015460209091019060ff16600381111561080c5761080c613ab9565b600381111561081d5761081d613ab9565b81526020016006820160019054906101000a900460ff16600281111561084557610845613ab9565b600281111561085657610856613ab9565b81526020016006820160029054906101000a900460ff16600281111561087e5761087e613ab9565b600281111561088f5761088f613ab9565b8152602001600782015481526020016008820180546108ad90614442565b80601f01602080910402602001604051908101604052809291908181526020018280546108d990614442565b80156109265780601f106108fb57610100808354040283529160200191610926565b820191906000526020600020905b81548152906001019060200180831161090957829003601f168201915b5050509190925250919250600191505061010082018181525050806001838154811061095457610954614428565b600091825260209182902083516009929092020190815582820151600182018054600160a060020a031916600160a060020a039092169190911790556040830151805191926109ab92600285019290910190613668565b50606082015180516109c7916003840191602090910190613668565b50608082015180516109e3916004840191602090910190613668565b5060a082015180516109ff916005840191602090910190613668565b5060c082015160068201805460ff19166001836003811115610a2357610a23613ab9565b021790555060e082015160068201805461ff001916610100836002811115610a4d57610a4d613ab9565b021790555061010082015160068201805462ff0000191662010000836002811115610a7a57610a7a613ab9565b021790555061012082015160078201556101408201518051610aa6916008840191602090910190613668565b5050505050565b60018181548110610abd57600080fd5b6000918252602090912060099091020180546001820154600283018054929450600160a060020a039091169291610af390614442565b80601f0160208091040260200160405190810160405280929190818152602001828054610b1f90614442565b8015610b6c5780601f10610b4157610100808354040283529160200191610b6c565b820191906000526020600020905b815481529060010190602001808311610b4f57829003601f168201915b505050505090806003018054610b8190614442565b80601f0160208091040260200160405190810160405280929190818152602001828054610bad90614442565b8015610bfa5780601f10610bcf57610100808354040283529160200191610bfa565b820191906000526020600020905b815481529060010190602001808311610bdd57829003601f168201915b505050505090806004018054610c0f90614442565b80601f0160208091040260200160405190810160405280929190818152602001828054610c3b90614442565b8015610c885780601f10610c5d57610100808354040283529160200191610c88565b820191906000526020600020905b815481529060010190602001808311610c6b57829003601f168201915b505050505090806005018054610c9d90614442565b80601f0160208091040260200160405190810160405280929190818152602001828054610cc990614442565b8015610d165780601f10610ceb57610100808354040283529160200191610d16565b820191906000526020600020905b815481529060010190602001808311610cf957829003601f168201915b50505060068401546007850154600886018054959660ff80851697610100860482169750620100009095041694509192610d4f90614442565b80601f0160208091040260200160405190810160405280929190818152602001828054610d7b90614442565b8015610dc85780601f10610d9d57610100808354040283529160200191610dc8565b820191906000526020600020905b815481529060010190602001808311610dab57829003601f168201915b505050505090508b565b610dda6136ec565b60025482908110610e005760405160e560020a62461bcd02815260040161041f90614481565b336000908152600460205260409020548390600160a060020a0316151580610e5f575033600160a060020a031660028281548110610e4057610e40614428565b6000918252602090912060076008909202010154600160a060020a0316145b610ec45760405160e560020a62461bcd02815260206004820152602a60248201527f596f7520617265206e6f7420616c6c6f77656420746f20706572666f726d2074604482015260b160020a693434b99030b1ba34b7b702606482015260840161041f565b600060028581548110610ed957610ed9614428565b9060005260206000209060080201604051806101000160405290816000820154815260200160018201548152602001600282018054610f1790614442565b80601f0160208091040260200160405190810160405280929190818152602001828054610f4390614442565b8015610f905780601f10610f6557610100808354040283529160200191610f90565b820191906000526020600020905b815481529060010190602001808311610f7357829003601f168201915b50505050508152602001600382018054610fa990614442565b80601f0160208091040260200160405190810160405280929190818152602001828054610fd590614442565b80156110225780601f10610ff757610100808354040283529160200191611022565b820191906000526020600020905b81548152906001019060200180831161100557829003601f168201915b5050505050815260200160048201805461103b90614442565b80601f016020809104026020016040519081016040528092919081815260200182805461106790614442565b80156110b45780601f10611089576101008083540402835291602001916110b4565b820191906000526020600020905b81548152906001019060200180831161109757829003601f168201915b505050505081526020016005820180546110cd90614442565b80601f01602080910402602001604051908101604052809291908181526020018280546110f990614442565b80156111465780601f1061111b57610100808354040283529160200191611146565b820191906000526020600020905b81548152906001019060200180831161112957829003601f168201915b50505091835250506006820154600160a060020a03908116602083015260079092015490911660409091015295945050505050565b600160a060020a03818116600090815260036020526040812054909116156111a557506002919050565b600160a060020a0382811660009081526004602052604090205416156111cd57506001919050565b506000919050565b60046020526000908152604090208054600182018054600160a060020a03909216929161120190614442565b80601f016020809104026020016040519081016040528092919081815260200182805461122d90614442565b801561127a5780601f1061124f5761010080835404028352916020019161127a565b820191906000526020600020905b81548152906001019060200180831161125d57829003601f168201915b5050506002909301549192505060ff1683565b600660205281600052604060002081815481106112a957600080fd5b90600052602060002001600091509150505481565b6112c6613743565b6000604051806080016040528060405180606001604052806028815260200161454e6028913981526020016040518060400160405280600a815260200160b360020a690929c869e9a8a40a882b028152508152602001604051806040016040528060158152602001605960020a7426aaa724a1a4a820a61021a7a92827a920aa24a7a70281525081526020016040518060400160405280601a81526020017f5354415445205452414e53504f5254442045504152544d454e5400000000000081525081525090508091505090565b600281815481106113a457600080fd5b90600052602060002090600802016000915090508060000154908060010154908060020180546113d390614442565b80601f01602080910402602001604051908101604052809291908181526020018280546113ff90614442565b801561144c5780601f106114215761010080835404028352916020019161144c565b820191906000526020600020905b81548152906001019060200180831161142f57829003601f168201915b50505050509080600301805461146190614442565b80601f016020809104026020016040519081016040528092919081815260200182805461148d90614442565b80156114da5780601f106114af576101008083540402835291602001916114da565b820191906000526020600020905b8154815290600101906020018083116114bd57829003601f168201915b5050505050908060040180546114ef90614442565b80601f016020809104026020016040519081016040528092919081815260200182805461151b90614442565b80156115685780601f1061153d57610100808354040283529160200191611568565b820191906000526020600020905b81548152906001019060200180831161154b57829003601f168201915b50505050509080600501805461157d90614442565b80601f01602080910402602001604051908101604052809291908181526020018280546115a990614442565b80156115f65780601f106115cb576101008083540402835291602001916115f6565b820191906000526020600020905b8154815290600101906020018083116115d957829003601f168201915b5050505060068301546007909301549192600160a060020a039081169216905088565b61162161376a565b33600090815260046020526040902054600160a060020a03161561165a5760405160e560020a62461bcd02815260040161041f9061439d565b61166261376a565b338152602081018490526040810183600381111561168257611682613ab9565b9081600381111561169557611695613ab9565b90525033600090815260046020908152604090912082518154600160a060020a031916600160a060020a0390911617815582820151805184936116df926001850192910190613668565b50604082015160028201805460ff1916600183600381111561170357611703613ab9565b02179055509195945050505050565b600560205281600052604060002081815481106112a957600080fd5b6117366137a4565b61173e6137a4565b600054815233602082015260408101879052606081018690526080810185905260a0810183905260c0810188600381111561177b5761177b613ab9565b9081600381111561178e5761178e613ab9565b90525060e081018460028111156117a7576117a7613ab9565b908160028111156117ba576117ba613ab9565b90525060006101008201819052600180548082018255915281517fb10e2d527612073b26eecdfd717e6a320cf44b4afac2b0732d9fcbe2b7fa0cf660099092029182019081556020808401517fb10e2d527612073b26eecdfd717e6a320cf44b4afac2b0732d9fcbe2b7fa0cf784018054600160a060020a031916600160a060020a0390921691909117905560408401518051859461187f937fb10e2d527612073b26eecdfd717e6a320cf44b4afac2b0732d9fcbe2b7fa0cf8909101920190613668565b506060820151805161189b916003840191602090910190613668565b50608082015180516118b7916004840191602090910190613668565b5060a082015180516118d3916005840191602090910190613668565b5060c082015160068201805460ff191660018360038111156118f7576118f7613ab9565b021790555060e082015160068201805461ff00191661010083600281111561192157611921613ab9565b021790555061010082015160068201805462ff000019166201000083600281111561194e5761194e613ab9565b02179055506101208201516007820155610140820151805161197a916008840191602090910190613668565b505050600160008082825461198f91906144b5565b909155505080516040517fb0d5a35d53d1b590b4e2ab0193806445dd4ad70aab99e4a02454aaf4ae4939b6916119c9913391908c906144df565b60405180910390a1979650505050505050565b60036020526000908152604090208054600182018054600160a060020a039092169291611a0890614442565b80601f0160208091040260200160405190810160405280929190818152602001828054611a3490614442565b8015611a815780601f10611a5657610100808354040283529160200191611a81565b820191906000526020600020905b815481529060010190602001808311611a6457829003601f168201915b505050505090806002018054611a9690614442565b80601f0160208091040260200160405190810160405280929190818152602001828054611ac290614442565b8015611b0f5780601f10611ae457610100808354040283529160200191611b0f565b820191906000526020600020905b815481529060010190602001808311611af257829003601f168201915b505050505090806003018054611b2490614442565b80601f0160208091040260200160405190810160405280929190818152602001828054611b5090614442565b8015611b9d5780601f10611b7257610100808354040283529160200191611b9d565b820191906000526020600020905b815481529060010190602001808311611b8057829003601f168201915b505050505090806004018054611bb290614442565b80601f0160208091040260200160405190810160405280929190818152602001828054611bde90614442565b8015611c2b5780601f10611c0057610100808354040283529160200191611c2b565b820191906000526020600020905b815481529060010190602001808311611c0e57829003601f168201915b5050505050908060050154905086565b60606001805480602002602001604051908101604052809291908181526020016000905b8282101561203b576000848152602090819020604080516101608101825260098602909201805483526001810154600160a060020a03169383019390935260028301805492939291840191611cb390614442565b80601f0160208091040260200160405190810160405280929190818152602001828054611cdf90614442565b8015611d2c5780601f10611d0157610100808354040283529160200191611d2c565b820191906000526020600020905b815481529060010190602001808311611d0f57829003601f168201915b50505050508152602001600382018054611d4590614442565b80601f0160208091040260200160405190810160405280929190818152602001828054611d7190614442565b8015611dbe5780601f10611d9357610100808354040283529160200191611dbe565b820191906000526020600020905b815481529060010190602001808311611da157829003601f168201915b50505050508152602001600482018054611dd790614442565b80601f0160208091040260200160405190810160405280929190818152602001828054611e0390614442565b8015611e505780601f10611e2557610100808354040283529160200191611e50565b820191906000526020600020905b815481529060010190602001808311611e3357829003601f168201915b50505050508152602001600582018054611e6990614442565b80601f0160208091040260200160405190810160405280929190818152602001828054611e9590614442565b8015611ee25780601f10611eb757610100808354040283529160200191611ee2565b820191906000526020600020905b815481529060010190602001808311611ec557829003601f168201915b5050509183525050600682015460209091019060ff166003811115611f0957611f09613ab9565b6003811115611f1a57611f1a613ab9565b81526020016006820160019054906101000a900460ff166002811115611f4257611f42613ab9565b6002811115611f5357611f53613ab9565b81526020016006820160029054906101000a900460ff166002811115611f7b57611f7b613ab9565b6002811115611f8c57611f8c613ab9565b815260200160078201548152602001600882018054611faa90614442565b80601f0160208091040260200160405190810160405280929190818152602001828054611fd690614442565b80156120235780601f10611ff857610100808354040283529160200191612023565b820191906000526020600020905b81548152906001019060200180831161200657829003601f168201915b50505050508152505081526020019060010190611c5f565b50505050905090565b33600090815260056020908152604080832080548251818502810185019093528083526060949383018282801561209a57602002820191906000526020600020905b815481526020019060010190808311612086575b50939695505050505050565b6120ae6136ec565b33600090815260046020526040902054600160a060020a03166120e65760405160e560020a62461bcd02815260040161041f906143e2565b600160a060020a038581166000908152600360205260409020541661214c5760405160e560020a62461bcd0281526020600482015260166024820152605260020a75155cd95c881a5cc81b9bdd081c9959da5cdd195c995902604482015260640161041f565b6121546136ec565b60028054808352604083018781526060840187905260808401869052600160a060020a03891660e08501523360c0850152600182018355600092909252825160089091027f405787fa12a823e0f2b7631cc41b3ba8828b3321ca811111fa75cd3aa3bb5ace81019182556020808501517f405787fa12a823e0f2b7631cc41b3ba8828b3321ca811111fa75cd3aa3bb5acf83015592518051859461221c937f405787fa12a823e0f2b7631cc41b3ba8828b3321ca811111fa75cd3aa3bb5ad001920190613668565b5060608201518051612238916003840191602090910190613668565b5060808201518051612254916004840191602090910190613668565b5060a08201518051612270916005840191602090910190613668565b5060c082015160068281018054600160a060020a0319908116600160a060020a039485161790915560e090940151600790930180549094169282169290921790925590871660009081526020918252604081208351815460018181018455928452938320909301929092558154909190899081106122f0576122f0614428565b906000526020600020906009020160405180610160016040529081600082015481526020016001820160009054906101000a9004600160a060020a0316600160a060020a0316600160a060020a0316815260200160028201805461235390614442565b80601f016020809104026020016040519081016040528092919081815260200182805461237f90614442565b80156123cc5780601f106123a1576101008083540402835291602001916123cc565b820191906000526020600020905b8154815290600101906020018083116123af57829003601f168201915b505050505081526020016003820180546123e590614442565b80601f016020809104026020016040519081016040528092919081815260200182805461241190614442565b801561245e5780601f106124335761010080835404028352916020019161245e565b820191906000526020600020905b81548152906001019060200180831161244157829003601f168201915b5050505050815260200160048201805461247790614442565b80601f01602080910402602001604051908101604052809291908181526020018280546124a390614442565b80156124f05780601f106124c5576101008083540402835291602001916124f0565b820191906000526020600020905b8154815290600101906020018083116124d357829003601f168201915b5050505050815260200160058201805461250990614442565b80601f016020809104026020016040519081016040528092919081815260200182805461253590614442565b80156125825780601f1061255757610100808354040283529160200191612582565b820191906000526020600020905b81548152906001019060200180831161256557829003601f168201915b5050509183525050600682015460209091019060ff1660038111156125a9576125a9613ab9565b60038111156125ba576125ba613ab9565b81526020016006820160019054906101000a900460ff1660028111156125e2576125e2613ab9565b60028111156125f3576125f3613ab9565b81526020016006820160029054906101000a900460ff16600281111561261b5761261b613ab9565b600281111561262c5761262c613ab9565b81526020016007820154815260200160088201805461264a90614442565b80601f016020809104026020016040519081016040528092919081815260200182805461267690614442565b80156126c35780601f10612698576101008083540402835291602001916126c3565b820191906000526020600020905b8154815290600101906020018083116126a657829003601f168201915b5050509190925250508351610120830152506001805491925082918a9081106126ee576126ee614428565b600091825260209182902083516009929092020190815582820151600182018054600160a060020a031916600160a060020a0390921691909117905560408301518051919261274592600285019290910190613668565b5060608201518051612761916003840191602090910190613668565b506080820151805161277d916004840191602090910190613668565b5060a08201518051612799916005840191602090910190613668565b5060c082015160068201805460ff191660018360038111156127bd576127bd613ab9565b021790555060e082015160068201805461ff0019166101008360028111156127e7576127e7613ab9565b021790555061010082015160068201805462ff000019166201000083600281111561281457612814613ab9565b021790555061012082015160078201556101408201518051612840916008840191602090910190613668565b5050825160408051600160a060020a038b168152336020820152908101919091527e494c81a93fd8df13d923d73c93e872db4f00090d204b824064d00fb4759f51915060600160405180910390a1509695505050505050565b33600090815260046020526040902054600160a060020a03166128d15760405160e560020a62461bcd02815260040161041f906143e2565b6000600183815481106128e6576128e6614428565b906000526020600020906009020160405180610160016040529081600082015481526020016001820160009054906101000a9004600160a060020a0316600160a060020a0316600160a060020a0316815260200160028201805461294990614442565b80601f016020809104026020016040519081016040528092919081815260200182805461297590614442565b80156129c25780601f10612997576101008083540402835291602001916129c2565b820191906000526020600020905b8154815290600101906020018083116129a557829003601f168201915b505050505081526020016003820180546129db90614442565b80601f0160208091040260200160405190810160405280929190818152602001828054612a0790614442565b8015612a545780601f10612a2957610100808354040283529160200191612a54565b820191906000526020600020905b815481529060010190602001808311612a3757829003601f168201915b50505050508152602001600482018054612a6d90614442565b80601f0160208091040260200160405190810160405280929190818152602001828054612a9990614442565b8015612ae65780601f10612abb57610100808354040283529160200191612ae6565b820191906000526020600020905b815481529060010190602001808311612ac957829003601f168201915b50505050508152602001600582018054612aff90614442565b80601f0160208091040260200160405190810160405280929190818152602001828054612b2b90614442565b8015612b785780601f10612b4d57610100808354040283529160200191612b78565b820191906000526020600020905b815481529060010190602001808311612b5b57829003601f168201915b5050509183525050600682015460209091019060ff166003811115612b9f57612b9f613ab9565b6003811115612bb057612bb0613ab9565b81526020016006820160019054906101000a900460ff166002811115612bd857612bd8613ab9565b6002811115612be957612be9613ab9565b81526020016006820160029054906101000a900460ff166002811115612c1157612c11613ab9565b6002811115612c2257612c22613ab9565b815260200160078201548152602001600882018054612c4090614442565b80601f0160208091040260200160405190810160405280929190818152602001828054612c6c90614442565b8015612cb95780601f10612c8e57610100808354040283529160200191612cb9565b820191906000526020600020905b815481529060010190602001808311612c9c57829003601f168201915b505050919092525050600261010083015250610140810183905260018054919250829185908110612cec57612cec614428565b600091825260209182902083516009929092020190815582820151600182018054600160a060020a031916600160a060020a03909216919091179055604083015180519192612d4392600285019290910190613668565b5060608201518051612d5f916003840191602090910190613668565b5060808201518051612d7b916004840191602090910190613668565b5060a08201518051612d97916005840191602090910190613668565b5060c082015160068201805460ff19166001836003811115612dbb57612dbb613ab9565b021790555060e082015160068201805461ff001916610100836002811115612de557612de5613ab9565b021790555061010082015160068201805462ff0000191662010000836002811115612e1257612e12613ab9565b021790555061012082015160078201556101408201518051612e3e916008840191602090910190613668565b505050505050565b612e4e613629565b600160a060020a038083166000908152600360209081526040808320815160c0810190925280549094168152600184018054939491939192840191612e9290614442565b80601f0160208091040260200160405190810160405280929190818152602001828054612ebe90614442565b8015612f0b5780601f10612ee057610100808354040283529160200191612f0b565b820191906000526020600020905b815481529060010190602001808311612eee57829003601f168201915b50505050508152602001600282018054612f2490614442565b80601f0160208091040260200160405190810160405280929190818152602001828054612f5090614442565b8015612f9d5780601f10612f7257610100808354040283529160200191612f9d565b820191906000526020600020905b815481529060010190602001808311612f8057829003601f168201915b50505050508152602001600382018054612fb690614442565b80601f0160208091040260200160405190810160405280929190818152602001828054612fe290614442565b801561302f5780601f106130045761010080835404028352916020019161302f565b820191906000526020600020905b81548152906001019060200180831161301257829003601f168201915b5050505050815260200160048201805461304890614442565b80601f016020809104026020016040519081016040528092919081815260200182805461307490614442565b80156130c15780601f10613096576101008083540402835291602001916130c1565b820191906000526020600020905b8154815290600101906020018083116130a457829003601f168201915b5050509183525050600591909101546020909101529392505050565b6130e56136ec565b6002548590811061310b5760405160e560020a62461bcd02815260040161041f90614481565b33600090815260046020526040902054600160a060020a03166131435760405160e560020a62461bcd02815260040161041f906143e2565b60006002878154811061315857613158614428565b906000526020600020906008020160405180610100016040529081600082015481526020016001820154815260200160028201805461319690614442565b80601f01602080910402602001604051908101604052809291908181526020018280546131c290614442565b801561320f5780601f106131e45761010080835404028352916020019161320f565b820191906000526020600020905b8154815290600101906020018083116131f257829003601f168201915b5050505050815260200160038201805461322890614442565b80601f016020809104026020016040519081016040528092919081815260200182805461325490614442565b80156132a15780601f10613276576101008083540402835291602001916132a1565b820191906000526020600020905b81548152906001019060200180831161328457829003601f168201915b505050505081526020016004820180546132ba90614442565b80601f01602080910402602001604051908101604052809291908181526020018280546132e690614442565b80156133335780601f1061330857610100808354040283529160200191613333565b820191906000526020600020905b81548152906001019060200180831161331657829003601f168201915b5050505050815260200160058201805461334c90614442565b80601f016020809104026020016040519081016040528092919081815260200182805461337890614442565b80156133c55780601f1061339a576101008083540402835291602001916133c5565b820191906000526020600020905b8154815290600101906020018083116133a857829003601f168201915b50505091835250506006820154600160a060020a03908116602083015260079092015490911660409091015260a087018690526002805491925087918990811061341157613411614428565b90600052602060002090600802016000820151816000015560208201518160010155604082015181600201908051906020019061344f929190613668565b506060820151805161346b916003840191602090910190613668565b5060808201518051613487916004840191602090910190613668565b5060a082015180516134a3916005840191602090910190613668565b5060c0820151600682018054600160a060020a0319908116600160a060020a039384161790915560e0909301516007909201805490931691161790556040517fb2425fd63b8e5e3d2626dd510012c35043486569b145edafe9a5d2f884f55af19061351590899084908a908990614503565b60405180910390a1509395945050505050565b61353061376a565b3360009081526004602090815260408083208151606081019092528054600160a060020a03168252600181018054929391929184019161356f90614442565b80601f016020809104026020016040519081016040528092919081815260200182805461359b90614442565b80156135e85780601f106135bd576101008083540402835291602001916135e8565b820191906000526020600020905b8154815290600101906020018083116135cb57829003601f168201915b5050509183525050600282015460209091019060ff16600381111561360f5761360f613ab9565b600381111561362057613620613ab9565b90525092915050565b6040518060c001604052806000600160a060020a0316815260200160608152602001606081526020016060815260200160608152602001600081525090565b82805461367490614442565b90600052602060002090601f01602090048101928261369657600085556136dc565b82601f106136af57805160ff19168380011785556136dc565b828001600101855582156136dc579182015b828111156136dc5782518255916020019190600101906136c1565b506136e8929150613818565b5090565b6040518061010001604052806000815260200160008152602001606081526020016060815260200160608152602001606081526020016000600160a060020a031681526020016000600160a060020a031681525090565b60405180608001604052806004905b60608152602001906001900390816137525790505090565b60405180606001604052806000600160a060020a03168152602001606081526020016000600381111561379f5761379f613ab9565b905290565b604051806101600160405280600081526020016000600160a060020a0316815260200160608152602001606081526020016060815260200160608152602001600060038111156137f6576137f6613ab9565b8152602001600081526020016000815260200160008152602001606081525090565b5b808211156136e85760008155600101613819565b60e060020a634e487b710260009081526041600452602490fd5b60405161010081016001604060020a038111828210171561386a5761386a61382d565b60405290565b600082601f83011261388157600080fd5b81356001604060020a038082111561389b5761389b61382d565b604051601f8301601f19908116603f011681019082821181831017156138c3576138c361382d565b816040528381528660208588010111156138dc57600080fd5b836020870160208301376000602085830101528094505050505092915050565b6000806000806080858703121561391257600080fd5b84356001604060020a038082111561392957600080fd5b61393588838901613870565b9550602087013591508082111561394b57600080fd5b61395788838901613870565b9450604087013591508082111561396d57600080fd5b61397988838901613870565b9350606087013591508082111561398f57600080fd5b5061399c87828801613870565b91505092959194509250565b600160a060020a03169052565b6000815180845260005b818110156139db576020818501810151868301820152016139bf565b818111156139ed576000602083870101525b50601f01601f19169290920160200192915050565b60208082528251600160a060020a03168282015282015160c06040830152600090613a3060e08401826139b5565b90506040840151601f1980858403016060860152613a4e83836139b5565b92506060860151915080858403016080860152613a6b83836139b5565b925060808601519150808584030160a086015250613a8982826139b5565b91505060a084015160c08401528091505092915050565b600060208284031215613ab257600080fd5b5035919050565b60e060020a634e487b710260009081526021600452602490fd5b60048110613ae357613ae3613ab9565b9052565b60038110613af757613af7613ab9565b50565b613ae381613ae7565b8b8152600160a060020a038b16602082015261016060408201819052600090613b2e8382018d6139b5565b90508281036060840152613b42818c6139b5565b90508281036080840152613b56818b6139b5565b905082810360a0840152613b6a818a6139b5565b9050613b7960c0840189613ad3565b613b8287613ae7565b8660e0840152613b9186613ae7565b8561010084015284610120840152828103610140840152613bb281856139b5565b9e9d5050505050505050505050505050565b600061010082518452602083015160208501526040830151816040860152613bee828601826139b5565b91505060608301518482036060860152613c0882826139b5565b91505060808301518482036080860152613c2282826139b5565b91505060a083015184820360a0860152613c3c82826139b5565b91505060c0830151613c5160c08601826139a8565b5060e0830151613c6460e08601826139a8565b509392505050565b602081526000613c7f6020830184613bc4565b9392505050565b8035600160a060020a0381168114613c9d57600080fd5b919050565b600060208284031215613cb457600080fd5b613c7f82613c86565b60208101613cca83613ae7565b91905290565b600160a060020a0384168152606060208201819052600090613cf4908301856139b5565b90506104fe6040830184613ad3565b60008060408385031215613d1657600080fd5b613d1f83613c86565b946020939093013593505050565b602080825260009060a0830183820185845b6004811015613d6e57601f19878503018352613d5c8483516139b5565b93509184019190840190600101613d3f565b50919695505050505050565b60006101008a8352896020840152806040840152613d9a8184018a6139b5565b90508281036060840152613dae81896139b5565b90508281036080840152613dc281886139b5565b905082810360a0840152613dd681876139b5565b600160a060020a0395861660c08501529390941660e09092019190915250979650505050505050565b803560048110613c9d57600080fd5b60008060408385031215613e2157600080fd5b82356001604060020a03811115613e3757600080fd5b613e4385828601613870565b925050613e5260208401613dff565b90509250929050565b60208082528251600160a060020a03168282015282015160606040830152600090613e8960808401826139b5565b90506040840151613c646060850182613ad3565b803560038110613c9d57600080fd5b60008060008060008060c08789031215613ec557600080fd5b613ece87613dff565b955060208701356001604060020a0380821115613eea57600080fd5b613ef68a838b01613870565b96506040890135915080821115613f0c57600080fd5b613f188a838b01613870565b95506060890135915080821115613f2e57600080fd5b613f3a8a838b01613870565b9450613f4860808a01613e9d565b935060a0890135915080821115613f5e57600080fd5b50613f6b89828a01613870565b9150509295509295509295565b6000610160825184526020830151613f9360208601826139a8565b506040830151816040860152613fab828601826139b5565b91505060608301518482036060860152613fc582826139b5565b91505060808301518482036080860152613fdf82826139b5565b91505060a083015184820360a0860152613ff982826139b5565b91505060c083015161400e60c0860182613ad3565b5060e083015161402160e0860182613afa565b506101008084015161403582870182613afa565b50506101208381015190850152610140808401518583038287015261405a83826139b5565b9695505050505050565b602081526000613c7f6020830184613f78565b600160a060020a038716815260c06020820181905260009061409b908301886139b5565b82810360408401526140ad81886139b5565b905082810360608401526140c181876139b5565b905082810360808401526140d581866139b5565b9150508260a0830152979650505050505050565b600060208083018184528085518083526040860191506040848202870101925083870160005b8281101561413d57603f1988860301845261412b858351613f78565b9450928501929085019060010161410f565b5092979650505050505050565b6020808252825182820181905260009190848201906040850190845b8181101561418257835183529284019291840191600101614166565b50909695505050505050565b600080600080600060a086880312156141a657600080fd5b853594506141b660208701613c86565b935060408601356001604060020a03808211156141d257600080fd5b6141de89838a01613870565b945060608801359150808211156141f457600080fd5b61420089838a01613870565b9350608088013591508082111561421657600080fd5b5061422388828901613870565b9150509295509295909350565b6000806040838503121561424357600080fd5b8235915060208301356001604060020a0381111561426057600080fd5b61426c85828601613870565b9150509250929050565b6000806000806080858703121561428c57600080fd5b8435935060208501356001604060020a03808211156142aa57600080fd5b9086019061010082890312156142bf57600080fd5b6142c7613847565b82358152602083013560208201526040830135828111156142e757600080fd5b6142f38a828601613870565b60408301525060608301358281111561430b57600080fd5b6143178a828601613870565b60608301525060808301358281111561432f57600080fd5b61433b8a828601613870565b60808301525060a08301358281111561435357600080fd5b61435f8a828601613870565b60a08301525061437160c08401613c86565b60c082015261438260e08401613c86565b60e08201529450604087013591508082111561396d57600080fd5b60208082526022908201527f54686973206164647265737320697320616c7265616479207265676973746572604082015260f260020a61195902606082015260800190565b60208082526023908201527f4f6e6c792061646d696e732063616e20706572666f726d207468697320616374604082015260e960020a6234b7b702606082015260800190565b60e060020a634e487b710260009081526032600452602490fd5b60028104600182168061445657607f821691505b6020821081141561447b5760e060020a634e487b710260009081526022600452602490fd5b50919050565b6020808252601790820152604a60020a76111bd8dd5b595b9d08191bd95cc81b9bdd08195e1a5cdd02604082015260600190565b600082198211156144da5760e060020a634e487b710260009081526011600452602490fd5b500190565b600160a060020a038416815260208101839052606081016104fe6040830184613ad3565b84815260806020820152600061451c6080830186613bc4565b828103604084015261452e8186613bc4565b9050828103606084015261454281856139b5565b97965050505050505056fe554e49515545204944454e54494649434154494f4e20415554484f52495459204f4620494e444941a264697066735822122058a422f8fe71eff3f40d9add263b5b9667acb2ae0974e9830c2124c251b5d2b764736f6c634300080b0033",
  "immutableReferences": {},
  "source": "// SPDX-License-Identifier: MIT\r\npragma solidity >=0.4.22 <0.9.0;\r\n\r\ncontract DeDocs {\r\n\r\n  enum ROLE{\r\n    NOT_REGISTERED,\r\n    ADMIN,\r\n    USER\r\n  }\r\n\r\n  enum DEPARTMENT{\r\n    UNIQUE_IDENTIFICATION_AUTHORITY_OF_INDIA,\r\n    INCOME_TAX,\r\n    MUNICIPAL_CORPORATION,\r\n    STATE_TRANSPORT_DEPARTMENT\r\n  }\r\n\r\n  enum REQUEST_CATEGORY{\r\n    ISSUE,\r\n    UPDATE,\r\n    RECTIFY\r\n  }\r\n\r\n  enum REQUEST_STATUS{\r\n    PENDING,\r\n    SUCCESS,\r\n    REJECTED\r\n  }\r\n\r\n  struct Admin{\r\n    address id;\r\n    string name;\r\n    DEPARTMENT department;\r\n  }\r\n  \r\n  struct User{\r\n    address id;\r\n    string name;\r\n    string dob;\r\n    string password;    \r\n    string joined;\r\n    uint total_requests;\r\n  }\r\n\r\n  struct Request{\r\n    uint id;\r\n    address user_id;\r\n    string subject;\r\n    string description;\r\n    string ipfs_hash;\r\n    string date;\r\n    DEPARTMENT department;\r\n    REQUEST_CATEGORY category;\r\n    REQUEST_STATUS status;\r\n    uint document_id;\r\n    string remarks;\r\n  }\r\n\r\n  struct Document{\r\n    uint id;\r\n    uint request_id;\r\n    string name;\r\n    string ipfs_hash;\r\n    string issued_on;\r\n    string last_updated;\r\n    address admin;\r\n    address user;\r\n  }\r\n\r\n  event DeDocs_deployed(string message);\r\n  event Request_made(address user, uint request_id, DEPARTMENT department);\r\n  event Document_issued(address user, address admin, uint document_id);\r\n  event Document_modified(uint document_id, Document old_document, Document new_document, string message);\r\n\r\n  uint public total_requests = 0;\r\n\r\n  Request[] public all_requests;\r\n\r\n  Document[] public all_documents; //array to store all the documents of the system\r\n  mapping(address => User) public users; // mapping of user address to user data \r\n  mapping(address => Admin) public admins; //mapping of admin address to admin data\r\n  mapping(address => uint256[]) public requests; //mapping of the user addess to all the requests made by that address\r\n  mapping(address => uint256[]) public documents; // mapping of the user address to their documents\r\n  \r\n\r\n  modifier is_admin(){\r\n    require(admins[msg.sender].id != address(0x0),\"Only admins can perform this action\");\r\n    _;\r\n  }\r\n\r\n  modifier is_existent(uint _document_id){\r\n    require(_document_id < all_documents.length, \"Document does not exist\");\r\n    _;\r\n  }\r\n\r\n  modifier is_allowed(uint _document_id){\r\n    require(admins[msg.sender].id != address(0x0) || all_documents[_document_id].user == msg.sender, \"You are not allowed to perform this action\");\r\n    _;\r\n  }\r\n\r\n  constructor()  {\r\n      emit DeDocs_deployed(\"Contract deployed successfully\");\r\n  }\r\n\r\n  function register_user(string memory _name, string memory _dob, string memory _password, string memory _joined) payable public returns (User memory){\r\n\r\n    require(users[msg.sender].id == address(0x0),\"This address is already registered\");\r\n\r\n    User memory _user;\r\n    _user.id = msg.sender;\r\n    _user.name = _name;\r\n    _user.dob = _dob;\r\n    _user.password = _password;\r\n    _user.joined = _joined;\r\n    _user.total_requests = 0;\r\n\r\n    users[msg.sender] = _user;\r\n\r\n    return _user;\r\n  }\r\n\r\n  function register_admin(string memory _name, DEPARTMENT _department) payable public returns (Admin memory){\r\n\r\n    require(admins[msg.sender].id == address(0x0),\"This address is already registered\");\r\n\r\n    Admin memory _admin;\r\n    _admin.id = msg.sender;\r\n    _admin.name = _name;\r\n    _admin.department = _department;\r\n\r\n    admins[msg.sender] = _admin;\r\n\r\n    return _admin;\r\n  }\r\n\r\n  function get_departments() public pure returns(string[4] memory departments){\r\n    string[4] memory _departments = [\"UNIQUE IDENTIFICATION AUTHORITY OF INDIA\",\"INCOME TAX\",\"MUNICIPAL CORPORATION\",\"STATE TRANSPORTD EPARTMENT\"];\r\n    return _departments;\r\n  }\r\n\r\n  function get_role(address _address) public view returns(ROLE role){\r\n\r\n    if(users[_address].id != address(0x0)) return ROLE.USER;\r\n    if(admins[_address].id != address(0x0)) return ROLE.ADMIN;\r\n\r\n    return ROLE.NOT_REGISTERED;\r\n\r\n  }\r\n\r\n  function get_all_requests() public view returns(Request[] memory){\r\n    return all_requests;\r\n  }\r\n\r\n  /***********************************  USER FUNCTIONS  *********************************/\r\n\r\n  function get_user_details(address _address) public view returns(User memory user){\r\n    User memory _user = users[_address];\r\n    return _user;\r\n  }\r\n\r\n  function get_user_requests() public view returns(uint256[] memory _requests){\r\n\r\n    uint256[] memory _my_requests = requests[msg.sender];\r\n    return _my_requests;\r\n    \r\n  }\r\n\r\n  function make_request(DEPARTMENT _department,  string memory _subject, string memory _description, string memory _ipfs_hash, REQUEST_CATEGORY _request_category, string memory _date) public payable returns(Request memory){\r\n\r\n    Request memory request;\r\n\r\n    request.id = total_requests;\r\n    request.user_id = msg.sender;\r\n    request.subject = _subject;\r\n    request.description = _description;\r\n    request.ipfs_hash = _ipfs_hash;\r\n    request.date = _date;\r\n    request.department = _department;\r\n    request.category = _request_category;\r\n    request.status = REQUEST_STATUS.PENDING;\r\n\r\n    all_requests.push(request);\r\n    total_requests += 1;\r\n\r\n    emit Request_made(msg.sender, request.id, _department);\r\n\r\n    return request;\r\n  }\r\n\r\n\r\n  /********************************ADMIN FUNCTIONS********************************/\r\n\r\n  function get_admin_details() public view returns(Admin memory admin){\r\n    Admin memory _admin = admins[msg.sender];\r\n    return _admin;\r\n  }\r\n\r\n  function get_document (uint _document_id) is_existent(_document_id) is_allowed(_document_id) public view returns (Document memory){\r\n    Document memory _document = all_documents[_document_id];\r\n    return _document;\r\n  }\r\n\r\n  function reject_request(uint _request_id, string memory _remarks) is_admin public payable{\r\n    Request memory _request = all_requests[_request_id];\r\n    _request.status = REQUEST_STATUS.REJECTED;\r\n    _request.remarks = _remarks;\r\n    all_requests[_request_id] = _request;\r\n  }\r\n\r\n  function approve_request(uint _request_id) is_admin public payable{\r\n    Request memory _request = all_requests[_request_id];\r\n    _request.status = REQUEST_STATUS.SUCCESS;\r\n    all_requests[_request_id] = _request;\r\n  }\r\n\r\n  function issue_document(uint _request_id, address _userAddress, string memory _name, string memory _ipfs_hash, string memory _issued_on) is_admin public payable returns(Document memory){\r\n    \r\n    //check if user is registered\r\n    require(users[_userAddress].id != address(0x0),\"User is not registered\");\r\n\r\n    //create a new document instance\r\n    Document memory _document;\r\n    _document.id = all_documents.length;\r\n    _document.name = _name;\r\n    _document.ipfs_hash = _ipfs_hash;\r\n    _document.issued_on = _issued_on;\r\n    _document.user = _userAddress;\r\n    _document.admin = msg.sender;\r\n\r\n    //insert the document to the records\r\n    all_documents.push(_document);\r\n    documents[_userAddress].push(_document.id);\r\n\r\n    //update the request\r\n    Request memory _request = all_requests[_request_id];\r\n    _request.document_id = _document.id;\r\n    all_requests[_request_id] = _request;\r\n\r\n    emit Document_issued(_userAddress, msg.sender, _document.id);\r\n\r\n    return _document;\r\n  }\r\n\r\n\r\n  function modify_document(uint _document_id, Document memory _new_document, string memory _last_updated, string memory _message) is_existent(_document_id) is_admin public payable returns(Document memory){\r\n    \r\n    //Get the current version of the document\r\n    Document memory _old_document = all_documents[_document_id];\r\n\r\n    //update the document\r\n    _new_document.last_updated = _last_updated;\r\n    all_documents[_document_id] = _new_document;\r\n\r\n    emit Document_modified(_document_id, _old_document, _new_document, _message);\r\n\r\n    return _new_document;\r\n  }\r\n\r\n}\r\n",
  "sourcePath": "C:\\Users\\Kailash\\Desktop\\summer project\\backend\\contracts\\DeDocs.sol",
  "compiler": {
    "name": "solc",
    "version": "0.8.11+commit.d7f03943.Emscripten.clang"
  },
  "schemaVersion": "3.4.5",
  "updatedAt": "2022-06-30T18:25:40.697Z",
  "networkType": "ethereum",
  "devdoc": {
    "kind": "dev",
    "methods": {},
    "version": 1
  },
  "userdoc": {
    "kind": "user",
    "methods": {},
    "version": 1
  }
}