{
  "contractName": "DeDocs",
  "abi": [
    {
      "inputs": [],
      "stateMutability": "nonpayable",
      "type": "constructor"
    },
    {
      "anonymous": false,
      "inputs": [
        {
          "indexed": false,
          "internalType": "string",
          "name": "message",
          "type": "string"
        }
      ],
      "name": "DeDocs_deployed",
      "type": "event"
    },
    {
      "anonymous": false,
      "inputs": [
        {
          "indexed": false,
          "internalType": "address",
          "name": "user",
          "type": "address"
        },
        {
          "indexed": false,
          "internalType": "address",
          "name": "admin",
          "type": "address"
        },
        {
          "indexed": false,
          "internalType": "uint256",
          "name": "document_id",
          "type": "uint256"
        },
        {
          "indexed": false,
          "internalType": "string",
          "name": "timestamp",
          "type": "string"
        }
      ],
      "name": "Document_issued",
      "type": "event"
    },
    {
      "anonymous": false,
      "inputs": [
        {
          "indexed": false,
          "internalType": "uint256",
          "name": "document_id",
          "type": "uint256"
        },
        {
          "components": [
            {
              "internalType": "uint256",
              "name": "id",
              "type": "uint256"
            },
            {
              "internalType": "uint256",
              "name": "request_id",
              "type": "uint256"
            },
            {
              "internalType": "string",
              "name": "name",
              "type": "string"
            },
            {
              "internalType": "string",
              "name": "uid",
              "type": "string"
            },
            {
              "internalType": "string",
              "name": "ipfs_hash",
              "type": "string"
            },
            {
              "internalType": "string",
              "name": "issued_on",
              "type": "string"
            },
            {
              "internalType": "string",
              "name": "last_updated",
              "type": "string"
            },
            {
              "internalType": "address",
              "name": "admin",
              "type": "address"
            },
            {
              "internalType": "address",
              "name": "user",
              "type": "address"
            },
            {
              "internalType": "enum DeDocs.DEPARTMENT",
              "name": "department",
              "type": "uint8"
            }
          ],
          "indexed": false,
          "internalType": "struct DeDocs.Document",
          "name": "document",
          "type": "tuple"
        },
        {
          "indexed": false,
          "internalType": "string",
          "name": "message",
          "type": "string"
        },
        {
          "indexed": false,
          "internalType": "string",
          "name": "timestamp",
          "type": "string"
        }
      ],
      "name": "Document_modified",
      "type": "event"
    },
    {
      "anonymous": false,
      "inputs": [
        {
          "indexed": false,
          "internalType": "address",
          "name": "user",
          "type": "address"
        },
        {
          "indexed": false,
          "internalType": "uint256",
          "name": "request_id",
          "type": "uint256"
        },
        {
          "indexed": false,
          "internalType": "enum DeDocs.DEPARTMENT",
          "name": "department",
          "type": "uint8"
        }
      ],
      "name": "Request_made",
      "type": "event"
    },
    {
      "inputs": [
        {
          "internalType": "address",
          "name": "",
          "type": "address"
        }
      ],
      "name": "admins",
      "outputs": [
        {
          "internalType": "address",
          "name": "id",
          "type": "address"
        },
        {
          "internalType": "string",
          "name": "name",
          "type": "string"
        },
        {
          "internalType": "enum DeDocs.DEPARTMENT",
          "name": "department",
          "type": "uint8"
        }
      ],
      "stateMutability": "view",
      "type": "function",
      "constant": true
    },
    {
      "inputs": [
        {
          "internalType": "uint256",
          "name": "",
          "type": "uint256"
        }
      ],
      "name": "all_documents",
      "outputs": [
        {
          "internalType": "uint256",
          "name": "id",
          "type": "uint256"
        },
        {
          "internalType": "uint256",
          "name": "request_id",
          "type": "uint256"
        },
        {
          "internalType": "string",
          "name": "name",
          "type": "string"
        },
        {
          "internalType": "string",
          "name": "uid",
          "type": "string"
        },
        {
          "internalType": "string",
          "name": "ipfs_hash",
          "type": "string"
        },
        {
          "internalType": "string",
          "name": "issued_on",
          "type": "string"
        },
        {
          "internalType": "string",
          "name": "last_updated",
          "type": "string"
        },
        {
          "internalType": "address",
          "name": "admin",
          "type": "address"
        },
        {
          "internalType": "address",
          "name": "user",
          "type": "address"
        },
        {
          "internalType": "enum DeDocs.DEPARTMENT",
          "name": "department",
          "type": "uint8"
        }
      ],
      "stateMutability": "view",
      "type": "function",
      "constant": true
    },
    {
      "inputs": [
        {
          "internalType": "uint256",
          "name": "",
          "type": "uint256"
        }
      ],
      "name": "all_requests",
      "outputs": [
        {
          "internalType": "uint256",
          "name": "id",
          "type": "uint256"
        },
        {
          "internalType": "address",
          "name": "user_id",
          "type": "address"
        },
        {
          "internalType": "string",
          "name": "subject",
          "type": "string"
        },
        {
          "internalType": "string",
          "name": "description",
          "type": "string"
        },
        {
          "internalType": "string",
          "name": "ipfs_hash",
          "type": "string"
        },
        {
          "internalType": "string",
          "name": "date",
          "type": "string"
        },
        {
          "internalType": "enum DeDocs.DEPARTMENT",
          "name": "department",
          "type": "uint8"
        },
        {
          "internalType": "enum DeDocs.REQUEST_CATEGORY",
          "name": "category",
          "type": "uint8"
        },
        {
          "internalType": "enum DeDocs.REQUEST_STATUS",
          "name": "status",
          "type": "uint8"
        },
        {
          "internalType": "uint256",
          "name": "document_id",
          "type": "uint256"
        },
        {
          "internalType": "string",
          "name": "remarks",
          "type": "string"
        }
      ],
      "stateMutability": "view",
      "type": "function",
      "constant": true
    },
    {
      "inputs": [
        {
          "internalType": "address",
          "name": "",
          "type": "address"
        },
        {
          "internalType": "uint256",
          "name": "",
          "type": "uint256"
        }
      ],
      "name": "documents",
      "outputs": [
        {
          "internalType": "uint256",
          "name": "",
          "type": "uint256"
        }
      ],
      "stateMutability": "view",
      "type": "function",
      "constant": true
    },
    {
      "inputs": [
        {
          "internalType": "address",
          "name": "",
          "type": "address"
        },
        {
          "internalType": "uint256",
          "name": "",
          "type": "uint256"
        }
      ],
      "name": "requests",
      "outputs": [
        {
          "internalType": "uint256",
          "name": "",
          "type": "uint256"
        }
      ],
      "stateMutability": "view",
      "type": "function",
      "constant": true
    },
    {
      "inputs": [],
      "name": "total_requests",
      "outputs": [
        {
          "internalType": "uint256",
          "name": "",
          "type": "uint256"
        }
      ],
      "stateMutability": "view",
      "type": "function",
      "constant": true
    },
    {
      "inputs": [],
      "name": "total_users",
      "outputs": [
        {
          "internalType": "uint256",
          "name": "",
          "type": "uint256"
        }
      ],
      "stateMutability": "view",
      "type": "function",
      "constant": true
    },
    {
      "inputs": [
        {
          "internalType": "address",
          "name": "",
          "type": "address"
        }
      ],
      "name": "users",
      "outputs": [
        {
          "internalType": "address",
          "name": "id",
          "type": "address"
        },
        {
          "internalType": "string",
          "name": "name",
          "type": "string"
        },
        {
          "internalType": "string",
          "name": "dob",
          "type": "string"
        },
        {
          "internalType": "string",
          "name": "password",
          "type": "string"
        },
        {
          "internalType": "string",
          "name": "joined",
          "type": "string"
        },
        {
          "internalType": "uint256",
          "name": "total_requests",
          "type": "uint256"
        }
      ],
      "stateMutability": "view",
      "type": "function",
      "constant": true
    },
    {
      "inputs": [
        {
          "internalType": "string",
          "name": "_name",
          "type": "string"
        },
        {
          "internalType": "string",
          "name": "_dob",
          "type": "string"
        },
        {
          "internalType": "string",
          "name": "_password",
          "type": "string"
        },
        {
          "internalType": "string",
          "name": "_joined",
          "type": "string"
        }
      ],
      "name": "register_user",
      "outputs": [
        {
          "components": [
            {
              "internalType": "address",
              "name": "id",
              "type": "address"
            },
            {
              "internalType": "string",
              "name": "name",
              "type": "string"
            },
            {
              "internalType": "string",
              "name": "dob",
              "type": "string"
            },
            {
              "internalType": "string",
              "name": "password",
              "type": "string"
            },
            {
              "internalType": "string",
              "name": "joined",
              "type": "string"
            },
            {
              "internalType": "uint256",
              "name": "total_requests",
              "type": "uint256"
            }
          ],
          "internalType": "struct DeDocs.User",
          "name": "",
          "type": "tuple"
        }
      ],
      "stateMutability": "payable",
      "type": "function",
      "payable": true
    },
    {
      "inputs": [
        {
          "internalType": "string",
          "name": "_name",
          "type": "string"
        },
        {
          "internalType": "enum DeDocs.DEPARTMENT",
          "name": "_department",
          "type": "uint8"
        }
      ],
      "name": "register_admin",
      "outputs": [
        {
          "components": [
            {
              "internalType": "address",
              "name": "id",
              "type": "address"
            },
            {
              "internalType": "string",
              "name": "name",
              "type": "string"
            },
            {
              "internalType": "enum DeDocs.DEPARTMENT",
              "name": "department",
              "type": "uint8"
            }
          ],
          "internalType": "struct DeDocs.Admin",
          "name": "",
          "type": "tuple"
        }
      ],
      "stateMutability": "payable",
      "type": "function",
      "payable": true
    },
    {
      "inputs": [],
      "name": "get_departments",
      "outputs": [
        {
          "internalType": "string[4]",
          "name": "departments",
          "type": "string[4]"
        }
      ],
      "stateMutability": "pure",
      "type": "function",
      "constant": true
    },
    {
      "inputs": [
        {
          "internalType": "address",
          "name": "_address",
          "type": "address"
        }
      ],
      "name": "get_role",
      "outputs": [
        {
          "internalType": "enum DeDocs.ROLE",
          "name": "role",
          "type": "uint8"
        }
      ],
      "stateMutability": "view",
      "type": "function",
      "constant": true
    },
    {
      "inputs": [],
      "name": "get_all_requests",
      "outputs": [
        {
          "components": [
            {
              "internalType": "uint256",
              "name": "id",
              "type": "uint256"
            },
            {
              "internalType": "address",
              "name": "user_id",
              "type": "address"
            },
            {
              "internalType": "string",
              "name": "subject",
              "type": "string"
            },
            {
              "internalType": "string",
              "name": "description",
              "type": "string"
            },
            {
              "internalType": "string",
              "name": "ipfs_hash",
              "type": "string"
            },
            {
              "internalType": "string",
              "name": "date",
              "type": "string"
            },
            {
              "internalType": "enum DeDocs.DEPARTMENT",
              "name": "department",
              "type": "uint8"
            },
            {
              "internalType": "enum DeDocs.REQUEST_CATEGORY",
              "name": "category",
              "type": "uint8"
            },
            {
              "internalType": "enum DeDocs.REQUEST_STATUS",
              "name": "status",
              "type": "uint8"
            },
            {
              "internalType": "uint256",
              "name": "document_id",
              "type": "uint256"
            },
            {
              "internalType": "string",
              "name": "remarks",
              "type": "string"
            }
          ],
          "internalType": "struct DeDocs.Request[]",
          "name": "",
          "type": "tuple[]"
        }
      ],
      "stateMutability": "view",
      "type": "function",
      "constant": true
    },
    {
      "inputs": [],
      "name": "get_all_documents",
      "outputs": [
        {
          "components": [
            {
              "internalType": "uint256",
              "name": "id",
              "type": "uint256"
            },
            {
              "internalType": "uint256",
              "name": "request_id",
              "type": "uint256"
            },
            {
              "internalType": "string",
              "name": "name",
              "type": "string"
            },
            {
              "internalType": "string",
              "name": "uid",
              "type": "string"
            },
            {
              "internalType": "string",
              "name": "ipfs_hash",
              "type": "string"
            },
            {
              "internalType": "string",
              "name": "issued_on",
              "type": "string"
            },
            {
              "internalType": "string",
              "name": "last_updated",
              "type": "string"
            },
            {
              "internalType": "address",
              "name": "admin",
              "type": "address"
            },
            {
              "internalType": "address",
              "name": "user",
              "type": "address"
            },
            {
              "internalType": "enum DeDocs.DEPARTMENT",
              "name": "department",
              "type": "uint8"
            }
          ],
          "internalType": "struct DeDocs.Document[]",
          "name": "",
          "type": "tuple[]"
        }
      ],
      "stateMutability": "view",
      "type": "function",
      "constant": true
    },
    {
      "inputs": [
        {
          "internalType": "uint256",
          "name": "_document_id",
          "type": "uint256"
        },
        {
          "internalType": "address",
          "name": "_address",
          "type": "address"
        }
      ],
      "name": "verify_document",
      "outputs": [
        {
          "internalType": "bool",
          "name": "",
          "type": "bool"
        },
        {
          "internalType": "string",
          "name": "",
          "type": "string"
        }
      ],
      "stateMutability": "view",
      "type": "function",
      "constant": true
    },
    {
      "inputs": [
        {
          "internalType": "address",
          "name": "_address",
          "type": "address"
        }
      ],
      "name": "get_user_details",
      "outputs": [
        {
          "components": [
            {
              "internalType": "address",
              "name": "id",
              "type": "address"
            },
            {
              "internalType": "string",
              "name": "name",
              "type": "string"
            },
            {
              "internalType": "string",
              "name": "dob",
              "type": "string"
            },
            {
              "internalType": "string",
              "name": "password",
              "type": "string"
            },
            {
              "internalType": "string",
              "name": "joined",
              "type": "string"
            },
            {
              "internalType": "uint256",
              "name": "total_requests",
              "type": "uint256"
            }
          ],
          "internalType": "struct DeDocs.User",
          "name": "user",
          "type": "tuple"
        }
      ],
      "stateMutability": "view",
      "type": "function",
      "constant": true
    },
    {
      "inputs": [],
      "name": "get_user_requests",
      "outputs": [
        {
          "internalType": "uint256[]",
          "name": "_requests",
          "type": "uint256[]"
        }
      ],
      "stateMutability": "view",
      "type": "function",
      "constant": true
    },
    {
      "inputs": [],
      "name": "get_user_documents",
      "outputs": [
        {
          "internalType": "uint256[]",
          "name": "_documents",
          "type": "uint256[]"
        }
      ],
      "stateMutability": "view",
      "type": "function",
      "constant": true
    },
    {
      "inputs": [
        {
          "internalType": "enum DeDocs.DEPARTMENT",
          "name": "_department",
          "type": "uint8"
        },
        {
          "internalType": "string",
          "name": "_subject",
          "type": "string"
        },
        {
          "internalType": "string",
          "name": "_description",
          "type": "string"
        },
        {
          "internalType": "string",
          "name": "_ipfs_hash",
          "type": "string"
        },
        {
          "internalType": "enum DeDocs.REQUEST_CATEGORY",
          "name": "_request_category",
          "type": "uint8"
        },
        {
          "internalType": "string",
          "name": "_date",
          "type": "string"
        },
        {
          "internalType": "uint256",
          "name": "_document_id",
          "type": "uint256"
        }
      ],
      "name": "make_request",
      "outputs": [
        {
          "components": [
            {
              "internalType": "uint256",
              "name": "id",
              "type": "uint256"
            },
            {
              "internalType": "address",
              "name": "user_id",
              "type": "address"
            },
            {
              "internalType": "string",
              "name": "subject",
              "type": "string"
            },
            {
              "internalType": "string",
              "name": "description",
              "type": "string"
            },
            {
              "internalType": "string",
              "name": "ipfs_hash",
              "type": "string"
            },
            {
              "internalType": "string",
              "name": "date",
              "type": "string"
            },
            {
              "internalType": "enum DeDocs.DEPARTMENT",
              "name": "department",
              "type": "uint8"
            },
            {
              "internalType": "enum DeDocs.REQUEST_CATEGORY",
              "name": "category",
              "type": "uint8"
            },
            {
              "internalType": "enum DeDocs.REQUEST_STATUS",
              "name": "status",
              "type": "uint8"
            },
            {
              "internalType": "uint256",
              "name": "document_id",
              "type": "uint256"
            },
            {
              "internalType": "string",
              "name": "remarks",
              "type": "string"
            }
          ],
          "internalType": "struct DeDocs.Request",
          "name": "",
          "type": "tuple"
        }
      ],
      "stateMutability": "payable",
      "type": "function",
      "payable": true
    },
    {
      "inputs": [],
      "name": "get_admin_details",
      "outputs": [
        {
          "components": [
            {
              "internalType": "address",
              "name": "id",
              "type": "address"
            },
            {
              "internalType": "string",
              "name": "name",
              "type": "string"
            },
            {
              "internalType": "enum DeDocs.DEPARTMENT",
              "name": "department",
              "type": "uint8"
            }
          ],
          "internalType": "struct DeDocs.Admin",
          "name": "admin",
          "type": "tuple"
        }
      ],
      "stateMutability": "view",
      "type": "function",
      "constant": true
    },
    {
      "inputs": [
        {
          "internalType": "uint256",
          "name": "_document_id",
          "type": "uint256"
        }
      ],
      "name": "get_document",
      "outputs": [
        {
          "components": [
            {
              "internalType": "uint256",
              "name": "id",
              "type": "uint256"
            },
            {
              "internalType": "uint256",
              "name": "request_id",
              "type": "uint256"
            },
            {
              "internalType": "string",
              "name": "name",
              "type": "string"
            },
            {
              "internalType": "string",
              "name": "uid",
              "type": "string"
            },
            {
              "internalType": "string",
              "name": "ipfs_hash",
              "type": "string"
            },
            {
              "internalType": "string",
              "name": "issued_on",
              "type": "string"
            },
            {
              "internalType": "string",
              "name": "last_updated",
              "type": "string"
            },
            {
              "internalType": "address",
              "name": "admin",
              "type": "address"
            },
            {
              "internalType": "address",
              "name": "user",
              "type": "address"
            },
            {
              "internalType": "enum DeDocs.DEPARTMENT",
              "name": "department",
              "type": "uint8"
            }
          ],
          "internalType": "struct DeDocs.Document",
          "name": "",
          "type": "tuple"
        }
      ],
      "stateMutability": "view",
      "type": "function",
      "constant": true
    },
    {
      "inputs": [
        {
          "internalType": "uint256",
          "name": "_request_id",
          "type": "uint256"
        },
        {
          "internalType": "string",
          "name": "_remarks",
          "type": "string"
        }
      ],
      "name": "reject_request",
      "outputs": [],
      "stateMutability": "payable",
      "type": "function",
      "payable": true
    },
    {
      "inputs": [
        {
          "internalType": "uint256",
          "name": "_request_id",
          "type": "uint256"
        }
      ],
      "name": "approve_request",
      "outputs": [],
      "stateMutability": "payable",
      "type": "function",
      "payable": true
    },
    {
      "inputs": [
        {
          "internalType": "uint256",
          "name": "_request_id",
          "type": "uint256"
        },
        {
          "internalType": "address",
          "name": "_userAddress",
          "type": "address"
        },
        {
          "internalType": "string",
          "name": "_name",
          "type": "string"
        },
        {
          "internalType": "string",
          "name": "_uid",
          "type": "string"
        },
        {
          "internalType": "string",
          "name": "_ipfs_hash",
          "type": "string"
        },
        {
          "internalType": "string",
          "name": "_issued_on",
          "type": "string"
        }
      ],
      "name": "issue_document",
      "outputs": [
        {
          "components": [
            {
              "internalType": "uint256",
              "name": "id",
              "type": "uint256"
            },
            {
              "internalType": "uint256",
              "name": "request_id",
              "type": "uint256"
            },
            {
              "internalType": "string",
              "name": "name",
              "type": "string"
            },
            {
              "internalType": "string",
              "name": "uid",
              "type": "string"
            },
            {
              "internalType": "string",
              "name": "ipfs_hash",
              "type": "string"
            },
            {
              "internalType": "string",
              "name": "issued_on",
              "type": "string"
            },
            {
              "internalType": "string",
              "name": "last_updated",
              "type": "string"
            },
            {
              "internalType": "address",
              "name": "admin",
              "type": "address"
            },
            {
              "internalType": "address",
              "name": "user",
              "type": "address"
            },
            {
              "internalType": "enum DeDocs.DEPARTMENT",
              "name": "department",
              "type": "uint8"
            }
          ],
          "internalType": "struct DeDocs.Document",
          "name": "",
          "type": "tuple"
        }
      ],
      "stateMutability": "payable",
      "type": "function",
      "payable": true
    },
    {
      "inputs": [
        {
          "internalType": "uint256",
          "name": "_document_id",
          "type": "uint256"
        },
        {
          "internalType": "string",
          "name": "_new_hash",
          "type": "string"
        },
        {
          "internalType": "string",
          "name": "_last_updated",
          "type": "string"
        },
        {
          "internalType": "string",
          "name": "_message",
          "type": "string"
        }
      ],
      "name": "modify_document",
      "outputs": [
        {
          "components": [
            {
              "internalType": "uint256",
              "name": "id",
              "type": "uint256"
            },
            {
              "internalType": "uint256",
              "name": "request_id",
              "type": "uint256"
            },
            {
              "internalType": "string",
              "name": "name",
              "type": "string"
            },
            {
              "internalType": "string",
              "name": "uid",
              "type": "string"
            },
            {
              "internalType": "string",
              "name": "ipfs_hash",
              "type": "string"
            },
            {
              "internalType": "string",
              "name": "issued_on",
              "type": "string"
            },
            {
              "internalType": "string",
              "name": "last_updated",
              "type": "string"
            },
            {
              "internalType": "address",
              "name": "admin",
              "type": "address"
            },
            {
              "internalType": "address",
              "name": "user",
              "type": "address"
            },
            {
              "internalType": "enum DeDocs.DEPARTMENT",
              "name": "department",
              "type": "uint8"
            }
          ],
          "internalType": "struct DeDocs.Document",
          "name": "",
          "type": "tuple"
        }
      ],
      "stateMutability": "payable",
      "type": "function",
      "payable": true
    }
  ],
  "bytecode": "0x608060405260008055600060015534801561001957600080fd5b507f9ab3570e7e18bfba94b9c1020a507301d734b0c1bd22301391288a326884adc1604051610079906020808252601e908201527f436f6e7472616374206465706c6f796564207375636365737366756c6c790000604082015260600190565b60405180910390a1614f9880620000916000396000f3fe6080604052600436106101295760e060020a60003504630776a4f3811461012e5780630c99d1301461015757806316dd9b591461016c57806318db724f1461018c57806326611b5a146101c357806338925c7d146101e757806339c22db814610207578063429b62e5146102345780636339884414610263578063726f091e146102835780637673ac95146102a5578063789469bd146102db578063915c74de146102fb5780639ecebe2a14610329578063a6d6e94914610349578063a87430ba1461036b578063bb5bfd661461039d578063bf5ba0fb146103bf578063c5dbb79e146103e1578063ca76115c146103f4578063cf56202214610409578063d2965f041461041c578063e7cc62bd1461043c578063f66c99dc14610452578063f7a37b5214610472575b600080fd5b61014161013c366004614204565b610487565b60405161014e919061430a565b60405180910390f35b61016a6101653660046143a8565b6105c5565b005b61017f61017a3660046143dd565b610b69565b60405161014e91906145aa565b34801561019857600080fd5b506101ac6101a73660046143a8565b611462565b60405161014e9b9a999897969594939291906145e0565b3480156101cf57600080fd5b506101d960005481565b60405190815260200161014e565b3480156101f357600080fd5b5061017f6102023660046143a8565b611787565b34801561021357600080fd5b506102276102223660046146a1565b611bf6565b60405161014e91906146bc565b34801561024057600080fd5b5061025461024f3660046146a1565b611c50565b60405161014e939291906146cf565b34801561026f57600080fd5b506101d961027e366004614702565b611d08565b34801561028f57600080fd5b50610298611d39565b60405161014e919061472c565b3480156102b157600080fd5b506102c56102c03660046143a8565b611e0f565b60405161014e9a99989796959493929190614779565b6102ee6102e9366004614831565b61212e565b60405161014e919061487e565b34801561030757600080fd5b5061031b6103163660046148c8565b612227565b60405161014e9291906148eb565b34801561033557600080fd5b506101d9610344366004614702565b6122fc565b34801561035557600080fd5b5061035e612318565b60405161014e9190614906565b34801561037757600080fd5b5061038b6103863660046146a1565b6126bd565b60405161014e96959493929190614967565b3480156103a957600080fd5b506103b261291c565b60405161014e9190614ac5565b3480156103cb57600080fd5b506103d4612d1c565b60405161014e9190614b19565b61017f6103ef366004614b5d565b612d7e565b34801561040057600080fd5b506103d46132f6565b61016a610417366004614b91565b613356565b34801561042857600080fd5b506101416104373660046146a1565b613905565b34801561044857600080fd5b506101d960015481565b610465610460366004614be6565b613b9c565b60405161014e9190614cbd565b34801561047e57600080fd5b506102ee613e40565b61048f613f41565b33600090815260046020526040902054600160a060020a0316156104d15760405160e560020a62461bcd0281526004016104c890614cd0565b60405180910390fd5b6104d9613f41565b33808252602080830188815260408085018990526060850188905260808501879052600060a086018190529384526004835290922083518154600160a060020a031916600160a060020a0390911617815591518051849392610542926001850192910190613f80565b506040820151805161055e916002840191602090910190613f80565b506060820151805161057a916003840191602090910190613f80565b5060808201518051610596916004840191602090910190613f80565b5060a09190910151600590910155600180549060006105b483614d2f565b90915550909150505b949350505050565b33600090815260056020526040902054600160a060020a03166105fd5760405160e560020a62461bcd0281526004016104c890614d4a565b60006002828154811061061257610612614d90565b906000526020600020906009020160405180610160016040529081600082015481526020016001820160009054906101000a9004600160a060020a0316600160a060020a0316600160a060020a0316815260200160028201805461067590614daa565b80601f01602080910402602001604051908101604052809291908181526020018280546106a190614daa565b80156106ee5780601f106106c3576101008083540402835291602001916106ee565b820191906000526020600020905b8154815290600101906020018083116106d157829003601f168201915b5050505050815260200160038201805461070790614daa565b80601f016020809104026020016040519081016040528092919081815260200182805461073390614daa565b80156107805780601f1061075557610100808354040283529160200191610780565b820191906000526020600020905b81548152906001019060200180831161076357829003601f168201915b5050505050815260200160048201805461079990614daa565b80601f01602080910402602001604051908101604052809291908181526020018280546107c590614daa565b80156108125780601f106107e757610100808354040283529160200191610812565b820191906000526020600020905b8154815290600101906020018083116107f557829003601f168201915b5050505050815260200160058201805461082b90614daa565b80601f016020809104026020016040519081016040528092919081815260200182805461085790614daa565b80156108a45780601f10610879576101008083540402835291602001916108a4565b820191906000526020600020905b81548152906001019060200180831161088757829003601f168201915b5050509183525050600682015460209091019060ff1660038111156108cb576108cb6144a2565b60038111156108dc576108dc6144a2565b81526020016006820160019054906101000a900460ff166002811115610904576109046144a2565b6002811115610915576109156144a2565b81526020016006820160029054906101000a900460ff16600281111561093d5761093d6144a2565b600281111561094e5761094e6144a2565b81526020016007820154815260200160088201805461096c90614daa565b80601f016020809104026020016040519081016040528092919081815260200182805461099890614daa565b80156109e55780601f106109ba576101008083540402835291602001916109e5565b820191906000526020600020905b8154815290600101906020018083116109c857829003601f168201915b50505091909252505060016101008301525060028054919250829184908110610a1057610a10614d90565b600091825260209182902083516009929092020190815582820151600182018054600160a060020a031916600160a060020a03909216919091179055604083015180519192610a6792600285019290910190613f80565b5060608201518051610a83916003840191602090910190613f80565b5060808201518051610a9f916004840191602090910190613f80565b5060a08201518051610abb916005840191602090910190613f80565b5060c082015160068201805460ff19166001836003811115610adf57610adf6144a2565b021790555060e082015160068201805461ff001916610100836002811115610b0957610b096144a2565b021790555061010082015160068201805462ff0000191662010000836002811115610b3657610b366144a2565b021790555061012082015160078201556101408201518051610b62916008840191602090910190613f80565b5050505050565b610b71614004565b33600090815260056020526040902054600160a060020a0316610ba95760405160e560020a62461bcd0281526004016104c890614d4a565b600160a060020a0386811660009081526004602052604090205416610c0f5760405160e560020a62461bcd0281526020600482015260166024820152605260020a75155cd95c881a5cc81b9bdd081c9959da5cdd195c99590260448201526064016104c8565b600060028881548110610c2457610c24614d90565b906000526020600020906009020160405180610160016040529081600082015481526020016001820160009054906101000a9004600160a060020a0316600160a060020a0316600160a060020a03168152602001600282018054610c8790614daa565b80601f0160208091040260200160405190810160405280929190818152602001828054610cb390614daa565b8015610d005780601f10610cd557610100808354040283529160200191610d00565b820191906000526020600020905b815481529060010190602001808311610ce357829003601f168201915b50505050508152602001600382018054610d1990614daa565b80601f0160208091040260200160405190810160405280929190818152602001828054610d4590614daa565b8015610d925780601f10610d6757610100808354040283529160200191610d92565b820191906000526020600020905b815481529060010190602001808311610d7557829003601f168201915b50505050508152602001600482018054610dab90614daa565b80601f0160208091040260200160405190810160405280929190818152602001828054610dd790614daa565b8015610e245780601f10610df957610100808354040283529160200191610e24565b820191906000526020600020905b815481529060010190602001808311610e0757829003601f168201915b50505050508152602001600582018054610e3d90614daa565b80601f0160208091040260200160405190810160405280929190818152602001828054610e6990614daa565b8015610eb65780601f10610e8b57610100808354040283529160200191610eb6565b820191906000526020600020905b815481529060010190602001808311610e9957829003601f168201915b5050509183525050600682015460209091019060ff166003811115610edd57610edd6144a2565b6003811115610eee57610eee6144a2565b81526020016006820160019054906101000a900460ff166002811115610f1657610f166144a2565b6002811115610f2757610f276144a2565b81526020016006820160029054906101000a900460ff166002811115610f4f57610f4f6144a2565b6002811115610f6057610f606144a2565b815260200160078201548152602001600882018054610f7e90614daa565b80601f0160208091040260200160405190810160405280929190818152602001828054610faa90614daa565b8015610ff75780601f10610fcc57610100808354040283529160200191610ff7565b820191906000526020600020905b815481529060010190602001808311610fda57829003601f168201915b50505050508152505090508061012001516000146110775760405160e560020a62461bcd02815260206004820152603160248201527f446f63756d656e742068617320616c7265616479206265656e206973737565646044820152607a60020a7008199bdc881d1a1a5cc81c995c5d595cdd0260648201526084016104c8565b61107f614004565b60035461108d906001614de9565b815260408101879052606081018690526080810185905260a08101849052600160a060020a0388166101008201523360e082015260c082015161012082019060038111156110dd576110dd6144a2565b908160038111156110f0576110f06144a2565b90525060038054600181018255600091909152815160099091027fc2575a0e9e593c00f959f8c92f12db2869c3395a3b0502d05e2516446f71f85b81019182556020808401517fc2575a0e9e593c00f959f8c92f12db2869c3395a3b0502d05e2516446f71f85c83015560408401518051859493611194937fc2575a0e9e593c00f959f8c92f12db2869c3395a3b0502d05e2516446f71f85d909101920190613f80565b50606082015180516111b0916003840191602090910190613f80565b50608082015180516111cc916004840191602090910190613f80565b5060a082015180516111e8916005840191602090910190613f80565b5060c08201518051611204916006840191602090910190613f80565b5060e0820151600782018054600160a060020a0319908116600160a060020a03938416179091556101008401516008840180549283169190931690811783556101208501519291600160a860020a0319161760a060020a83600381111561126d5761126d6144a2565b02179055505050600160a060020a038816600090815260076020908152604082208351815460018101835591845291909220909101558051610120830152600280548391908b9081106112c2576112c2614d90565b600091825260209182902083516009929092020190815582820151600182018054600160a060020a031916600160a060020a0390921691909117905560408301518051919261131992600285019290910190613f80565b5060608201518051611335916003840191602090910190613f80565b5060808201518051611351916004840191602090910190613f80565b5060a0820151805161136d916005840191602090910190613f80565b5060c082015160068201805460ff19166001836003811115611391576113916144a2565b021790555060e082015160068201805461ff0019166101008360028111156113bb576113bb6144a2565b021790555061010082015160068201805462ff00001916620100008360028111156113e8576113e86144a2565b021790555061012082015160078201556101408201518051611414916008840191602090910190613f80565b505081516040517f17996aa8290ab524448faa4d34e5699cdbfce21451bd43063fd8106c2d6604f8925061144e918b913391908990614e01565b60405180910390a198975050505050505050565b6002818154811061147257600080fd5b6000918252602090912060099091020180546001820154600283018054929450600160a060020a0390911692916114a890614daa565b80601f01602080910402602001604051908101604052809291908181526020018280546114d490614daa565b80156115215780601f106114f657610100808354040283529160200191611521565b820191906000526020600020905b81548152906001019060200180831161150457829003601f168201915b50505050509080600301805461153690614daa565b80601f016020809104026020016040519081016040528092919081815260200182805461156290614daa565b80156115af5780601f10611584576101008083540402835291602001916115af565b820191906000526020600020905b81548152906001019060200180831161159257829003601f168201915b5050505050908060040180546115c490614daa565b80601f01602080910402602001604051908101604052809291908181526020018280546115f090614daa565b801561163d5780601f106116125761010080835404028352916020019161163d565b820191906000526020600020905b81548152906001019060200180831161162057829003601f168201915b50505050509080600501805461165290614daa565b80601f016020809104026020016040519081016040528092919081815260200182805461167e90614daa565b80156116cb5780601f106116a0576101008083540402835291602001916116cb565b820191906000526020600020905b8154815290600101906020018083116116ae57829003601f168201915b50505060068401546007850154600886018054959660ff8085169761010086048216975062010000909504169450919261170490614daa565b80601f016020809104026020016040519081016040528092919081815260200182805461173090614daa565b801561177d5780601f106117525761010080835404028352916020019161177d565b820191906000526020600020905b81548152906001019060200180831161176057829003601f168201915b505050505090508b565b61178f614004565b60035482908111156117b65760405160e560020a62461bcd0281526004016104c890614e34565b336000908152600560205260409020548390600160a060020a0316151580611815575033600160a060020a0316600382815481106117f6576117f6614d90565b6000918252602090912060086009909202010154600160a060020a0316145b61187a5760405160e560020a62461bcd02815260206004820152602a60248201527f596f7520617265206e6f7420616c6c6f77656420746f20706572666f726d2074604482015260b160020a693434b99030b1ba34b7b70260648201526084016104c8565b60006003858154811061188f5761188f614d90565b90600052602060002090600902016040518061014001604052908160008201548152602001600182015481526020016002820180546118cd90614daa565b80601f01602080910402602001604051908101604052809291908181526020018280546118f990614daa565b80156119465780601f1061191b57610100808354040283529160200191611946565b820191906000526020600020905b81548152906001019060200180831161192957829003601f168201915b5050505050815260200160038201805461195f90614daa565b80601f016020809104026020016040519081016040528092919081815260200182805461198b90614daa565b80156119d85780601f106119ad576101008083540402835291602001916119d8565b820191906000526020600020905b8154815290600101906020018083116119bb57829003601f168201915b505050505081526020016004820180546119f190614daa565b80601f0160208091040260200160405190810160405280929190818152602001828054611a1d90614daa565b8015611a6a5780601f10611a3f57610100808354040283529160200191611a6a565b820191906000526020600020905b815481529060010190602001808311611a4d57829003601f168201915b50505050508152602001600582018054611a8390614daa565b80601f0160208091040260200160405190810160405280929190818152602001828054611aaf90614daa565b8015611afc5780601f10611ad157610100808354040283529160200191611afc565b820191906000526020600020905b815481529060010190602001808311611adf57829003601f168201915b50505050508152602001600682018054611b1590614daa565b80601f0160208091040260200160405190810160405280929190818152602001828054611b4190614daa565b8015611b8e5780601f10611b6357610100808354040283529160200191611b8e565b820191906000526020600020905b815481529060010190602001808311611b7157829003601f168201915b50505091835250506007820154600160a060020a0390811660208301526008830154908116604083015260609091019060a060020a900460ff166003811115611bd957611bd96144a2565b6003811115611bea57611bea6144a2565b90525095945050505050565b600160a060020a0381811660009081526004602052604081205490911615611c2057506002919050565b600160a060020a038281166000908152600560205260409020541615611c4857506001919050565b506000919050565b60056020526000908152604090208054600182018054600160a060020a039092169291611c7c90614daa565b80601f0160208091040260200160405190810160405280929190818152602001828054611ca890614daa565b8015611cf55780601f10611cca57610100808354040283529160200191611cf5565b820191906000526020600020905b815481529060010190602001808311611cd857829003601f168201915b5050506002909301549192505060ff1683565b60076020528160005260406000208181548110611d2457600080fd5b90600052602060002001600091509150505481565b611d41614079565b60006040518060800160405280604051806060016040528060288152602001614eee6028913981526020016040518060400160405280600a815260200160b360020a690929c869e9a8a40a882b028152508152602001604051806040016040528060158152602001605960020a7426aaa724a1a4a820a61021a7a92827a920aa24a7a70281525081526020016040518060400160405280601a81526020017f5354415445205452414e53504f5254442045504152544d454e5400000000000081525081525090508091505090565b60038181548110611e1f57600080fd5b9060005260206000209060090201600091509050806000015490806001015490806002018054611e4e90614daa565b80601f0160208091040260200160405190810160405280929190818152602001828054611e7a90614daa565b8015611ec75780601f10611e9c57610100808354040283529160200191611ec7565b820191906000526020600020905b815481529060010190602001808311611eaa57829003601f168201915b505050505090806003018054611edc90614daa565b80601f0160208091040260200160405190810160405280929190818152602001828054611f0890614daa565b8015611f555780601f10611f2a57610100808354040283529160200191611f55565b820191906000526020600020905b815481529060010190602001808311611f3857829003601f168201915b505050505090806004018054611f6a90614daa565b80601f0160208091040260200160405190810160405280929190818152602001828054611f9690614daa565b8015611fe35780601f10611fb857610100808354040283529160200191611fe3565b820191906000526020600020905b815481529060010190602001808311611fc657829003601f168201915b505050505090806005018054611ff890614daa565b80601f016020809104026020016040519081016040528092919081815260200182805461202490614daa565b80156120715780601f1061204657610100808354040283529160200191612071565b820191906000526020600020905b81548152906001019060200180831161205457829003601f168201915b50505050509080600601805461208690614daa565b80601f01602080910402602001604051908101604052809291908181526020018280546120b290614daa565b80156120ff5780601f106120d4576101008083540402835291602001916120ff565b820191906000526020600020905b8154815290600101906020018083116120e257829003601f168201915b5050505060078301546008909301549192600160a060020a0390811692908116915060a060020a900460ff168a565b6121366140a0565b33600090815260056020526040902054600160a060020a03161561216f5760405160e560020a62461bcd0281526004016104c890614cd0565b6121776140a0565b3381526020810184905260408101836003811115612197576121976144a2565b908160038111156121aa576121aa6144a2565b90525033600090815260056020908152604090912082518154600160a060020a031916600160a060020a0390911617815582820151805184936121f4926001850192910190613f80565b50604082015160028201805460ff19166001836003811115612218576122186144a2565b02179055509195945050505050565b60035460009060609084106122715750506040805180820190915260178152604a60020a76111bd8dd5b595b9d08191bd95cc81b9bdd08195e1a5cdd0260208201526000906122f5565b82600160a060020a03166003858154811061228e5761228e614d90565b6000918252602090912060086009909202010154600160a060020a031614156122d5576001604051806060016040528060288152602001614f3b60289139915091506122f5565b6000604051806060016040528060258152602001614f1660259139915091505b9250929050565b60066020528160005260406000208181548110611d2457600080fd5b60606003805480602002602001604051908101604052809291908181526020016000905b828210156126b4578382906000526020600020906009020160405180610140016040529081600082015481526020016001820154815260200160028201805461238490614daa565b80601f01602080910402602001604051908101604052809291908181526020018280546123b090614daa565b80156123fd5780601f106123d2576101008083540402835291602001916123fd565b820191906000526020600020905b8154815290600101906020018083116123e057829003601f168201915b5050505050815260200160038201805461241690614daa565b80601f016020809104026020016040519081016040528092919081815260200182805461244290614daa565b801561248f5780601f106124645761010080835404028352916020019161248f565b820191906000526020600020905b81548152906001019060200180831161247257829003601f168201915b505050505081526020016004820180546124a890614daa565b80601f01602080910402602001604051908101604052809291908181526020018280546124d490614daa565b80156125215780601f106124f657610100808354040283529160200191612521565b820191906000526020600020905b81548152906001019060200180831161250457829003601f168201915b5050505050815260200160058201805461253a90614daa565b80601f016020809104026020016040519081016040528092919081815260200182805461256690614daa565b80156125b35780601f10612588576101008083540402835291602001916125b3565b820191906000526020600020905b81548152906001019060200180831161259657829003601f168201915b505050505081526020016006820180546125cc90614daa565b80601f01602080910402602001604051908101604052809291908181526020018280546125f890614daa565b80156126455780601f1061261a57610100808354040283529160200191612645565b820191906000526020600020905b81548152906001019060200180831161262857829003601f168201915b50505091835250506007820154600160a060020a0390811660208301526008830154908116604083015260609091019060a060020a900460ff166003811115612690576126906144a2565b60038111156126a1576126a16144a2565b815250508152602001906001019061233c565b50505050905090565b60046020526000908152604090208054600182018054600160a060020a0390921692916126e990614daa565b80601f016020809104026020016040519081016040528092919081815260200182805461271590614daa565b80156127625780601f1061273757610100808354040283529160200191612762565b820191906000526020600020905b81548152906001019060200180831161274557829003601f168201915b50505050509080600201805461277790614daa565b80601f01602080910402602001604051908101604052809291908181526020018280546127a390614daa565b80156127f05780601f106127c5576101008083540402835291602001916127f0565b820191906000526020600020905b8154815290600101906020018083116127d357829003601f168201915b50505050509080600301805461280590614daa565b80601f016020809104026020016040519081016040528092919081815260200182805461283190614daa565b801561287e5780601f106128535761010080835404028352916020019161287e565b820191906000526020600020905b81548152906001019060200180831161286157829003601f168201915b50505050509080600401805461289390614daa565b80601f01602080910402602001604051908101604052809291908181526020018280546128bf90614daa565b801561290c5780601f106128e15761010080835404028352916020019161290c565b820191906000526020600020905b8154815290600101906020018083116128ef57829003601f168201915b5050505050908060050154905086565b60606002805480602002602001604051908101604052809291908181526020016000905b828210156126b4576000848152602090819020604080516101608101825260098602909201805483526001810154600160a060020a0316938301939093526002830180549293929184019161299490614daa565b80601f01602080910402602001604051908101604052809291908181526020018280546129c090614daa565b8015612a0d5780601f106129e257610100808354040283529160200191612a0d565b820191906000526020600020905b8154815290600101906020018083116129f057829003601f168201915b50505050508152602001600382018054612a2690614daa565b80601f0160208091040260200160405190810160405280929190818152602001828054612a5290614daa565b8015612a9f5780601f10612a7457610100808354040283529160200191612a9f565b820191906000526020600020905b815481529060010190602001808311612a8257829003601f168201915b50505050508152602001600482018054612ab890614daa565b80601f0160208091040260200160405190810160405280929190818152602001828054612ae490614daa565b8015612b315780601f10612b0657610100808354040283529160200191612b31565b820191906000526020600020905b815481529060010190602001808311612b1457829003601f168201915b50505050508152602001600582018054612b4a90614daa565b80601f0160208091040260200160405190810160405280929190818152602001828054612b7690614daa565b8015612bc35780601f10612b9857610100808354040283529160200191612bc3565b820191906000526020600020905b815481529060010190602001808311612ba657829003601f168201915b5050509183525050600682015460209091019060ff166003811115612bea57612bea6144a2565b6003811115612bfb57612bfb6144a2565b81526020016006820160019054906101000a900460ff166002811115612c2357612c236144a2565b6002811115612c3457612c346144a2565b81526020016006820160029054906101000a900460ff166002811115612c5c57612c5c6144a2565b6002811115612c6d57612c6d6144a2565b815260200160078201548152602001600882018054612c8b90614daa565b80601f0160208091040260200160405190810160405280929190818152602001828054612cb790614daa565b8015612d045780601f10612cd957610100808354040283529160200191612d04565b820191906000526020600020905b815481529060010190602001808311612ce757829003601f168201915b50505050508152505081526020019060010190612940565b336000908152600760209081526040808320805482518185028101850190935280835260609493830182828015612d7257602002820191906000526020600020905b815481526020019060010190808311612d5e575b50939695505050505050565b612d86614004565b6003548590811115612dad5760405160e560020a62461bcd0281526004016104c890614e34565b33600090815260056020526040902054600160a060020a0316612de55760405160e560020a62461bcd0281526004016104c890614d4a565b60006003612df4600189614e68565b81548110612e0457612e04614d90565b9060005260206000209060090201604051806101400160405290816000820154815260200160018201548152602001600282018054612e4290614daa565b80601f0160208091040260200160405190810160405280929190818152602001828054612e6e90614daa565b8015612ebb5780601f10612e9057610100808354040283529160200191612ebb565b820191906000526020600020905b815481529060010190602001808311612e9e57829003601f168201915b50505050508152602001600382018054612ed490614daa565b80601f0160208091040260200160405190810160405280929190818152602001828054612f0090614daa565b8015612f4d5780601f10612f2257610100808354040283529160200191612f4d565b820191906000526020600020905b815481529060010190602001808311612f3057829003601f168201915b50505050508152602001600482018054612f6690614daa565b80601f0160208091040260200160405190810160405280929190818152602001828054612f9290614daa565b8015612fdf5780601f10612fb457610100808354040283529160200191612fdf565b820191906000526020600020905b815481529060010190602001808311612fc257829003601f168201915b50505050508152602001600582018054612ff890614daa565b80601f016020809104026020016040519081016040528092919081815260200182805461302490614daa565b80156130715780601f1061304657610100808354040283529160200191613071565b820191906000526020600020905b81548152906001019060200180831161305457829003601f168201915b5050505050815260200160068201805461308a90614daa565b80601f01602080910402602001604051908101604052809291908181526020018280546130b690614daa565b80156131035780601f106130d857610100808354040283529160200191613103565b820191906000526020600020905b8154815290600101906020018083116130e657829003601f168201915b50505091835250506007820154600160a060020a0390811660208301526008830154908116604083015260609091019060a060020a900460ff16600381111561314e5761314e6144a2565b600381111561315f5761315f6144a2565b90525060c0810186905260808101879052905080600361318060018a614e68565b8154811061319057613190614d90565b9060005260206000209060090201600082015181600001556020820151816001015560408201518160020190805190602001906131ce929190613f80565b50606082015180516131ea916003840191602090910190613f80565b5060808201518051613206916004840191602090910190613f80565b5060a08201518051613222916005840191602090910190613f80565b5060c0820151805161323e916006840191602090910190613f80565b5060e0820151600782018054600160a060020a0319908116600160a060020a03938416179091556101008401516008840180549283169190931690811783556101208501519291600160a860020a0319161760a060020a8360038111156132a7576132a76144a2565b02179055509050507fc4f15c88bda961a26d5674062e979fe4f589189d2977fa373051e3860cee0daa878286886040516132e49493929190614e7f565b60405180910390a19695505050505050565b336000908152600660209081526040808320805482518185028101850190935280835260609493830182828015612d725760200282019190600052602060002090815481526020019060010190808311612d5e5750939695505050505050565b33600090815260056020526040902054600160a060020a031661338e5760405160e560020a62461bcd0281526004016104c890614d4a565b6000600283815481106133a3576133a3614d90565b906000526020600020906009020160405180610160016040529081600082015481526020016001820160009054906101000a9004600160a060020a0316600160a060020a0316600160a060020a0316815260200160028201805461340690614daa565b80601f016020809104026020016040519081016040528092919081815260200182805461343290614daa565b801561347f5780601f106134545761010080835404028352916020019161347f565b820191906000526020600020905b81548152906001019060200180831161346257829003601f168201915b5050505050815260200160038201805461349890614daa565b80601f01602080910402602001604051908101604052809291908181526020018280546134c490614daa565b80156135115780601f106134e657610100808354040283529160200191613511565b820191906000526020600020905b8154815290600101906020018083116134f457829003601f168201915b5050505050815260200160048201805461352a90614daa565b80601f016020809104026020016040519081016040528092919081815260200182805461355690614daa565b80156135a35780601f10613578576101008083540402835291602001916135a3565b820191906000526020600020905b81548152906001019060200180831161358657829003601f168201915b505050505081526020016005820180546135bc90614daa565b80601f01602080910402602001604051908101604052809291908181526020018280546135e890614daa565b80156136355780601f1061360a57610100808354040283529160200191613635565b820191906000526020600020905b81548152906001019060200180831161361857829003601f168201915b5050509183525050600682015460209091019060ff16600381111561365c5761365c6144a2565b600381111561366d5761366d6144a2565b81526020016006820160019054906101000a900460ff166002811115613695576136956144a2565b60028111156136a6576136a66144a2565b81526020016006820160029054906101000a900460ff1660028111156136ce576136ce6144a2565b60028111156136df576136df6144a2565b8152602001600782015481526020016008820180546136fd90614daa565b80601f016020809104026020016040519081016040528092919081815260200182805461372990614daa565b80156137765780601f1061374b57610100808354040283529160200191613776565b820191906000526020600020905b81548152906001019060200180831161375957829003601f168201915b50505091909252505060026101008301819052610140830185905280549293508392909150859081106137ab576137ab614d90565b600091825260209182902083516009929092020190815582820151600182018054600160a060020a031916600160a060020a0390921691909117905560408301518051919261380292600285019290910190613f80565b506060820151805161381e916003840191602090910190613f80565b506080820151805161383a916004840191602090910190613f80565b5060a08201518051613856916005840191602090910190613f80565b5060c082015160068201805460ff1916600183600381111561387a5761387a6144a2565b021790555060e082015160068201805461ff0019166101008360028111156138a4576138a46144a2565b021790555061010082015160068201805462ff00001916620100008360028111156138d1576138d16144a2565b0217905550610120820151600782015561014082015180516138fd916008840191602090910190613f80565b505050505050565b61390d613f41565b600160a060020a038083166000908152600460209081526040808320815160c081019092528054909416815260018401805493949193919284019161395190614daa565b80601f016020809104026020016040519081016040528092919081815260200182805461397d90614daa565b80156139ca5780601f1061399f576101008083540402835291602001916139ca565b820191906000526020600020905b8154815290600101906020018083116139ad57829003601f168201915b505050505081526020016002820180546139e390614daa565b80601f0160208091040260200160405190810160405280929190818152602001828054613a0f90614daa565b8015613a5c5780601f10613a3157610100808354040283529160200191613a5c565b820191906000526020600020905b815481529060010190602001808311613a3f57829003601f168201915b50505050508152602001600382018054613a7590614daa565b80601f0160208091040260200160405190810160405280929190818152602001828054613aa190614daa565b8015613aee5780601f10613ac357610100808354040283529160200191613aee565b820191906000526020600020905b815481529060010190602001808311613ad157829003601f168201915b50505050508152602001600482018054613b0790614daa565b80601f0160208091040260200160405190810160405280929190818152602001828054613b3390614daa565b8015613b805780601f10613b5557610100808354040283529160200191613b80565b820191906000526020600020905b815481529060010190602001808311613b6357829003601f168201915b5050509183525050600591909101546020909101529392505050565b613ba46140d5565b613bac6140d5565b600054815233602082015260408101889052606081018790526080810186905260a0810184905260c08101896003811115613be957613be96144a2565b90816003811115613bfc57613bfc6144a2565b90525060e08101856002811115613c1557613c156144a2565b90816002811115613c2857613c286144a2565b90525060006101008201819052610120820184905260028054600181018255915281517f405787fa12a823e0f2b7631cc41b3ba8828b3321ca811111fa75cd3aa3bb5ace60099092029182019081556020808401517f405787fa12a823e0f2b7631cc41b3ba8828b3321ca811111fa75cd3aa3bb5acf84018054600160a060020a031916600160a060020a03909216919091179055604084015180518594613cf6937f405787fa12a823e0f2b7631cc41b3ba8828b3321ca811111fa75cd3aa3bb5ad0909101920190613f80565b5060608201518051613d12916003840191602090910190613f80565b5060808201518051613d2e916004840191602090910190613f80565b5060a08201518051613d4a916005840191602090910190613f80565b5060c082015160068201805460ff19166001836003811115613d6e57613d6e6144a2565b021790555060e082015160068201805461ff001916610100836002811115613d9857613d986144a2565b021790555061010082015160068201805462ff0000191662010000836002811115613dc557613dc56144a2565b021790555061012082015160078201556101408201518051613df1916008840191602090910190613f80565b5050506001600080828254613e069190614de9565b909155505080516040517fb0d5a35d53d1b590b4e2ab0193806445dd4ad70aab99e4a02454aaf4ae4939b69161144e913391908d90614ec9565b613e486140a0565b3360009081526005602090815260408083208151606081019092528054600160a060020a031682526001810180549293919291840191613e8790614daa565b80601f0160208091040260200160405190810160405280929190818152602001828054613eb390614daa565b8015613f005780601f10613ed557610100808354040283529160200191613f00565b820191906000526020600020905b815481529060010190602001808311613ee357829003601f168201915b5050509183525050600282015460209091019060ff166003811115613f2757613f276144a2565b6003811115613f3857613f386144a2565b90525092915050565b6040518060c001604052806000600160a060020a0316815260200160608152602001606081526020016060815260200160608152602001600081525090565b828054613f8c90614daa565b90600052602060002090601f016020900481019282613fae5760008555613ff4565b82601f10613fc757805160ff1916838001178555613ff4565b82800160010185558215613ff4579182015b82811115613ff4578251825591602001919060010190613fd9565b50614000929150614149565b5090565b604051806101400160405280600081526020016000815260200160608152602001606081526020016060815260200160608152602001606081526020016000600160a060020a031681526020016000600160a060020a0316815260200160006003811115614074576140746144a2565b905290565b60405180608001604052806004905b60608152602001906001900390816140885790505090565b60405180606001604052806000600160a060020a031681526020016060815260200160006003811115614074576140746144a2565b604051806101600160405280600081526020016000600160a060020a031681526020016060815260200160608152602001606081526020016060815260200160006003811115614127576141276144a2565b8152602001600081526020016000815260200160008152602001606081525090565b5b80821115614000576000815560010161414a565b60e060020a634e487b710260009081526041600452602490fd5b600082601f83011261418957600080fd5b81356001604060020a03808211156141a3576141a361415e565b604051601f8301601f19908116603f011681019082821181831017156141cb576141cb61415e565b816040528381528660208588010111156141e457600080fd5b836020870160208301376000602085830101528094505050505092915050565b6000806000806080858703121561421a57600080fd5b84356001604060020a038082111561423157600080fd5b61423d88838901614178565b9550602087013591508082111561425357600080fd5b61425f88838901614178565b9450604087013591508082111561427557600080fd5b61428188838901614178565b9350606087013591508082111561429757600080fd5b506142a487828801614178565b91505092959194509250565b600160a060020a03169052565b6000815180845260005b818110156142e3576020818501810151868301820152016142c7565b818111156142f5576000602083870101525b50601f01601f19169290920160200192915050565b60208082528251600160a060020a03168282015282015160c0604083015260009061433860e08401826142bd565b90506040840151601f198085840301606086015261435683836142bd565b9250606086015191508085840301608086015261437383836142bd565b925060808601519150808584030160a08601525061439182826142bd565b91505060a084015160c08401528091505092915050565b6000602082840312156143ba57600080fd5b5035919050565b8035600160a060020a03811681146143d857600080fd5b919050565b60008060008060008060c087890312156143f657600080fd5b86359550614406602088016143c1565b945060408701356001604060020a038082111561442257600080fd5b61442e8a838b01614178565b9550606089013591508082111561444457600080fd5b6144508a838b01614178565b9450608089013591508082111561446657600080fd5b6144728a838b01614178565b935060a089013591508082111561448857600080fd5b5061449589828a01614178565b9150509295509295509295565b60e060020a634e487b710260009081526021600452602490fd5b600481106144cc576144cc6144a2565b9052565b6000610140825184526020830151602085015260408301518160408601526144fa828601826142bd565b9150506060830151848203606086015261451482826142bd565b9150506080830151848203608086015261452e82826142bd565b91505060a083015184820360a086015261454882826142bd565b91505060c083015184820360c086015261456282826142bd565b91505060e083015161457760e08601826142b0565b506101008084015161458b828701826142b0565b5050610120808401516145a0828701826144bc565b5090949350505050565b6020815260006145bd60208301846144d0565b9392505050565b600381106145d4576145d46144a2565b50565b6144cc816145c4565b8b8152600160a060020a038b1660208201526101606040820181905260009061460b8382018d6142bd565b9050828103606084015261461f818c6142bd565b90508281036080840152614633818b6142bd565b905082810360a0840152614647818a6142bd565b905061465660c08401896144bc565b61465f876145c4565b8660e084015261466e866145c4565b856101008401528461012084015282810361014084015261468f81856142bd565b9e9d5050505050505050505050505050565b6000602082840312156146b357600080fd5b6145bd826143c1565b602081016146c9836145c4565b91905290565b600160a060020a03841681526060602082018190526000906146f3908301856142bd565b90506105bd60408301846144bc565b6000806040838503121561471557600080fd5b61471e836143c1565b946020939093013593505050565b602080825260009060a0830183820185845b600481101561476d57601f1987850301835261475b8483516142bd565b9350918401919084019060010161473e565b50919695505050505050565b60006101408c83528b60208401528060408401526147998184018c6142bd565b905082810360608401526147ad818b6142bd565b905082810360808401526147c1818a6142bd565b905082810360a08401526147d581896142bd565b905082810360c08401526147e981886142bd565b600160a060020a0387811660e08601528616610100850152915061481390506101208301846144bc565b9b9a5050505050505050505050565b8035600481106143d857600080fd5b6000806040838503121561484457600080fd5b82356001604060020a0381111561485a57600080fd5b61486685828601614178565b92505061487560208401614822565b90509250929050565b60208082528251600160a060020a031682820152820151606060408301526000906148ac60808401826142bd565b905060408401516148c060608501826144bc565b509392505050565b600080604083850312156148db57600080fd5b82359150614875602084016143c1565b82151581526040602082015260006105bd60408301846142bd565b600060208083018184528085518083526040860191506040848202870101925083870160005b8281101561495a57603f198886030184526149488583516144d0565b9450928501929085019060010161492c565b5092979650505050505050565b600160a060020a038716815260c06020820181905260009061498b908301886142bd565b828103604084015261499d81886142bd565b905082810360608401526149b181876142bd565b905082810360808401526149c581866142bd565b9150508260a0830152979650505050505050565b60006101608251845260208301516149f460208601826142b0565b506040830151816040860152614a0c828601826142bd565b91505060608301518482036060860152614a2682826142bd565b91505060808301518482036080860152614a4082826142bd565b91505060a083015184820360a0860152614a5a82826142bd565b91505060c0830151614a6f60c08601826144bc565b5060e0830151614a8260e08601826145d7565b5061010080840151614a96828701826145d7565b505061012083810151908501526101408084015185830382870152614abb83826142bd565b9695505050505050565b600060208083018184528085518083526040860191506040848202870101925083870160005b8281101561495a57603f19888603018452614b078583516149d9565b94509285019290850190600101614aeb565b6020808252825182820181905260009190848201906040850190845b81811015614b5157835183529284019291840191600101614b35565b50909695505050505050565b60008060008060808587031215614b7357600080fd5b8435935060208501356001604060020a038082111561425357600080fd5b60008060408385031215614ba457600080fd5b8235915060208301356001604060020a03811115614bc157600080fd5b614bcd85828601614178565b9150509250929050565b8035600381106143d857600080fd5b600080600080600080600060e0888a031215614c0157600080fd5b614c0a88614822565b965060208801356001604060020a0380821115614c2657600080fd5b614c328b838c01614178565b975060408a0135915080821115614c4857600080fd5b614c548b838c01614178565b965060608a0135915080821115614c6a57600080fd5b614c768b838c01614178565b9550614c8460808b01614bd7565b945060a08a0135915080821115614c9a57600080fd5b50614ca78a828b01614178565b92505060c0880135905092959891949750929550565b6020815260006145bd60208301846149d9565b60208082526022908201527f54686973206164647265737320697320616c7265616479207265676973746572604082015260f260020a61195902606082015260800190565b60e060020a634e487b710260009081526011600452602490fd5b6000600019821415614d4357614d43614d15565b5060010190565b60208082526023908201527f4f6e6c792061646d696e732063616e20706572666f726d207468697320616374604082015260e960020a6234b7b702606082015260800190565b60e060020a634e487b710260009081526032600452602490fd5b600281046001821680614dbe57607f821691505b60208210811415614de35760e060020a634e487b710260009081526022600452602490fd5b50919050565b60008219821115614dfc57614dfc614d15565b500190565b600160a060020a0385811682528416602082015260408101839052608060608201819052600090614abb908301846142bd565b6020808252601790820152604a60020a76111bd8dd5b595b9d08191bd95cc81b9bdd08195e1a5cdd02604082015260600190565b600082821015614e7a57614e7a614d15565b500390565b848152608060208201526000614e9860808301866144d0565b8281036040840152614eaa81866142bd565b90508281036060840152614ebe81856142bd565b979650505050505050565b600160a060020a038416815260208101839052606081016105bd60408301846144bc56fe554e49515545204944454e54494649434154494f4e20415554484f52495459204f4620494e444941446f63756d656e7420646f6573206e6f742062656c6f6e6720746f20746869732075736572446f63756d656e742076657269666965642073756363657366756c6c792020202020202020202020a26469706673582212208568bb1b31f9888e9f9162d12cd030e17848646db25f7a77874a70d8504d847864736f6c634300080b0033",
  "immutableReferences": {},
  "source": "// SPDX-License-Identifier: MIT\npragma solidity >=0.4.22 <0.9.0;\n\ncontract DeDocs {\n\n  enum ROLE{\n    NOT_REGISTERED,\n    ADMIN,\n    USER\n  }\n\n  enum DEPARTMENT{\n    UNIQUE_IDENTIFICATION_AUTHORITY_OF_INDIA,\n    INCOME_TAX,\n    MUNICIPAL_CORPORATION,\n    STATE_TRANSPORT_DEPARTMENT\n  }\n\n  enum REQUEST_CATEGORY{\n    ISSUE,\n    UPDATE,\n    RECTIFY\n  }\n\n  enum REQUEST_STATUS{\n    PENDING,\n    SUCCESS,\n    REJECTED\n  }\n\n  struct Admin{\n    address id;\n    string name;\n    DEPARTMENT department;\n  }\n  \n  struct User{\n    address id;\n    string name;\n    string dob;\n    string password;    \n    string joined;\n    uint total_requests;\n  }\n\n  struct Request{\n    uint id;\n    address user_id;\n    string subject;\n    string description;\n    string ipfs_hash;\n    string date;\n    DEPARTMENT department;\n    REQUEST_CATEGORY category;\n    REQUEST_STATUS status;\n    uint document_id;\n    string remarks;\n  }\n\n  struct Document{\n    uint id;\n    uint request_id;\n    string name;\n    string uid;\n    string ipfs_hash;\n    string issued_on;\n    string last_updated;\n    address admin;\n    address user;\n    DEPARTMENT department;\n  }\n\n  event DeDocs_deployed(string message);\n  event Request_made(address user, uint request_id, DEPARTMENT department);\n  event Document_issued(address user, address admin, uint document_id, string timestamp);\n  event Document_modified(uint document_id, Document document, string message, string timestamp);\n\n  uint public total_requests = 0;\n  uint public total_users = 0;\n\n  Request[] public all_requests;\n\n  Document[] public all_documents; //array to store all the documents of the system\n  mapping(address => User) public users; // mapping of user address to user data \n  mapping(address => Admin) public admins; //mapping of admin address to admin data\n  mapping(address => uint256[]) public requests; //mapping of the user addess to all the requests made by that address\n  mapping(address => uint256[]) public documents; // mapping of the user address to their documents\n  \n\n  modifier is_admin(){\n    require(admins[msg.sender].id != address(0x0),\"Only admins can perform this action\");\n    _;\n  }\n\n  modifier is_existent(uint _document_id){\n    require(_document_id <= all_documents.length, \"Document does not exist\");\n    _;\n  }\n\n  modifier is_allowed(uint _document_id){\n    require(admins[msg.sender].id != address(0x0) || all_documents[_document_id].user == msg.sender, \"You are not allowed to perform this action\");\n    _;\n  }\n\n  constructor()  {\n      emit DeDocs_deployed(\"Contract deployed successfully\");\n  }\n\n  function register_user(string memory _name, string memory _dob, string memory _password, string memory _joined) payable public returns (User memory){\n\n    require(users[msg.sender].id == address(0x0),\"This address is already registered\");\n\n    User memory _user;\n    _user.id = msg.sender;\n    _user.name = _name;\n    _user.dob = _dob;\n    _user.password = _password;\n    _user.joined = _joined;\n    _user.total_requests = 0;\n\n    users[msg.sender] = _user;\n\n    total_users++;\n    \n    return _user;\n  }\n\n  function register_admin(string memory _name, DEPARTMENT _department) payable public returns (Admin memory){\n\n    require(admins[msg.sender].id == address(0x0),\"This address is already registered\");\n\n    Admin memory _admin;\n    _admin.id = msg.sender;\n    _admin.name = _name;\n    _admin.department = _department;\n\n    admins[msg.sender] = _admin;\n\n    return _admin;\n  }\n\n  function get_departments() public pure returns(string[4] memory departments){\n    string[4] memory _departments = [\"UNIQUE IDENTIFICATION AUTHORITY OF INDIA\",\"INCOME TAX\",\"MUNICIPAL CORPORATION\",\"STATE TRANSPORTD EPARTMENT\"];\n    return _departments;\n  }\n\n  function get_role(address _address) public view returns(ROLE role){\n\n    if(users[_address].id != address(0x0)) return ROLE.USER;\n    if(admins[_address].id != address(0x0)) return ROLE.ADMIN;\n\n    return ROLE.NOT_REGISTERED;\n\n  }\n\n  function get_all_requests() public view returns(Request[] memory){\n    return all_requests;\n  }\n\n  function get_all_documents() public view returns(Document[] memory){\n    return all_documents;\n  }\n\n  function verify_document(uint _document_id, address _address) public view returns(bool, string memory){\n\n    // Check if document exists\n    if(_document_id >= all_documents.length) return (false, \"Document does not exist\");\n\n    //Check if document is by correct user\n    if(all_documents[_document_id].user == _address) return (true, \"Document verified succesfully           \");\n    else return (false,\"Document does not belong to this user\");\n\n\n  }\n\n  /***********************************  USER FUNCTIONS  *********************************/\n\n  function get_user_details(address _address) public view returns(User memory user){\n    User memory _user = users[_address];\n    return _user;\n  }\n\n  function get_user_requests() public view returns(uint256[] memory _requests){\n\n    uint256[] memory _my_requests = requests[msg.sender];\n    return _my_requests;\n    \n  }\n\n  function get_user_documents() public view returns(uint256[] memory _documents){\n\n    uint256[] memory _my_documents = documents[msg.sender];\n    return _my_documents;\n    \n  }\n\n  function make_request(DEPARTMENT _department,  string memory _subject, string memory _description, string memory _ipfs_hash, REQUEST_CATEGORY _request_category, string memory _date, uint _document_id) public payable returns(Request memory){\n\n    Request memory request;\n\n    request.id = total_requests;\n    request.user_id = msg.sender;\n    request.subject = _subject;\n    request.description = _description;\n    request.ipfs_hash = _ipfs_hash;\n    request.date = _date;\n    request.department = _department;\n    request.category = _request_category;\n    request.status = REQUEST_STATUS.PENDING;\n    request.document_id = _document_id;\n\n    all_requests.push(request);\n    total_requests += 1;\n\n    emit Request_made(msg.sender, request.id, _department);\n\n    return request;\n  }\n\n\n  /********************************ADMIN FUNCTIONS********************************/\n\n  function get_admin_details() public view returns(Admin memory admin){\n    Admin memory _admin = admins[msg.sender];\n    return _admin;\n  }\n\n  function get_document (uint _document_id) is_existent(_document_id) is_allowed(_document_id) public view returns (Document memory){\n    Document memory _document = all_documents[_document_id];\n    return _document;\n  }\n\n  function reject_request(uint _request_id, string memory _remarks) is_admin public payable{\n    Request memory _request = all_requests[_request_id];\n    _request.status = REQUEST_STATUS.REJECTED;\n    _request.remarks = _remarks;\n    all_requests[_request_id] = _request;\n  }\n\n  function approve_request(uint _request_id) is_admin public payable{\n    Request memory _request = all_requests[_request_id];\n    _request.status = REQUEST_STATUS.SUCCESS;\n    all_requests[_request_id] = _request;\n  }\n\n  function issue_document(uint _request_id, address _userAddress, string memory _name, string memory _uid, string memory _ipfs_hash, string memory _issued_on) is_admin public payable returns(Document memory){\n    \n    //check if user is registered\n    require(users[_userAddress].id != address(0x0),\"User is not registered\");\n\n    //check if no document is already issued for this request\n    Request memory _request = all_requests[_request_id];\n    require(_request.document_id == 0,\"Document has already been issued for this request\");\n\n    //create a new document instance\n    Document memory _document;\n    _document.id = all_documents.length + 1;\n    _document.name = _name;\n    _document.uid = _uid;\n    _document.ipfs_hash = _ipfs_hash;\n    _document.issued_on = _issued_on;\n    _document.user = _userAddress;\n    _document.admin = msg.sender;\n    _document.department = _request.department;\n\n    //insert the document to the records\n    all_documents.push(_document);\n    documents[_userAddress].push(_document.id);\n\n    //update the request\n    _request.document_id = _document.id;\n    all_requests[_request_id] = _request;\n\n    emit Document_issued(_userAddress, msg.sender, _document.id,_issued_on);\n\n    return _document;\n  }\n\n\n  function modify_document(uint _document_id, string memory _new_hash, string memory _last_updated, string memory _message) is_existent(_document_id) is_admin public payable returns(Document memory){\n    \n    //Get the current version of the document\n    Document memory _document = all_documents[_document_id - 1];\n\n    //update the document\n    _document.last_updated = _last_updated;\n    _document.ipfs_hash = _new_hash;\n    all_documents[_document_id - 1] = _document;\n\n    emit Document_modified(_document_id, _document, _message,_last_updated);\n\n    return _document;\n  }\n\n}\n",
  "sourcePath": "C:\\Users\\ABC\\Desktop\\DeDocs\\backend\\contracts\\DeDocs.sol",
  "compiler": {
    "name": "solc",
    "version": "0.8.11+commit.d7f03943.Emscripten.clang"
  },
  "schemaVersion": "3.4.8",
  "updatedAt": "2022-08-08T06:10:58.640Z",
  "networkType": "ethereum",
  "devdoc": {
    "kind": "dev",
    "methods": {},
    "version": 1
  },
  "userdoc": {
    "kind": "user",
    "methods": {},
    "version": 1
  }
}