{
  "contractName": "DeDocs",
  "abi": [
    {
      "inputs": [],
      "stateMutability": "nonpayable",
      "type": "constructor"
    },
    {
      "anonymous": false,
      "inputs": [
        {
          "indexed": false,
          "internalType": "string",
          "name": "message",
          "type": "string"
        }
      ],
      "name": "DeDocs_deployed",
      "type": "event"
    },
    {
      "anonymous": false,
      "inputs": [
        {
          "indexed": false,
          "internalType": "address",
          "name": "user",
          "type": "address"
        },
        {
          "indexed": false,
          "internalType": "address",
          "name": "admin",
          "type": "address"
        },
        {
          "indexed": false,
          "internalType": "uint256",
          "name": "document_id",
          "type": "uint256"
        }
      ],
      "name": "Document_issued",
      "type": "event"
    },
    {
      "anonymous": false,
      "inputs": [
        {
          "indexed": false,
          "internalType": "uint256",
          "name": "document_id",
          "type": "uint256"
        },
        {
          "components": [
            {
              "internalType": "uint256",
              "name": "id",
              "type": "uint256"
            },
            {
              "internalType": "uint256",
              "name": "request_id",
              "type": "uint256"
            },
            {
              "internalType": "string",
              "name": "name",
              "type": "string"
            },
            {
              "internalType": "string",
              "name": "ipfs_hash",
              "type": "string"
            },
            {
              "internalType": "string",
              "name": "issued_on",
              "type": "string"
            },
            {
              "internalType": "string",
              "name": "last_updated",
              "type": "string"
            },
            {
              "internalType": "address",
              "name": "admin",
              "type": "address"
            },
            {
              "internalType": "address",
              "name": "user",
              "type": "address"
            }
          ],
          "indexed": false,
          "internalType": "struct DeDocs.Document",
          "name": "old_document",
          "type": "tuple"
        },
        {
          "components": [
            {
              "internalType": "uint256",
              "name": "id",
              "type": "uint256"
            },
            {
              "internalType": "uint256",
              "name": "request_id",
              "type": "uint256"
            },
            {
              "internalType": "string",
              "name": "name",
              "type": "string"
            },
            {
              "internalType": "string",
              "name": "ipfs_hash",
              "type": "string"
            },
            {
              "internalType": "string",
              "name": "issued_on",
              "type": "string"
            },
            {
              "internalType": "string",
              "name": "last_updated",
              "type": "string"
            },
            {
              "internalType": "address",
              "name": "admin",
              "type": "address"
            },
            {
              "internalType": "address",
              "name": "user",
              "type": "address"
            }
          ],
          "indexed": false,
          "internalType": "struct DeDocs.Document",
          "name": "new_document",
          "type": "tuple"
        },
        {
          "indexed": false,
          "internalType": "string",
          "name": "message",
          "type": "string"
        }
      ],
      "name": "Document_modified",
      "type": "event"
    },
    {
      "anonymous": false,
      "inputs": [
        {
          "indexed": false,
          "internalType": "address",
          "name": "user",
          "type": "address"
        },
        {
          "indexed": false,
          "internalType": "uint256",
          "name": "request_id",
          "type": "uint256"
        },
        {
          "indexed": false,
          "internalType": "enum DeDocs.DEPARTMENT",
          "name": "department",
          "type": "uint8"
        }
      ],
      "name": "Request_made",
      "type": "event"
    },
    {
      "inputs": [
        {
          "internalType": "address",
          "name": "",
          "type": "address"
        }
      ],
      "name": "admins",
      "outputs": [
        {
          "internalType": "address",
          "name": "id",
          "type": "address"
        },
        {
          "internalType": "string",
          "name": "name",
          "type": "string"
        },
        {
          "internalType": "enum DeDocs.DEPARTMENT",
          "name": "department",
          "type": "uint8"
        }
      ],
      "stateMutability": "view",
      "type": "function",
      "constant": true
    },
    {
      "inputs": [
        {
          "internalType": "uint256",
          "name": "",
          "type": "uint256"
        }
      ],
      "name": "all_documents",
      "outputs": [
        {
          "internalType": "uint256",
          "name": "id",
          "type": "uint256"
        },
        {
          "internalType": "uint256",
          "name": "request_id",
          "type": "uint256"
        },
        {
          "internalType": "string",
          "name": "name",
          "type": "string"
        },
        {
          "internalType": "string",
          "name": "ipfs_hash",
          "type": "string"
        },
        {
          "internalType": "string",
          "name": "issued_on",
          "type": "string"
        },
        {
          "internalType": "string",
          "name": "last_updated",
          "type": "string"
        },
        {
          "internalType": "address",
          "name": "admin",
          "type": "address"
        },
        {
          "internalType": "address",
          "name": "user",
          "type": "address"
        }
      ],
      "stateMutability": "view",
      "type": "function",
      "constant": true
    },
    {
      "inputs": [
        {
          "internalType": "uint256",
          "name": "",
          "type": "uint256"
        }
      ],
      "name": "all_requests",
      "outputs": [
        {
          "internalType": "uint256",
          "name": "id",
          "type": "uint256"
        },
        {
          "internalType": "address",
          "name": "user_id",
          "type": "address"
        },
        {
          "internalType": "string",
          "name": "subject",
          "type": "string"
        },
        {
          "internalType": "string",
          "name": "description",
          "type": "string"
        },
        {
          "internalType": "string",
          "name": "ipfs_hash",
          "type": "string"
        },
        {
          "internalType": "string",
          "name": "date",
          "type": "string"
        },
        {
          "internalType": "enum DeDocs.DEPARTMENT",
          "name": "department",
          "type": "uint8"
        },
        {
          "internalType": "enum DeDocs.REQUEST_CATEGORY",
          "name": "category",
          "type": "uint8"
        },
        {
          "internalType": "enum DeDocs.REQUEST_STATUS",
          "name": "status",
          "type": "uint8"
        },
        {
          "internalType": "uint256",
          "name": "document_id",
          "type": "uint256"
        },
        {
          "internalType": "string",
          "name": "remarks",
          "type": "string"
        }
      ],
      "stateMutability": "view",
      "type": "function",
      "constant": true
    },
    {
      "inputs": [
        {
          "internalType": "address",
          "name": "",
          "type": "address"
        },
        {
          "internalType": "uint256",
          "name": "",
          "type": "uint256"
        }
      ],
      "name": "documents",
      "outputs": [
        {
          "internalType": "uint256",
          "name": "",
          "type": "uint256"
        }
      ],
      "stateMutability": "view",
      "type": "function",
      "constant": true
    },
    {
      "inputs": [
        {
          "internalType": "address",
          "name": "",
          "type": "address"
        },
        {
          "internalType": "uint256",
          "name": "",
          "type": "uint256"
        }
      ],
      "name": "requests",
      "outputs": [
        {
          "internalType": "uint256",
          "name": "",
          "type": "uint256"
        }
      ],
      "stateMutability": "view",
      "type": "function",
      "constant": true
    },
    {
      "inputs": [],
      "name": "total_requests",
      "outputs": [
        {
          "internalType": "uint256",
          "name": "",
          "type": "uint256"
        }
      ],
      "stateMutability": "view",
      "type": "function",
      "constant": true
    },
    {
      "inputs": [
        {
          "internalType": "address",
          "name": "",
          "type": "address"
        }
      ],
      "name": "users",
      "outputs": [
        {
          "internalType": "address",
          "name": "id",
          "type": "address"
        },
        {
          "internalType": "string",
          "name": "name",
          "type": "string"
        },
        {
          "internalType": "string",
          "name": "dob",
          "type": "string"
        },
        {
          "internalType": "string",
          "name": "password",
          "type": "string"
        },
        {
          "internalType": "string",
          "name": "joined",
          "type": "string"
        },
        {
          "internalType": "uint256",
          "name": "total_requests",
          "type": "uint256"
        }
      ],
      "stateMutability": "view",
      "type": "function",
      "constant": true
    },
    {
      "inputs": [
        {
          "internalType": "string",
          "name": "_name",
          "type": "string"
        },
        {
          "internalType": "string",
          "name": "_dob",
          "type": "string"
        },
        {
          "internalType": "string",
          "name": "_password",
          "type": "string"
        },
        {
          "internalType": "string",
          "name": "_joined",
          "type": "string"
        }
      ],
      "name": "register_user",
      "outputs": [
        {
          "components": [
            {
              "internalType": "address",
              "name": "id",
              "type": "address"
            },
            {
              "internalType": "string",
              "name": "name",
              "type": "string"
            },
            {
              "internalType": "string",
              "name": "dob",
              "type": "string"
            },
            {
              "internalType": "string",
              "name": "password",
              "type": "string"
            },
            {
              "internalType": "string",
              "name": "joined",
              "type": "string"
            },
            {
              "internalType": "uint256",
              "name": "total_requests",
              "type": "uint256"
            }
          ],
          "internalType": "struct DeDocs.User",
          "name": "",
          "type": "tuple"
        }
      ],
      "stateMutability": "payable",
      "type": "function",
      "payable": true
    },
    {
      "inputs": [
        {
          "internalType": "string",
          "name": "_name",
          "type": "string"
        },
        {
          "internalType": "enum DeDocs.DEPARTMENT",
          "name": "_department",
          "type": "uint8"
        }
      ],
      "name": "register_admin",
      "outputs": [
        {
          "components": [
            {
              "internalType": "address",
              "name": "id",
              "type": "address"
            },
            {
              "internalType": "string",
              "name": "name",
              "type": "string"
            },
            {
              "internalType": "enum DeDocs.DEPARTMENT",
              "name": "department",
              "type": "uint8"
            }
          ],
          "internalType": "struct DeDocs.Admin",
          "name": "",
          "type": "tuple"
        }
      ],
      "stateMutability": "payable",
      "type": "function",
      "payable": true
    },
    {
      "inputs": [],
      "name": "get_departments",
      "outputs": [
        {
          "internalType": "string[4]",
          "name": "departments",
          "type": "string[4]"
        }
      ],
      "stateMutability": "pure",
      "type": "function",
      "constant": true
    },
    {
      "inputs": [
        {
          "internalType": "address",
          "name": "_address",
          "type": "address"
        }
      ],
      "name": "get_user_details",
      "outputs": [
        {
          "components": [
            {
              "internalType": "address",
              "name": "id",
              "type": "address"
            },
            {
              "internalType": "string",
              "name": "name",
              "type": "string"
            },
            {
              "internalType": "string",
              "name": "dob",
              "type": "string"
            },
            {
              "internalType": "string",
              "name": "password",
              "type": "string"
            },
            {
              "internalType": "string",
              "name": "joined",
              "type": "string"
            },
            {
              "internalType": "uint256",
              "name": "total_requests",
              "type": "uint256"
            }
          ],
          "internalType": "struct DeDocs.User",
          "name": "user",
          "type": "tuple"
        }
      ],
      "stateMutability": "view",
      "type": "function",
      "constant": true
    },
    {
      "inputs": [],
      "name": "get_user_requests",
      "outputs": [
        {
          "internalType": "uint256[]",
          "name": "_requests",
          "type": "uint256[]"
        }
      ],
      "stateMutability": "view",
      "type": "function",
      "constant": true
    },
    {
      "inputs": [
        {
          "internalType": "enum DeDocs.DEPARTMENT",
          "name": "_department",
          "type": "uint8"
        },
        {
          "internalType": "string",
          "name": "_subject",
          "type": "string"
        },
        {
          "internalType": "string",
          "name": "_description",
          "type": "string"
        },
        {
          "internalType": "string",
          "name": "_ipfs_hash",
          "type": "string"
        },
        {
          "internalType": "enum DeDocs.REQUEST_CATEGORY",
          "name": "_request_category",
          "type": "uint8"
        },
        {
          "internalType": "string",
          "name": "_date",
          "type": "string"
        }
      ],
      "name": "make_request",
      "outputs": [
        {
          "components": [
            {
              "internalType": "uint256",
              "name": "id",
              "type": "uint256"
            },
            {
              "internalType": "address",
              "name": "user_id",
              "type": "address"
            },
            {
              "internalType": "string",
              "name": "subject",
              "type": "string"
            },
            {
              "internalType": "string",
              "name": "description",
              "type": "string"
            },
            {
              "internalType": "string",
              "name": "ipfs_hash",
              "type": "string"
            },
            {
              "internalType": "string",
              "name": "date",
              "type": "string"
            },
            {
              "internalType": "enum DeDocs.DEPARTMENT",
              "name": "department",
              "type": "uint8"
            },
            {
              "internalType": "enum DeDocs.REQUEST_CATEGORY",
              "name": "category",
              "type": "uint8"
            },
            {
              "internalType": "enum DeDocs.REQUEST_STATUS",
              "name": "status",
              "type": "uint8"
            },
            {
              "internalType": "uint256",
              "name": "document_id",
              "type": "uint256"
            },
            {
              "internalType": "string",
              "name": "remarks",
              "type": "string"
            }
          ],
          "internalType": "struct DeDocs.Request",
          "name": "",
          "type": "tuple"
        }
      ],
      "stateMutability": "payable",
      "type": "function",
      "payable": true
    },
    {
      "inputs": [],
      "name": "get_admin_details",
      "outputs": [
        {
          "components": [
            {
              "internalType": "address",
              "name": "id",
              "type": "address"
            },
            {
              "internalType": "string",
              "name": "name",
              "type": "string"
            },
            {
              "internalType": "enum DeDocs.DEPARTMENT",
              "name": "department",
              "type": "uint8"
            }
          ],
          "internalType": "struct DeDocs.Admin",
          "name": "admin",
          "type": "tuple"
        }
      ],
      "stateMutability": "view",
      "type": "function",
      "constant": true
    },
    {
      "inputs": [
        {
          "internalType": "uint256",
          "name": "_document_id",
          "type": "uint256"
        }
      ],
      "name": "get_document",
      "outputs": [
        {
          "components": [
            {
              "internalType": "uint256",
              "name": "id",
              "type": "uint256"
            },
            {
              "internalType": "uint256",
              "name": "request_id",
              "type": "uint256"
            },
            {
              "internalType": "string",
              "name": "name",
              "type": "string"
            },
            {
              "internalType": "string",
              "name": "ipfs_hash",
              "type": "string"
            },
            {
              "internalType": "string",
              "name": "issued_on",
              "type": "string"
            },
            {
              "internalType": "string",
              "name": "last_updated",
              "type": "string"
            },
            {
              "internalType": "address",
              "name": "admin",
              "type": "address"
            },
            {
              "internalType": "address",
              "name": "user",
              "type": "address"
            }
          ],
          "internalType": "struct DeDocs.Document",
          "name": "",
          "type": "tuple"
        }
      ],
      "stateMutability": "view",
      "type": "function",
      "constant": true
    },
    {
      "inputs": [
        {
          "internalType": "uint256",
          "name": "_request_id",
          "type": "uint256"
        }
      ],
      "name": "approve_request",
      "outputs": [],
      "stateMutability": "payable",
      "type": "function",
      "payable": true
    },
    {
      "inputs": [
        {
          "internalType": "uint256",
          "name": "_request_id",
          "type": "uint256"
        },
        {
          "internalType": "address",
          "name": "_userAddress",
          "type": "address"
        },
        {
          "internalType": "string",
          "name": "_name",
          "type": "string"
        },
        {
          "internalType": "string",
          "name": "_ipfs_hash",
          "type": "string"
        },
        {
          "internalType": "string",
          "name": "_issued_on",
          "type": "string"
        }
      ],
      "name": "issue_document",
      "outputs": [
        {
          "components": [
            {
              "internalType": "uint256",
              "name": "id",
              "type": "uint256"
            },
            {
              "internalType": "uint256",
              "name": "request_id",
              "type": "uint256"
            },
            {
              "internalType": "string",
              "name": "name",
              "type": "string"
            },
            {
              "internalType": "string",
              "name": "ipfs_hash",
              "type": "string"
            },
            {
              "internalType": "string",
              "name": "issued_on",
              "type": "string"
            },
            {
              "internalType": "string",
              "name": "last_updated",
              "type": "string"
            },
            {
              "internalType": "address",
              "name": "admin",
              "type": "address"
            },
            {
              "internalType": "address",
              "name": "user",
              "type": "address"
            }
          ],
          "internalType": "struct DeDocs.Document",
          "name": "",
          "type": "tuple"
        }
      ],
      "stateMutability": "payable",
      "type": "function",
      "payable": true
    },
    {
      "inputs": [
        {
          "internalType": "uint256",
          "name": "_document_id",
          "type": "uint256"
        },
        {
          "components": [
            {
              "internalType": "uint256",
              "name": "id",
              "type": "uint256"
            },
            {
              "internalType": "uint256",
              "name": "request_id",
              "type": "uint256"
            },
            {
              "internalType": "string",
              "name": "name",
              "type": "string"
            },
            {
              "internalType": "string",
              "name": "ipfs_hash",
              "type": "string"
            },
            {
              "internalType": "string",
              "name": "issued_on",
              "type": "string"
            },
            {
              "internalType": "string",
              "name": "last_updated",
              "type": "string"
            },
            {
              "internalType": "address",
              "name": "admin",
              "type": "address"
            },
            {
              "internalType": "address",
              "name": "user",
              "type": "address"
            }
          ],
          "internalType": "struct DeDocs.Document",
          "name": "_new_document",
          "type": "tuple"
        },
        {
          "internalType": "string",
          "name": "_last_updated",
          "type": "string"
        },
        {
          "internalType": "string",
          "name": "_message",
          "type": "string"
        }
      ],
      "name": "modify_document",
      "outputs": [
        {
          "components": [
            {
              "internalType": "uint256",
              "name": "id",
              "type": "uint256"
            },
            {
              "internalType": "uint256",
              "name": "request_id",
              "type": "uint256"
            },
            {
              "internalType": "string",
              "name": "name",
              "type": "string"
            },
            {
              "internalType": "string",
              "name": "ipfs_hash",
              "type": "string"
            },
            {
              "internalType": "string",
              "name": "issued_on",
              "type": "string"
            },
            {
              "internalType": "string",
              "name": "last_updated",
              "type": "string"
            },
            {
              "internalType": "address",
              "name": "admin",
              "type": "address"
            },
            {
              "internalType": "address",
              "name": "user",
              "type": "address"
            }
          ],
          "internalType": "struct DeDocs.Document",
          "name": "",
          "type": "tuple"
        }
      ],
      "stateMutability": "payable",
      "type": "function",
      "payable": true
    }
  ],
  "bytecode": "0x6080604052600080553480156200001557600080fd5b507f9ab3570e7e18bfba94b9c1020a507301d734b0c1bd22301391288a326884adc16040516200004590620000b4565b60405180910390a1620000d6565b600082825260208201905092915050565b7f436f6e7472616374206465706c6f796564207375636365737366756c6c790000600082015250565b60006200009c601e8362000053565b9150620000a98262000064565b602082019050919050565b60006020820190508181036000830152620000cf816200008d565b9050919050565b61509680620000e66000396000f3fe6080604052600436106101095760003560e01c8063789469bd11610095578063ca76115c11610064578063ca76115c146103d3578063cb736f26146103fe578063d2965f041461042e578063d9371aeb1461046b578063f7a37b521461049b57610109565b8063789469bd146102f45780639ecebe2a146103245780639ef6cf5714610361578063a87430ba1461039157610109565b806338925c7d116100dc57806338925c7d146101cc578063429b62e5146102095780636339884414610248578063726f091e146102855780637673ac95146102b057610109565b80630776a4f31461010e5780630c99d1301461013e57806318db724f1461015a57806326611b5a146101a1575b600080fd5b61012860048036038101906101239190613be8565b6104c6565b6040516101359190613e3f565b60405180910390f35b61015860048036038101906101539190613e8d565b610722565b005b34801561016657600080fd5b50610181600480360381019061017c9190613e8d565b610df6565b6040516101989b9a99989796959493929190614029565b60405180910390f35b3480156101ad57600080fd5b506101b661114f565b6040516101c391906140f7565b60405180910390f35b3480156101d857600080fd5b506101f360048036038101906101ee9190613e8d565b611155565b60405161020091906141d7565b60405180910390f35b34801561021557600080fd5b50610230600480360381019061022b9190614225565b611638565b60405161023f93929190614252565b60405180910390f35b34801561025457600080fd5b5061026f600480360381019061026a9190614290565b611717565b60405161027c91906140f7565b60405180910390f35b34801561029157600080fd5b5061029a611748565b6040516102a79190614386565b60405180910390f35b3480156102bc57600080fd5b506102d760048036038101906102d29190613e8d565b611833565b6040516102eb9897969594939291906143a8565b60405180910390f35b61030e60048036038101906103099190614467565b611aeb565b60405161031b9190614522565b60405180910390f35b34801561033057600080fd5b5061034b60048036038101906103469190614290565b611d1e565b60405161035891906140f7565b60405180910390f35b61037b60048036038101906103769190614569565b611d4f565b604051610388919061478f565b60405180910390f35b34801561039d57600080fd5b506103b860048036038101906103b39190614225565b61206c565b6040516103ca969594939291906147b1565b60405180910390f35b3480156103df57600080fd5b506103e86122e8565b6040516103f591906148dd565b60405180910390f35b610418600480360381019061041391906148ff565b612383565b60405161042591906141d7565b60405180910390f35b34801561043a57600080fd5b5061045560048036038101906104509190614225565b612da6565b6040516104629190613e3f565b60405180910390f35b61048560048036038101906104809190614b12565b6130ad565b60405161049291906141d7565b60405180910390f35b3480156104a757600080fd5b506104b0613698565b6040516104bd9190614522565b60405180910390f35b6104ce613818565b600073ffffffffffffffffffffffffffffffffffffffff16600360003373ffffffffffffffffffffffffffffffffffffffff1673ffffffffffffffffffffffffffffffffffffffff16815260200190815260200160002060000160009054906101000a900473ffffffffffffffffffffffffffffffffffffffff1673ffffffffffffffffffffffffffffffffffffffff161461059f576040517f08c379a000000000000000000000000000000000000000000000000000000000815260040161059690614c3f565b60405180910390fd5b6105a7613818565b33816000019073ffffffffffffffffffffffffffffffffffffffff16908173ffffffffffffffffffffffffffffffffffffffff168152505085816020018190525084816040018190525083816060018190525082816080018190525060008160a001818152505080600360003373ffffffffffffffffffffffffffffffffffffffff1673ffffffffffffffffffffffffffffffffffffffff16815260200190815260200160002060008201518160000160006101000a81548173ffffffffffffffffffffffffffffffffffffffff021916908373ffffffffffffffffffffffffffffffffffffffff16021790555060208201518160010190805190602001906106b1929190613864565b5060408201518160020190805190602001906106ce929190613864565b5060608201518160030190805190602001906106eb929190613864565b506080820151816004019080519060200190610708929190613864565b5060a0820151816005015590505080915050949350505050565b600073ffffffffffffffffffffffffffffffffffffffff16600460003373ffffffffffffffffffffffffffffffffffffffff1673ffffffffffffffffffffffffffffffffffffffff16815260200190815260200160002060000160009054906101000a900473ffffffffffffffffffffffffffffffffffffffff1673ffffffffffffffffffffffffffffffffffffffff1614156107f4576040517f08c379a00000000000000000000000000000000000000000000000000000000081526004016107eb90614cd1565b60405180910390fd5b60006001828154811061080a57610809614cf1565b5b906000526020600020906009020160405180610160016040529081600082015481526020016001820160009054906101000a900473ffffffffffffffffffffffffffffffffffffffff1673ffffffffffffffffffffffffffffffffffffffff1673ffffffffffffffffffffffffffffffffffffffff16815260200160028201805461089490614d4f565b80601f01602080910402602001604051908101604052809291908181526020018280546108c090614d4f565b801561090d5780601f106108e25761010080835404028352916020019161090d565b820191906000526020600020905b8154815290600101906020018083116108f057829003601f168201915b5050505050815260200160038201805461092690614d4f565b80601f016020809104026020016040519081016040528092919081815260200182805461095290614d4f565b801561099f5780601f106109745761010080835404028352916020019161099f565b820191906000526020600020905b81548152906001019060200180831161098257829003601f168201915b505050505081526020016004820180546109b890614d4f565b80601f01602080910402602001604051908101604052809291908181526020018280546109e490614d4f565b8015610a315780601f10610a0657610100808354040283529160200191610a31565b820191906000526020600020905b815481529060010190602001808311610a1457829003601f168201915b50505050508152602001600582018054610a4a90614d4f565b80601f0160208091040260200160405190810160405280929190818152602001828054610a7690614d4f565b8015610ac35780601f10610a9857610100808354040283529160200191610ac3565b820191906000526020600020905b815481529060010190602001808311610aa657829003601f168201915b505050505081526020016006820160009054906101000a900460ff166003811115610af157610af0613f22565b5b6003811115610b0357610b02613f22565b5b81526020016006820160019054906101000a900460ff166002811115610b2c57610b2b613f22565b5b6002811115610b3e57610b3d613f22565b5b81526020016006820160029054906101000a900460ff166002811115610b6757610b66613f22565b5b6002811115610b7957610b78613f22565b5b815260200160078201548152602001600882018054610b9790614d4f565b80601f0160208091040260200160405190810160405280929190818152602001828054610bc390614d4f565b8015610c105780601f10610be557610100808354040283529160200191610c10565b820191906000526020600020905b815481529060010190602001808311610bf357829003601f168201915b505050505081525050905060018161010001906002811115610c3557610c34613f22565b5b90816002811115610c4957610c48613f22565b5b815250508060018381548110610c6257610c61614cf1565b5b90600052602060002090600902016000820151816000015560208201518160010160006101000a81548173ffffffffffffffffffffffffffffffffffffffff021916908373ffffffffffffffffffffffffffffffffffffffff1602179055506040820151816002019080519060200190610cdd929190613864565b506060820151816003019080519060200190610cfa929190613864565b506080820151816004019080519060200190610d17929190613864565b5060a0820151816005019080519060200190610d34929190613864565b5060c08201518160060160006101000a81548160ff02191690836003811115610d6057610d5f613f22565b5b021790555060e08201518160060160016101000a81548160ff02191690836002811115610d9057610d8f613f22565b5b02179055506101008201518160060160026101000a81548160ff02191690836002811115610dc157610dc0613f22565b5b02179055506101208201518160070155610140820151816008019080519060200190610dee929190613864565b509050505050565b60018181548110610e0657600080fd5b90600052602060002090600902016000915090508060000154908060010160009054906101000a900473ffffffffffffffffffffffffffffffffffffffff1690806002018054610e5590614d4f565b80601f0160208091040260200160405190810160405280929190818152602001828054610e8190614d4f565b8015610ece5780601f10610ea357610100808354040283529160200191610ece565b820191906000526020600020905b815481529060010190602001808311610eb157829003601f168201915b505050505090806003018054610ee390614d4f565b80601f0160208091040260200160405190810160405280929190818152602001828054610f0f90614d4f565b8015610f5c5780601f10610f3157610100808354040283529160200191610f5c565b820191906000526020600020905b815481529060010190602001808311610f3f57829003601f168201915b505050505090806004018054610f7190614d4f565b80601f0160208091040260200160405190810160405280929190818152602001828054610f9d90614d4f565b8015610fea5780601f10610fbf57610100808354040283529160200191610fea565b820191906000526020600020905b815481529060010190602001808311610fcd57829003601f168201915b505050505090806005018054610fff90614d4f565b80601f016020809104026020016040519081016040528092919081815260200182805461102b90614d4f565b80156110785780601f1061104d57610100808354040283529160200191611078565b820191906000526020600020905b81548152906001019060200180831161105b57829003601f168201915b5050505050908060060160009054906101000a900460ff16908060060160019054906101000a900460ff16908060060160029054906101000a900460ff16908060070154908060080180546110cc90614d4f565b80601f01602080910402602001604051908101604052809291908181526020018280546110f890614d4f565b80156111455780601f1061111a57610100808354040283529160200191611145565b820191906000526020600020905b81548152906001019060200180831161112857829003601f168201915b505050505090508b565b60005481565b61115d6138ea565b8160028054905081106111a5576040517f08c379a000000000000000000000000000000000000000000000000000000000815260040161119c90614dcd565b60405180910390fd5b82600073ffffffffffffffffffffffffffffffffffffffff16600460003373ffffffffffffffffffffffffffffffffffffffff1673ffffffffffffffffffffffffffffffffffffffff16815260200190815260200160002060000160009054906101000a900473ffffffffffffffffffffffffffffffffffffffff1673ffffffffffffffffffffffffffffffffffffffff161415806112b457503373ffffffffffffffffffffffffffffffffffffffff166002828154811061126a57611269614cf1565b5b906000526020600020906008020160070160009054906101000a900473ffffffffffffffffffffffffffffffffffffffff1673ffffffffffffffffffffffffffffffffffffffff16145b6112f3576040517f08c379a00000000000000000000000000000000000000000000000000000000081526004016112ea90614e5f565b60405180910390fd5b60006002858154811061130957611308614cf1565b5b906000526020600020906008020160405180610100016040529081600082015481526020016001820154815260200160028201805461134790614d4f565b80601f016020809104026020016040519081016040528092919081815260200182805461137390614d4f565b80156113c05780601f10611395576101008083540402835291602001916113c0565b820191906000526020600020905b8154815290600101906020018083116113a357829003601f168201915b505050505081526020016003820180546113d990614d4f565b80601f016020809104026020016040519081016040528092919081815260200182805461140590614d4f565b80156114525780601f1061142757610100808354040283529160200191611452565b820191906000526020600020905b81548152906001019060200180831161143557829003601f168201915b5050505050815260200160048201805461146b90614d4f565b80601f016020809104026020016040519081016040528092919081815260200182805461149790614d4f565b80156114e45780601f106114b9576101008083540402835291602001916114e4565b820191906000526020600020905b8154815290600101906020018083116114c757829003601f168201915b505050505081526020016005820180546114fd90614d4f565b80601f016020809104026020016040519081016040528092919081815260200182805461152990614d4f565b80156115765780601f1061154b57610100808354040283529160200191611576565b820191906000526020600020905b81548152906001019060200180831161155957829003601f168201915b505050505081526020016006820160009054906101000a900473ffffffffffffffffffffffffffffffffffffffff1673ffffffffffffffffffffffffffffffffffffffff1673ffffffffffffffffffffffffffffffffffffffff1681526020016007820160009054906101000a900473ffffffffffffffffffffffffffffffffffffffff1673ffffffffffffffffffffffffffffffffffffffff1673ffffffffffffffffffffffffffffffffffffffff16815250509050809350505050919050565b60046020528060005260406000206000915090508060000160009054906101000a900473ffffffffffffffffffffffffffffffffffffffff169080600101805461168190614d4f565b80601f01602080910402602001604051908101604052809291908181526020018280546116ad90614d4f565b80156116fa5780601f106116cf576101008083540402835291602001916116fa565b820191906000526020600020905b8154815290600101906020018083116116dd57829003601f168201915b5050505050908060020160009054906101000a900460ff16905083565b6006602052816000526040600020818154811061173357600080fd5b90600052602060002001600091509150505481565b61175061395b565b600060405180608001604052806040518060600160405280602881526020016150396028913981526020016040518060400160405280600a81526020017f494e434f4d45205441580000000000000000000000000000000000000000000081525081526020016040518060400160405280601581526020017f4d554e49434950414c20434f52504f524154494f4e000000000000000000000081525081526020016040518060400160405280601a81526020017f5354415445205452414e53504f5254442045504152544d454e5400000000000081525081525090508091505090565b6002818154811061184357600080fd5b906000526020600020906008020160009150905080600001549080600101549080600201805461187290614d4f565b80601f016020809104026020016040519081016040528092919081815260200182805461189e90614d4f565b80156118eb5780601f106118c0576101008083540402835291602001916118eb565b820191906000526020600020905b8154815290600101906020018083116118ce57829003601f168201915b50505050509080600301805461190090614d4f565b80601f016020809104026020016040519081016040528092919081815260200182805461192c90614d4f565b80156119795780601f1061194e57610100808354040283529160200191611979565b820191906000526020600020905b81548152906001019060200180831161195c57829003601f168201915b50505050509080600401805461198e90614d4f565b80601f01602080910402602001604051908101604052809291908181526020018280546119ba90614d4f565b8015611a075780601f106119dc57610100808354040283529160200191611a07565b820191906000526020600020905b8154815290600101906020018083116119ea57829003601f168201915b505050505090806005018054611a1c90614d4f565b80601f0160208091040260200160405190810160405280929190818152602001828054611a4890614d4f565b8015611a955780601f10611a6a57610100808354040283529160200191611a95565b820191906000526020600020905b815481529060010190602001808311611a7857829003601f168201915b5050505050908060060160009054906101000a900473ffffffffffffffffffffffffffffffffffffffff16908060070160009054906101000a900473ffffffffffffffffffffffffffffffffffffffff16905088565b611af3613982565b600073ffffffffffffffffffffffffffffffffffffffff16600460003373ffffffffffffffffffffffffffffffffffffffff1673ffffffffffffffffffffffffffffffffffffffff16815260200190815260200160002060000160009054906101000a900473ffffffffffffffffffffffffffffffffffffffff1673ffffffffffffffffffffffffffffffffffffffff1614611bc4576040517f08c379a0000000000000000000000000000000000000000000000000000000008152600401611bbb90614c3f565b60405180910390fd5b611bcc613982565b33816000019073ffffffffffffffffffffffffffffffffffffffff16908173ffffffffffffffffffffffffffffffffffffffff16815250508381602001819052508281604001906003811115611c2557611c24613f22565b5b90816003811115611c3957611c38613f22565b5b8152505080600460003373ffffffffffffffffffffffffffffffffffffffff1673ffffffffffffffffffffffffffffffffffffffff16815260200190815260200160002060008201518160000160006101000a81548173ffffffffffffffffffffffffffffffffffffffff021916908373ffffffffffffffffffffffffffffffffffffffff1602179055506020820151816001019080519060200190611ce0929190613864565b5060408201518160020160006101000a81548160ff02191690836003811115611d0c57611d0b613f22565b5b02179055509050508091505092915050565b60056020528160005260406000208181548110611d3a57600080fd5b90600052602060002001600091509150505481565b611d576139cb565b611d5f6139cb565b60005481600001818152505033816020019073ffffffffffffffffffffffffffffffffffffffff16908173ffffffffffffffffffffffffffffffffffffffff1681525050868160400181905250858160600181905250848160800181905250828160a00181905250878160c001906003811115611ddf57611dde613f22565b5b90816003811115611df357611df2613f22565b5b81525050838160e001906002811115611e0f57611e0e613f22565b5b90816002811115611e2357611e22613f22565b5b8152505060008161010001906002811115611e4157611e40613f22565b5b90816002811115611e5557611e54613f22565b5b8152505060018190806001815401808255809150506001900390600052602060002090600902016000909190919091506000820151816000015560208201518160010160006101000a81548173ffffffffffffffffffffffffffffffffffffffff021916908373ffffffffffffffffffffffffffffffffffffffff1602179055506040820151816002019080519060200190611ef2929190613864565b506060820151816003019080519060200190611f0f929190613864565b506080820151816004019080519060200190611f2c929190613864565b5060a0820151816005019080519060200190611f49929190613864565b5060c08201518160060160006101000a81548160ff02191690836003811115611f7557611f74613f22565b5b021790555060e08201518160060160016101000a81548160ff02191690836002811115611fa557611fa4613f22565b5b02179055506101008201518160060160026101000a81548160ff02191690836002811115611fd657611fd5613f22565b5b02179055506101208201518160070155610140820151816008019080519060200190612003929190613864565b50505060016000808282546120189190614eae565b925050819055507fb0d5a35d53d1b590b4e2ab0193806445dd4ad70aab99e4a02454aaf4ae4939b63382600001518a60405161205693929190614f04565b60405180910390a1809150509695505050505050565b60036020528060005260406000206000915090508060000160009054906101000a900473ffffffffffffffffffffffffffffffffffffffff16908060010180546120b590614d4f565b80601f01602080910402602001604051908101604052809291908181526020018280546120e190614d4f565b801561212e5780601f106121035761010080835404028352916020019161212e565b820191906000526020600020905b81548152906001019060200180831161211157829003601f168201915b50505050509080600201805461214390614d4f565b80601f016020809104026020016040519081016040528092919081815260200182805461216f90614d4f565b80156121bc5780601f10612191576101008083540402835291602001916121bc565b820191906000526020600020905b81548152906001019060200180831161219f57829003601f168201915b5050505050908060030180546121d190614d4f565b80601f01602080910402602001604051908101604052809291908181526020018280546121fd90614d4f565b801561224a5780601f1061221f5761010080835404028352916020019161224a565b820191906000526020600020905b81548152906001019060200180831161222d57829003601f168201915b50505050509080600401805461225f90614d4f565b80601f016020809104026020016040519081016040528092919081815260200182805461228b90614d4f565b80156122d85780601f106122ad576101008083540402835291602001916122d8565b820191906000526020600020905b8154815290600101906020018083116122bb57829003601f168201915b5050505050908060050154905086565b60606000600560003373ffffffffffffffffffffffffffffffffffffffff1673ffffffffffffffffffffffffffffffffffffffff16815260200190815260200160002080548060200260200160405190810160405280929190818152602001828054801561237557602002820191906000526020600020905b815481526020019060010190808311612361575b505050505090508091505090565b61238b6138ea565b600073ffffffffffffffffffffffffffffffffffffffff16600460003373ffffffffffffffffffffffffffffffffffffffff1673ffffffffffffffffffffffffffffffffffffffff16815260200190815260200160002060000160009054906101000a900473ffffffffffffffffffffffffffffffffffffffff1673ffffffffffffffffffffffffffffffffffffffff16141561245d576040517f08c379a000000000000000000000000000000000000000000000000000000000815260040161245490614cd1565b60405180910390fd5b600073ffffffffffffffffffffffffffffffffffffffff16600360008773ffffffffffffffffffffffffffffffffffffffff1673ffffffffffffffffffffffffffffffffffffffff16815260200190815260200160002060000160009054906101000a900473ffffffffffffffffffffffffffffffffffffffff1673ffffffffffffffffffffffffffffffffffffffff16141561252f576040517f08c379a000000000000000000000000000000000000000000000000000000000815260040161252690614f87565b60405180910390fd5b6125376138ea565b600280549050816000018181525050848160400181905250838160600181905250828160800181905250858160e0019073ffffffffffffffffffffffffffffffffffffffff16908173ffffffffffffffffffffffffffffffffffffffff1681525050338160c0019073ffffffffffffffffffffffffffffffffffffffff16908173ffffffffffffffffffffffffffffffffffffffff168152505060028190806001815401808255809150506001900390600052602060002090600802016000909190919091506000820151816000015560208201518160010155604082015181600201908051906020019061262d929190613864565b50606082015181600301908051906020019061264a929190613864565b506080820151816004019080519060200190612667929190613864565b5060a0820151816005019080519060200190612684929190613864565b5060c08201518160060160006101000a81548173ffffffffffffffffffffffffffffffffffffffff021916908373ffffffffffffffffffffffffffffffffffffffff16021790555060e08201518160070160006101000a81548173ffffffffffffffffffffffffffffffffffffffff021916908373ffffffffffffffffffffffffffffffffffffffff1602179055505050600660008773ffffffffffffffffffffffffffffffffffffffff1673ffffffffffffffffffffffffffffffffffffffff1681526020019081526020016000208160000151908060018154018082558091505060019003906000526020600020016000909190919091505560006001888154811061279557612794614cf1565b5b906000526020600020906009020160405180610160016040529081600082015481526020016001820160009054906101000a900473ffffffffffffffffffffffffffffffffffffffff1673ffffffffffffffffffffffffffffffffffffffff1673ffffffffffffffffffffffffffffffffffffffff16815260200160028201805461281f90614d4f565b80601f016020809104026020016040519081016040528092919081815260200182805461284b90614d4f565b80156128985780601f1061286d57610100808354040283529160200191612898565b820191906000526020600020905b81548152906001019060200180831161287b57829003601f168201915b505050505081526020016003820180546128b190614d4f565b80601f01602080910402602001604051908101604052809291908181526020018280546128dd90614d4f565b801561292a5780601f106128ff5761010080835404028352916020019161292a565b820191906000526020600020905b81548152906001019060200180831161290d57829003601f168201915b5050505050815260200160048201805461294390614d4f565b80601f016020809104026020016040519081016040528092919081815260200182805461296f90614d4f565b80156129bc5780601f10612991576101008083540402835291602001916129bc565b820191906000526020600020905b81548152906001019060200180831161299f57829003601f168201915b505050505081526020016005820180546129d590614d4f565b80601f0160208091040260200160405190810160405280929190818152602001828054612a0190614d4f565b8015612a4e5780601f10612a2357610100808354040283529160200191612a4e565b820191906000526020600020905b815481529060010190602001808311612a3157829003601f168201915b505050505081526020016006820160009054906101000a900460ff166003811115612a7c57612a7b613f22565b5b6003811115612a8e57612a8d613f22565b5b81526020016006820160019054906101000a900460ff166002811115612ab757612ab6613f22565b5b6002811115612ac957612ac8613f22565b5b81526020016006820160029054906101000a900460ff166002811115612af257612af1613f22565b5b6002811115612b0457612b03613f22565b5b815260200160078201548152602001600882018054612b2290614d4f565b80601f0160208091040260200160405190810160405280929190818152602001828054612b4e90614d4f565b8015612b9b5780601f10612b7057610100808354040283529160200191612b9b565b820191906000526020600020905b815481529060010190602001808311612b7e57829003601f168201915b50505050508152505090508160000151816101200181815250508060018981548110612bca57612bc9614cf1565b5b90600052602060002090600902016000820151816000015560208201518160010160006101000a81548173ffffffffffffffffffffffffffffffffffffffff021916908373ffffffffffffffffffffffffffffffffffffffff1602179055506040820151816002019080519060200190612c45929190613864565b506060820151816003019080519060200190612c62929190613864565b506080820151816004019080519060200190612c7f929190613864565b5060a0820151816005019080519060200190612c9c929190613864565b5060c08201518160060160006101000a81548160ff02191690836003811115612cc857612cc7613f22565b5b021790555060e08201518160060160016101000a81548160ff02191690836002811115612cf857612cf7613f22565b5b02179055506101008201518160060160026101000a81548160ff02191690836002811115612d2957612d28613f22565b5b02179055506101208201518160070155610140820151816008019080519060200190612d56929190613864565b509050507e494c81a93fd8df13d923d73c93e872db4f00090d204b824064d00fb4759f5187338460000151604051612d9093929190614fa7565b60405180910390a1819250505095945050505050565b612dae613818565b6000600360008473ffffffffffffffffffffffffffffffffffffffff1673ffffffffffffffffffffffffffffffffffffffff1681526020019081526020016000206040518060c00160405290816000820160009054906101000a900473ffffffffffffffffffffffffffffffffffffffff1673ffffffffffffffffffffffffffffffffffffffff1673ffffffffffffffffffffffffffffffffffffffff168152602001600182018054612e6090614d4f565b80601f0160208091040260200160405190810160405280929190818152602001828054612e8c90614d4f565b8015612ed95780601f10612eae57610100808354040283529160200191612ed9565b820191906000526020600020905b815481529060010190602001808311612ebc57829003601f168201915b50505050508152602001600282018054612ef290614d4f565b80601f0160208091040260200160405190810160405280929190818152602001828054612f1e90614d4f565b8015612f6b5780601f10612f4057610100808354040283529160200191612f6b565b820191906000526020600020905b815481529060010190602001808311612f4e57829003601f168201915b50505050508152602001600382018054612f8490614d4f565b80601f0160208091040260200160405190810160405280929190818152602001828054612fb090614d4f565b8015612ffd5780601f10612fd257610100808354040283529160200191612ffd565b820191906000526020600020905b815481529060010190602001808311612fe057829003601f168201915b5050505050815260200160048201805461301690614d4f565b80601f016020809104026020016040519081016040528092919081815260200182805461304290614d4f565b801561308f5780601f106130645761010080835404028352916020019161308f565b820191906000526020600020905b81548152906001019060200180831161307257829003601f168201915b50505050508152602001600582015481525050905080915050919050565b6130b56138ea565b8460028054905081106130fd576040517f08c379a00000000000000000000000000000000000000000000000000000000081526004016130f490614dcd565b60405180910390fd5b600073ffffffffffffffffffffffffffffffffffffffff16600460003373ffffffffffffffffffffffffffffffffffffffff1673ffffffffffffffffffffffffffffffffffffffff16815260200190815260200160002060000160009054906101000a900473ffffffffffffffffffffffffffffffffffffffff1673ffffffffffffffffffffffffffffffffffffffff1614156131cf576040517f08c379a00000000000000000000000000000000000000000000000000000000081526004016131c690614cd1565b60405180910390fd5b6000600287815481106131e5576131e4614cf1565b5b906000526020600020906008020160405180610100016040529081600082015481526020016001820154815260200160028201805461322390614d4f565b80601f016020809104026020016040519081016040528092919081815260200182805461324f90614d4f565b801561329c5780601f106132715761010080835404028352916020019161329c565b820191906000526020600020905b81548152906001019060200180831161327f57829003601f168201915b505050505081526020016003820180546132b590614d4f565b80601f01602080910402602001604051908101604052809291908181526020018280546132e190614d4f565b801561332e5780601f106133035761010080835404028352916020019161332e565b820191906000526020600020905b81548152906001019060200180831161331157829003601f168201915b5050505050815260200160048201805461334790614d4f565b80601f016020809104026020016040519081016040528092919081815260200182805461337390614d4f565b80156133c05780601f10613395576101008083540402835291602001916133c0565b820191906000526020600020905b8154815290600101906020018083116133a357829003601f168201915b505050505081526020016005820180546133d990614d4f565b80601f016020809104026020016040519081016040528092919081815260200182805461340590614d4f565b80156134525780601f1061342757610100808354040283529160200191613452565b820191906000526020600020905b81548152906001019060200180831161343557829003601f168201915b505050505081526020016006820160009054906101000a900473ffffffffffffffffffffffffffffffffffffffff1673ffffffffffffffffffffffffffffffffffffffff1673ffffffffffffffffffffffffffffffffffffffff1681526020016007820160009054906101000a900473ffffffffffffffffffffffffffffffffffffffff1673ffffffffffffffffffffffffffffffffffffffff1673ffffffffffffffffffffffffffffffffffffffff16815250509050848660a00181905250856002888154811061352757613526614cf1565b5b906000526020600020906008020160008201518160000155602082015181600101556040820151816002019080519060200190613565929190613864565b506060820151816003019080519060200190613582929190613864565b50608082015181600401908051906020019061359f929190613864565b5060a08201518160050190805190602001906135bc929190613864565b5060c08201518160060160006101000a81548173ffffffffffffffffffffffffffffffffffffffff021916908373ffffffffffffffffffffffffffffffffffffffff16021790555060e08201518160070160006101000a81548173ffffffffffffffffffffffffffffffffffffffff021916908373ffffffffffffffffffffffffffffffffffffffff1602179055509050507fb2425fd63b8e5e3d2626dd510012c35043486569b145edafe9a5d2f884f55af1878288876040516136839493929190614fde565b60405180910390a18592505050949350505050565b6136a0613982565b6000600460003373ffffffffffffffffffffffffffffffffffffffff1673ffffffffffffffffffffffffffffffffffffffff1681526020019081526020016000206040518060600160405290816000820160009054906101000a900473ffffffffffffffffffffffffffffffffffffffff1673ffffffffffffffffffffffffffffffffffffffff1673ffffffffffffffffffffffffffffffffffffffff16815260200160018201805461375290614d4f565b80601f016020809104026020016040519081016040528092919081815260200182805461377e90614d4f565b80156137cb5780601f106137a0576101008083540402835291602001916137cb565b820191906000526020600020905b8154815290600101906020018083116137ae57829003601f168201915b505050505081526020016002820160009054906101000a900460ff1660038111156137f9576137f8613f22565b5b600381111561380b5761380a613f22565b5b8152505090508091505090565b6040518060c00160405280600073ffffffffffffffffffffffffffffffffffffffff16815260200160608152602001606081526020016060815260200160608152602001600081525090565b82805461387090614d4f565b90600052602060002090601f01602090048101928261389257600085556138d9565b82601f106138ab57805160ff19168380011785556138d9565b828001600101855582156138d9579182015b828111156138d85782518255916020019190600101906138bd565b5b5090506138e69190613a71565b5090565b604051806101000160405280600081526020016000815260200160608152602001606081526020016060815260200160608152602001600073ffffffffffffffffffffffffffffffffffffffff168152602001600073ffffffffffffffffffffffffffffffffffffffff1681525090565b60405180608001604052806004905b606081526020019060019003908161396a5790505090565b6040518060600160405280600073ffffffffffffffffffffffffffffffffffffffff16815260200160608152602001600060038111156139c5576139c4613f22565b5b81525090565b60405180610160016040528060008152602001600073ffffffffffffffffffffffffffffffffffffffff1681526020016060815260200160608152602001606081526020016060815260200160006003811115613a2b57613a2a613f22565b5b815260200160006002811115613a4457613a43613f22565b5b815260200160006002811115613a5d57613a5c613f22565b5b815260200160008152602001606081525090565b5b80821115613a8a576000816000905550600101613a72565b5090565b6000604051905090565b600080fd5b600080fd5b600080fd5b600080fd5b6000601f19601f8301169050919050565b7f4e487b7100000000000000000000000000000000000000000000000000000000600052604160045260246000fd5b613af582613aac565b810181811067ffffffffffffffff82111715613b1457613b13613abd565b5b80604052505050565b6000613b27613a8e565b9050613b338282613aec565b919050565b600067ffffffffffffffff821115613b5357613b52613abd565b5b613b5c82613aac565b9050602081019050919050565b82818337600083830152505050565b6000613b8b613b8684613b38565b613b1d565b905082815260208101848484011115613ba757613ba6613aa7565b5b613bb2848285613b69565b509392505050565b600082601f830112613bcf57613bce613aa2565b5b8135613bdf848260208601613b78565b91505092915050565b60008060008060808587031215613c0257613c01613a98565b5b600085013567ffffffffffffffff811115613c2057613c1f613a9d565b5b613c2c87828801613bba565b945050602085013567ffffffffffffffff811115613c4d57613c4c613a9d565b5b613c5987828801613bba565b935050604085013567ffffffffffffffff811115613c7a57613c79613a9d565b5b613c8687828801613bba565b925050606085013567ffffffffffffffff811115613ca757613ca6613a9d565b5b613cb387828801613bba565b91505092959194509250565b600073ffffffffffffffffffffffffffffffffffffffff82169050919050565b6000613cea82613cbf565b9050919050565b613cfa81613cdf565b82525050565b600081519050919050565b600082825260208201905092915050565b60005b83811015613d3a578082015181840152602081019050613d1f565b83811115613d49576000848401525b50505050565b6000613d5a82613d00565b613d648185613d0b565b9350613d74818560208601613d1c565b613d7d81613aac565b840191505092915050565b6000819050919050565b613d9b81613d88565b82525050565b600060c083016000830151613db96000860182613cf1565b5060208301518482036020860152613dd18282613d4f565b91505060408301518482036040860152613deb8282613d4f565b91505060608301518482036060860152613e058282613d4f565b91505060808301518482036080860152613e1f8282613d4f565b91505060a0830151613e3460a0860182613d92565b508091505092915050565b60006020820190508181036000830152613e598184613da1565b905092915050565b613e6a81613d88565b8114613e7557600080fd5b50565b600081359050613e8781613e61565b92915050565b600060208284031215613ea357613ea2613a98565b5b6000613eb184828501613e78565b91505092915050565b613ec381613d88565b82525050565b613ed281613cdf565b82525050565b600082825260208201905092915050565b6000613ef482613d00565b613efe8185613ed8565b9350613f0e818560208601613d1c565b613f1781613aac565b840191505092915050565b7f4e487b7100000000000000000000000000000000000000000000000000000000600052602160045260246000fd5b60048110613f6257613f61613f22565b5b50565b6000819050613f7382613f51565b919050565b6000613f8382613f65565b9050919050565b613f9381613f78565b82525050565b60038110613faa57613fa9613f22565b5b50565b6000819050613fbb82613f99565b919050565b6000613fcb82613fad565b9050919050565b613fdb81613fc0565b82525050565b60038110613ff257613ff1613f22565b5b50565b600081905061400382613fe1565b919050565b600061401382613ff5565b9050919050565b61402381614008565b82525050565b60006101608201905061403f600083018e613eba565b61404c602083018d613ec9565b818103604083015261405e818c613ee9565b90508181036060830152614072818b613ee9565b90508181036080830152614086818a613ee9565b905081810360a083015261409a8189613ee9565b90506140a960c0830188613f8a565b6140b660e0830187613fd2565b6140c461010083018661401a565b6140d2610120830185613eba565b8181036101408301526140e58184613ee9565b90509c9b505050505050505050505050565b600060208201905061410c6000830184613eba565b92915050565b60006101008301600083015161412b6000860182613d92565b50602083015161413e6020860182613d92565b50604083015184820360408601526141568282613d4f565b915050606083015184820360608601526141708282613d4f565b9150506080830151848203608086015261418a8282613d4f565b91505060a083015184820360a08601526141a48282613d4f565b91505060c08301516141b960c0860182613cf1565b5060e08301516141cc60e0860182613cf1565b508091505092915050565b600060208201905081810360008301526141f18184614112565b905092915050565b61420281613cdf565b811461420d57600080fd5b50565b60008135905061421f816141f9565b92915050565b60006020828403121561423b5761423a613a98565b5b600061424984828501614210565b91505092915050565b60006060820190506142676000830186613ec9565b81810360208301526142798185613ee9565b90506142886040830184613f8a565b949350505050565b600080604083850312156142a7576142a6613a98565b5b60006142b585828601614210565b92505060206142c685828601613e78565b9150509250929050565b600060049050919050565b600081905092915050565b6000819050919050565b60006142fc8383613d4f565b905092915050565b6000602082019050919050565b600061431c826142d0565b61432681856142db565b935083602082028501614338856142e6565b8060005b85811015614374578484038952815161435585826142f0565b945061436083614304565b925060208a0199505060018101905061433c565b50829750879550505050505092915050565b600060208201905081810360008301526143a08184614311565b905092915050565b6000610100820190506143be600083018b613eba565b6143cb602083018a613eba565b81810360408301526143dd8189613ee9565b905081810360608301526143f18188613ee9565b905081810360808301526144058187613ee9565b905081810360a08301526144198186613ee9565b905061442860c0830185613ec9565b61443560e0830184613ec9565b9998505050505050505050565b6004811061444f57600080fd5b50565b60008135905061446181614442565b92915050565b6000806040838503121561447e5761447d613a98565b5b600083013567ffffffffffffffff81111561449c5761449b613a9d565b5b6144a885828601613bba565b92505060206144b985828601614452565b9150509250929050565b6144cc81613f78565b82525050565b60006060830160008301516144ea6000860182613cf1565b50602083015184820360208601526145028282613d4f565b915050604083015161451760408601826144c3565b508091505092915050565b6000602082019050818103600083015261453c81846144d2565b905092915050565b6003811061455157600080fd5b50565b60008135905061456381614544565b92915050565b60008060008060008060c0878903121561458657614585613a98565b5b600061459489828a01614452565b965050602087013567ffffffffffffffff8111156145b5576145b4613a9d565b5b6145c189828a01613bba565b955050604087013567ffffffffffffffff8111156145e2576145e1613a9d565b5b6145ee89828a01613bba565b945050606087013567ffffffffffffffff81111561460f5761460e613a9d565b5b61461b89828a01613bba565b935050608061462c89828a01614554565b92505060a087013567ffffffffffffffff81111561464d5761464c613a9d565b5b61465989828a01613bba565b9150509295509295509295565b61466f81613fc0565b82525050565b61467e81614008565b82525050565b60006101608301600083015161469d6000860182613d92565b5060208301516146b06020860182613cf1565b50604083015184820360408601526146c88282613d4f565b915050606083015184820360608601526146e28282613d4f565b915050608083015184820360808601526146fc8282613d4f565b91505060a083015184820360a08601526147168282613d4f565b91505060c083015161472b60c08601826144c3565b5060e083015161473e60e0860182614666565b50610100830151614753610100860182614675565b50610120830151614768610120860182613d92565b506101408301518482036101408601526147828282613d4f565b9150508091505092915050565b600060208201905081810360008301526147a98184614684565b905092915050565b600060c0820190506147c66000830189613ec9565b81810360208301526147d88188613ee9565b905081810360408301526147ec8187613ee9565b905081810360608301526148008186613ee9565b905081810360808301526148148185613ee9565b905061482360a0830184613eba565b979650505050505050565b600081519050919050565b600082825260208201905092915050565b6000819050602082019050919050565b60006148668383613d92565b60208301905092915050565b6000602082019050919050565b600061488a8261482e565b6148948185614839565b935061489f8361484a565b8060005b838110156148d05781516148b7888261485a565b97506148c283614872565b9250506001810190506148a3565b5085935050505092915050565b600060208201905081810360008301526148f7818461487f565b905092915050565b600080600080600060a0868803121561491b5761491a613a98565b5b600061492988828901613e78565b955050602061493a88828901614210565b945050604086013567ffffffffffffffff81111561495b5761495a613a9d565b5b61496788828901613bba565b935050606086013567ffffffffffffffff81111561498857614987613a9d565b5b61499488828901613bba565b925050608086013567ffffffffffffffff8111156149b5576149b4613a9d565b5b6149c188828901613bba565b9150509295509295909350565b600080fd5b600080fd5b600061010082840312156149ef576149ee6149ce565b5b6149fa610100613b1d565b90506000614a0a84828501613e78565b6000830152506020614a1e84828501613e78565b602083015250604082013567ffffffffffffffff811115614a4257614a416149d3565b5b614a4e84828501613bba565b604083015250606082013567ffffffffffffffff811115614a7257614a716149d3565b5b614a7e84828501613bba565b606083015250608082013567ffffffffffffffff811115614aa257614aa16149d3565b5b614aae84828501613bba565b60808301525060a082013567ffffffffffffffff811115614ad257614ad16149d3565b5b614ade84828501613bba565b60a08301525060c0614af284828501614210565b60c08301525060e0614b0684828501614210565b60e08301525092915050565b60008060008060808587031215614b2c57614b2b613a98565b5b6000614b3a87828801613e78565b945050602085013567ffffffffffffffff811115614b5b57614b5a613a9d565b5b614b67878288016149d8565b935050604085013567ffffffffffffffff811115614b8857614b87613a9d565b5b614b9487828801613bba565b925050606085013567ffffffffffffffff811115614bb557614bb4613a9d565b5b614bc187828801613bba565b91505092959194509250565b7f54686973206164647265737320697320616c726561647920726567697374657260008201527f6564000000000000000000000000000000000000000000000000000000000000602082015250565b6000614c29602283613ed8565b9150614c3482614bcd565b604082019050919050565b60006020820190508181036000830152614c5881614c1c565b9050919050565b7f4f6e6c792061646d696e732063616e20706572666f726d20746869732061637460008201527f696f6e0000000000000000000000000000000000000000000000000000000000602082015250565b6000614cbb602383613ed8565b9150614cc682614c5f565b604082019050919050565b60006020820190508181036000830152614cea81614cae565b9050919050565b7f4e487b7100000000000000000000000000000000000000000000000000000000600052603260045260246000fd5b7f4e487b7100000000000000000000000000000000000000000000000000000000600052602260045260246000fd5b60006002820490506001821680614d6757607f821691505b60208210811415614d7b57614d7a614d20565b5b50919050565b7f446f63756d656e7420646f6573206e6f74206578697374000000000000000000600082015250565b6000614db7601783613ed8565b9150614dc282614d81565b602082019050919050565b60006020820190508181036000830152614de681614daa565b9050919050565b7f596f7520617265206e6f7420616c6c6f77656420746f20706572666f726d207460008201527f68697320616374696f6e00000000000000000000000000000000000000000000602082015250565b6000614e49602a83613ed8565b9150614e5482614ded565b604082019050919050565b60006020820190508181036000830152614e7881614e3c565b9050919050565b7f4e487b7100000000000000000000000000000000000000000000000000000000600052601160045260246000fd5b6000614eb982613d88565b9150614ec483613d88565b9250827fffffffffffffffffffffffffffffffffffffffffffffffffffffffffffffffff03821115614ef957614ef8614e7f565b5b828201905092915050565b6000606082019050614f196000830186613ec9565b614f266020830185613eba565b614f336040830184613f8a565b949350505050565b7f55736572206973206e6f74207265676973746572656400000000000000000000600082015250565b6000614f71601683613ed8565b9150614f7c82614f3b565b602082019050919050565b60006020820190508181036000830152614fa081614f64565b9050919050565b6000606082019050614fbc6000830186613ec9565b614fc96020830185613ec9565b614fd66040830184613eba565b949350505050565b6000608082019050614ff36000830187613eba565b81810360208301526150058186614112565b905081810360408301526150198185614112565b9050818103606083015261502d8184613ee9565b90509594505050505056fe554e49515545204944454e54494649434154494f4e20415554484f52495459204f4620494e444941a26469706673582212203f9d1aa5bd84d004b2991a1d232c74b3992a6d5e2746df28187996d4ac57fd9164736f6c634300080b0033",
  "immutableReferences": {},
  "source": "// SPDX-License-Identifier: MIT\r\npragma solidity >=0.4.22 <0.9.0;\r\n\r\ncontract DeDocs {\r\n\r\n  enum ROLE{\r\n    ADMIN,\r\n    USER\r\n  }\r\n\r\n  enum DEPARTMENT{\r\n    UNIQUE_IDENTIFICATION_AUTHORITY_OF_INDIA,\r\n    INCOME_TAX,\r\n    MUNICIPAL_CORPORATION,\r\n    STATE_TRANSPORT_DEPARTMENT\r\n  }\r\n\r\n  enum REQUEST_CATEGORY{\r\n    ISSUE,\r\n    UPDATE,\r\n    RECTIFY\r\n  }\r\n\r\n  enum REQUEST_STATUS{\r\n    PENDING,\r\n    SUCCESS,\r\n    REJECTED\r\n  }\r\n\r\n  struct Admin{\r\n    address id;\r\n    string name;\r\n    DEPARTMENT department;\r\n  }\r\n  \r\n  struct User{\r\n    address id;\r\n    string name;\r\n    string dob;\r\n    string password;    \r\n    string joined;\r\n    uint total_requests;\r\n  }\r\n\r\n  struct Request{\r\n    uint id;\r\n    address user_id;\r\n    string subject;\r\n    string description;\r\n    string ipfs_hash;\r\n    string date;\r\n    DEPARTMENT department;\r\n    REQUEST_CATEGORY category;\r\n    REQUEST_STATUS status;\r\n    uint document_id;\r\n    string remarks;\r\n  }\r\n\r\n  struct Document{\r\n    uint id;\r\n    uint request_id;\r\n    string name;\r\n    string ipfs_hash;\r\n    string issued_on;\r\n    string last_updated;\r\n    address admin;\r\n    address user;\r\n  }\r\n\r\n  event DeDocs_deployed(string message);\r\n  event Request_made(address user, uint request_id, DEPARTMENT department);\r\n  event Document_issued(address user, address admin, uint document_id);\r\n  event Document_modified(uint document_id, Document old_document, Document new_document, string message);\r\n\r\n  uint public total_requests = 0;\r\n\r\n  Request[] public all_requests;\r\n\r\n  Document[] public all_documents; //array to store all the documents of the system\r\n  mapping(address => User) public users; // mapping of user address to user data \r\n  mapping(address => Admin) public admins; //mapping of admin address to admin data\r\n  mapping(address => uint256[]) public requests; //mapping of the user addess to all the requests made by that address\r\n  mapping(address => uint256[]) public documents; // mapping of the user address to their documents\r\n  \r\n\r\n  modifier is_admin(){\r\n    require(admins[msg.sender].id != address(0x0),\"Only admins can perform this action\");\r\n    _;\r\n  }\r\n\r\n  modifier is_existent(uint _document_id){\r\n    require(_document_id < all_documents.length, \"Document does not exist\");\r\n    _;\r\n  }\r\n\r\n  modifier is_allowed(uint _document_id){\r\n    require(admins[msg.sender].id != address(0x0) || all_documents[_document_id].user == msg.sender, \"You are not allowed to perform this action\");\r\n    _;\r\n  }\r\n\r\n  constructor()  {\r\n      emit DeDocs_deployed(\"Contract deployed successfully\");\r\n  }\r\n\r\n  function register_user(string memory _name, string memory _dob, string memory _password, string memory _joined) payable public returns (User memory){\r\n\r\n    require(users[msg.sender].id == address(0x0),\"This address is already registered\");\r\n\r\n    User memory _user;\r\n    _user.id = msg.sender;\r\n    _user.name = _name;\r\n    _user.dob = _dob;\r\n    _user.password = _password;\r\n    _user.joined = _joined;\r\n    _user.total_requests = 0;\r\n\r\n    users[msg.sender] = _user;\r\n\r\n    return _user;\r\n  }\r\n\r\n  function register_admin(string memory _name, DEPARTMENT _department) payable public returns (Admin memory){\r\n\r\n    require(admins[msg.sender].id == address(0x0),\"This address is already registered\");\r\n\r\n    Admin memory _admin;\r\n    _admin.id = msg.sender;\r\n    _admin.name = _name;\r\n    _admin.department = _department;\r\n\r\n    admins[msg.sender] = _admin;\r\n\r\n    return _admin;\r\n  }\r\n\r\n  function get_departments() public pure returns(string[4] memory departments){\r\n    string[4] memory _departments = [\"UNIQUE IDENTIFICATION AUTHORITY OF INDIA\",\"INCOME TAX\",\"MUNICIPAL CORPORATION\",\"STATE TRANSPORTD EPARTMENT\"];\r\n    return _departments;\r\n  }\r\n\r\n  /***********************************  USER FUNCTIONS  *********************************/\r\n\r\n  function get_user_details(address _address) public view returns(User memory user){\r\n    User memory _user = users[_address];\r\n    return _user;\r\n  }\r\n\r\n  function get_user_requests() public view returns(uint256[] memory _requests){\r\n\r\n    uint256[] memory _my_requests = requests[msg.sender];\r\n    return _my_requests;\r\n    \r\n  }\r\n\r\n  function make_request(DEPARTMENT _department,  string memory _subject, string memory _description, string memory _ipfs_hash, REQUEST_CATEGORY _request_category, string memory _date) public payable returns(Request memory){\r\n\r\n    Request memory request;\r\n\r\n    request.id = total_requests;\r\n    request.user_id = msg.sender;\r\n    request.subject = _subject;\r\n    request.description = _description;\r\n    request.ipfs_hash = _ipfs_hash;\r\n    request.date = _date;\r\n    request.department = _department;\r\n    request.category = _request_category;\r\n    request.status = REQUEST_STATUS.PENDING;\r\n\r\n    all_requests.push(request);\r\n    total_requests += 1;\r\n\r\n    emit Request_made(msg.sender, request.id, _department);\r\n\r\n    return request;\r\n  }\r\n\r\n\r\n  /********************************ADMIN FUNCTIONS********************************/\r\n\r\n  function get_admin_details() public view returns(Admin memory admin){\r\n    Admin memory _admin = admins[msg.sender];\r\n    return _admin;\r\n  }\r\n\r\n  function get_document (uint _document_id) is_existent(_document_id) is_allowed(_document_id) public view returns (Document memory){\r\n    Document memory _document = all_documents[_document_id];\r\n    return _document;\r\n  }\r\n\r\n  function approve_request(uint _request_id) is_admin public payable{\r\n    Request memory _request = all_requests[_request_id];\r\n    _request.status = REQUEST_STATUS.SUCCESS;\r\n    all_requests[_request_id] = _request;\r\n  }\r\n\r\n  function issue_document(uint _request_id, address _userAddress, string memory _name, string memory _ipfs_hash, string memory _issued_on) is_admin public payable returns(Document memory){\r\n    \r\n    //check if user is registered\r\n    require(users[_userAddress].id != address(0x0),\"User is not registered\");\r\n\r\n    //create a new document instance\r\n    Document memory _document;\r\n    _document.id = all_documents.length;\r\n    _document.name = _name;\r\n    _document.ipfs_hash = _ipfs_hash;\r\n    _document.issued_on = _issued_on;\r\n    _document.user = _userAddress;\r\n    _document.admin = msg.sender;\r\n\r\n    //insert the document to the records\r\n    all_documents.push(_document);\r\n    documents[_userAddress].push(_document.id);\r\n\r\n    //update the request\r\n    Request memory _request = all_requests[_request_id];\r\n    _request.document_id = _document.id;\r\n    all_requests[_request_id] = _request;\r\n\r\n    emit Document_issued(_userAddress, msg.sender, _document.id);\r\n\r\n    return _document;\r\n  }\r\n\r\n\r\n  function modify_document(uint _document_id, Document memory _new_document, string memory _last_updated, string memory _message) is_existent(_document_id) is_admin public payable returns(Document memory){\r\n    \r\n    //Get the current version of the document\r\n    Document memory _old_document = all_documents[_document_id];\r\n\r\n    //update the document\r\n    _new_document.last_updated = _last_updated;\r\n    all_documents[_document_id] = _new_document;\r\n\r\n    emit Document_modified(_document_id, _old_document, _new_document, _message);\r\n\r\n    return _new_document;\r\n  }\r\n\r\n\r\n}\r\n",
  "sourcePath": "C:\\Users\\Kailash\\Desktop\\summer project\\backend\\contracts\\DeDocs.sol",
  "compiler": {
    "name": "solc",
    "version": "0.8.11+commit.d7f03943.Emscripten.clang"
  },
  "schemaVersion": "3.4.5",
  "updatedAt": "2022-06-22T14:08:36.732Z",
  "networkType": "ethereum",
  "devdoc": {
    "kind": "dev",
    "methods": {},
    "version": 1
  },
  "userdoc": {
    "kind": "user",
    "methods": {},
    "version": 1
  }
}